:020000040001F9
:10F00000204D002015F201001DF201001FF2010049
:10F0100021F2010023F2010025F2010000000000AE
:10F0200000000000000000000000000027F20100C6
:10F0300029F20100000000002BF201002DF2010076
:10F04000A1F501002FF2010019F9010025F60100D8
:10F0500039F601002FF2010021F301002FF2010027
:10F060002FF201002FF201002FF201002FF2010018
:10F070002FF201002FF201002FF201002FF2010008
:10F080002FF20100F1F501002FF201002FF2010033
:10F090004DF601002FF2010055F601002FF201009C
:10F0A0002FF201002FF201002FF201002FF20100D8
:10F0B0002FF201002FF2010000000000000000000C
:10F0C0002FF201002FF201002FF201002FF20100B8
:10F0D0002FF201002FF201002FF2010000000000CA
:10F0E0000000000000000000000000000000000020
:10F0F0000000000000000000000000000000000010
:10F1000000000000000000000000000000000000FF
:10F1100000000000000000000000000000000000EF
:10F1200000000000000000000000000000000000DF
:10F1300000000000000000000000000000000000CF
:10F1400000000000000000000000000000000000BF
:10F1500000000000000000000000000000000000AF
:10F16000000000000000000000000000000000009F
:10F17000000000000000000000000000000000008F
:10F18000000000000000000000000000000000007F
:10F19000000000000000000000000000000000006F
:10F1A000000000000000000000000000000000005F
:10F1B000000000000000000000000000000000004F
:10F1C000000000000000000000000000000000003F
:10F1D000000000000000000000000000000000002F
:10F1E000000000000000000000000000000000001F
:10F1F000000000000000000000000000000000000F
:10F20000DFF80CD000F07AF80048004785090200CA
:10F21000204D00200648804706480047FEE7FEE7ED
:10F22000FEE7FEE7FEE7FEE7FEE7FEE7FEE7FEE7B6
:10F2300095F6010001F201002DE9F05F054600207E
:10F2400092469B4688460646814640241BE0284657
:10F2500041464746224600F041F853465A46C01AF6
:10F26000914110D311461846224600F028F82D1A75
:10F2700067EB01084F4622460120002100F01FF8ED
:10F2800017EB00094E41201EA4F10104DFDC4846C3
:10F2900031462A464346BDE8F09F40EA01039B07FA
:10F2A00003D009E008C9121F08C0042AFAD203E0FB
:10F2B00011F8013B00F8013B521EF9D27047202A99
:10F2C00004DB203A00FA02F1002070479140C2F1BD
:10F2D000200320FA03F3194390407047202A04DBEF
:10F2E000203A21FA02F00021704721FA02F3D040BF
:10F2F000C2F120029140084319467047064C074D61
:10F3000006E0E06840F0010394E8070098471034F5
:10F31000AC42F6D3FFF778FFBC2F0200DC2F0200CF
:10F320002DE9F04F89B04FF00008002008904FF40D
:10F33000807007900126002413E0079802F0D2FEA7
:10F3400048B100BF81480068304020B1079802F002
:10F35000BBFE48EA060876000798001D80B20790B9
:10F36000641C082CE9D34FF4BE7002F0BBFE50B110
:10F370004FF4BE7002F0A8FE48F0004808AA012130
:10F38000002002F087FE08F0FF0000B301260024F1
:10F390001BE006EA0800B0B100BF6D4850F8240039
:10F3A000C0F30420074600BF694850F82400C0F3AA
:10F3B00001408146204600F0EFFE054615B1494662
:10F3C0003846A84700BF7600641C082CE1D308F03B
:10F3D000004000287ED0002006900590002505E022
:10F3E0004FF0FF3004A941F825006D1C002DF7D027
:10F3F00000BF0020069000246FE05648005D039097
:10F40000039820F0C00753480057401C002863D0E1
:10F4100004A9384602F07EF900285DD003984FEA2F
:10F42000901A384600F0C0FE814600F0B5FE02900A
:10F43000029810B9BAF1030F4BD1BAF1030F11D1F1
:10F44000394605A80246CB0801F0070112F803C0AF
:10F450004FF0010E0EFA01FE4CEA0E0C02F803C04A
:10F4600000BF00BF00BF00BF4FF0A041084600F53D
:10F47000E06151F82710C1F3014900BF08A93846DF
:10F4800002F048F98346BBF1000F02D0B9F1020F38
:10F4900005D0BBF1000F1BD1B9F1030F18D1BAF1A0
:10F4A000030F0FD1B9F1020F01D1032000E00220B8
:10F4B00001903846019902F0B2FD0698401CC0B296
:10F4C000069000BF029818B151463846029A9047FC
:10F4D00000BF00E036E000BF641C042C8DD306980A
:10F4E00058B3012703AA0121002002F0D3FD002513
:10F4F0000AE003A850F8250008A951F82510884211
:10F5000001D0002702E06D1C002DF2D000BF17B122
:10F510000020069010E000250CE003A850F825001C
:10F5200008A941F8250005A850F8250004A941F8CC
:10F5300025006D1C002DF0D000BF069800287FF438
:10F5400058AF00BF09B0BDE8F08F00000463004071
:10F5500010650040B02B002000F01F0201219140F7
:10F56000024A430942F823107047000080E200E09D
:10F5700000F01F02012191404209920002F1E022B5
:10F58000C2F800117047000000F01F0201219140F5
:10F59000024A430942F823107047000000E200E0ED
:10F5A00010B54FF4807002F0C0F860B14FF4807075
:10F5B00002F0C4F8012002F0CBF801200B4948709A
:10F5C000002000F0F7FD4FF4827002F0AEF858B161
:10F5D0004FF4827002F0B2F8022002F0B9F8012074
:10F5E0000249887000F0E6FD10BD00004C2B0020A1
:10F5F00010B500200949086000210948C0F84411ED
:10F60000C0F84811C0F84C1100200549C1F80001AC
:10F6100002493C39086002F057FF10BD401101401B
:10F620000010014010B50249024801F09DF810BDDC
:10F63000FC2A00200030004010B503494FF0402064
:10F6400001F092F810BD0000242B002010B502F04C
:10F6500095FE10BD70B50A48006868B1084800689A
:10F660008047044600BF254625B100BF284600F06C
:10F67000F7FB00BF00BF01E000F0D4FF70BD000049
:10F680002826002001480249086070470090D003F6
:10F690004026002010B500F049FE28B18E480088B1
:10F6A000C0F304208D49086000F094FE10B18C482E
:10F6B0008C49486700F0A6FE30B18748E038006802
:10F6C000C0F342308849086000F0C6FE28B1874880
:10F6D000006820F080708549086000F0D5FE48B1D0
:10F6E0000020834908604FF08041C1F810017E4935
:10F6F000091F086000F0F2FE18B103207A49643156
:10F70000086000F003FF68B105207A490860012015
:10F7100078497831086000207649083108603F2038
:10F72000091F086000F00AFF002855D06A48E03041
:10F730000068714908606848E4300068091D086085
:10F740006548E8300068091D08606348EC300068CF
:10F75000091D08606048F0300068091D08605E48B7
:10F76000F4300068091D08605B48F83000686249A1
:10F77000203108605848FC300068091D08605F4867
:10F780000068091D08605D48001D0068091D0860CB
:10F790005A4808300068091D086058480C30006855
:10F7A000091D086055481030006853494031086011
:10F7B000524814300068091D08605048183000682D
:10F7C000091D08604D481C300068091D08604B4841
:10F7D00020300068091D086000F07EFD30B13E4811
:10F7E000CC38006800F04F004549086000F0C8FDC3
:10F7F00040B14448006800F0010018B16FF001000A
:10F800004049086039487438006840F4700037494E
:10F810007439086000BF00BF00BFBFF34F8F00BF47
:10F8200000BF00BF00BF00BF00BFBFF36F8F00BFAE
:10F8300000BF00BF3448006800F0004028B93248DB
:10F84000001D006800F00040F0B301202F4908605F
:10F8500000BF2F4800680028FBD015202A49086007
:10F8600000BF2B4800680028FBD015212648001D4A
:10F87000016000BF264800680028FBD00020234913
:10F88000086000BF224800680028FBD000BF00BF0E
:10F8900000BF00BF00BFBFF34F8F00BF00BF00BF5E
:10F8A0001248F038006800F4E0601A490843001D6F
:10F8B0000E49F039086000BF00BF00BFBFF34F8F93
:10F8C00000BF00BF00BF00E002E000BF00BFFDE7D7
:10F8D000FFF7D8FE10BD00002403001040350140A2
:10F8E0000DF0ADBA00C007403C050040FCED00E063
:10F8F0000C0100401056004020C5004024040010B8
:10F90000E40E0040000400400012001004E5014035
:10F9100000E401400000FA0510B50648007F20B160
:10F920000449054803F05BFA03E00249024803F08A
:10F93000B5F910BDB82B0020002000400FB4054BD6
:10F9400010B503A9044A029800F018F810BC5DF83D
:10F9500014FB0000150602002026002002E008C863
:10F96000121F08C1002AFAD170477047002001E039
:10F9700001C1121F002AFBD1704700002DE9FF4F83
:10F980008DB00F460546002606E025280BD0DDE9A0
:10F990000F1290476D1C761C28780028F5D111B005
:10F9A0003046BDE8F08F0024A246A1460122EC4972
:10F9B00000E0044315F8013F203B02FA03F008423F
:10F9C000F7D128782A2810D06FF02F022878A0F1DC
:10F9D0003001092914D80AEB8A0102EB410144F0F5
:10F9E000020400EB010A6D1CF0E701CF5FEA000A98
:10F9F00003D544F40054CAF1000A44F002046D1C1B
:10FA000028782E2817D115F8010F44F004042A286D
:10FA10000ED06FF02F022878A0F1300109290AD802
:10FA200009EB890102EB410100EB01096D1CF2E7D2
:10FA300057F8049B6D1C28786C280FD006DC4C28E6
:10FA400017D068280DD06A2814D104E0742810D08B
:10FA50007A280FD10DE044F400140AE044F4801435
:10FA600001E044F440146978814202D104F5801425
:10FA70006D1C6D1C2A786E2A1FD00CDC632A31D0D5
:10FA800004DC002A8BD0582A11D1A3E0642A68D064
:10FA9000692A0CD165E0732A2ED004DC6F2A73D05A
:10FAA000702A04D19BE0752A6FD0782A6ED0104658
:10FAB000DDE90F129047761C50E1C4F30250022892
:10FAC00006D0032809D0042801CF09D0066045E1FB
:10FAD00001CFF117C0E9006140E101CF06803DE1AF
:10FAE00006703BE117F8040B8DF8000000208DF83C
:10FAF0000100EB46012003E057F804BB4FF0FF3054
:10FB000061074FF0000102D40DE008F101018846C1
:10FB100049450FDA8045F8DB1BF808100029F4D1BD
:10FB200008E008F1010188468142FADB1BF8081061
:10FB30000029F6D1DDE90F23AAEB08008146214612
:10FB400000F036F9304400EB080604E0DDE90F125E
:10FB50001BF8010B9047B8F10108F7D2214648463F
:10FB6000F7E00A21C4F302534FF0000B0891022B77
:10FB700004D001CFC117032B09D00AE0FF1D27F0E5
:10FB80000707F7E8020108E032E01FE020E000B2DA
:10FB9000C117042B01D140B2C117031E71F100033C
:10FBA00007DA4FF0000CD0EB0C006CEB01012D23B9
:10FBB00002E0230504D52B238DF82430012303E034
:10FBC000E30701D02023F7E7984658E00A2110E028
:10FBD00010210EE010204FF0000B08900CE01021D7
:10FBE0004FF0000B44F004044FF00809089103E0C3
:10FBF00008214FF0000B0891C4F30253022B04D0EC
:10FC000001CF0021032B06D006E0FF1D27F00707D8
:10FC1000F7E8020103E080B2042B00D1C0B24FF03C
:10FC2000000823072BD5702A07D0DDF820C08CF000
:10FC3000100C5CEA0B0C05D00EE040238DF824304C
:10FC4000012308E050EA010306D030238DF8243068
:10FC50008DF8252002239846DDF820C08CF0080C92
:10FC60005CEA0B0C0BD150EA010301D1630706D506
:10FC700030238DF824304FF00108A9F10109582AEA
:10FC800004D038A20B9208AA0A920BE03AA2F9E734
:10FC90005B46089AFFF7D0FA0B9B9B5C0A9A521EB0
:10FCA0000A92137050EA0102F2D10A98ADEB0000FB
:10FCB00000F1200B600702D524F4803401E04FF0FE
:10FCC0000109D94502DDA9EB0B0000E0002000EBA3
:10FCD0000B0141440890AAEB010AE00306D4DDE9D8
:10FCE0000F232146504600F063F806444FF0000908
:10FCF00008E009A911F80900DDE90F12904709F1A0
:10FD00000109761CC145F4DBE0030CD5DDE90F23C6
:10FD10002146504600F04CF8064404E0DDE90F129D
:10FD200030209047761C0899481E08900029F5DC81
:10FD300008E00A980A990078491C0A91DDE90F1237
:10FD40009047761CBBF10001ABF1010BF1DC2146C1
:10FD50005046DDE90F2300F019F806446D1C1BE640
:10FD60000928010030313233343536373839616291
:10FD70006364656600000000303132333435363755
:10FD80003839414243444546000000002DE9F04126
:10FD9000044600251E461746880404D405E039466B
:10FDA0002020B0476D1C641EF9D52846BDE8F081BF
:10FDB0002DE9F041044600251E469046C80301D5B2
:10FDC000302700E02027880404D505E04146384666
:10FDD000B0476D1C641EF9D52846BDE8F0810000CF
:10FDE00012A1012002F0A0F914A1032002F09CF955
:10FDF00000BF00BF00BF00BF00BFBFF34F8F00BFF9
:10FE000000BF00BF1448006800F4E06013490843D5
:10FE1000001D1149086000BF00BF00BFBFF34F8F36
:10FE200000BF00BF00BF00BF00BFFDE73A45525210
:10FE30004F523A466174616C0D0A00003A494E46D1
:10FE40004F3A486974207765616B2068616E646C15
:10FE500065720D0A000000000CED00E00000FA05DC
:10FE60003EB50446002000900190029002946A463C
:10FE7000002144F20100FFF7B3FF3EBD70B5044618
:10FE80000D46204600F0AAFB28B12946204600F086
:10FE900099FB002070BD0520FCE7034609B90E2040
:10FEA000704712B1501E104008B10920F8E71960E0
:10FEB000501E988000209860D86000BFF0E770B5B1
:10FEC00004460D46204600F089FBA188884205D8EB
:10FED0002946204600F095FB002070BD0420FCE779
:10FEE0002DE9F04104460F48077821460E48FFF7F8
:10FEF000C5FF804697B100200A49087001220B49CE
:10FF00000B4801F04DFE054600BF2E4626B100BF4E
:10FF10003046FFF7A5FF00BF00BF00BF4046BDE869
:10FF2000F08100001E260020E42C00201D26002069
:10FF3000102600202DE9F04188B004460D461746F2
:10FF400098462E4807601DB9072008B0BDE8F0812B
:10FF5000A88882B22A482968FFF79FFF064600BF9B
:10FF60000EB13046F1E700BFA88982B22548A968E2
:10FF7000FFF793FF064600BF0EB13046E5E700BF2E
:10FF8000202221496846FFF788F960690690207CA5
:10FF900008B1012000E000208DF814008DF81C80CD
:10FFA000607C08B10E2000E000208DF81500E068AC
:10FFB0000290A06803902068019060680090134A46
:10FFC0006946134801F0AAFD064600BF0EB130464F
:10FFD000BBE700BF00200F4908702068401C58B1E3
:10FFE0009DF81D0010B90A4801F044FE01220A499B
:10FFF000074801F0D5FDA8E70020A6E71826002055
:020000040002F8
:10000000E42C0020F42C00209C2F02006D2B020019
:10001000102600201E2600201D26002070B5044654
:1000200021460B48FFF74BFF054675B9094801F01B
:10003000BBFF50B908490648FFF720FF28B9012245
:100040000549044801F0FAFE0546284670BD000047
:10005000F42C0020102600201C26002070B5054638
:100060000C462068401C28B1206802F007F8206880
:1000700001F0C9FF6068401C18B10021606801F000
:10008000B5FF28792D4901EB4010007F50B3286857
:10009000A169C0F8241500BF617D227D286841EA6E
:1000A0000203C0F86C3500BFD4E90012286802F0E2
:1000B000BDF8207D01283FD1A068401C18B1002167
:1000C000A06801F093FFE068401C28B1E06801F0EF
:1000D000D5FFE06801F097FFD4E90221286802F01B
:1000E00091F829E02868A169C0F8241500BF617D56
:1000F000227D286841EA0203C0F86C3500BFD4E9CC
:100100000012286802F065F8207D012814D1A0684B
:10011000401C18B10021A06801F068FFE068401C95
:1001200028B1E06801F0AAFFE06801F06CFFD4E9B3
:100130000221286802F036F870BD0000B82B0020BC
:1001400037B584B004460D4600BF14B90E2007B081
:1001500030BD00BFA08A4FF6FF71884201D0A07D5C
:1001600008B90820F3E7BDF818009B2801DD072037
:10017000EDE700200090019002900390A088ADF878
:100180000000039506A8029001208DF80200A08AC5
:100190006946A6DFDBE700000146024850F821006F
:1001A00070470000602B0020014601484056704710
:1001B000902B002070B505460DB9094C01E0084CA4
:1001C000083409E0204600F039FB064606B904E091
:1001D00028467168884700BFF4E700BF70BD000083
:1001E000542B00202DE9F04782461F480068002864
:1001F00036D01D480068056802F026F807461B48FF
:1002000004682146384602F0AEF8C61C184800784B
:1002100008B902F01FF8AE4201D2284600E030468D
:10022000044424F07F44204602F008F802F00CF861
:1002300080463946404602F096F800F103093946F7
:10024000204602F090F8814509D901F0FDFF814672
:1002500001F0F4FF2F2001F019FB02F081F901E019
:1002600002F016F8BDE8F087FC25002000260020EB
:100270000E260020014614480078144A1278904255
:100280001DD011480078401C0F4A107010460078AD
:10029000022801D1002010700D480B4A127850F846
:1002A000220008600B4A086812681044094A10606E
:1002B0001046006820F07F40106001207047002049
:1002C000086000BFFAE700000C2600200D26002081
:1002D000042600200026002013480078062820D19C
:1002E0001148001D007800F00F00D0B90E4808300A
:1002F000007800F0F000302801D1012070470A4852
:100300000830007800F0F000402801D10120F5E726
:1003100005480830007800F0F000502801D1012095
:10032000ECE70020EAE70000E00F00F01348007857
:10033000062820D11148001D007800F00F00D0B928
:100340000E480830007800F0F000302801D101207C
:1003500070470A480830007800F0F000402801D1CA
:100360000120F5E705480830007800F0F00050283B
:1003700001D10120ECE70020EAE70000E00F00F0E7
:1003800013480078062820D11148001D007800F09D
:100390000F00D0B90E480830007800F0F000302887
:1003A00001D1012070470A480830007800F0F000C1
:1003B000402801D10120F5E705480830007800F019
:1003C000F000502801D10120ECE70020EAE700000E
:1003D000E00F00F00A48007806280ED10848001DFA
:1003E000007800F00F0040B905480830007800F0B0
:1003F000F000302801D1012070470020FCE7000008
:10040000E00F00F013480078062820D11148001DA5
:10041000007800F00F00D0B90E480830007800F0E6
:10042000F000302801D1012070470A4808300078D8
:1004300000F0F000402801D10120F5E70548083020
:10044000007800F0F000502801D10120ECE70020F6
:10045000EAE70000E00F00F00A48007806280ED115
:100460000848001D007800F00F0040B9054808302A
:10047000007800F0F000302801D101207047002002
:10048000FCE70000E00F00F013480078062820D1B8
:100490001148001D007800F00F00D0B90E48083058
:1004A000007800F0F000302801D1012070470A48A0
:1004B0000830007800F0F000402801D10120F5E775
:1004C00005480830007800F0F000502801D10120E4
:1004D000ECE70020EAE70000E00F00F00A480078AF
:1004E00006280ED10848001D007800F00F0040B922
:1004F00005480830007800F0F000302801D10120D4
:1005000070470020FCE70000E00F00F00A48007888
:1005100006280ED10848001D007800F00F0040B9F1
:1005200005480830007800F0F000302801D10120A3
:1005300070470020FCE70000E00F00F00A48007858
:1005400006280ED10848001D007800F00F0040B9C1
:1005500005480830007800F0F000502801D1012053
:1005600070470020FCE70000E00F00F0F0B5034604
:1005700000241FE0124E306806689E4203D90668C8
:10058000F61A06601AE006689B1B066834440026CB
:1005900006600B4E35680A4FC6693E60C66846B1B4
:1005A0000E1926F07F464660C66886601668C661EA
:1005B000156000BF024800680028DBD100BFF0BD15
:1005C000FC25002070B504460D462A460021204631
:1005D00000F00EF8A068401CA06070BD01468A685B
:1005E000C868801A704701468A68C868801A7047D0
:1005F00010B583680B44848823400468E35C13705F
:1006000010BDC26883881A4003689954C268521C9E
:10061000C260704770B504460D46E0B2FFF7FEFCBD
:10062000204670BDF8B52748007800B9F8BD002510
:100630002548006808B9012000E00020064600BFF8
:10064000DDB92248007800B1F0E7684648DF04468B
:10065000052C01D101250FE024B100BF2046FFF792
:10066000FFFB09E0009801F05DF91948006818B136
:10067000174900980968884700BFDEB91348007819
:1006800000B1D3E71348008800906946124800681B
:1006900061DF0446052C01D101260AE024B100BF28
:1006A0002046FFF7DDFB04E00B48006806490968B7
:1006B000884700BF0DB106B100E0C1E700BF00BF31
:1006C000B4E70000302600203C2600203126002020
:1006D0002C260020382600203426002070B5044641
:1006E0000D4620791D4901EB4010007FF8B14FF411
:1006F0008871206801F07FFD4FF49071206801F04F
:100700007AFD4FF49271206801F075FD4FF4A271EB
:10071000206801F070FD1249206801F07CFD20681E
:1007200001F03DF90646294601F004F914E04FF4C2
:100730008E71206801F02FFD4FF4A271206801F046
:100740002AFD0849206801F035FD206801F027F9ED
:100750000646294601F0EEF870BD0000B82B0020D7
:1007600010030200800002007FB505460C4694F895
:10077000210094F82010CDE9001004F12602D11ECA
:100780002846E36902F00FF800B17FBD94F823001A
:1007900048BB207B022802D0207B032823D1E169BB
:1007A000206981421FD16069E061E07B84F820000C
:1007B000207EC0F3401084F82100207B03280AD15A
:1007C00094F82100009094F8203029462046E269F0
:1007D00002F07CF830E094F8203029462046E269A7
:1007E00001F048FF28E0D4E90412E06801AB07C338
:1007F00094F8230088B1284601F0A0FC064606F0D4
:10080000020018B101208DF8000005E006F0040098
:1008100010B102208DF8000002E000208DF80000E9
:10082000002084F82400207E00F0040018B96846F7
:10083000D4E90021904700BF00BFA6E70146086841
:1008400008B102680A6070472DE9F04106460027AA
:100850004748D0F8008078E016B13446E66947E0B2
:100860004448007800EB40014248001D00EBC10500
:10087000001F0078401C3F490870084600788978BE
:10088000884202D100203B4908706C682878012812
:100890001AD0022802D0032817D107E0686801F0B7
:1008A000CFFD00B10127002020744EE007E0304961
:1008B0000868002101742E4AC169116000BF2C48EC
:1008C00000680028F3D140E000E03EE000BF207C5B
:1008D00000B13AE0A8686060E868A0602869E0605C
:1008E0006869A0612448007808B10020606000BFFA
:1008F000224960680968401A20F07F4020498842F8
:1009000008D21E496068096801F02DFDA1680844FD
:1009100020600FE019486168006801F024FD054679
:10092000A068A84203D9A068401B206001E0002015
:10093000206000BF00206060A060012020740020C3
:10094000E061204601F048FD00BF002E84D1094837
:100950000078084949788842F8D11FB904480068EE
:10096000404502D00120BDE8F0810020FBE70000F7
:10097000FC250020D82B00200F2600200026002078
:10098000FFFF7F0002F05CF900F064FE002000F041
:100990001BF8002500BF00F097F84FF47A74214649
:1009A00014FB01F000F0DAFE00BF29466A1CD5B244
:1009B00001A0FEF7C3FFEEE7636F756E74203D2064
:1009C00025640A0A0A00000010B5044600212046EA
:1009D00000F002F810BD000030B585B005460C46A9
:1009E00035B1012D14D0022D22D0032D40D12FE09E
:1009F000142221A16846FEF750FCC4F11203DAB2BA
:100A00000DEB040104F12803D8B200F071FE2FE0D1
:100A100014221EA16846FEF740FCC4F11203DAB2AC
:100A20000DEB040104F12803D8B200F061FE1FE0D1
:100A300014221BA16846FEF730FCC4F11203DAB29F
:100A40000DEB040104F12803D8B200F051FE0FE0D1
:100A5000142218A16846FEF720FCC4F11203DAB292
:100A60000DEB040104F12803D8B200F041FE00BFF1
:100A700000BF05B030BD00008A08211A18180F27E2
:100A800000C012CF00049032120A00008E1211062C
:100A900018180F1000C012CF0005903F120200007E
:100AA0008E12110618180F0800C012CF0006903FD2
:100AB000120A00008FDB110618180F0200C012CFB7
:100AC0000007903F120200007FB500F0C1F8044615
:100AD000002C23D0002000900190029003AA6946C8
:100AE000204600F06BF9054629460EA0FEF726FFCA
:100AF0006DB19DF80C2029460EA0FEF71FFF294678
:100B0000684600F001FD14A0FEF718FF05E013A0F1
:100B1000FEF714FF1FA0FEF711FF02E02BA0FEF767
:100B20000DFF7FBD7569645F6C656E203D20256497
:100B30000A0D0000554944206F662025686864202E
:100B40006279746573202853414B3A307825686880
:100B500058293A20000000000A000000436F756C1D
:100B600064206E6F742064657465726D696E6520B3
:100B70005549442C207065726861707320736F6DE5
:100B80006520636172647320646F6E277420706CDB
:100B9000617900002077656C6C2077697468207437
:100BA0006865206F746865722063617264733F20AA
:100BB0004F7220746F6F206D616E7920636F6C6C63
:100BC0006973696F6E733F0A000000004E6F206109
:100BD0006E7377657220746F20524551412C206EE0
:100BE0006F2063617264733F0A00000010B57F21BB
:100BF000062000F057FD10BD10B57F21072000F042
:100C000051FD10BD10B50021084600F04BFD10BD90
:100C100070B504460D46FFF7F5FF00F009F82946C8
:100C2000204600F031FD0721002000F03BFD70BDA3
:100C300010B51021022000F035FD10BD10B50620C2
:100C400000F0A8FC10BD10B5072000F0A3FC10BDFB
:100C500010B5262000F002F810BD00002DE9FC417F
:100C60000646FFF7CFFFFFF7E3FF0F212E2000F02E
:100C700019FD18212C2000F015FD18212D2000F061
:100C800011FD00210C2000F00DFD0196FFF7AEFFD5
:100C9000FFF7B2FF0621082000F004FD0121092022
:100CA00000F000FD00271121384600F0A3FC4FF4AE
:100CB0007A71384600F0A9FC4FF47A71384600F09A
:100CC000B6FC012101A8FFF7A3FF1FA0FEF736FE27
:100CD000002506E0FFF7B7FF054605F0400000B12C
:100CE00004E00120B84028400028F3D000BF1AA03B
:100CF000FEF724FEFFF786FFFFF7A0FF044604F08F
:100D0000040010B104F0020038B12246294619A0AF
:100D1000FEF714FE0020BDE8FC81224629461DA0F6
:100D2000FEF70CFE0221684600F000FC1FA0FEF753
:100D300005FE0221684600F0E7FB06A0FEF7FEFD77
:100D4000BDF80000E7E7000053656E64696E672038
:100D5000524551410A000000416674657220776176
:100D60006974696E6720666F7220616E7377657251
:100D70000A0000004E6F2052582C20697271313ADF
:100D8000202568687820697271303A202568687873
:100D90000A000000697271313A202568687820697C
:100DA0007271303A20256868780A00004154514138
:100DB00020616E737765723A200000002DE9F74FCD
:100DC00094B08846FFF71EFFFFF732FFFEA0FEF744
:100DD000B5FD0621082000F065FC0121092000F086
:100DE00061FC002013901121139800F003FC4FF4D4
:100DF0007A71139800F009FC4FF47A71139800F09F
:100E000016FC012700BF63E300201290002410901D
:100E100011900DF142060E90149800F0C0000E9053
:100E20000E9820B1042805D0082809D105E09320A8
:100E3000129005E09520129002E09720129000BFDA
:100E400000BF18212C2000F02DFC18212D2000F0CF
:100E500029FC4FF0000B5CE123465A463946DFA0DF
:100E6000FEF76CFDE51DE81705EB5070C0F3CF01F0
:100E7000304600F049FBD8A0FEF760FDFFF7B6FE54
:100E8000FFF7BAFE12988DF8400004F12000C0B2BE
:100E90008DF841002546E01704EB5070C010A4EB1C
:100EA000C000C0B240F008012E2000F0FBFB20463D
:100EB000E11704EB5171C910A4EBC101C9B205914E
:100EC000D1A00599FEF73AFD0022059842EA0010EC
:100ED000C1B20C2000F0E6FBE11704EB5171C91020
:100EE000A4EBC10141B92046E11704EB5171C910CF
:100EF000891CC9B20F9107E02046E11704EB51713C
:100F0000C910C91CC9B20F91C6A00F99FEF716FDF2
:100F100010A80F9900F0F8FAAFA0FEF70FFD10A887
:100F20000F99FFF775FE0020049007E0FFF78BFE96
:100F30000490049800F0400000B107E001211398EC
:100F400001FA00F0049908400028EFD000BFFFF735
:100F500059FEFFF773FE03900A2000F01BFB02907E
:100F60000D2000F017FB0190B3A00399FEF7E6FCFB
:100F7000B4A00299FEF7E2FC4FF0000A039800F0DB
:100F8000020000285DD0029800F0040000284ED036
:100F9000019800F08000002841D0019820F0800ADC
:100FA0005146ACA0FEF7CAFC04EB0A00C5B27A1E9B
:100FB00002EB42025119CA1701EB5272D21018F813
:100FC00002202846EB1705EB5373DB10A5EBC30398
:100FD0001A4102F001020092EA1705EB5272D21098
:100FE000B25C2946EB1705EB5373DB10A5EBC30C82
:100FF000009B03FA0CF31A43EB1705EB5373DB105A
:10100000F254601CC4B2214697A0FEF797FC0A2157
:10101000304600F079FA70A0FEF790FC22E09BA029
:10102000FEF78CFCC4F1200000F0FF0A1AE0C4F1C6
:10103000200000F0FF0A52469DA00299FEF77EFCB8
:1010400010E0039800F0040040B1C4F1200000F06B
:10105000FF0A5146A6A0FEF771FC03E0002017B07E
:10106000BDE8F08F5146ADA0FEF768FC05210CA845
:1010700000F05CFA0521AFA0FEF760FC05210CA88A
:1010800000F042FA54A0FEF759FC2146AEA0FEF74C
:1010900055FCE51DE81705EB5070C0F3CF01304655
:1010A00000F032FA4CA0FEF749FC4FF0000914E0C2
:1010B000E11704EB517109EBE101715C0CAA12F824
:1010C000092011432046E21704EB527209EBE202B9
:1010D000B15409F1010000F0FF09B9F1050FE7DB98
:1010E00004EB0A00C4B221469FA0FEF727FC202C87
:1010F0000BDB2146A1A0FEF721FC0A21304600F0BF
:1011000003FA35A0FEF71AFC07E00BF1010000F02E
:10111000FF0BBBF1200FFFF69FAE00BF30790B90A5
:10112000307871784840B1784840F17848400A906A
:10113000DDE90A1088420BD09DA0FEF7FFFB0C985A
:10114000C8F800009DF8340088F80400002086E705
:10115000FFF74CFDFFF750FD12988DF8400070200E
:101160008DF841000A988DF8460007200F9019214C
:101170002C2000F097FA19212D2000F093FA254633
:10118000E01704EB5070C010A4EBC000C0B240F0F8
:1011900008012E2000F086FA00200990002209980C
:1011A00042EA00110C2000F07DFA10A80F99FFF719
:1011B0002FFD8AA00F99FEF7C1FB10A80F9900F030
:1011C000A3F905A016E100000A5374617274696EF8
:1011D000672073656C6563740A0000000A434C3A2B
:1011E00020256868642C20636F6C6C206C6F6F70B6
:1011F0003A20256868642C206B622025686864208A
:101200006C6F6E673A20000053657474696E6720D6
:10121000727820616C69676E20746F3A2025686867
:10122000640A000053656E643A25686864206C6F38
:101230006E673A2000000000697271303A2025681C
:1012400068580A006572726F723A20256868580AF9
:1012500000000000436F6C6C6973696F6E206174ED
:1012600020256868580A00007569645F74686973AE
:101270005F6C6576656C206E6F77206B62202568E9
:101280006864206C6F6E673A20000000436F6C6CDE
:101290006973696F6E20627574206E6F2076616C61
:1012A000696420636F6C6C706F732E0A000000001D
:1012B0004E6F20636F6C6C6973696F6E2C20657262
:1012C000726F72207761733A20256868782C2073DA
:1012D000657474696E6720636F6C6C6973696F6E97
:1012E0005F706F7320746F3A20256868780A000079
:1012F000476F7420646174612C206E6F20636F6C83
:101300006C6973696F6E2C2073657474696E6720E5
:1013100020746F3A20256868780A0000636F6C6C4F
:101320006973696F6E5F706F733A20256868580A39
:10133000000000004669666F2025686864206C6FB5
:101340006E673A20000000007569645F7468697315
:101350005F6C6576656C206B622025686864206C24
:101360006F6E673A200000006B6E6F776E5F626988
:1013700074733A20256868580A000000657869741B
:1013800020636F6C6C6973696F6E206C6F6F703A5D
:10139000207569645F746869735F6C6576656C203D
:1013A0006B622025686864206C6F6E673A200000CD
:1013B000536F6D657468696E672077656E7420770A
:1013C000726F6E672C2042434320646F6573206EFA
:1013D0006F74206D617463682E0A000073656E641B
:1013E0005F7265712025686864206C6F6E673A20B3
:1013F00000000000FEF7A2FA0020089007E0FFF7C7
:1014000022FC0890089800F0400000B107E001219C
:10141000139801FA00F0089908400028EFD000BFA7
:10142000FFF7F0FBFFF70AFC0790079800F00200B7
:1014300048B10A2000F0AEF8054605F0040008B1F6
:1014400000200CE600BF012006900699169800F0D7
:101450006DF822A0FEF772FA0121169800F054F8F8
:10146000AFF28C20FEF76AFA1698007800F00400BC
:1014700070B1002009E0411C725C791E01EB410152
:10148000014408F80120411CC8B20328F3DB11E035
:10149000002108E0725C781E00EB4000084408F868
:1014A0000020481CC1B20429F4DB07EB4700401CB4
:1014B000C0B2D4E539460DA0FEF740FA0A214046F5
:1014C00000F022F8AFF2F020FEF738FA781CC7B22D
:1014D000032F7FF799AC0020C1E5000053414B205A
:1014E000616E737765723A20000000004578697478
:1014F00020636173636164652025686864206C6F94
:101500006E673A200000000070B505460E460024C4
:1015100005E0295D03A0FEF711FA601C84B2B44215
:10152000F7DB70BD25303258200000007CB5054641
:101530000E46124800F042FA11A000680190012006
:10154000034601AA292100900C4800F0ABFA04469A
:101550001CB121460BA0FEF7F1F9F3B22A4629216E
:10156000064800F089FA04461CB1214605A0FEF7A2
:10157000E5F9024800F022FA7CBD00003C2F020091
:10158000050000006572725F636F6465203D202571
:10159000640A00003EB50546114800F00FFA0195B7
:1015A0000120034601AA292100900D4800F07AFA93
:1015B00004461CB121460BA0FEF7C0F9022302AA83
:1015C0002921074800F058FA04461CB1214605A01D
:1015D000FEF7B4F9024800F0F1F99DF808003EBDAD
:1015E0003C2F02006572725F636F6465203D2025A9
:1015F000640A000070B504460D4604EB84010F3107
:10160000C8B2294600F04EF870BD70B504460D46CC
:10161000291204EB84021032D0B200F043F804EB3C
:1016200084011131C8B2FF2100F03CF870BD70B5E3
:1016300004460D46291204EB84021232D0B200F0A7
:1016400031F804EB84011331C8B2FF2100F02AF80D
:1016500070BD00001FB50A4B0FCB8DE80F000023B3
:101660001A466946074800F0BBF9044614B1204603
:1016700004B010BD034800F0A1F90020F8E7000015
:10168000442F02003C2F020070B505460E46002490
:1016900005E0295D052000F005F8601CC4B2B442E5
:1016A000F7DB70BD7CB504460D468DF804408DF81F
:1016B00005500A4800F082F90020022301AA2921DE
:1016C0000090064800F0EEF906461EB1314604A02F
:1016D000FEF734F9014800F071F97CBD3C2F02009F
:1016E0006572725F636F6465203D2025640A0000A7
:1016F0002DE9F04105460E461746002406E0315D0F
:101700002A19D0B2FFF7CEFF601CC4B2BC42F6DB90
:10171000BDE8F08130B502460B46D40802F007025E
:10172000012090401D5D284030BD01464FF08040B3
:10173000405808B1012070470020FCE708B500229E
:101740004FF080410A500958009100BF08BD0000C9
:1017500001490860704700000803004000B9704765
:1017600000BF00BF00BF00BF00BF00BF00BF00BF81
:1017700000BF1E4909681E4A914200D130E000BFF7
:1017800000BF00BF00BF00BF00BF00BF00BF00BF61
:1017900000BF00BF00BF00BF00BF00BF00BF00BF51
:1017A00000BF00BF00BF00BF00BF00BF00BF00BF41
:1017B00000BF00BF00BF00BF00BF00BF00BF00BF31
:1017C00000BF00BF00BF00BF00BF00BF00BF00BF21
:1017D00000BF00BF00BF00BF00BF00BF00BF00BF11
:1017E000401E00D0BDE700BFB9E700004026002042
:1017F0000024F40000B9704700BF00BF00BF00BF65
:1018000000BF00BF00BF00BF00BF1E4909681E4ADD
:10181000914200D130E000BF00BF00BF00BF00BF59
:1018200000BF00BF00BF00BF00BF00BF00BF00BFC0
:1018300000BF00BF00BF00BF00BF00BF00BF00BFB0
:1018400000BF00BF00BF00BF00BF00BF00BF00BFA0
:1018500000BF00BF00BF00BF00BF00BF00BF00BF90
:1018600000BF00BF00BF00BF00BF00BF00BF00BF80
:1018700000BF00BF00BF00BF401E00D0BDE700BFDB
:10188000B9E70000402600200024F40000B97047AA
:1018900000BF00BF00BF00BF00BF00BF00BF00BF50
:1018A00000BF1E4909681E4A914200D130E000BFC6
:1018B00000BF00BF00BF00BF00BF00BF00BF00BF30
:1018C00000BF00BF00BF00BF00BF00BF00BF00BF20
:1018D00000BF00BF00BF00BF00BF00BF00BF00BF10
:1018E00000BF00BF00BF00BF00BF00BF00BF00BF00
:1018F00000BF00BF00BF00BF00BF00BF00BF00BFF0
:1019000000BF00BF00BF00BF00BF00BF00BF00BFDF
:10191000401E00D0BDE700BFB9E700004026002010
:101920000024F40010B5044614B90020FEF742FC70
:1019300010BD000070B50B4601461A46002907DAB3
:101940005407260E104C01F00F052D1F665503E0BD
:101950005407250E0D4C655400BF00BF00F01F0258
:10196000012191400A4A440942F8241000BF00BFF7
:1019700000F01F02012191404209920002F1E02291
:10198000C2F8001100BF70BD18ED00E000E400E0F7
:1019900080E200E00146C1F3073250B270470146D1
:1019A000C1F3073250B27047014601F06040B0F118
:1019B000005F01D1012070470020FCE7027902EBB3
:1019C0008202064B03EBC201026800BF0523C2F886
:1019D000003500BF022281F822207047FC2A002037
:1019E0002DE9F04706460C4690469946307900EBC3
:1019F00080001F4901EBC00595F8220018B10827A7
:101A00003846BDE8F087083545F8088C45F8049C51
:101A10000020286068772877A07BE877083D607B06
:101A200010B1204600F0A2FD40F20C61114822687E
:101A300040F82210626840F822103068D4E90012A1
:101A4000C0F80815C0F80C2500BFA168C0F824151F
:101A500000BF286830B13068FFF79CFF8246217BC9
:101A6000FFF768FF012085F8220000273846C8E705
:101A7000FC2A002000070050FEB507460C4615461C
:101A80001E46074A07CA8DE807008DF801408DF809
:101A90000260019500226946384600F021F8FEBD3B
:101AA000302F02002DE9FE4307460C4615461E4620
:101AB000DDF8288000200090019002908DF8014010
:101AC0008DF802600195B8F1000F01D0202000E0F0
:101AD000002002466946384600F002F8BDE8FE8361
:101AE0002DE9F04104460E4615460027207900EB0B
:101AF0008000094901EBC00805F0030018B1062772
:101B00003846BDE8F0812B4632464046216800F059
:101B100055FF07463846F4E7FC2A00202DE9F0413E
:101B200005460E46174628791C4901EB40144FF034
:101B30000008E07E20B14FF008084046BDE8F08183
:101B4000707F207731462846FEF788FA6760306953
:101B50002060606818B1317F2846FEF7BFFD00BFE6
:101B600028790E4901EB4010007F28B12868082130
:101B7000C0F8001500BF05E028680421C0F8001572
:101B800000BF00BF00BF0020E0752076A0750120D7
:101B9000E0760020A0764046D0E70000B82B002079
:101BA0002DE9F04704460E4617462079304901EBEF
:101BB0004015207901EB4010007F40B13046FFF71F
:101BC000F3FE20B94FF010084046BDE8F0874FF013
:101BD0000009686880B12079254901EB4010007F39
:101BE00028B14FF40471206800F012FB04E04FF4B8
:101BF0000171206800F0DBFAE87DD0B1287EB0B139
:101C0000686880B120791A4901EB4010007F28B143
:101C10004FF40471206800F0FEFA04E04FF4017103
:101C2000206800F0C7FA4FF011084046CDE74FF0AA
:101C30000109B9F1000F05D1EF75EE60002068765B
:101C4000287601E02E612F762079094901EB4010BA
:101C5000007F30B14B463A463146204600F08AF8C4
:101C6000B3E74B463A463146204600F01DF8ACE754
:101C7000B82B002010B5044620790A4901EB40102A
:101C8000007F68B9207901EB4010807E40B9204682
:101C900000F058FB01202179024A02EB41118876BD
:101CA00010BD0000B82B00202DE9F05F04468B46E4
:101CB000994620792E4901EB4015A87E28B9B9F143
:101CC000000F02D1204600F03DFB6868002846D195
:101CD0004FF4A271206800F05EFA00BF00BF4FF41D
:101CE0009271206800F050FA80464FF484712068A9
:101CF00000F04AFA82464FF4A271206800F044FADC
:101D00000646BAF1000F03D116B9B8F1000FE6D0BC
:101D1000B8F1000F00D106B107E02946206800F0B5
:101D2000E3FAE87D697E8842D8DC00BF0020E875D0
:101D3000B8F1000F03D003273846BDE8F09F16B175
:101D40000F273846F9E7A87E20B10021206800F06F
:101D50003DFA03E00421206800F038FA04E04FF473
:101D60000171206800F026FA00273846E5E70000F8
:101D7000B82B00202DE9F05F04460D461646994623
:101D80004FF0000A4FF48871206800F034FA4FF4E5
:101D9000A271206800F02FFA2068C0F834554FF483
:101DA000A7610E5000BFB9F1000F04D100212068D7
:101DB00000F039FA08E020212068D0F800220A4318
:101DC000C0F8002200BF00BF20791B4901EB401082
:101DD000406848BB00BF4FF48871206800F004FAE7
:101DE00083464FF4A271206800F0FEF980464FF45C
:101DF0009271206800F0F8F90746BBF1000F04D19A
:101E0000B8F1000F01D1002FE5D0002021790A4A56
:101E100002EB4111C8750FB14FF0030AB8F1000F82
:101E200001D04FF00F0A04E04FF40471206800F075
:101E3000F2F95046BDE8F09FB82B00202DE9F041A3
:101E400004460D4690462079144901EB401620794E
:101E500001EB4010007F38B12846FFF7A5FD18B907
:101E600010273846BDE8F081204600F09DF810B1FB
:101E700011273846F6E786F81680B5600020B08254
:101E80002079064901EB4010007F18B1204600F090
:101E90004DF8E7E7204600F003F8E3E7B82B002011
:101EA00070B504462079204901EB401500264FF417
:101EB0008E71206800F06FF90821206800F086F923
:101EC0002946206800F0DAFD686858BB12E000BFC0
:101ED0004FF48E71206800F057F918B9A88AB0F550
:101EE000807FF5D1A88AB0F5807F03D0294620688D
:101EF00000F0C4FDA88AA97D8842E8DBA88AB0F575
:101F0000807F01D10F260BE000BF4FF48E71206857
:101F100000F03AF90028F8D00C21206800F056F9BA
:101F20000020A875304670BDB82B00202DE9F04187
:101F3000044620791B4901EB40154FF000084FF48F
:101F40009071206800F057F94FF4AC71206800F0F0
:101F500052F92068AA7DA968C0F844154FF4A96316
:101F60001A5000BF0821206800F05DF96868A8B920
:101F700000BF4FF49071206800F036F907464FF427
:101F8000AC71206800F030F906460FB9002EF0D091
:101F90000EB14FF00F080020A87500BF4046BDE805
:101FA000F0810000B82B002001460879044A02EBBA
:101FB0004010807D08B1012070470020FCE7000040
:101FC000B82B0020F0B5DDE9054500BF4FF0A04774
:101FD0003E4641EA420747EA830747EA042747EAC1
:101FE000054C06F5E06747F820C0F0BD7CB5054616
:101FF0000C460020009023460246014601902846E8
:10200000FFF7E0FF7CBD1CB50446002000900346AE
:102010000122114601902046FFF7D4FF1CBD10B5E8
:102020000A4600BF4FF0A043194601F5E06353F89C
:10203000203023F4403401F5E06343F8204053F8A6
:10204000203043EA024401F5E06343F8204010BD2C
:1020500000BF4FF0A0410A46012303FA00F1C2F885
:102060000C1500BF704700BF4FF0A0410A46012386
:1020700003FA00F1C2F8081500BF704700BF4FF027
:10208000A0410A46012303FA00F1C2F8081500BF77
:102090007047000038B50B46074C24680094014691
:1020A00006E05DF82140D4F810551560121D491C5A
:1020B000C4188C42F5D838BD542F0200014601489F
:1020C000084470470060004038B504462046FFF7DA
:1020D000F5FF002101602046FFF7F0FF0068009047
:1020E00000BF38BD10B504462046FFF7E7FF006883
:1020F000012800D110BD0020FCE700002DE9F843C5
:1021000007460C4615461E464FF00009C8460548CE
:1021100000962B4622464146D0F814C03846E04788
:10212000BDE8F883042D002070B504460D46002359
:102130001A4629462046FFF7E1FF70BD0146D1F857
:10214000C404C1F8C40470470246505808B10120C5
:1021500070470020FCE708B5002242504258009228
:1021600000BF08BDC0F808137047C0F804137047DB
:10217000C0F8001270470122425070470146D1F862
:102180008004C1F8800470470246505808B101200D
:1021900070470020FCE708B50022425042580092E8
:1021A00000BF08BDC0F80815C0F810257047C0F87A
:1021B00008137047C0F8041370470246D2F80403AE
:1021C000084008B1012070470020FCE7012242507E
:1021D0007047C0F81425C0F80C1570470146D1F8B7
:1021E0008004C1F8800470470246505808B10120AD
:1021F00070470020FCE708B5002242504258009288
:1022000000BF08BDC0F808154FF4A2631A5070470C
:10221000C0F808137047C0F804137047014640F235
:102220003C504058704701224250704740F20C53D6
:10223000195040F214531A507047000001490860C9
:1022400070470000401501400148006870470000D9
:102250000415014010B54FF480300A4908600A495E
:10226000C1F804031120FDF777F91120FDF780F97B
:102270000120054908602F20FFF708FB01200349D2
:10228000087010BD44130140001001400E260020CC
:1022900010B51120012181400E4A430942F8231054
:1022A00000BF4FF480300C4908600C49C1F80803A6
:1022B000012048602F20FFF7E9FA012007498860D4
:1022C0000020074908602F20FFF7E0FA00200549A9
:1022D000087010BD80E100E048130140001001408B
:1022E000002600200E26002070B505460C46E07D35
:1022F00040B94FF484712846FFF74DFF00BFD5F871
:10230000180570BD4FF484712846FFF744FF00BFE5
:10231000D5F81805C0B2627EE1688854607E401C22
:10232000607600BFEDE77FB504460D4616460120F6
:102330008DF800008DF8085001966846D4E9001227
:1023400090477FBD10B504464FF492712068FFF7A7
:1023500022FF4FF484712068FFF71DFF00212068E1
:10236000FFF734FF10BD0246501A20F07F4070473F
:1023700010B50446D4E90510884710BD2DE9FC418D
:102380000020019000260E4804680E480768684641
:10239000FDF770FF05462DB101AA21460098FEF712
:1023A000E5F801260198FEF74FFA00B1012616B1B3
:1023B0003846FDF717FF002003490870BDE8FC818F
:1023C00000260020FC2500200F26002010B5142038
:1023D000FDF7DAF810BD000010B51849096811B909
:1023E0001649086028E0154A01681268126891428F
:1023F0000DD81249096809680268891A0F4A1268DB
:1024000011600E490968C1610C49086014E0026856
:102410000A4C2368216803E00C68121B0B46C9694B
:1024200011B10C689442F7D311B10C68A41A0C6076
:102430000260C161D86100BF10BD0000FC25002012
:102440002DE9F04106461C48D0F8008005682C466E
:1024500004E0B44200D103E02546E469002CF8D141
:1024600000BF14B90020BDE8F081A54213D1124885
:102470000068C069104908600846006858B9012022
:102480000E49886000200E49086001200D4908703F
:102490002F20FFF7FBF92768E069E861EC6914B1C8
:1024A00020683844206004480068804501D001203D
:1024B000D9E70020D7E70000FC25002000100140EC
:1024C000002600200F2600202DE9F0411F4800685B
:1024D000002838D00027FFF7B7FE80461C48016867
:1024E0004046FFF740FF06461848056810E0286898
:1024F000B04200D90EE02868361A286807442C46F6
:10250000ED69207C20B1002020742046FFF730FFC9
:10251000002DECD100BF0F4800780F4909788842A0
:1025200009D10D480078401CC0B20B490870022840
:1025300001D10020087009480749097840F8217046
:10254000FFF744FF00BFBDE8F0810000FC2500203C
:10255000002600200C2600200D2600200426002046
:1025600010B51120FDF710F810BD000070B504463D
:1025700040F20C612248226840F82210626840F85C
:1025800022102068FFF76FFD6068FFF76CFD40F2D6
:102590000D611B48226840F82210626840F8221042
:1025A0000420FFF727F900251BE0606800BF4FF00B
:1025B000A042114600BFD1F81025C24002F001022E
:1025C00012B105B970BD0EE02068FFF741FD04208F
:1025D000FFF710F92068FFF746FD0420FFF70AF91E
:1025E0006D1C092DE1DB00BF6068FFF731FD0420A1
:1025F000FFF700F96068FFF736FD00BFE2E7000073
:10260000000700500146032001F001020AB14FF417
:10261000024001F002020AB148F2012001F0040276
:102620000AB148F2022070472DE9F04106460F46F4
:1026300015461C462078A8421ADA00BFD6F81805BD
:10264000C0B2217878542078401C20702178681E10
:10265000814204D102213046FFF78AFD04E0207850
:10266000A84201D1BDE8F08120213046FFF783FD6B
:1026700000BFF7E72DE9FE4304460D4617461E4608
:102680004FF0000942F2107002904FF48271284618
:10269000FFF761FD4FF492712846FFF75CFD4FF4A0
:1026A0008E712846FFF757FD4FF484712846FFF7D7
:1026B00052FD002084F8260084F82300012E04D166
:1026C00002212846FFF754FD03E001212846FFF7C9
:1026D0004FFD20212846FFF74EFD00212846FFF739
:1026E0004AFD206838B140F28620A060A1682846E3
:1026F000FFF73BFD30E002E00298401E0290029896
:1027000000280BDD00203B4604F12602D11ECDE956
:102710000060284600F047F80028EDD194F8230027
:1027200058B12846FFF70AFD8046B8F1000F03D0E4
:102730004046FFF767FF814600BF029800280BDC88
:1027400000BF0020C5F8000500BF00BF0520C5F888
:10275000000500BF4FF003094846BDE8FE832DE9A0
:10276000F04105460E4617461C46DDF818802078D5
:10277000B84208DA2178705CC5F81C0500BF2078E3
:10278000401C20700DE0B8F1000F06D01C21284637
:10279000FFF7F1FC0020BDE8F08114212846FFF787
:1027A000EAFC0120F7E72DE9F84F80460C46154674
:1027B0001E46DDE90A79207810B92878B84201D19F
:1027C000012000E000208246207878B14FF4927119
:1027D0004046FFF7C0FC4FF48E714046FFF7BBFC4C
:1027E0004FF484714046FFF7B6FC5DE04FF4927100
:1027F0004046FFF7A9FC58B14FF492714046FFF7ED
:10280000AAFC14214046FFF7B6FC012020704BE0E3
:102810004FF48E714046FFF797FC10B34FF48E7162
:102820004046FFF798FC4FF492714046FFF78CFC4E
:1028300058B14FF492714046FFF78DFC1421404689
:10284000FFF799FC012020702EE02B463A463146D6
:102850004046CDF80090FFF782FF28BB0020BDE87E
:10286000F88F4FF484714046FFF76EFCE0B14FF4EF
:1028700084714046FFF76FFC4FF492714046FFF7BA
:1028800063FC58B14FF492714046FFF764FC142189
:102890004046FFF770FC0120207005E02B463A46C9
:1028A00031464046FFF7C0FEBAF1000F0CD04FF49E
:1028B00082714046FFF748FC30B14FF482714046C8
:1028C000FFF749FC0020CAE70120C8E72DE9FE4FC9
:1028D00004460D4616461F46DDF830804FF0000ACC
:1028E00042F2107002904FF482712846FFF733FCD9
:1028F0004FF492712846FFF72EFC4FF48E71284654
:10290000FFF729FC4FF484712846FFF724FC0021CF
:102910002846FFF72DFC002084F8260084F82300C9
:1029200020212846FFF727FC08212846FFF723FC33
:1029300004F126033A4631462846CDF80080FFF7D9
:102940000EFF206838B140F28620A060A1682846BA
:10295000FFF70BFC2FE002E00298401E0290029865
:1029600000280ADD334604F12602D11E2846CDE9AF
:102970000078FFF718FF0028EED194F8230058B133
:102980002846FFF7DBFB8146B9F1000F03D048462C
:10299000FFF738FE824600BF029800280BDC00BF1C
:1029A0000020C5F8000500BF00BF0520C5F80005E0
:1029B00000BF4FF0030A5046BDE8FE8F2DE9F843F3
:1029C00004460F4615461E464FF000084FF0FF31F3
:1029D0003846FFF7C7FB94F8240040B1A168384699
:1029E000FFF7C3FB4FF011084046BDE8F88306F03F
:1029F000040008B9012000E0002084F8240006F05B
:102A0000080018B14FF006084046EEE7A66195E8C9
:102A10000700C4E90412E060A87884F82000686820
:102A2000E0616878C7F8880500BF2878012814D0CD
:102A3000287810B906F0200008B1012000E000203D
:102A400084F8210094F821000090AB7839462046A4
:102A50006A68FFF73BFF804609E0002084F8210008
:102A6000AB78394620466A68FFF704FE8046206846
:102A700010B9002084F824004046B6E770B505463A
:102A80000C464FF48E712846FFF785FBA18AA0689B
:102A9000465CA08A401CA0823046C5F81C0500BFD9
:102AA00070BD7FB504460D4600208DF800008DF8FE
:102AB0000850A06801900020A0756846D4E9001273
:102AC00090477FBD70B50546287820B101283BD0DE
:102AD00002283FD132E02149214A12788818FDF7B7
:102AE000FFF91F480078401C1D490870084600780F
:102AF000401E1A49085C0A2805D01948007819496F
:102B00000988884219DB00BF154802781349164826
:102B1000FDF716FB0446082C0AD0112C08D000BF84
:102B2000264626B100BF3046FDF79AF900BF00BF28
:102B3000112CE9D000200A4908700CE000BF686839
:102B4000FDF78EF900BF06E000BF6868FDF788F961
:102B500000BF00E000BF00BF70BD00006026002085
:102B6000FA250020F8250020442600207CB50446E4
:102B70000E46207800283FD0012802D002284ED1EE
:102B80002BE0606801782748FDF799F9054645B1C3
:102B900001208DF80000019568462349096888479F
:102BA0000AE02048FDF71FFD30B100208DF800003D
:102BB00068461D49096888471A48FDF714FD1949F8
:102BC0008988884205D8012218491948FEF7E8FF8C
:102BD00002E001201749087022E002208DF8000071
:102BE000E0680190012211491148FEF7D9FF6846BB
:102BF0000D490968884713E00F491048FDF73EF971
:102C000028B901220C490A48FFF718F906E0032009
:102C10008DF80000684604490968884700E000BF55
:102C200000BF7CBDE42C0020182600201D260020BB
:102C3000102600201E2600201C260020F42C002038
:102C400030B58BB01822114905A8FCF726FB00BF50
:102C50000F4801904FF4007002900E4803904FF41B
:102C60000070049007230C4A01A905A8FDF762F93A
:102C7000044600BF00BF254625B100BF2846FDF72A
:102C8000EFF800BF00BF0BB030BD0000EC2E02001B
:102C9000FB260020FB280020C52A02002DE9FF4169
:102CA00005460C464FF400712846FFF786FA48B3F4
:102CB0004FF492712846FFF767FA18B34FF49271F8
:102CC0002846FFF768FA4FF401712846FFF76FFABC
:102CD000A07E18B904212846FFF778FA02208DF863
:102CE00000002846FFF74AFA0390E17D8DF80810AE
:102CF000E06801900020E07520766846D4E9001273
:102D0000904736E004212846FFF757FA002830D0D4
:102D10004FF484712846FFF737FA50B3214628460E
:102D2000FFF7E2FAE07D617E884222D1207E70B119
:102D3000E668677E207EE0752069E06000202076EE
:102D40006076324639462046FFF7EDFA11E0A07E64
:102D500018B904212846FFF739FA4FF401712846C3
:102D6000FFF725FA0020E075617EE2682046FFF754
:102D7000DAFA4FF48E712846FFF706FA98B1A08A66
:102D8000A17D884204DA21462846FFF777FE0AE053
:102D90004FF48E712846FFF7FEF9A07D18B1A17D92
:102DA0002046FFF77EFE4FF4A2712846FFF7ECF9AC
:102DB00098B14FF4A2712846FFF7EDF9A07E18B143
:102DC00000212846FFF702FAE07D30B10020E075CF
:102DD000617EE2682046FFF7A6FABDE8FF812DE993
:102DE000FF4105460C464FF492712846FFF7FCF967
:102DF000D8B14FF492712846FFF7FDF902208DF803
:102E000000002846FFF7EAF903902846FFF706FA84
:102E1000C1B28DF80810E06801900020E0752076BE
:102E20006846D4E9001290472FE04FF48871284695
:102E3000FFF7DAF948B34FF488712846FFF7DBF95A
:102E40002846FFF7EBF9C6B2E07DB0421CD1207EE8
:102E500098B1E7682020D5F800128143C5F8001228
:102E600000BF207EE0752069E060002020763A46B1
:102E700031462046FFF757FA06E00020E07531465C
:102E80002046E268FFF74FFA00BF4FF4A2712846D0
:102E9000FFF7AAF988B14FF4A2712846FFF7ABF902
:102EA000E07D50B10020E0752846FFF7B7F9C6B2C3
:102EB00031462046E268FFF736FA4FF49071284613
:102EC000FFF792F978B14FF490712846FFF793F924
:102ED000A07D40B100BF40F24C504059C6B23146CF
:102EE0002046FFF7DEFDBDE8FF8100000F00000077
:102EF0000E000000000000000000000000000000C4
:102F000000E0D7016E72665F6472765F7477695F06
:102F1000696E6974007477695F78666572006E72B5
:102F2000665F6472765F7477695F786665720000C9
:102F30000100000000000000000000000030004020
:102F400000000000110000001000000000006806F2
:102F500002000000000000506E72665F6472765FCF
:102F60006770696F74655F696E6974006E72665F21
:102F70006472765F6770696F74655F6F75745F699F
:102F80006E6974006E72665F6472765F6770696FF7
:102F900074655F696E5F696E69740000FFFFFFFF13
:102FA000FFFFFFFFFFFFFFFFFFFFFFFF000000002D
:102FB000000000000000D60107010000DC2F020025
:102FC000F82500204C0000005CF9010028300200C8
:102FD00044260020DC2600006CF9010014000000EB
:102FE00000000000000000000000000000000000E1
:102FF0000000000000200040000000000000000071
:1030000000000000000000000000000000000000C0
:1030100000000000000000000000000000000000B0
:08302000000000000090D00345
:040000050001F20103
:00000001FF
