:020000040001F9
:10F000000853002015F201001DF201001FF201005B
:10F0100021F2010023F2010025F2010000000000AE
:10F0200000000000000000000000000027F20100C6
:10F0300029F20100000000002BF201002DF2010076
:10F0400045F601002FF2010059FA010065F70100B1
:10F0500079F701002FF2010071F301002FF2010096
:10F060002FF201002FF201002FF201002FF2010018
:10F070002FF201002FF201002FF201002FF2010008
:10F080002FF2010095F601002FF201002FF201008E
:10F090008DF701002FF2010095F701002FF201001A
:10F0A0002FF201002FF201002FF201002FF20100D8
:10F0B0002FF201002FF2010000000000000000000C
:10F0C0002FF201002FF201002FF201002FF20100B8
:10F0D0002FF201002FF201002FF2010000000000CA
:10F0E0000000000000000000000000000000000020
:10F0F0000000000000000000000000000000000010
:10F1000000000000000000000000000000000000FF
:10F1100000000000000000000000000000000000EF
:10F1200000000000000000000000000000000000DF
:10F1300000000000000000000000000000000000CF
:10F1400000000000000000000000000000000000BF
:10F1500000000000000000000000000000000000AF
:10F16000000000000000000000000000000000009F
:10F17000000000000000000000000000000000008F
:10F18000000000000000000000000000000000007F
:10F19000000000000000000000000000000000006F
:10F1A000000000000000000000000000000000005F
:10F1B000000000000000000000000000000000004F
:10F1C000000000000000000000000000000000003F
:10F1D000000000000000000000000000000000002F
:10F1E000000000000000000000000000000000001F
:10F1F000000000000000000000000000000000000F
:10F20000DFF80CD000F0A2F800480047792802008F
:10F21000085300200648804706480047FEE7FEE7FF
:10F22000FEE7FEE7FEE7FEE7FEE7FEE7FEE7FEE7B6
:10F23000D5F7010001F201002DE9F05F054600203D
:10F2400092469B4688460646814640241BE0284657
:10F2500041464746224600F068F853465A46C01ACF
:10F26000914110D311461846224600F04FF82D1A4E
:10F2700067EB01084F4622460120002100F046F8C6
:10F2800017EB00094E41201EA4F10104DFDC4846C3
:10F2900031462A464346BDE8F09F000000487047CB
:10F2A000086C020040EA01039B0703D009E008C98B
:10F2B000121F08C0042AFAD203E011F8013B00F83B
:10F2C000013B521EF9D27047D2B201E000F8012B87
:10F2D000491EFBD270470022F6E710B513460A46D6
:10F2E00004461946FFF7F0FF204610BD421C10F8F7
:10F2F000011B0029FBD1801A7047034611F8012B2E
:10F3000000F8012B002AF9D118467047202A04DBA7
:10F31000203A00FA02F1002070479140C2F1200328
:10F3200020FA03F3194390407047202A04DB203A67
:10F3300021FA02F00021704721FA02F3D040C2F115
:10F34000200291400843194670470000064C074DC3
:10F3500006E0E06840F0010394E8070098471034A5
:10F36000AC42F6D3FFF750FF946D0200B46D02007B
:10F370002DE9F04F89B04FF00008002008904FF4BD
:10F38000807007900126002413E0079805F046F9E5
:10F3900048B100BF81480068304020B1079805F0AF
:10F3A0002FF948EA060876000798001D80B20790FA
:10F3B000641C082CE9D34FF4BE7005F02FF950B14E
:10F3C0004FF4BE7005F01CF948F0004808AA01216E
:10F3D000002005F0FBF808F0FF0000B30126002430
:10F3E0001BE006EA0800B0B100BF6D4850F82400E9
:10F3F000C0F30420074600BF694850F82400C0F35A
:10F4000001408146204602F03BFB054615B14946C6
:10F410003846A84700BF7600641C082CE1D308F0EA
:10F42000004000287ED0002006900590002505E0D1
:10F430004FF0FF3004A941F825006D1C002DF7D0D6
:10F4400000BF0020069000246FE05648005D039046
:10F45000039820F0C00753480057401C002863D091
:10F4600004A9384604F0ADF900285DD003984FEAAE
:10F47000901A384602F04CFB814602F001FB0290E4
:10F48000029810B9BAF1030F4BD1BAF1030F11D1A1
:10F49000394605A80246CB0801F0070112F803C05F
:10F4A0004FF0010E0EFA01FE4CEA0E0C02F803C0FA
:10F4B00000BF00BF00BF00BF4FF0A041084600F5ED
:10F4C000E06151F82710C1F3014900BF08A938468F
:10F4D00004F077F98346BBF1000F02D0B9F1020FB7
:10F4E00005D0BBF1000F1BD1B9F1030F18D1BAF150
:10F4F000030F0FD1B9F1020F01D1032000E0022068
:10F5000001903846019904F0FDFF0698401CC0B2F6
:10F51000069000BF029818B151463846029A9047AB
:10F5200000BF00E036E000BF641C042C8DD30698B9
:10F5300058B3012703AA0121002005F047F8002550
:10F540000AE003A850F8250008A951F825108842C0
:10F5500001D0002702E06D1C002DF2D000BF17B1D2
:10F560000020069010E000250CE003A850F82500CC
:10F5700008A941F8250005A850F8250004A941F87C
:10F5800025006D1C002DF0D000BF069800287FF4E8
:10F5900058AF00BF09B0BDE8F08F00000463004021
:10F5A00010650040782E002000F01F0201219140DC
:10F5B000024A430942F823107047000080E200E04D
:10F5C00000F01F0201219140024A430942F8231032
:10F5D0007047000080E100E000F01F02012191402F
:10F5E0004209920002F1E022C2F80011704700F0D7
:10F5F0001F02012191404209920002F1E022C2F86B
:10F600000011704700F01F0201219140024A430996
:10F6100042F823107047000000E200E010B5002817
:10F6200007DA4A07140E054A00F00F031B1FD454D3
:10F6300003E04A07130E024A135410BD18ED00E010
:10F6400000E400E010B54FF4807004F04BF960B1B5
:10F650004FF4807004F04FF9012004F055F90120B7
:10F660000B494870002002F059FA4FF4827004F000
:10F6700039F958B14FF4827004F03DF9022004F0DA
:10F6800043F901200249887002F048FA10BD0000D9
:10F69000142E002010B500200949086000210948F7
:10F6A000C0F84411C0F84811C0F84C1100200549B9
:10F6B000C1F8000102493C39086006F0C9FA10BDE2
:10F6C000401101400010014010B500BF0348007810
:10F6D00008B900F0D3F900BF10BD00008C32002043
:10F6E0002DE9F047074688461646C24607EB470114
:10F6F0001B4800EBC109D9F8140020B1012811D032
:10F70000022826D11EE0484600F0F0F90546B54231
:10F7100001D2002405E0344632465146484600F006
:10F720002CFA18E0484600F0E1F90546B54201D24E
:10F73000284600E03046044622465146484600F03E
:10F740001CFA08E032465146484600F0DDF904460E
:10F7500001E0002400BF00BF2046BDE8F0870000A4
:10F76000A432002010B50249024802F025FF10BD66
:10F77000D42C00200030004010B503494FF0402049
:10F7800002F01AFF10BD0000FC2C002010B506F09E
:10F7900069F910BD70B50A48006868B1084800688A
:10F7A0008047044600BF254625B100BF284600F02B
:10F7B000B9FE00BF00BF01E002F05CFE70BD0000BA
:10F7C000A026002001480249086070470090D0033D
:10F7D000B826002010B502F0C9FB28B18E48008879
:10F7E000C0F304208D49086002F014FC10B18C486D
:10F7F0008C49486702F026FC30B18748E038006841
:10F80000C0F342308849086002F046FC28B18748BE
:10F81000006820F080708549086002F055FC48B10E
:10F820000020834908604FF08041C1F810017E49F3
:10F83000091F086002F072FC18B103207A49643194
:10F84000086002F083FC68B105207A490860012055
:10F8500078497831086000207649083108603F20F7
:10F86000091F086002F08AFC002855D06A48E03081
:10F870000068714908606848E4300068091D086044
:10F880006548E8300068091D08606348EC3000688E
:10F89000091D08606048F0300068091D08605E4876
:10F8A000F4300068091D08605B48F8300068624960
:10F8B000203108605848FC300068091D08605F4826
:10F8C0000068091D08605D48001D0068091D08608A
:10F8D0005A4808300068091D086058480C30006814
:10F8E000091D0860554810300068534940310860D0
:10F8F000524814300068091D0860504818300068EC
:10F90000091D08604D481C300068091D08604B48FF
:10F9100020300068091D086002F0FEFA30B13E4850
:10F92000CC38006800F04F004549086002F048FB01
:10F9300040B14448006800F0010018B16FF00100C8
:10F940004049086039487438006840F4700037490D
:10F950007439086000BF00BF00BFBFF34F8F00BF06
:10F9600000BF00BF00BF00BF00BFBFF36F8F00BF6D
:10F9700000BF00BF3448006800F0004028B932489A
:10F98000001D006800F00040F0B301202F4908601E
:10F9900000BF2F4800680028FBD015202A490860C6
:10F9A00000BF2B4800680028FBD015212648001D09
:10F9B000016000BF264800680028FBD000202349D2
:10F9C000086000BF224800680028FBD000BF00BFCD
:10F9D00000BF00BF00BFBFF34F8F00BF00BF00BF1D
:10F9E0001248F038006800F4E0601A490843001D2E
:10F9F0000E49F039086000BF00BF00BFBFF34F8F52
:10FA000000BF00BF00BF00E002E000BF00BFFDE795
:10FA1000FFF7D8FE10BD0000240300104035014060
:10FA20000DF0ADBA00C007403C050040FCED00E021
:10FA30000C0100401056004020C500402404001076
:10FA4000E40E0040000400400012001004E50140F4
:10FA500000E401400000FA0510B50648007F20B11F
:10FA60000449054806F055FE03E00249024806F045
:10FA7000AFFD10BD802E00200020004010B5124CBC
:10FA800002202061606111A0A0611349E1614FF47F
:10FA9000007121620021A1626162E1620BA0A06499
:10FAA0000E49E164102121650021A1656165E165D0
:10FAB0000BA1E01DFFF721FC0AA12046FFF71DFC6A
:10FAC0002020A07110BD00008C3200205465726DA2
:10FAD000696E616C000000007C3000207C320020E8
:10FAE00052545400534547474552000010B5014653
:10FAF0000A69CB689A4204D88C68641EE41AA0187C
:10FB000001E0D41A601E10BD2DE9F0470446894675
:10FB100017464FF0000AE56800BFD4F81080A845EA
:10FB200003D9A8EB0500461E04E0A5EB0800401C25
:10FB3000A1680E1AA068401BB04201D9304601E00E
:10FB4000A068401B0646BE4201D2304600E038465F
:10FB500006466168481932464946FFF7A3FBB2449E
:10FB6000B144BF1B3544A068A84200D10025E56020
:10FB7000002FD2D15046BDE8F0872DE9F04704466A
:10FB800089461546E668A068871BAF4208D96168B8
:10FB900088192A464946FFF785FB7019E06010E096
:10FBA000B8466168881942464946FFF77BFBA5EBDA
:10FBB000070809EB070142466068FFF773FBC4F8CA
:10FBC0000C80BDE8F08700000FB4054B10B503A909
:10FBD000044A029800F04EF810BC5DF814FB0000D7
:10FBE0009F220200942600200FB41CB50A46521E24
:10FBF000CDE9000207A9054B6A46069800F03AF8DD
:10FC0000009A002111701CBC5DF814FBD7000200A3
:10FC100002E008C8121F08C1002AFAD170477047D5
:10FC2000002001E001C1121F002AFBD17047000033
:10FC30000146202908DA012088400A4A104008B10C
:10FC4000012070470020FCE7402909DAA1F12000DB
:10FC5000012202FA00F008B10120F2E70020F0E7EB
:10FC60000120EEE7FC06FFBD00BFEFF31081084660
:10FC700072B670472DE9FF4F8DB00F46054600263E
:10FC800006E025280BD0DDE90F1290476D1C761C8D
:10FC900028780028F5D111B03046BDE8F08F002457
:10FCA000A246A1460122EC4900E0044315F8013FB9
:10FCB000203B02FA03F00842F7D128782A2810D016
:10FCC0006FF02F022878A0F13001092914D80AEB2F
:10FCD0008A0102EB410144F0020400EB010A6D1CB1
:10FCE000F0E701CF5FEA000A03D544F40054CAF1FB
:10FCF000000A44F002046D1C28782E2817D115F84C
:10FD0000010F44F004042A280ED06FF02F02287847
:10FD1000A0F1300109290AD809EB890102EB410160
:10FD200000EB01096D1CF2E757F8049B6D1C287865
:10FD30006C280FD006DC4C2817D068280DD06A2814
:10FD400014D104E0742810D07A280FD10DE044F4C7
:10FD500000140AE044F4801401E044F4401469788B
:10FD6000814202D104F580146D1C6D1C2A786E2A24
:10FD70001FD00CDC632A31D004DC002A8BD0582A37
:10FD800011D1A3E0642A68D0692A0CD165E0732AF6
:10FD90002ED004DC6F2A73D0702A04D19BE0752A20
:10FDA0006FD0782A6ED01046DDE90F129047761C8E
:10FDB00050E1C4F30250022806D0032809D00428D9
:10FDC00001CF09D0066045E101CFF117C0E900611C
:10FDD00040E101CF06803DE106703BE117F8040BDE
:10FDE0008DF8000000208DF80100EB46012003E0B3
:10FDF00057F804BB4FF0FF3061074FF0000102D409
:10FE00000DE008F10101884649450FDA8045F8DB2D
:10FE10001BF808100029F4D108E008F10101884618
:10FE20008142FADB1BF808100029F6D1DDE90F2327
:10FE3000AAEB08008146214600F036F9304400EB79
:10FE4000080604E0DDE90F121BF8010B9047B8F13A
:10FE50000108F7D221464846F7E00A21C4F30253CD
:10FE60004FF0000B0891022B04D001CFC117032BD8
:10FE700009D00AE0FF1D27F00707F7E8020108E0B4
:10FE800032E01FE020E000B2C117042B01D140B2E4
:10FE9000C117031E71F1000307DA4FF0000CD0EB1D
:10FEA0000C006CEB01012D2302E0230504D52B236C
:10FEB0008DF82430012303E0E30701D02023F7E786
:10FEC000984658E00A2110E010210EE010204FF073
:10FED000000B08900CE010214FF0000B44F00404DC
:10FEE0004FF00809089103E008214FF0000B08913A
:10FEF000C4F30253022B04D001CF0021032B06D000
:10FF000006E0FF1D27F00707F7E8020103E080B2D3
:10FF1000042B00D1C0B24FF0000823072BD5702A64
:10FF200007D0DDF820C08CF0100C5CEA0B0C05D07B
:10FF30000EE040238DF82430012308E050EA01034D
:10FF400006D030238DF824308DF8252002239846E2
:10FF5000DDF820C08CF0080C5CEA0B0C0BD150EAE9
:10FF6000010301D1630706D530238DF824304FF00B
:10FF70000108A9F10109582A04D038A20B9208AA55
:10FF80000A920BE03AA2F9E75B46089AFFF754F9A8
:10FF90000B9B9B5C0A9A521E0A92137050EA010254
:10FFA000F2D10A98ADEB000000F1200B600702D5FA
:10FFB00024F4803401E04FF00109D94502DDA9EBBA
:10FFC0000B0000E0002000EB0B0141440890AAEB7D
:10FFD000010AE00306D4DDE90F232146504600F074
:10FFE00063F806444FF0000908E009A911F8090078
:10FFF000DDE90F12904709F10109761CC145F4DBD8
:020000040002F8
:10000000E0030CD5DDE90F232146504600F04CF803
:10001000064404E0DDE90F1230209047761C089971
:10002000481E08900029F5DC08E00A980A99007833
:10003000491C0A91DDE90F129047761CBBF10001C3
:10004000ABF1010BF1DC21465046DDE90F2300F056
:1000500019F806446D1C1BE60928010030313233C3
:1000600034353637383961626364656600000000F4
:1000700030313233343536373839414243444546DE
:10008000000000002DE9F041044600251E461746F9
:10009000880404D405E039462020B0476D1C641E56
:1000A000F9D52846BDE8F0812DE9F0410446002548
:1000B0001E469046C80301D5302700E0202788045B
:1000C00004D505E041463846B0476D1C641EF9D59D
:1000D0002846BDE8F0814A68002A06D00A68531C09
:1000E0000B6010704868401E48607047024600214F
:1000F00004E0505C08B101207047491C0629F8D380
:100100000020F9E72DE9FC41044688461646002503
:1001100037880020308094F82D0058B13A46314697
:10012000404600F0B4FE054600BF15B12846BDE8C4
:10013000FC8100BFA07850B13A463146404600F0FD
:10014000A7FB054600BF0DB12846F0E700BFE078E9
:1001500060B1E17848B23B463246414602F07AF857
:10016000054600BF0DB12846E1E700BF606868B1F1
:10017000616891F900003B463246414606F020F99D
:10018000054600BF0DB12846D1E700BF20890028F1
:100190000EDD43460622022104F10800CDE9006786
:1001A00006F0B6FB054600BF0DB12846BFE700BF0D
:1001B000208A00280EDD43460722032104F11000A7
:1001C000CDE9006706F0A4FB054600BF0DB1284647
:1001D000ADE700BF208B00280EDD43461522142119
:1001E00004F11800CDE9006706F092FB054600BF58
:1001F0000DB128469BE700BF206A58B13B46324606
:100200004146206A01F017FD054600BF0DB12846A2
:100210008DE700BF606A58B13B4632464146606A8E
:1002200002F07AFB054600BF0DB128467FE700BF0C
:1002300094F82C0000280BDD3B4632464146204610
:1002400005F0E4F9054600BF0DB128466FE700BF91
:10025000207858B13B4632464146204603F050FADA
:10026000054600BF0DB1284661E700BF28465EE79E
:1002700070B504461448FFF739FF0546012C06D037
:10028000022C0BD0032C10D0042C1AD113E00F48F1
:10029000407810B10DB1012070BD00BF0B488078CF
:1002A00010B10DB10220F7E700BF0848C07808B1CF
:1002B0000320F1E700BF0548007908B10420EBE70F
:1002C00000BF0020E8E700002A260020242D00209F
:1002D0000146481C052290FBF2F302FB1300C0B25A
:1002E00070470146C87800F0040008B9072070473D
:1002F0000020FCE710B501220221002001F0FEF8E9
:10030000044600BF1CB1072C01D0204610BD00BF21
:1003100007220221012001F0F1F8044600BF1CB1C0
:10032000072C01D02046F1E700BF0A220021084631
:1003300001F0E4F8044600BF1CB1072C01D02046B0
:10034000E4E700BF0020E1E730B5A7B03C2118A8E2
:10035000FEF7C1FF02208DF8600000208DF86200DA
:1003600005208DF863003C2109A8FEF7B4FF0120A9
:10037000ADF8340011490E91202101A8FEF7ABFF22
:1003800001208DF8070040200590B4200690002041
:100390000B4B01AA09A9009018A800F065FB0446C0
:1003A00000BF254625B100BF284600F0BBF800BFBE
:1003B00000BF012000F052FB27B030BDFA2500201D
:1003C000114C020010B50446022000F00BFF10BDD6
:1003D00010B5002407E00749096811F8340001212D
:1003E00003F00CFC641C044800788442F3D3002022
:1003F00010BD00005C260020602600202DE9F84397
:1004000006460C461746052F02D20720BDE8F883A2
:1004100003F0F2FC38B903F0BFFC054600BF0DB194
:100420002846F3E700BF16480660164804701648D1
:1004300007600020154908601549086015E006EBC3
:10044000C40814480068009098F802008DF8010074
:1004500098F80000104A694603F026FC054600BFE4
:100460000DB12846D2E700BF00BF201EA4F1010154
:10047000CCB2E4D1094A0021094800F093F8C5E75D
:100480005C260020602600206426002068260020CC
:100490006C260020606B0200F5230200291E02007A
:1004A0005C6B020012A1012004F079FA14A1032070
:1004B00004F075FA00BF00BF00BF00BF00BFBFF36C
:1004C0004F8F00BF00BF00BF1448006800F4E06019
:1004D00013490843001D1149086000BF00BF00BF59
:1004E000BFF34F8F00BF00BF00BF00BF00BFFDE7DD
:1004F0003A4552524F523A466174616C0D0A0000FF
:100500003A494E464F3A486974207765616B2068D6
:10051000616E646C65720D0A000000000CED00E075
:100520000000FA053EB504460020009001900290BC
:1005300002946A46002144F20100FFF7B3FF3EBD7A
:1005400070B504460D46204601F068FE28B12946E4
:10055000204601F057FE002070BD0520FCE7034651
:1005600009B90E20704712B1501E104008B1092081
:10057000F8E71960501E988000209860D86000BF8E
:10058000F0E770B504460D46204601F047FEA1880D
:10059000884205D82946204601F053FE002070BD50
:1005A0000420FCE710B503460C4600BF0B488078DA
:1005B00008B9082010BD00BF0AB90720FAE70BB937
:1005C0000720F7E71868007C08B10820F2E71968EF
:1005D000002008744C744A6100BFEBE7C02E002075
:1005E00010B504F093FE00200F49087048700B20EE
:1005F000887000200D4908600D4908700D49087089
:100600001420FEF7D1FF07211420FFF707F814206C
:10061000FEF7E2FF002004F04FFE04F047FE06491B
:100620000860002010BD0000C02E002070260020B1
:100630008026002081260020742600202DE9F0412C
:1006400004460E461746254600BF1048807810B96C
:100650000820BDE8F08100BF0CB90820F9E7052E9D
:1006600001D20720F5E7686908B90820F1E7687C3E
:10067000012801D1304600E0002080463B4642463A
:100680003146284605F094FAE3E70000C02E00202A
:1006900070B50446254600BF0848807808B9082090
:1006A00070BD00BF0CB1686908B90820F8E70020E8
:1006B00028740221284605F0AAFAF1E7C02E00208E
:1006C0002DE9F04104460F48077821460E48FFF710
:1006D00037FF804697B100200A49087001220B4974
:1006E0000B4803F08FFC054600BF2E4626B100BF25
:1006F0003046FFF717FF00BF00BF00BF4046BDE810
:10070000F081000092260020CC2F002091260020AE
:10071000842600202DE9F04188B004460D46174696
:1007200098462E4807601DB9072008B0BDE8F08143
:10073000A88882B22A482968FFF711FF064600BF41
:100740000EB13046F1E700BFA88982B22548A968FA
:10075000FFF705FF064600BF0EB13046E5E700BFD4
:10076000202221496846FEF79DFD60690690207CA5
:1007700008B1012000E000208DF814008DF81C80E5
:10078000607C08B10E2000E000208DF81500E068C4
:100790000290A06803902068019060680090134A5E
:1007A0006946134803F0ECFB064600BF0EB1304625
:1007B000BBE700BF00200F4908702068401C58B1FB
:1007C0009DF81D0010B90A4803F086FC01220A4971
:1007D000074803F017FCA8E70020A6E78C260020B6
:1007E000CC2F0020DC2F0020646B0200A1640200EB
:1007F00084260020922600209126002070B5044611
:1008000021460B48FFF7BDFE054675B9094803F0C0
:10081000FDFD50B908490648FFF792FE28B90122AC
:100820000549044803F03CFD0546284670BD00001C
:10083000DC2F0020842600209026002010B50446DE
:10084000204604F08BFE10BD70B5044625460E48C8
:100850008068B0B1ADB9FFF707FA06460A480068EC
:100860000A490860084840684FF0E021C1F80401D7
:100870000020054988601EB900BF62B600BF00BFF6
:1008800000BF00BF70BD0000EC2F002000E100E0C1
:10089000F8B505460C4617462088001DB84201D918
:1008A0000C20F8BD684679DF064600BF0EB1304621
:1008B000F7E700BF0320218868542088401C20806F
:1008C0001920218868542088401C208020884119E4
:1008D000BDF8000005F0A9FF218808442080002011
:1008E000DFE7000070B505460C462068401C28B1C3
:1008F000206803F042FE206803F0DFFD6068401CC2
:1009000018B10021606803F0CBFD28792D4901EB77
:100910004010007F50B32868A169C0F8241500BFBB
:10092000617D227D286841EA0203C0F86C3500BF72
:10093000D4E90012286804F0EDF8207D01283FD1A9
:10094000A068401C18B10021A06803F0A9FDE06870
:10095000401C28B1E06803F010FEE06803F0ADFD34
:10096000D4E90221286804F0C1F829E02868A169C7
:10097000C0F8241500BF617D227D286841EA02038A
:10098000C0F86C3500BFD4E90012286804F095F86F
:10099000207D012814D1A068401C18B10021A06856
:1009A00003F07EFDE068401C28B1E06803F0E5FD3F
:1009B000E06803F082FDD4E90221286804F066F8BB
:1009C00070BD0000802E00202DE9F04192B08046DD
:1009D0000D461F2011901090B8F1000F17D040461F
:1009E000FFF77FFC044600BF1CB1204612B0BDE8F3
:1009F000F08100BF11AA08A94046FFF783FB044617
:100A000000BF0CB12046F1E700BF08AE02E00026AF
:100A100000201190ADB1284604F0FEFF044600BF4F
:100A20000CB12046E2E700BF10AA69462846FFF74E
:100A300069FB044600BF0CB12046D7E700BF6F46F4
:100A400002E0002700201090BDF84000C3B2BDF8BE
:100A50004400C1B23A46304672DFC7E70149087028
:100A600070470000282600202DE9F04704460F4675
:100A700015461E46DDF8208004B115B90E20BDE8EC
:100A8000F087012049490870002049490870202258
:100A900029464848FEF706FC0020474908704748A9
:100AA00006604748C0F800804FF6FF70454908804F
:100AB000454800210160818081713C214348FEF757
:100AC0000AFC207841490870A0788870E078C870E6
:100AD000607848700846D4E90412C0E90412D4E9E9
:100AE0000212C0E90212D4E90612C0E90612606AD5
:100AF000D8B137483549486236498160606A008814
:100B00003249496A0880606A80883049496A888029
:100B1000002005E0616A8968095C2E4A1154401C76
:100B20002A49496A89888142F4D8A06A20B32A49AF
:100B30002A4881602549886227492448806A816063
:100B4000A06A80882149896A8880A06A00881F4934
:100B5000896A0880002005E0A16A8968095C1E4A4C
:100B60001154401C1949896A89888142F4D894F843
:100B70002C00164981F82C00206A58B118481349F6
:100B80000862206A4088096A4880206A00880F4904
:100B9000096A0880606810B10C496068486039468D
:100BA0000A48FFF711FF8146484668E724260020DF
:100BB00027260020242D002028260020382600206B
:100BC0003C2600203626002029260020442D002027
:100BD000802D00208C2D0020B82D0020AC2D002071
:100BE0003226002010B504462088102804D0112891
:100BF00006D01B280CD107E0204604F063F908E07A
:100C0000204604F01DFA04E0204604F0B3FA00E0A8
:100C100000BF00BF10BD000010B574DF01200F49F8
:100C2000087000200E49087006200E49C870002187
:100C30000C48FFF7C9FE04460CB1204610BD0A4817
:100C4000007800F015F8044634B10848006818B17F
:100C500020460649096888470020EFE74026002023
:100C600042260020442D0020272600203C2600207C
:100C70007FB505464E48007810B9082004B070BD15
:100C80004C48057001F001FB20B101204A49087071
:100C90000020F3E7494800210160818081714848C4
:100CA000407818B14348007801280DD04448807836
:100CB00018B140480078012806D04148807888B1B2
:100CC0003C48007802280DD13E48006838B1012028
:100CD0003D49087008203B490968884702E0002028
:100CE000394908702846FFF7C3FA32490870354879
:100CF0000068C0B108460078032803D00846007891
:100D0000042810D12E48007868B13048007850B9D6
:100D100000202F49087001202E490870072029491A
:100D20000968884702E000202A49087000200090E6
:100D30000190029003908DF800008DF808001D4886
:100D4000007805281CD2DFE800F01703080D120018
:100D5000684604F0BFFC044613E0684604F0CAFC91
:100D600004460EE0684604F0DBFC044609E06846F1
:100D700004F006FD044604E000201749087000E076
:100D800000BF00BF0B48007838B1144801786846AE
:100D900073DF04460CB1204670E70A48006820B1B2
:100DA0000D480078074909688847002066E7000079
:100DB0002426002027260020252600202926002082
:100DC000242D002038260020302600204026002038
:100DD000422600204126002026260020282600202A
:100DE00070B505461C2229461248FEF75BFA002022
:100DF00011490870286850B1104829680A680260D3
:100E0000496841607ADF04463CB1204670BD0B481A
:100E10007BDF04460CB12046F8E74FF6FF70084927
:100E20000880002007490870074A00210748FFF79B
:100E3000B9FBEBE7D82D00205826002044260020DF
:100E40004E2600204C26002039680200E86A020085
:100E500010B504462088102806D0112808D0122882
:100E60000ED0502810D107E0204604F00BF80CE01B
:100E7000204604F0C1F808E0204604F097F904E0A9
:100E8000204603F0F3FF00E000BF00BF10BD2DE9D6
:100E9000FC4105460C46174620880930B84202D965
:100EA0000C20BDE8FC8168466DDF064600BF0EB130
:100EB0003046F6E700BF0820218868542088401C8F
:100EC00020801B20218868542088401C2080208896
:100ED0002844DDF801100160BDF8051081802088EC
:100EE000801D20809DF80000400818B9002021884E
:100EF000685402E00120218868542088401C20802A
:100F00000020CEE710B504462046FFF7A1FF21469A
:100F1000084802F08BFC2146074800F059F82046AB
:100F200003F090FE2046FFF75DFE204600F0F2F948
:100F300010BD0000D8260020BC26002070B586B069
:100F400004460E46214B0FCB01AD0FC500BF14B9AF
:100F50000E2006B070BD00BF00BF0EB90E20F8E72E
:100F600000BF4FF6FF70A0823068A0610020A0751E
:100F7000214601A862DF054600BF0DB12846E8E71B
:100F800000BF20788DF816000120ADF81400A21CD7
:100F900005A9A0DF054600BF0DB12846D9E700BF6F
:100FA0003146204604F0FDF9054600BF0DB1284644
:100FB000CFE700BF3146204605F057F9054600BF90
:100FC0000DB12846C5E700BF0020C2E7046B020050
:100FD00070B505460C4605B104B970BD20881028CF
:100FE00004D0112807D050280FD109E02146284607
:100FF00003F064FF0AE02146284604F01DF805E0EE
:101000002146284604F0F8F800E000BF00BF00BF0A
:10101000E3E737B584B004460D4600BF14B90E208F
:1010200007B030BD00BFA08A4FF6FF71884201D0E3
:10103000A07D08B90820F3E7BDF818009B2801DD62
:101040000720EDE700200090019002900390A08817
:10105000ADF80000039506A8029001208DF802006B
:10106000A08A6946A6DFDBE770B50446204605F096
:10107000D6FB054605F0010070BD000070B586B0D6
:1010800046480068059000BF0023D822444905A8BF
:1010900004F06CFC054600BF2E4626B100BF30466A
:1010A000FFF740FA00BF00BF00BF0020049004A873
:1010B00004F0BCFB044600BF254625B100BF28460E
:1010C000FFF730FA00BF00BF0020019002900390AC
:1010D00001208DF8040000208DF805008DF8060031
:1010E00001A94020049A69DF044600BF254625B1C6
:1010F00000BF2846FFF716FA00BF00BF002001908E
:101100000290039001208DF804009E20ADF80600A7
:1011100001A92320049A69DF044600BF254625B1B2
:1011200000BF2846FFF7FEF900BF00BF0020019076
:101130000290039001208DF804004FF4A071ADF8E7
:1011400008108DF8060001A92020049A69DF0446E2
:1011500000BF254625B100BF2846FFF7E3F900BFD1
:1011600000BF04A804F078FB044600BF254625B163
:1011700000BF2846FFF7D6F900BF00BF094804F0BA
:101180005FFB044600BF254625B100BF2846FFF798
:10119000C9F900BF00BF06B070BD0000486A020078
:1011A000F4260020050F020001460148405C70470C
:1011B000686A020010B50146094B585C00BF4FF049
:1011C000A044234600BFD3F81045C44004F00104F6
:1011D0000CB1012000E00020024682F0010010BDA9
:1011E000686A020010B502460949885C00BF4FF0EA
:1011F000A0442146D1F80435012484409C43C1F821
:101200000845012484401C40C1F80C4500BF10BDB6
:10121000646A020010B504460249085D012103F02A
:10122000B7F910BD646A020010B504460249085DB2
:10123000002103F0ADF910BD646A020010B501464B
:10124000094B585C00BF4FF0A044234600BFD3F8C1
:101250000445C44004F001040CB1012000E000206A
:10126000024682F0010010BD646A02007CB50024D1
:101270000CE00948055D002000900346012211465C
:101280000190284603F0D0F800BF641C042CF0D372
:1012900000F004F87CBD0000646A020010B5002470
:1012A00003E02046FFF7B6FF641C042CF9D310BD01
:1012B00010B5002403E02046FFF7B6FF641C042CA1
:1012C000F9D310BD02464FF0FF30002106E0054B78
:1012D0005B5C934201D1084602E0491C0429F6D325
:1012E00000BF7047686A020070B505460C460026CC
:1012F0000648056014B1204604F095FB04480068D8
:1013000010B9FEF7F7FF0646304670BD1C260020D8
:101310002026002070B505462888102802D0112804
:101320002CD115E01748006860B900F031FD044683
:1013300000BF34B11448006818B12046124909684A
:10134000884700BF0F480068401C0E49086016E03F
:101350000C480068401E0B4908600846006860B9E8
:10136000FEF7C8FF044600BF34B10748006818B153
:10137000204605490968884700BF00E000BF00BF5C
:1013800070BD0000202600201C26002010B5002083
:1013900000F006FB044600BF1CB1062C01D020461D
:1013A00010BD00BF012000F0FBFA044600BF1CB1D5
:1013B000062C01D02046F3E700BF0020F0E7000034
:1013C0002DE9F04106460F464FF000080024304654
:1013D000FFF778FF0446042C3ED20FB3012F02D052
:1013E000022F38D130E004EB4400214911F800808D
:1013F00004EB44000844407850B11E4A4FF40041C9
:101400001D480068FFF71AF905460DB9194806701E
:1014100004EB4400164908448078184908551AE03E
:1014200015480068FFF734F91448005D04EB4401E7
:101430000F4A11448978884205D104EB44001146D3
:10144000084490F8028006E004EB44000849084490
:1014500090F8018000BF00BFB8F1000F06D0084827
:10146000006818B14046064909688847BDE8F08120
:10147000A82C002014260020746A020015260020E3
:101480001026002010B504462046FFF793FE10BD3D
:1014900070B50546042D06D0072D15D00A2D28D18C
:1014A00004F09EF926E013211348008876DF0446F5
:1014B000082C08D000BF264626B100BF3046FFF7F3
:1014C00031F800BF00BF15E00B4800884FF6FF71F0
:1014D00088420DD1FFF7A0FB0446082C08D000BFBE
:1014E000264626B100BF3046FFF71CF800BF00BFFC
:1014F00000E000BF00BF70BDF825002030B50346F6
:101500000020042B23D2012A07D1012903D103F1A2
:101510000E04E4B200E00024224679B1012902D091
:10152000022911D104E003EB43040A4D2A550DE0D2
:1015300003EB4304074D2C44627007E003EB4304C4
:10154000044D2C44A27001E0072000BF00E00720FA
:1015500030BD0000A82C002070B5044600250548C9
:10156000007800F0010018B1204600F05BF8054655
:10157000284670BD082600202DE9F04105460F469B
:1015800000241F4805601F48076005F0020000B3F3
:10159000002606E0012211463046FFF7AFFF044661
:1015A000761C042E01D2002CF4D034B940F26662CD
:1015B00004211548FEF722FF044614B9FEF708FF80
:1015C00004462CB9114A00211148FEF7EBFF0446EE
:1015D00000BF05F0010008B1FFF748FE2CB90D4A25
:1015E00000210D48FEF7DEFF04462CB90B4A01210D
:1015F0000B48FEF7D7FF04462046BDE8F081000007
:101600000826002010260020786A0200CB1902006C
:10161000746A0200E52602006C6A0200C50302003B
:10162000706A02002DE9F047044600260025D748DD
:10163000007820B10020D549087001F03FF8182C3F
:1016400079D2DFE804F00C11124579ADF1FFEEED2F
:10165000ECEBEAE9E8E7E6E5E4E3E2E1E0DF01F00C
:101660002DF8CB4804708DE100BF0020FFF7E6FDA8
:1016700058B10020FFF7CEFD022C02D14FF4E160FB
:1016800001E04FF47A60054609E00020FFF7CCFD49
:10169000022C01D1C82001E04FF4C8700546BC48B7
:1016A00004704FF40040A5FB00204FF4FA73D718E4
:1016B00040F100015A0000233846FDF7BDFD814688
:1016C00000224946B3480068FEF7B8FF064659E1D4
:1016D0000020FFF7B3FD58B10020FFF79BFD032C5E
:1016E00002D14FF4487001E04FF47A60054609E0FA
:1016F0000020FFF799FD032C01D1C82001E04FF431
:10170000C8700546A24804704FF40040A5FB0020B5
:101710004FF4FA73D71840F100015A0000233846FD
:10172000FDF78AFD8146002249469A480068FEF787
:1017300085FF064626E124E10020FFF77FFD58B132
:101740000020FFF767FD042C02D14FF47A6001E01E
:101750004FF47A6005460AE00020FFF765FD042C8F
:1017600002D14FF4C87001E04FF4C87005468848B4
:1017700004704FF40040A5FB00104FF4FA73CF182B
:1017800040F100015A0000233846FDF755FD81461F
:10179000002249467F480068FEF750FF0646F1E008
:1017A0000020FFF74BFD50B10020FFF733FD052C63
:1017B00001D1C82001E04FF47A60054609E000201D
:1017C000FFF732FD052C01D1C82001E04FF4C870AD
:1017D00005466F4804704FF40040A5FB00204FF40D
:1017E000FA73D71840F100015A0000233846FDF77C
:1017F00023FD81460022494666480068FEF71EFF29
:101800000646BFE0B8E0B6E0AAE0A1E098E092E0CA
:101810005FE05DE05BE059E057E051E042E033E03B
:1018200024E015E00EE0FFE70020FFF7DBFC58485E
:101830000470002240F6CD4156480068FEF7FEFED7
:1018400006469FE00020FFF7EFFC5148047099E046
:1018500001204E490870FFF7C5FC002240F6CD413B
:101860004C480068FEF7EAFE06468BE00120474937
:101870000870FFF7B7FC00224FF48041454800682C
:10188000FEF7DCFE06467DE0012040490870FFF7C8
:10189000A9FC002240F6CD413E480068FEF7CEFE8E
:1018A00006466FE0012039490870FFF79BFC0022D3
:1018B0004FF4804137480068FEF7C0FE064661E0FD
:1018C000FFF7F6FC324804705CE000BF00BF00BFC9
:1018D00000BF31480068FEF7DBFE0646C4F1110583
:1018E00015B30EBB012D18D9A8B2C82148434FF437
:1018F000004180FB01304FF4FA729F1840F1000163
:10190000520000233846FDF797FC814600224946E5
:1019100021480068FEF792FE06460220FFF784FC8D
:1019200001201E49087005E00220FFF773FC00202B
:101930001A49087026E000F0C1FE1548047021E045
:1019400000F0BCFE0020FFF76FFC1148047019E0A6
:1019500000F0B4FE0120FFF767FC0D48047011E0B1
:1019600000F0ACFE0020FFF75FFC0120FFF75CFCFD
:101970000748047006E000BFFFF79AFC04480470B3
:1019800000E000BF00BF3046BDE8F087052600201C
:10199000042600206C6A0200706A02000C260020F7
:1019A00070B504462046FFF7FFFB0546032102F011
:1019B00090FD002070BD0246002901DA002003E0FE
:1019C00013680B4413600120704710B5044620785B
:1019D0000221FFF7F5FC10BDF8B5054612490320BA
:1019E000FFF7CAFD044600BF264626B100BF3046B9
:1019F000FEF798FD00BF00BF69460020FFF774FCAA
:101A0000044600BF264626B100BF3046FEF78AFDD9
:101A100000BF00BF9DF80000022801D1012000E0B6
:101A200000202870F8BD00009114020030B5024675
:101A30000B4602210EE08C0042FA04F404F00F0081
:101A4000092802DD00F1370401E000F13004C1F1A2
:101A500001055C550C1EA1F10101ECD130BD000067
:101A60004FF0FF31054A42F82010082804DBFF231D
:101A7000A0F108015032535470470000282E002076
:101A80000146024850F8210070470000282E00202F
:101A90002DE9F04F03460C464FF0FF390AB1002004
:101AA00000E0082084460AB1082000E00C208046AF
:101AB000614624E0154850F82100401CF0B91D464D
:101AC0000846274616464FFA80FBDFF840A00AF189
:101AD000300A0AF805B0DFF834A04AF820704EB991
:101AE0004FFA85FBA0F1080ADFF820E00EF1500E56
:101AF0000EF80AB000BF4FFA81F902E0491C4145D7
:101B0000D8D300BF4846BDE8F08F0000282E002043
:101B10000146014840567047582E002070B50546D2
:101B20000DB9094C01E0084C083409E0204600F0EA
:101B3000BFFD064606B904E028467168884700BF25
:101B4000F4E700BF70BD00001C2E00202DE9F04717
:101B500082461F480068002836D01D480068056886
:101B600003F0A4FB07461B4804682146384603F0EF
:101B70006DFFC61C1848007808B903F0A9FBAE42F7
:101B800001D2284600E03046044424F07F44204639
:101B900003F086FB03F08AFB80463946404603F09B
:101BA00055FF00F103093946204603F04FFF8145F8
:101BB00009D903F07BFB814603F072FB2F2001F073
:101BC00041FF04F091F801E003F0A0FBBDE8F087CD
:101BD00070260020742600208226002001460888F6
:101BE000062808DB0888B0F5486F06DD08884FF640
:101BF000FF72904201D0072070474888062808DB12
:101C00004888B0F5486F06DD48884FF6FF7290426D
:101C100001D00720F0E708884FF6FF72904208D005
:101C20004888904205D008884A88904201DD072004
:101C3000E2E70020E0E72DE9F04106460D461446B4
:101C400098462088801D404502D90C20BDE8F081CF
:101C50003046FFF7C3FF074600BF0FB13846F5E730
:101C600000BF0520218868542088401C2080122055
:101C7000218868542088401C20802288511930888F
:101C800004F0D3FD218808442080228851197088EF
:101C900004F0CBFD2188084420800020D6E710B551
:101CA000044600BF2046FEF73DFC00BF10BD00000B
:101CB00030B587B01C216846FDF70DFB0020009071
:101CC0004FF4203001904FF47020029003208DF8E3
:101CD0000C000020ADF80E008DF8100009480590AA
:101CE000094806906846FFF77BF8044600BF254682
:101CF00025B100BF2846FEF715FC00BF00BF07B0A6
:101D000030BD0000414E02009F1C020038B51B4848
:101D100000F0BCFC20BB1A48007848B11948406963
:101D2000E8B100200090174841696846884716E0EE
:101D30001548007810B91348456801E011488568D6
:101D40000022294611480068FEF778FC044634B1A9
:101D50000C48806918B10B4881692046884709E022
:101D60000848406930B10120009006484169684642
:101D7000884700BF00200249087038BD5026002067
:101D800058260020D82D00204C260020E86A0200AA
:101D900010B5012200210846FFF7B0FB044600BF42
:101DA0001CB1072C01D0204610BD00BF0722022124
:101DB0000120FFF7A3FB044600BF1CB1072C01D094
:101DC0002046F1E700BF042202210020FFF796FB26
:101DD000044600BF1CB1072C01D02046E4E700BF39
:101DE0000020E1E77CB504460D46002000900190FC
:101DF000A81D00EBC4008079ADF80000A81D00EB21
:101E0000C4008079ADF802000022694620468FDFC9
:101E100006462EB1334622460249012002F0D5FD86
:101E20007CBD0000206D02002DE9F04781460025B1
:101E300032E01C48006800EBC5042178012000FA5C
:101E400001F619480068304020B317480068B043D5
:101E500015490860207801F095FF07462178012098
:101E60008840124909680840217807FA01F1884240
:101E70000FD16078012800D100E00020784080F088
:101E80000108606820B108F0FF012078626890477F
:101E900000BF00BF681CC5B2054800788542C8DB9A
:101EA000BDE8F0875C2600206C2600206826002014
:101EB00060260020014614480078144A12789042A7
:101EC0001DD011480078401C0F4A10701046007851
:101ED000022801D1002010700D480B4A127850F8EA
:101EE000220008600B4A086812681044094A106012
:101EF0001046006820F07F401060012070470020ED
:101F0000086000BFFAE7000080260020812600203C
:101F1000782600207426002013480078062820D157
:101F20001148001D007800F00F00D0B90E480830AD
:101F3000007800F0F000302801D1012070470A48F5
:101F40000830007800F0F000402801D10120F5E7CA
:101F500005480830007800F0F000502801D1012039
:101F6000ECE70020EAE70000E00F00F013480078FB
:101F7000062820D11148001D007800F00F00D0B9CC
:101F80000E480830007800F0F000302801D1012020
:101F900070470A480830007800F0F000402801D16E
:101FA0000120F5E705480830007800F0F0005028DF
:101FB00001D10120ECE70020EAE70000E00F00F08B
:101FC00013480078062820D11148001D007800F041
:101FD0000F00D0B90E480830007800F0F00030282B
:101FE00001D1012070470A480830007800F0F00065
:101FF000402801D10120F5E705480830007800F0BD
:10200000F000502801D10120ECE70020EAE70000B1
:10201000E00F00F00A48007806280ED10848001D9D
:10202000007800F00F0040B905480830007800F053
:10203000F000302801D1012070470020FCE70000AB
:10204000E00F00F013480078062820D11148001D49
:10205000007800F00F00D0B90E480830007800F08A
:10206000F000302801D1012070470A48083000787C
:1020700000F0F000402801D10120F5E705480830C4
:10208000007800F0F000502801D10120ECE700209A
:10209000EAE70000E00F00F00A48007806280ED1B9
:1020A0000848001D007800F00F0040B905480830CE
:1020B000007800F0F000302801D1012070470020A6
:1020C000FCE70000E00F00F013480078062820D15C
:1020D0001148001D007800F00F00D0B90E480830FC
:1020E000007800F0F000302801D1012070470A4844
:1020F0000830007800F0F000402801D10120F5E719
:1021000005480830007800F0F000502801D1012087
:10211000ECE70020EAE70000E00F00F00A48007852
:1021200006280ED10848001D007800F00F0040B9C5
:1021300005480830007800F0F000302801D1012077
:1021400070470020FCE70000E00F00F00A4800782C
:1021500006280ED10848001D007800F00F0040B995
:1021600005480830007800F0F000302801D1012047
:1021700070470020FCE70000E00F00F00A480078FC
:1021800006280ED10848001D007800F00F0040B965
:1021900005480830007800F0F000502801D10120F7
:1021A00070470020FCE70000E00F00F0F0B50346A8
:1021B00000241FE0124E306806689E4203D906686C
:1021C000F61A06601AE006689B1B0668344400266F
:1021D00006600B4E35680A4FC6693E60C66846B158
:1021E0000E1926F07F464660C66886601668C6618E
:1021F000156000BF024800680028DBD100BFF0BDB9
:102200007026002070B504460D462A46002120465F
:1022100000F00EF8A068401CA06070BD01468A68FE
:10222000C868801A704701468A68C868801A704773
:1022300010B583680B44848823400468E35C137002
:1022400010BDC26883881A4003689954C268521C42
:10225000C260704730B504461088C01C984201D94E
:102260000C2030BD0220158848551088401C108075
:102270000120158848551088401C108015884C5541
:102280001088401C10800020EBE708B5684600F07D
:102290000FF8009808B1012008BD0020FCE770B5D8
:1022A00004460D46E0B2FEF7A9FA204670BD0000D4
:1022B000014609B9032070470248406E08600020BB
:1022C000F9E70000F82F00203EB500BF9DF80000A0
:1022D00020F00F00401C00909DF8000020F0F0005E
:1022E0001030009000BF052214A168467CDF044630
:1022F00000BF254625B100BF2846FEF713F900BFF1
:1023000000BF0020019002901020ADF804003C2096
:10231000ADF806000020ADF808004FF4C870ADF825
:102320000A0001A87ADF044600BF254625B100BF98
:102330002846FEF7F7F800BF00BF3EBD3132333408
:102340003500000070B505460C4660880A490988CA
:1023500088420FD1208840F6772188420AD1A08890
:10236000C01E0649088008460388028804A103208D
:1023700002F02BFB70BD0000F8250020FE25002098
:102380006D66726336333020202020203A494E4655
:102390004F3A44617461206C656E206973207365E7
:1023A0007420746F2030782558282564290D0A0080
:1023B00070B50E490E4801F01EFA044600BF2546CE
:1023C00025B100BF2846FEF7ADF800BF00BF402191
:1023D000074801F001FA044600BF254625B100BFB9
:1023E0002846FEF79FF800BF00BF70BD45230200DE
:1023F000D82600202DE9F04105460F46012000FABD
:1024000005F418480068FEF743F906460EB1BDE82A
:10241000F081154800682040E0B9284601F0B2FC80
:1024200028B11248006820431049086004E00F48B2
:102430000068A0430D4908600B48006820430A4922
:10244000086000220A48016806480068FEF7F6F8AE
:10245000064604E004480068A0430349086000BF42
:10246000D5E700005C6B02006C2600206826002087
:1024700064260020F8B52748007800B9F8BD00258B
:102480002548006808B9012000E00020064600BF8A
:10249000DDB92248007800B1F0E7684648DF04461D
:1024A000052C01D101250FE024B100BF2046FEF725
:1024B00039F809E0009801F05FFB1948006818B18D
:1024C000174900980968884700BFDEB913480078AB
:1024D00000B1D3E7134800880090694612480068AD
:1024E00061DF0446052C01D101260AE024B100BFBA
:1024F0002046FEF717F804E00B4800680649096813
:10250000884700BF0DB106B100E0C1E700BF00BFC2
:10251000B4E70000A8260020B4260020A926002049
:10252000A4260020B0260020AC26002070B504466A
:102530000D4620791D4901EB4010007FF8B14FF4A2
:102540008871206802F0CBFA4FF49071206802F095
:10255000C6FA4FF49271206802F0C1FA4FF4A271EA
:10256000206802F0BCFA1249206802F0C8FA20681C
:1025700001F03FFB0646294601F006FB14E04FF44C
:102580008E71206802F07BFA4FF4A271206802F08D
:1025900076FA0849206802F081FA206801F029FBE8
:1025A0000646294601F0F0FA70BD0000802E00209A
:1025B00010030200800002007FB505460C4694F827
:1025C000210094F82010CDE9001004F12602D11E5C
:1025D0002846E36903F0CBFC00B17FBD94F82300EB
:1025E00048BB207B022802D0207B032823D1E1694D
:1025F000206981421FD16069E061E07B84F820009E
:10260000207EC0F3401084F82100207B03280AD1EB
:1026100094F82100009094F8203029462046E26981
:1026200003F038FD30E094F8203029462046E26976
:1026300003F004FC28E0D4E90412E06801AB07C30E
:1026400094F8230088B1284602F0ECF9064606F01B
:10265000020018B101208DF8000005E006F004002A
:1026600010B102208DF8000002E000208DF800007B
:10267000002084F82400207E00F0040018B9684689
:10268000D4E90021904700BF00BFA6E70146488873
:10269000064A1288904206DB4888044A52889042D3
:1026A00001DC012070470020FCE7000044260020E8
:1026B0000146086808B102680A60704710B508480A
:1026C000007850B1002405E0022C02D02046FEF72D
:1026D000A1FD641C042CF7D301E0FEF7DFFD10BD63
:1026E0000C26002010B504460448007800F00100D4
:1026F00018B103480078FEF795FF10BD08260020AA
:10270000042600209E2101801721418000210171B3
:102710004171A22181711B21C17170472DE9F041E6
:10272000064600274748D0F8008078E016B13446C6
:10273000E66947E04448007800EB40014248001D4C
:1027400000EBC105001F0078401C3F490870084697
:1027500000788978884202D100203B4908706C6873
:10276000287801281AD0022802D0032817D107E0C0
:10277000686803F0D9F900B10127002020744EE009
:1027800007E030490868002101742E4AC1691160D0
:1027900000BF2C4800680028F3D140E000E03EE094
:1027A00000BF207C00B13AE0A8686060E868A060E3
:1027B0002869E0606869A0612448007808B10020B9
:1027C000606000BF224960680968401A20F07F40BD
:1027D0002049884208D21E496068096803F036F92A
:1027E000A168084420600FE019486168006803F0A0
:1027F0002DF90546A068A84203D9A068401B2060B7
:1028000001E00020206000BF00206060A060012087
:1028100020740020E061204603F052F900BF002E32
:1028200084D109480078084949788842F8D11FB90D
:1028300004480068404502D00120BDE8F081002036
:10284000FBE7000070260020C02E00208326002019
:1028500074260020FFFF7F0070B5002002F0CCF846
:10286000044600BF254625B100BF2846FDF75AFEA5
:1028700000BF00BF70BD000008B5FDF7B1FE044603
:1028800000BF264626B100BF3046FDF74BFE00BF15
:1028900000BF03F06FFEFFF7DFFF6846FFF79CF80D
:1028A000FEF7ECFBFFF710FDFFF782FD02F0FAFEEA
:1028B000FDF74AFDFFF7FCF900F0C2FE002000F032
:1028C00066F8FEF7D3FC0320FEF7D2F9044600BFFA
:1028D000264626B100BF3046FDF724FE00BF00BFEC
:1028E000002500BF00F0D2F84FF47A76314616FB8F
:1028F00001F001F00FF800BF29466A1CD5B202A012
:10290000FDF762F9EEE70000636F756E74203D20FD
:1029100025640D0A0D0000002DE9F04105460E4624
:1029200014469846A888871C2088801C3844404557
:1029300002D90C20BDE8F081FE2F01D90C20F9E767
:10294000781C218870542088401C2080FF2021881A
:1029500070542088401C208022889119288803F018
:1029600064FF218808442080A88800280DDDA8681D
:1029700008B90720DEE7AA8823889819A968FCF718
:1029800091FC2088A988084420800020D2E710B557
:1029900004460021204600F001F810BD30B585B096
:1029A00005460C4635B1012D14D0022D22D0032D41
:1029B00040D12FE0142221A16846FCF773FCC4F13A
:1029C0001203DAB20DEB040104F12803D8B200F0CF
:1029D00085FE2FE014221EA16846FCF763FCC4F1BB
:1029E0001203DAB20DEB040104F12803D8B200F0AF
:1029F00075FE1FE014221BA16846FCF753FCC4F1CE
:102A00001203DAB20DEB040104F12803D8B200F08E
:102A100065FE0FE0142218A16846FCF743FCC4F1E0
:102A20001203DAB20DEB040104F12803D8B200F06E
:102A300055FE00BF00BF05B030BD00008A08211A56
:102A400018180F2700C012CF00049032120A00009D
:102A50008E12110618180F1000C012CF0005903FFB
:102A6000120200008E12110618180F0800C012CFB3
:102A70000006903F120A00008FDB110618180F02A3
:102A800000C012CF0007903F120200007FB500F097
:102A9000D9F80646002E36D0002000900190029012
:102AA00003A9684600F084F90446214618A0FDF702
:102AB0008BF8002C20D09DF80C20214618A0FDF7A3
:102AC00083F82146684600F015FD1EA0FDF77CF84E
:102AD000002506E01DF805101BA0FDF775F8681C21
:102AE000C5B2A542F6DB17A0FDF76EF804226946D1
:102AF0001648FEF78EFA05E015A0FDF765F822A04E
:102B0000FDF762F802E02EA0FDF75EF87FBD000041
:102B10007569645F6C656E203D2025640D0A0D00AB
:102B2000554944206F662025686864206279746581
:102B300073202853414B3A307825686858293A2049
:102B4000000000000D0A000025642000BC260020C3
:102B5000436F756C64206E6F742064657465726D6C
:102B6000696E65205549442C2070657268617073E8
:102B700020736F6D6520636172647320646F6E27CC
:102B80007420706C617900002077656C6C20776927
:102B9000746820746865206F746865722063617260
:102BA00064733F204F7220746F6F206D616E7920C7
:102BB000636F6C6C6973696F6E733F0D0A00000080
:102BC0004E6F20616E7377657220746F205245518D
:102BD000412C206E6F2063617264733F0D0A000008
:102BE00010B57F21062000F053FD10BD10B57F21E8
:102BF000072000F04DFD10BD10B50021084600F083
:102C000047FD10BD70B504460D46FFF7F5FF00F017
:102C100009F82946204600F02DFD0721002000F08C
:102C200037FD70BD10B51021022000F031FD10BD40
:102C300010B5062000F0A4FC10BD10B5072000F070
:102C40009FFC10BD10B5262000F002F810BD00005A
:102C50002DE9FC410646FFF7CFFFFFF7E3FF0F2109
:102C60002E2000F015FD18212C2000F011FD182158
:102C70002D2000F00DFD00210C2000F009FD019633
:102C8000FFF7AEFFFFF7B2FF0621082000F000FDBE
:102C90000121092000F0FCFC00271121384600F03A
:102CA0009FFC4FF47A71384600F0A5FC4FF47A711E
:102CB000384600F0B2FC012101A8FFF7A3FF1FA0D6
:102CC000FCF782FF002506E0FFF7B7FF054605F099
:102CD000400000B104E00120B84028400028F3D0B3
:102CE00000BF1AA0FCF770FFFFF786FFFFF7A0FFF9
:102CF000044604F0040010B104F0020038B122468A
:102D0000294619A0FCF760FF0020BDE8FC8122469F
:102D100029461DA0FCF758FF0221684600F0FCFB85
:102D20001FA0FCF751FF0221684600F0E3FB15A04D
:102D3000FCF74AFFBDF80000E7E7000053656E644A
:102D4000696E6720524551410D0A0D004166746558
:102D5000722077616974696E6720666F7220616E98
:102D6000737765720D0D0A004E6F2052582C206942
:102D70007271313A202568687820697271303A2082
:102D8000256868780D0A0000697271313A2025685B
:102D9000687820697271303A20256868780D0A00D9
:102DA0004154514120616E737765723A20000000F2
:102DB0002DE9F34F93B08146FFF71EFFFFF732FF77
:102DC000FDA0FCF701FF0621082000F061FC0121B5
:102DD000092000F05DFC002012901121129800F0F3
:102DE000FFFB4FF47A71129800F005FC4FF47A71F2
:102DF000129800F012FC012700BF60E30020119040
:102E000000240F9010900DF13E06012F04D0022FE8
:102E100005D0032F09D105E09320119005E09520FE
:102E2000119002E09720119000BF00BF18212C20C4
:102E300000F02EFC18212D2000F02AFC4FF0000B92
:102E40005CE123465A463946E0A0FCF7BDFEE51D8D
:102E5000E81705EB5070C0F3CF01304600F04AFB95
:102E6000E5A0FCF7B1FEFFF7BBFEFFF7BFFE119830
:102E70008DF83C0004F12000C0B28DF83D002546DD
:102E8000E01704EB5070C010A4EBC000C0B240F0DB
:102E900008012E2000F0FCFB2046E11704EB5171E5
:102EA000C910A4EBC101C9B20591D4A00599FCF7E2
:102EB0008BFE0022059842EA0010C1B20C2000F0FF
:102EC000E7FBE11704EB5171C910A4EBC10141B953
:102ED0002046E11704EB5171C910891CC9B20E914B
:102EE00007E02046E11704EB5171C910C91CC9B2B3
:102EF0000E91C9A00E99FCF767FE0FA80E9900F07D
:102F0000F9FABDA0FCF760FE0FA80E99FFF77AFE54
:102F10000020049007E0FFF790FE0490049800F072
:102F2000400000B107E00121129801FA00F0049975
:102F300008400028EFD000BFFFF75EFEFFF778FEE5
:102F400003900A2000F01CFB02900D2000F018FBFB
:102F50000190B6A00399FCF737FEB8A00299FCF7E0
:102F600033FE4FF0000A039800F0020000285DD005
:102F7000029800F0040000284ED0019800F0800074
:102F8000002841D0019820F0800A5146AFA0FCF7FC
:102F90001BFE04EB0A00C5B27A1E02EB4202511975
:102FA000CA1701EB5272D21019F802202846EB170B
:102FB00005EB5373DB10A5EBC3031A4102F00102CA
:102FC0000092EA1705EB5272D210B25C2946EB1759
:102FD00005EB5373DB10A5EBC30C009B03FA0CF35A
:102FE0001A43EB1705EB5373DB10F254601CC4B2A9
:102FF00021469BA0FCF7E8FD0A21304600F07AFA52
:103000007DA0FCF7E1FD22E09EA0FCF7DDFDC4F110
:10301000200000F0FF0A1AE0C4F1200000F0FF0ACF
:103020005246A1A00299FCF7CFFD10E0039800F0F2
:10303000040040B1C4F1200000F0FF0A5146AAA0EC
:10304000FCF7C2FD03E0002015B0BDE8F08F51464B
:10305000B0A0FCF7B9FD05210CA800F05DFA052130
:10306000B2A0FCF7B1FD05210CA800F043FA62A064
:10307000FCF7AAFD2146B2A0FCF7A6FDE51DE81766
:1030800005EB5070C0F3CF01304600F033FA5AA080
:10309000FCF79AFD4FF0000814E0E11704EB5171C2
:1030A00008EBE101715C0CAA12F8082011432046DC
:1030B000E21704EB527208EBE202B15408F101008E
:1030C00000F0FF08B8F1050FE7DB04EB0A00C4B21B
:1030D0002146A3A0FCF778FD202C0BDB2146A5A000
:1030E000FCF772FD0A21304600F004FA42A0FCF71A
:1030F0006BFD07E00BF1010000F0FF0BBBF1200FAF
:10310000FFF69FAE00BF30790B9030787178484061
:10311000B1784840F17848400A90DDE90A108842C9
:103120000BD0A1A0FCF750FD0C98C9F800009DF849
:10313000340089F80400002086E7FFF751FDFFF70F
:1031400055FD11988DF83C0070208DF83D000A98CF
:103150008DF8420007200E9019212C2000F098FADB
:1031600019212D2000F094FA2546E01704EB507049
:10317000C010A4EBC000C0B240F008012E2000F047
:1031800087FA002009900022099842EA00110C20D9
:1031900000F07EFA0FA80E99FFF734FD8DA00E996E
:1031A000FCF712FD0FA80E9900F0A4F912A0FCF78D
:1031B0000BFD0020089021E10D0A537461727469BF
:1031C0006E672073656C6563740D0A000D0A434CCD
:1031D0003A20256868642C20636F6C6C206C6F6FDC
:1031E000703A20256868642C206B6220256868642A
:1031F000206C6F6E673A20000D0A000053657474EE
:10320000696E6720727820616C69676E20746F3A0E
:1032100020256868640D0A0053656E643A25686865
:1032200064206C6F6E673A20000000006972713094
:103230003A20256868580D0A000000006572726F18
:10324000723A20256868580D0A000000436F6C6CC4
:103250006973696F6E20617420256868580D0A00D3
:103260007569645F746869735F6C6576656C206E00
:103270006F77206B622025686864206C6F6E673AF8
:1032800020000000436F6C6C6973696F6E2062757B
:1032900074206E6F2076616C696420636F6C6C7053
:1032A0006F732E0D0A0000004E6F20636F6C6C6907
:1032B00073696F6E2C206572726F72207761733A3A
:1032C00020256868782C2073657474696E672063A4
:1032D0006F6C6C6973696F6E5F706F7320746F3A97
:1032E00020256868780D0A00476F74206461746156
:1032F0002C206E6F20636F6C6C6973696F6E2C206D
:1033000073657474696E672020746F3A202568684D
:10331000780D0A00636F6C6C6973696F6E5F706F14
:10332000733A20256868580D0A0000004669666FE8
:103330002025686864206C6F6E673A2000000000EA
:103340007569645F746869735F6C6576656C206B22
:10335000622025686864206C6F6E673A2000000068
:103360006B6E6F776E5F626974733A202568685878
:103370000D0A00006578697420636F6C6C6973696D
:103380006F6E206C6F6F703A207569645F74686946
:10339000735F6C6576656C206B62202568686420BD
:1033A0006C6F6E673A200000536F6D657468696ECC
:1033B000672077656E742077726F6E672C204243AA
:1033C0004320646F6573206E6F74206D6174636851
:1033D0002E0D0A0073656E645F7265712025686842
:1033E00064206C6F6E673A2000000000FFF725FC38
:1033F0000890089800F0400000B107E00121129801
:1034000001FA00F0089908400028EFD000BFFFF74C
:10341000F3FBFFF70DFC0790079800F0020048B19E
:103420000A2000F0ADF8054605F0040008B10020C0
:103430000AE600BF012006900699149800F06CF887
:1034400021A0FCF7C1FB0121149800F053F8AFF262
:103450005820FCF7B9FB1498007800F0040070B114
:10346000002009E0411C725C791E01EB410101441E
:1034700009F80120411CC8B20328F3DB11E0002148
:1034800008E0725C781E00EB4000084409F8002058
:10349000481CC1B20429F4DB07EB4700401CC0B252
:1034A000D2E539460CA0FCF78FFB0A21484600F014
:1034B00021F8AFF2BC20FCF787FB781CC7B2032FC2
:1034C0007FF79CAC0020BFE553414B20616E7377C2
:1034D00065723A20000000004578697420636173CA
:1034E000636164652025686864206C6F6E673A20AC
:1034F0000000000070B505460E46002405E0295D79
:1035000003A0FCF761FB601C84B2B442F7DB70BD22
:1035100025303258200000007CB505460E46124882
:1035200000F07EFC11A0006801900120034601AA72
:10353000292100900C4800F0E7FC04461CB121460C
:103540000BA0FCF741FBF3B22A462921064800F004
:10355000C5FC04461CB1214605A0FCF735FB02481A
:1035600000F05EFC7CBD0000D06A02000500000097
:103570006572725F636F6465203D2025640D0A00EB
:103580003EB50546114800F04BFC0195012003466D
:1035900001AA292100900D4800F0B6FC04461CB198
:1035A00021460BA0FCF710FB022302AA29210748A1
:1035B00000F094FC04461CB1214605A0FCF704FB76
:1035C000024800F02DFC9DF808003EBDD06A0200C4
:1035D0006572725F636F6465203D2025640D0A008B
:1035E00070B504460D4604EB84010F31C8B229467C
:1035F00000F04EF870BD70B504460D46291204EB7C
:1036000084021032D0B200F043F804EB840111318F
:10361000C8B2FF2100F03CF870BD70B504460D46FD
:10362000291204EB84021232D0B200F031F804EB1C
:1036300084011331C8B2FF2100F02AF870BD0000E8
:103640001FB50A4B0FCB8DE80F0000231A466946C1
:10365000074800F0F7FB044614B1204604B010BD43
:10366000034800F0DDFB0020F8E70000D86A020004
:10367000D06A020070B505460E46002405E0295DBB
:10368000052000F005F8601CC4B2B442F7DB70BD41
:103690007CB504460D468DF804408DF805500A4867
:1036A00000F0BEFB0020022301AA29210090064859
:1036B00000F02AFC06461EB1314604A0FCF784FA4D
:1036C000014800F0ADFB7CBDD06A02006572725FFC
:1036D000636F6465203D2025640D0A002DE9F041EB
:1036E00005460E461746002406E0315D2A19D0B281
:1036F000FFF7CEFF601CC4B2BC42F6DBBDE8F08130
:103700002DE9F84F05460F461446984628780128BB
:1037100004D1687810B90720BDE8F88F2088801C94
:10372000404508D82878012807D12088801C69786E
:103730000844404501D90C20EEE72088A8EB0000A2
:10374000801E86B200962188891CC81969467DDFD3
:10375000814600BFB9F1000F01D04846DCE700BF49
:103760002878022806D1BDF80000B04202DC4FF0F4
:10377000090A0BE04FF0080A2878012805D168787B
:10378000B04202DC6878009000E00096BDF80000CE
:10379000FE2801D90C20BFE7BDF80000401C21889D
:1037A00078542088401C2080208807F800A02088BA
:1037B000401C20802088BDF8001008442080002094
:1037C000AAE730B502460B46D40802F007020120F2
:1037D00090401D5D284030BD024600BF0AB90E2052
:1037E000704700BF172901DB9E2901DD0720F7E79D
:1037F00011800020F4E770B504460E4600BF0CB9F6
:103800000E2070BD00BFA6619E2020806080A22097
:103810002071002505E0A11D01EBC500FEF772FF38
:103820006D1C022DF7D30020EBE700002DE9F041DD
:1038300005460E46B488022C01DBBDE8F0813088D5
:10384000222820D006DC102809D011280CD02128ED
:1038500023D11DE03A280CD055281ED10EE0314668
:10386000284601F039FB19E03146284601F006FCF4
:1038700014E03146284601F04BFC0FE03146284663
:1038800001F006FC0AE03146284601F061FB05E044
:103890003146284601F086FB00E000BF00BFA81DAE
:1038A00000EBC4000079C8B1A81D30F834102046E0
:1038B0009EDF074657B90021A81D00EBC400017127
:1038C0000121A81D00EBC400417106E0112F04D0B6
:1038D0003A460349012001F06CF800BF00BFACE795
:1038E0000C6C020001464FF08040405808B10120A6
:1038F00070470020FCE708B500224FF080410A50D5
:103900000958009100BF08BD0149086070470000D8
:103910000803004000B9704700BF00BF00BF00BFF0
:1039200000BF00BF00BF00BF00BF1E4909681E4A9C
:10393000914200D130E000BF00BF00BF00BF00BF18
:1039400000BF00BF00BF00BF00BF00BF00BF00BF7F
:1039500000BF00BF00BF00BF00BF00BF00BF00BF6F
:1039600000BF00BF00BF00BF00BF00BF00BF00BF5F
:1039700000BF00BF00BF00BF00BF00BF00BF00BF4F
:1039800000BF00BF00BF00BF00BF00BF00BF00BF3F
:1039900000BF00BF00BF00BF401E00D0BDE700BF9A
:1039A000B9E70000B82600200024F40000B97047F1
:1039B00000BF00BF00BF00BF00BF00BF00BF00BF0F
:1039C00000BF1E4909681E4A914200D130E000BF85
:1039D00000BF00BF00BF00BF00BF00BF00BF00BFEF
:1039E00000BF00BF00BF00BF00BF00BF00BF00BFDF
:1039F00000BF00BF00BF00BF00BF00BF00BF00BFCF
:103A000000BF00BF00BF00BF00BF00BF00BF00BFBE
:103A100000BF00BF00BF00BF00BF00BF00BF00BFAE
:103A200000BF00BF00BF00BF00BF00BF00BF00BF9E
:103A3000401E00D0BDE700BFB9E70000B826002057
:103A40000024F40000B9704700BF00BF00BF00BFF2
:103A500000BF00BF00BF00BF00BF1E4909681E4A6B
:103A6000914200D130E000BF00BF00BF00BF00BFE7
:103A700000BF00BF00BF00BF00BF00BF00BF00BF4E
:103A800000BF00BF00BF00BF00BF00BF00BF00BF3E
:103A900000BF00BF00BF00BF00BF00BF00BF00BF2E
:103AA00000BF00BF00BF00BF00BF00BF00BF00BF1E
:103AB00000BF00BF00BF00BF00BF00BF00BF00BF0E
:103AC00000BF00BF00BF00BF401E00D0BDE700BF69
:103AD000B9E70000B82600200024F40010B5002447
:103AE0001648007808B1852425E000201349886035
:103AF00048600861C86000BF00BF4109890001F14A
:103B0000E021D1F8001101228240114009B10121C8
:103B100000E0002119B90721002000F035F800BFAE
:103B200001F074FF20B901200549086000BF00BF03
:103B3000012002490870204610BD0000142E00200C
:103B40001805004008B5002000906846FCF776FE96
:103B50000848007808B9FFF7C1FF0648C068401C54
:103B60000449C860012088709DF80000FCF76CFED5
:103B700008BD0000142E002010B5044614B9002022
:103B8000FDF7CCFF10BD000070B50B4601461A468C
:103B9000002907DA5407260E104C01F00F052D1FDF
:103BA000665503E05407250E0D4C655400BF00BF59
:103BB00000F01F02012191400A4A440942F82410F2
:103BC00000BF00BF00F01F02012191404209920096
:103BD00002F1E022C2F8001100BF70BD18ED00E054
:103BE00000E400E080E200E00146C1F3073250B299
:103BF00070470146C1F3073250B270472DE9F047D4
:103C000006460D46304601F029FBE0B13046FDF78F
:103C10007FFF083822490F5CBC11032C08D13046C5
:103C200000F094FC08B1032000E00220804605E08B
:103C3000012C01D1022000E003208046414630469D
:103C400000F060FC2AE0304601F014FB30B330464F
:103C5000FDF75EFF0446A00000F5807087B22046A5
:103C6000104951F8201041F001020E4941F820207E
:103C700000BF384600F0C4FC7DB13046FDF748FF78
:103C80008146FDF7FDFE8046B8F1000F04D001210A
:103C900001FA04F000F0CEFC00BF00BFBDE8F087E1
:103CA000782E0020106500402DE9FC4704460E46A2
:103CB00017464FF00008204601F0C2FA10B14FF04D
:103CC000080855E0F27839462046FDF7E1FE054642
:103CD000681C002849D0B07880B100BF00BF4FF009
:103CE000A042104600F5E06252F8242022F00201C2
:103CF00000F5E06242F8241000BF0CE096F8019055
:103D0000002000904B46024601460190204600F0FC
:103D10009FFB00BF00BFF078D0B13078164951F852
:103D20002510164A1140144A42F82510114651F840
:103D300025104FF4F85202EA04224FF4403303EA0C
:103D400000431A4311430C4A42F8251000BF0EE00D
:103D5000A5F108000A49085C317840EA811042B2B6
:103D6000A5F1080006490A5401E04FF0040800BF1D
:103D70004046BDE8FC87000010650040FFE0FCFF06
:103D8000782E002010B50446204600F0DFFB08B175
:103D9000012010BD0020FCE770B5164890F85400D3
:103DA00010B10825284670BD002404E0204601F02B
:103DB00071FA601CC4B2202CF8DB002404E0204619
:103DC000FDF74EFE601CC4B20C2CF8DB0721062068
:103DD000FFF7DAFE4FF4BE7000F012FC4FF0004027
:103DE00000F028FC0120034981F8540000252846F2
:103DF000D9E70000282E0020034890F8540008B1AD
:103E0000012070470020FCE7282E0020014601F029
:103E10006040B0F1005F01D1012070470020FCE755
:103E2000027902EB8202064B03EBC201026800BF7B
:103E30000523C2F8003500BF022281F82220704716
:103E4000D42C00202DE9F04706460C4690469946B2
:103E5000307900EB80001F4901EBC00595F8220086
:103E600018B108273846BDE8F087083545F8088CB2
:103E700045F8049C0020286068772877A07BE877C5
:103E8000083D607B10B1204601F054FF40F20C6108
:103E90001148226840F82210626840F82210306809
:103EA000D4E90012C0F80815C0F80C2500BFA168BD
:103EB000C0F8241500BF286830B13068FFF794FEC1
:103EC0008246217BFFF760FE012085F82200002753
:103ED0003846C8E7D42C002000070050FEB507463E
:103EE0000C4615461E46074A07CA8DE807008DF89E
:103EF00001408DF80260019500226946384600F0C5
:103F000021F8FEBDC46A02002DE9FE4307460C46B7
:103F100015461E46DDF82880002000900190029092
:103F20008DF801408DF802600195B8F1000F01D0C5
:103F3000202000E0002002466946384600F002F8E2
:103F4000BDE8FE832DE9F04104460E4615460027E4
:103F5000207900EB8000094901EBC00805F003005F
:103F600018B106273846BDE8F0812B463246404658
:103F7000216802F007F907463846F4E7D42C002000
:103F80002DE9F04105460E46174628791C4901EBFC
:103F900040144FF00008E07E20B14FF00808404682
:103FA000BDE8F081707F207731462846FCF79AFC07
:103FB000676030692060606818B1317F2846FEF77D
:103FC000B5FA00BF28790E4901EB4010007F28B1F7
:103FD00028680821C0F8001500BF05E02868042102
:103FE000C0F8001500BF00BF00BF0020E0752076BC
:103FF000A0750120E0760020A0764046D0E70000C2
:10400000802E00202DE9F04704460E461746207901
:10401000304901EB4015207901EB4010007F40B1A1
:104020003046FFF7F3FE20B94FF010084046BDE8D8
:10403000F0874FF00009686880B12079254901EBCD
:104040004010007F28B14FF40471206800F054FD47
:1040500004E04FF40171206800F01DFDE87DD0B14F
:10406000287EB0B1686880B120791A4901EB401010
:10407000007F28B14FF40471206800F040FD04E097
:104080004FF40171206800F009FD4FF0110840461F
:10409000CDE74FF00109B9F1000F05D1EF75EE60E2
:1040A00000206876287601E02E612F762079094974
:1040B00001EB4010007F30B14B463A463146204676
:1040C00000F08AF8B3E74B463A463146204600F006
:1040D0001DF8ACE7802E002010B5044620790A496F
:1040E00001EB4010007F68B9207901EB4010807E21
:1040F00040B9204601F0DBF901202179024A02EBA8
:104100004111887610BD0000802E00202DE9F05F5F
:1041100004468B46994620792E4901EB4015A87E2E
:1041200028B9B9F1000F02D1204601F0C0F9686842
:10413000002846D14FF4A271206800F0A0FC00BF17
:1041400000BF4FF49271206800F092FC80464FF45B
:104150008471206800F08CFC82464FF4A2712068C4
:1041600000F086FC0646BAF1000F03D116B9B8F18B
:10417000000FE6D0B8F1000F00D106B107E02946E4
:10418000206801F0EFF8E87D697E8842D8DC00BF46
:104190000020E875B8F1000F03D003273846BDE8CA
:1041A000F09F16B10F273846F9E7A87E20B100210D
:1041B000206800F07FFC03E00421206800F07AFC16
:1041C00004E04FF40171206800F068FC00273846D5
:1041D000E5E70000802E00202DE9F05F04460D4643
:1041E000164699464FF0000A4FF48871206800F097
:1041F00076FC4FF4A271206800F071FC2068C0F8D2
:1042000034554FF4A7610E5000BFB9F1000F04D12F
:104210000021206800F07BFC08E020212068D0F815
:1042200000220A43C0F8002200BF00BF20791B49CA
:1042300001EB4010406848BB00BF4FF48871206814
:1042400000F046FC83464FF4A271206800F040FC69
:1042500080464FF49271206800F03AFC0746BBF1AB
:10426000000F04D1B8F1000F01D1002FE5D00020DC
:1042700021790A4A02EB4111C8750FB14FF0030AC8
:10428000B8F1000F01D04FF00F0A04E04FF40471B1
:10429000206800F034FC5046BDE8F09F802E0020DE
:1042A0002DE9F04104460D4690462079144901EB72
:1042B0004016207901EB4010007F38B12846FFF707
:1042C000A5FD18B910273846BDE8F081204600F05A
:1042D0009DF810B111273846F6E786F81680B560CC
:1042E0000020B0822079064901EB4010007F18B110
:1042F000204600F04DF8E7E7204600F003F8E3E73A
:10430000802E002070B504462079204901EB40152D
:1043100000264FF48E71206800F0B1FB0821206860
:1043200000F0C8FB2946206801F08CFF686858BB84
:1043300012E000BF4FF48E71206800F099FB18B9AD
:10434000A88AB0F5807FF5D1A88AB0F5807F03D028
:104350002946206801F076FFA88AA97D8842E8DB1B
:10436000A88AB0F5807F01D10F260BE000BF4FF483
:104370008E71206800F07CFB0028F8D00C212068AA
:1043800000F098FB0020A875304670BD802E0020FC
:104390002DE9F041044620791B4901EB40154FF00F
:1043A00000084FF49071206800F099FB4FF4AC7155
:1043B000206800F094FB2068AA7DA968C0F8441525
:1043C0004FF4A9631A5000BF0821206800F09FFB3A
:1043D0006868A8B900BF4FF49071206800F078FBBE
:1043E00007464FF4AC71206800F072FB06460FB927
:1043F000002EF0D00EB14FF00F080020A87500BFBE
:104400004046BDE8F0810000802E0020014608797A
:10441000044A02EB4010807D08B101207047002063
:10442000FCE70000802E0020F0B5DDE9054500BF67
:104430004FF0A0473E4641EA420747EA830747EA72
:10444000042747EA054C06F5E06747F820C0F0BDB1
:10445000F0B5DDE9054500BF4FF0A0473E4641EA13
:10446000420747EA830747EA042747EA054C06F56F
:10447000E06747F820C0F0BDF0B5DDE9054500BFB5
:104480004FF0A0473E4641EA420747EA830747EA22
:10449000042747EA054C06F5E06747F820C0F0BD61
:1044A0007CB505460C460020009023460246014696
:1044B00001902846FFF7E0FF7CBD1CB504460020B4
:1044C000009003460122114601902046FFF7D4FFD9
:1044D0001CBD10B50A4600BF4FF0A043194601F5B8
:1044E000E06353F8203023F4403401F5E06343F8EF
:1044F000204053F8203043EA024401F5E06343F8DA
:10450000204010BD10B50A4600BF4FF0A043194629
:1045100001F5E06353F8203023F4403401F5E06303
:1045200043F8204053F8203043EA024401F5E063A9
:1045300043F8204010BD00BF4FF0A0410A460123C0
:1045400003FA00F1C2F80C1500BF7047014600BF26
:104550004FF0A040024600BFD2F81005C84000F05E
:104560000100704700BF4FF0A0410A46012303FA43
:1045700000F1C2F8081500BF704700BF4FF0A0411E
:104580000A46012303FA00F1C2F8081500BF70477C
:1045900010B561B900BF00BF4FF0A042134601241F
:1045A00004FA00F2C3F80C2500BF00BF0CE000BF06
:1045B00000BF4FF0A0421346012404FA00F2C3F8F2
:1045C000082500BF00BF00BF10BD000038B50B4676
:1045D000074C24680094014606E05DF82140D4F8B9
:1045E00010551560121D491CC4188C42F5D838BDF1
:1045F000146B020001460148084470470060004007
:1046000038B504462046FFF7F5FF0021016020463B
:10461000FFF7F0FF0068009000BF38BD10B50446FA
:104620002046FFF7E7FF0068012800D110BD0020F9
:10463000FCE7000001490860704700000463004087
:10464000004870477946020010B5044608480078D3
:1046500028B108480078844201D1002010BDFBF742
:1046600033F8012002490870024804700020F5E781
:104670009C2600209D2600202DE9F04FC9B08946D8
:1046800092469846DDF84CB1002006904646559873
:1046900058440590B9F1000F01D00A2000E0002035
:1046A000049000F08FFF18B1404649B0BDE8F08F8C
:1046B000B8F1000F1DD109A8069A811806AA48462C
:1046C00001F018FB08B94046EFE75046FAF70EFE36
:1046D0000746C22F01D9C22000E03846074609A983
:1046E000069A88183A465146FAF7DCFD069838448F
:1046F000069000BF06980290029831300499084451
:10470000019009A902980C1801980D180020039037
:1047100005E020202070641C0398401C0390DDE914
:1047200003018842F5D30020079030E005988642C7
:1047300009D3202004F8010B04F8010B04F8010B45
:1047400005F8010B20E05E4503D25298805D089089
:1047500004E0A6EB0B015498405C089021460898B1
:10476000FDF764F9A41C202004F8010BFAF796FD6C
:1047700001680898085C00F03E0008B1089800E065
:104780002E2005F8010B761C0798401C079007980F
:104790001028CBD30D2005F8010B0A2005F8010BDA
:1047A000202004F8010B0498433006990844069031
:1047B00009A8069900F008FF08B9304675E700F02F
:1047C00001FF08B1304670E7002006900598864248
:1047D00090D3304669E72DE9F04FC7B083460F46C6
:1047E00015461C46DDF840810026002006904FF05B
:1047F000010A00F0E7FE18B1002047B0BDE8F08FD5
:1048000007A8069A811806AA384601F073FA08B973
:104810000020F2E7B8F1070F6FD2DFE808F00414C8
:10482000223244586F002846FAF760FD0646069883
:104830003044FF2806D807A9069A88183246294628
:10484000FAF730FD73E02368069AC2F5807107AA73
:10485000DDF818C002EB0C002A46FBF7C5F9064646
:1048600065E0606800902368069AC2F5807107AA27
:10487000DDF818C002EB0C002A46FBF7B5F9064636
:1048800055E0D4E90101CDE900012368069AC2F59B
:10489000807107AADDF818C002EB0C002A46FBF76E
:1048A000A3F9064643E0D4E902216068CDE901217D
:1048B00000902368069AC2F5807107AADDF818C037
:1048C00002EB0C002A46FBF78FF906462FE0D4E9ED
:1048D0000123D4E90310CDE90023CDE902102368B8
:1048E000069AC2F5807107AADDF818C002EB0C0029
:1048F0002A46FBF779F9064619E017E0D4E90223C6
:10490000D4E90410CDE90123CDE9031060680090DB
:104910002368069AC2F5807107AADDF818C002EB79
:104920000C002A46FBF760F9064600E000BF00BF16
:10493000314606A8FDF73FF88246DDF81890BAF137
:10494000000F07D0B9F5807F04D807A8069900F0BA
:104950003BFE52E7002050E700487047D74702006F
:104960002DE9F84307460C4615461E464FF0000950
:10497000C846054800962B4622464146D0F814C04A
:104980003846E047BDE8F8836030002030B5034684
:104990000C4615462146184600F028F830BD70B583
:1049A00004460D4600231A4629462046FFF7D8FF45
:1049B00070BDF8B505460E461446009401236A46BC
:1049C00031462846FFF7CCFFF8BD2DE9FC410646ED
:1049D0000F4614461D460094019502236A46394647
:1049E0003046FFF7BDFFBDE8FC810000014A506181
:1049F00091617047603000202DE9F041054600BF0D
:104A00000120FFF721FE04464CB9FFF719FE0646C8
:104A1000FFF7A2FF07462A463146FFF7B7FF2046B9
:104A2000BDE8F0810146D1F8C404C1F8C404704760
:104A30000246505808B1012070470020FCE708B535
:104A4000002242504258009200BF08BDC0F808132F
:104A50007047C0F804137047C0F800127047012275
:104A6000425070470146D1F88004C1F88004704775
:104A70000246505808B1012070470020FCE708B5F5
:104A8000002242504258009200BF08BDC0F80815ED
:104A9000C0F810257047C0F808137047C0F8041319
:104AA00070470246D2F80403084008B1012070475D
:104AB0000020FCE7012242507047C0F81425C0F8DE
:104AC0000C1570470146D1F88004C1F88004704786
