:020000040001F9
:10F000000853002015F201001DF201001FF201005B
:10F0100021F2010023F2010025F2010000000000AE
:10F0200000000000000000000000000027F20100C6
:10F0300029F20100000000002BF201002DF2010076
:10F0400061F601002FF2010075FA010081F701005D
:10F0500095F701002FF201008DF301002FF201005E
:10F060002FF201002FF201002FF201002FF2010018
:10F070002FF201002FF201002FF201002FF2010008
:10F080002FF20100B1F601002FF201002FF2010072
:10F09000A9F701002FF20100B1F701002FF20100E2
:10F0A0002FF201002FF201002FF201002FF20100D8
:10F0B0002FF201002FF2010000000000000000000C
:10F0C0002FF201002FF201002FF201002FF20100B8
:10F0D0002FF201002FF201002FF2010000000000CA
:10F0E0000000000000000000000000000000000020
:10F0F0000000000000000000000000000000000010
:10F1000000000000000000000000000000000000FF
:10F1100000000000000000000000000000000000EF
:10F1200000000000000000000000000000000000DF
:10F1300000000000000000000000000000000000CF
:10F1400000000000000000000000000000000000BF
:10F1500000000000000000000000000000000000AF
:10F16000000000000000000000000000000000009F
:10F17000000000000000000000000000000000008F
:10F18000000000000000000000000000000000007F
:10F19000000000000000000000000000000000006F
:10F1A000000000000000000000000000000000005F
:10F1B000000000000000000000000000000000004F
:10F1C000000000000000000000000000000000003F
:10F1D000000000000000000000000000000000002F
:10F1E000000000000000000000000000000000001F
:10F1F000000000000000000000000000000000000F
:10F20000DFF80CD000F0B0F800480047B128020049
:10F21000085300200648804706480047FEE7FEE7FF
:10F22000FEE7FEE7FEE7FEE7FEE7FEE7FEE7FEE7B6
:10F23000F1F7010001F201002DE9F05F0546002021
:10F2400092469B4688460646814640241BE0284657
:10F2500041464746224600F076F853465A46C01AC1
:10F26000914110D311461846224600F05DF82D1A40
:10F2700067EB01084F4622460120002100F054F8B8
:10F2800017EB00094E41201EA4F10104DFDC4846C3
:10F2900031462A464346BDE8F09F000000487047CB
:10F2A000E46C020040EA01039B0703D009E008C9AF
:10F2B000121F08C0042AFAD203E011F8013B00F83B
:10F2C000013B521EF9D27047D2B201E000F8012B87
:10F2D000491EFBD270470022F6E710B513460A46D6
:10F2E00004461946FFF7F0FF204610BD421C10F8F7
:10F2F000011B0029FBD1801A704710B5002200E0E5
:10F30000521C835C8C5CA34201D1002BF8D1D8B293
:10F31000E1B2401A10BD034611F8012B00F8012B91
:10F32000002AF9D118467047202A04DB203A00FA57
:10F3300002F1002070479140C2F1200320FA03F34C
:10F34000194390407047202A04DB203A21FA02F04A
:10F350000021704721FA02F3D040C2F1200291400F
:10F360000843194670470000064C074D06E0E06868
:10F3700040F0010394E8070098471034AC42F6D3FC
:10F38000FFF742FF706E0200906E02002DE9F04F11
:10F3900089B04FF00008002008904FF4807007906B
:10F3A0000126002413E0079805F060F948B100BF7A
:10F3B00081480068304020B1079805F049F948EAD3
:10F3C000060876000798001D80B20790641C082C80
:10F3D000E9D34FF4BE7005F049F950B14FF4BE7057
:10F3E00005F036F948F0004808AA0121002005F090
:10F3F00015F908F0FF0000B3012600241BE006EA1F
:10F400000800B0B100BF6D4850F82400C0F30420DC
:10F41000074600BF694850F82400C0F30140814608
:10F42000204602F049FB054615B149463846A84733
:10F4300000BF7600641C082CE1D308F000400028CF
:10F440007ED0002006900590002505E04FF0FF30AB
:10F4500004A941F825006D1C002DF7D000BF002045
:10F46000069000246FE05648005D0390039820F05A
:10F47000C00753480057401C002863D004A93846F1
:10F4800004F0C7F900285DD003984FEA901A384677
:10F4900002F05AFB814602F00FFB0290029810B96D
:10F4A000BAF1030F4BD1BAF1030F11D1394605A8B8
:10F4B0000246CB0801F0070112F803C04FF0010E1D
:10F4C0000EFA01FE4CEA0E0C02F803C000BF00BFAA
:10F4D00000BF00BF4FF0A041084600F5E06151F8C1
:10F4E0002710C1F3014900BF08A9384604F091F97B
:10F4F0008346BBF1000F02D0B9F1020F05D0BBF17A
:10F50000000F1BD1B9F1030F18D1BAF1030F0FD1BE
:10F51000B9F1020F01D1032000E00220019038462A
:10F52000019905F017F80698401CC0B2069000BF7C
:10F53000029818B151463846029A904700BF00E041
:10F5400036E000BF641C042C8DD3069858B3012705
:10F5500003AA0121002005F061F800250AE003A8B4
:10F5600050F8250008A951F82510884201D000273D
:10F5700002E06D1C002DF2D000BF17B100200690F4
:10F5800010E000250CE003A850F8250008A941F878
:10F59000250005A850F8250004A941F825006D1C98
:10F5A000002DF0D000BF069800287FF458AF00BFB0
:10F5B00009B0BDE8F08F0000046300401065004012
:10F5C0007C2E002000F01F0201219140024A4309D5
:10F5D00042F823107047000080E200E000F01F02B4
:10F5E00001219140024A430942F82310704700006C
:10F5F00080E100E000F01F020121914042099200E9
:10F6000002F1E022C2F80011704700F01F02012150
:10F6100091404209920002F1E022C2F800117047C5
:10F6200000F01F0201219140024A430942F82310D1
:10F630007047000000E200E010B5002807DA4A0732
:10F64000140E054A00F00F031B1FD45403E04A07B1
:10F65000130E024A135410BD18ED00E000E400E060
:10F6600010B54FF4807004F065F960B14FF480700C
:10F6700004F069F9012004F06FF901200B4948708A
:10F68000002002F067FA4FF4827004F053F958B189
:10F690004FF4827004F057F9022004F05DF9012064
:10F6A0000249887002F056FA10BD0000182E0020A2
:10F6B00010B500200949086000210948C0F844112C
:10F6C000C0F84811C0F84C1100200549C1F80001EC
:10F6D00002493C39086006F01FFB10BD4011014093
:10F6E0000010014010B500BF0348007808B900F0D1
:10F6F000D3F900BF10BD0000903200202DE9F04783
:10F70000074688461646C24607EB47011B4800EBF2
:10F71000C109D9F8140020B1012811D0022826D13E
:10F720001EE0484600F0F0F90546B54201D200243B
:10F7300005E0344632465146484600F02CFA18E0BF
:10F74000484600F0E1F90546B54201D2284600E0FE
:10F750003046044622465146484600F01CFA08E06E
:10F7600032465146484600F0DDF9044601E00024E7
:10F7700000BF00BF2046BDE8F0870000A83200208F
:10F7800010B50249024802F033FF10BDD82C00200A
:10F790000030004010B503494FF0402002F028FF30
:10F7A00010BD0000002D002010B506F0BFF910BDFF
:10F7B00070B50A48006868B1084800688047044688
:10F7C00000BF254625B100BF284600F0B9FE00BFA6
:10F7D00000BF01E002F06AFE70BD0000A426002018
:10F7E00001480249086070470090D003BC26002001
:10F7F00010B502F0D7FB28B18E480088C0F3042072
:10F800008D49086002F022FC10B18C488C49486791
:10F8100002F034FC30B18748E0380068C0F3423071
:10F820008849086002F054FC28B18748006820F03D
:10F8300080708549086002F063FC48B1002083496C
:10F8400008604FF08041C1F810017E49091F08602F
:10F8500002F080FC18B103207A496431086002F09C
:10F8600091FC68B105207A49086001207849783117
:10F87000086000207649083108603F20091F0860B1
:10F8800002F098FC002855D06A48E03000687149C1
:10F8900008606848E4300068091D08606548E83081
:10F8A0000068091D08606348EC300068091D0860A5
:10F8B0006048F0300068091D08605E48F430006858
:10F8C000091D08605B48F830006862492031086013
:10F8D0005848FC300068091D08605F480068091D31
:10F8E00008605D48001D0068091D08605A4808301E
:10F8F0000068091D086058480C300068091D086040
:10F90000554810300068534940310860524814305F
:10F910000068091D0860504818300068091D08601B
:10F920004D481C300068091D08604B4820300068B5
:10F93000091D086002F00CFB30B13E48CC3800686D
:10F9400000F04F004549086002F056FB40B14448C2
:10F95000006800F0010018B16FF001004049086034
:10F9600039487438006840F47000374974390860C9
:10F9700000BF00BF00BFBFF34F8F00BF00BF00BF7D
:10F9800000BF00BF00BFBFF36F8F00BF00BF00BF4D
:10F990003448006800F0004028B93248001D006873
:10F9A00000F00040F0B301202F49086000BF2F484D
:10F9B00000680028FBD015202A49086000BF2B48AA
:10F9C00000680028FBD015212648001D016000BFFB
:10F9D000264800680028FBD000202349086000BFAB
:10F9E000224800680028FBD000BF00BF00BF00BF56
:10F9F00000BFBFF34F8F00BF00BF00BF1248F038F9
:10FA0000006800F4E0601A490843001D0E49F0390F
:10FA1000086000BF00BF00BFBFF34F8F00BF00BF33
:10FA200000BF00E002E000BF00BFFDE7FFF7D8FE27
:10FA300010BD000024030010403501400DF0ADBAA8
:10FA400000C007403C050040FCED00E00C01004018
:10FA50001056004020C5004024040010E40E004071
:10FA6000000400400012001004E5014000E40140E1
:10FA70000000FA0510B50648007F20B1044905488A
:10FA800006F0ABFE03E00249024806F005FE10BD99
:10FA9000842E00200020004010B5124C022020616E
:10FAA000606111A0A0611349E1614FF4007121620E
:10FAB0000021A1626162E1620BA0A0640E49E164D1
:10FAC000102121650021A1656165E1650BA1E01DA3
:10FAD000FFF721FC0AA12046FFF71DFC2020A071A2
:10FAE00010BD0000903200205465726D696E616C2B
:10FAF000000000008030002080320020525454006A
:10FB0000534547474552000010B501460A69CB6886
:10FB10009A4204D88C68641EE41AA01801E0D41A32
:10FB2000601E10BD2DE9F0470446894617464FF088
:10FB3000000AE56800BFD4F81080A84503D9A8EBF7
:10FB40000500461E04E0A5EB0800401CA1680E1A43
:10FB5000A068401BB04201D9304601E0A068401BBC
:10FB60000646BE4201D2304600E03846064661688D
:10FB7000481932464946FFF795FBB244B144BF1BD2
:10FB80003544A068A84200D10025E560002FD2D1FD
:10FB90005046BDE8F0872DE9F047044689461546F2
:10FBA000E668A068871BAF4208D9616888192A46B1
:10FBB0004946FFF777FB7019E06010E0B8466168CE
:10FBC000881942464946FFF76DFBA5EB070809EB8C
:10FBD000070142466068FFF765FBC4F80C80BDE88A
:10FBE000F08700000FB4054B10B503A9044A029832
:10FBF00000F04EF810BC5DF814FB0000D7220200A4
:10FC0000982600200FB41CB50A46521ECDE900020A
:10FC100007A9054B6A46069800F03AF8009A0021B9
:10FC200011701CBC5DF814FBF300020002E008C870
:10FC3000121F08C1002AFAD170477047002001E066
:10FC400001C1121F002AFBD1704700000146202984
:10FC500008DA012088400A4A104008B101207047A4
:10FC60000020FCE7402909DAA1F12000012202FA74
:10FC700000F008B10120F2E70020F0E70120EEE7F4
:10FC8000FC06FFBD00BFEFF31081084672B6704757
:10FC90002DE9FF4F8DB00F460546002606E02528CA
:10FCA0000BD0DDE90F1290476D1C761C28780028D8
:10FCB000F5D111B03046BDE8F08F0024A246A14630
:10FCC0000122EC4900E0044315F8013F203B02FA11
:10FCD00003F00842F7D128782A2810D06FF02F02BD
:10FCE0002878A0F13001092914D80AEB8A0102EB27
:10FCF000410144F0020400EB010A6D1CF0E701CF62
:10FD00005FEA000A03D544F40054CAF1000A44F043
:10FD100002046D1C28782E2817D115F8010F44F025
:10FD200004042A280ED06FF02F022878A0F13001A9
:10FD300009290AD809EB890102EB410100EB01090D
:10FD40006D1CF2E757F8049B6D1C28786C280FD0C7
:10FD500006DC4C2817D068280DD06A2814D104E09E
:10FD6000742810D07A280FD10DE044F400140AE072
:10FD700044F4801401E044F440146978814202D1D3
:10FD800004F580146D1C6D1C2A786E2A1FD00CDCC3
:10FD9000632A31D004DC002A8BD0582A11D1A3E089
:10FDA000642A68D0692A0CD165E0732A2ED004DC5D
:10FDB0006F2A73D0702A04D19BE0752A6FD0782AFD
:10FDC0006ED01046DDE90F129047761C50E1C4F367
:10FDD0000250022806D0032809D0042801CF09D0F8
:10FDE000066045E101CFF117C0E9006140E101CFB4
:10FDF00006803DE106703BE117F8040B8DF800002A
:10FE000000208DF80100EB46012003E057F804BB09
:10FE10004FF0FF3061074FF0000102D40DE008F110
:10FE20000101884649450FDA8045F8DB1BF80810C8
:10FE30000029F4D108E008F1010188468142FADB8B
:10FE40001BF808100029F6D1DDE90F23AAEB080002
:10FE50008146214600F036F9304400EB080604E004
:10FE6000DDE90F121BF8010B9047B8F10108F7D23A
:10FE700021464846F7E00A21C4F302534FF0000B35
:10FE80000891022B04D001CFC117032B09D00AE03F
:10FE9000FF1D27F00707F7E8020108E032E01FE046
:10FEA00020E000B2C117042B01D140B2C117031EDC
:10FEB00071F1000307DA4FF0000CD0EB0C006CEB93
:10FEC00001012D2302E0230504D52B238DF82430D6
:10FED000012303E0E30701D02023F7E7984658E029
:10FEE0000A2110E010210EE010204FF0000B0890C6
:10FEF0000CE010214FF0000B44F004044FF008090F
:10FF0000089103E008214FF0000B0891C4F302535D
:10FF1000022B04D001CF0021032B06D006E0FF1DE9
:10FF200027F00707F7E8020103E080B2042B00D1B5
:10FF3000C0B24FF0000823072BD5702A07D0DDF898
:10FF400020C08CF0100C5CEA0B0C05D00EE04023B6
:10FF50008DF82430012308E050EA010306D0302355
:10FF60008DF824308DF8252002239846DDF820C036
:10FF70008CF0080C5CEA0B0C0BD150EA010301D1A8
:10FF8000630706D530238DF824304FF00108A9F11E
:10FF90000109582A04D038A20B9208AA0A920BE051
:10FFA0003AA2F9E75B46089AFFF746F90B9B9B5C80
:10FFB0000A9A521E0A92137050EA0102F2D10A986C
:10FFC000ADEB000000F1200B600702D524F4803473
:10FFD00001E04FF00109D94502DDA9EB0B0000E07B
:10FFE000002000EB0B0141440890AAEB010AE0035A
:10FFF00006D4DDE90F232146504600F063F806449D
:020000040002F8
:100000004FF0000908E009A911F80900DDE90F1215
:10001000904709F10109761CC145F4DBE0030CD5DA
:10002000DDE90F232146504600F04CF8064404E079
:10003000DDE90F1230209047761C0899481E089081
:100040000029F5DC08E00A980A990078491C0A9111
:10005000DDE90F129047761CBBF10001ABF1010BFB
:10006000F1DC21465046DDE90F2300F019F8064483
:100070006D1C1BE609280100303132333435363728
:1000800038396162636465660000000030313233E4
:100090003435363738394142434445460000000084
:1000A0002DE9F041044600251E461746880404D475
:1000B00005E039462020B0476D1C641EF9D528465E
:1000C000BDE8F0812DE9F041044600251E4690462A
:1000D000C80301D5302700E02027880404D505E0B7
:1000E00041463846B0476D1C641EF9D52846BDE828
:1000F000F0814A68002A06D00A68531C0B60107011
:100100004868401E486070470246002104E0505C89
:1001100008B101207047491C0629F8D30020F9E7EF
:100120002DE9FC4104468846164600253788002004
:10013000308094F82D0058B13A463146404600F0E0
:10014000B4FE054600BF15B12846BDE8FC8100BFDE
:10015000A07850B13A463146404600F0A7FB05462C
:1001600000BF0DB12846F0E700BFE07860B1E1784C
:1001700048B23B463246414602F088F8054600BF89
:100180000DB12846E1E700BF606868B1616891F988
:1001900000003B463246414606F076F9054600BF70
:1001A0000DB12846D1E700BF208900280EDD434667
:1001B0000622022104F10800CDE9006706F00CFCDC
:1001C000054600BF0DB12846BFE700BF208A0028C2
:1001D0000EDD43460722032104F11000CDE900673C
:1001E00006F0FAFB054600BF0DB12846ADE700BF9B
:1001F000208B00280EDD43461522142104F118003F
:10020000CDE9006706F0E8FB054600BF0DB12846C2
:100210009BE700BF206A58B13B4632464146206A00
:1002200001F025FD054600BF0DB128468DE700BF52
:10023000606A58B13B4632464146606A02F094FB20
:10024000054600BF0DB128467FE700BF94F82C009B
:1002500000280BDD3B4632464146204605F03AFA7F
:10026000054600BF0DB128466FE700BF207858B1A2
:100270003B4632464146204603F06AFA054600BF37
:100280000DB1284661E700BF28465EE770B5044619
:100290001448FFF739FF0546012C06D0022C0BD07D
:1002A000032C10D0042C1AD113E00F48407810B161
:1002B0000DB1012070BD00BF0B48807810B10DB1A9
:1002C0000220F7E700BF0848C07808B10320F1E733
:1002D00000BF0548007908B10420EBE700BF00200B
:1002E000E8E700002E260020282D00200146481CAB
:1002F000052290FBF2F302FB1300C0B270470146E7
:10030000C87800F0040008B9072070470020FCE717
:1003100010B501220221002001F00CF9044600BFB3
:100320001CB1072C01D0204610BD00BF07220221BE
:10033000012001F0FFF8044600BF1CB1072C01D0DA
:100340002046F1E700BF0A220021084601F0F2F83A
:10035000044600BF1CB1072C01D02046E4E700BFD3
:100360000020E1E730B5A7B03C2118A8FEF7B3FFA5
:1003700002208DF8600000208DF8620005208DF8C5
:1003800063003C2109A8FEF7A6FF0120ADF8340068
:1003900011490E91202101A8FEF79DFF01208DF843
:1003A000070040200590B420069000200B4B01AAC6
:1003B00009A9009018A800F065FB044600BF254677
:1003C00025B100BF284600F0BBF800BF00BF0120E8
:1003D00000F052FB27B030BDFA250020734B02001D
:1003E00010B50446022000F00BFF10BD10B500242C
:1003F00007E00749096811F83400012103F026FCE1
:10040000641C044800788442F3D3002010BD00002F
:1004100060260020642600202DE9F84306460C469D
:100420001746052F02D20720BDE8F88303F00CFD24
:1004300038B903F0D9FC054600BF0DB12846F3E7F3
:1004400000BF164806601648047016480760002072
:10045000154908601549086015E006EBC408144802
:100460000068009098F802008DF8010098F80000EC
:10047000104A694603F040FC054600BF0DB128460E
:10048000D2E700BF00BF201EA4F10101CCB2E4D12D
:10049000094A0021094800F093F8C5E760260020CA
:1004A00064260020682600206C260020702600208C
:1004B0003C6C02002D240200611E0200386C020018
:1004C00012A1012004F093FA14A1032004F08FFA82
:1004D00000BF00BF00BF00BF00BFBFF34F8F00BF12
:1004E00000BF00BF1448006800F4E06013490843EF
:1004F000001D1149086000BF00BF00BFBFF34F8F50
:1005000000BF00BF00BF00BF00BFFDE73A45525229
:100510004F523A466174616C0D0A00003A494E46EA
:100520004F3A486974207765616B2068616E646C2E
:1005300065720D0A000000000CED00E00000FA05F5
:100540003EB50446002000900190029002946A4655
:10055000002144F20100FFF7B3FF3EBD70B5044631
:100560000D46204601F076FE28B12946204601F0CE
:1005700065FE002070BD0520FCE7034609B90E208A
:10058000704712B1501E104008B10920F8E71960F9
:10059000501E988000209860D86000BFF0E770B5CA
:1005A00004460D46204601F055FEA188884205D834
:1005B0002946204601F061FE002070BD0420FCE7C2
:1005C00010B503460C4600BF0B48807808B90820D8
:1005D00010BD00BF0AB90720FAE70BB90720F7E7FB
:1005E0001868007C08B10820F2E719680020087438
:1005F0004C744A6100BFEBE7C42E002010B504F034
:10060000E9FE00200F49087048700B208870002018
:100610000D4908600D4908700D4908701420FEF757
:10062000D1FF07211420FFF707F81420FEF7E2FF9F
:10063000002004F0A5FE04F09DFE0649086000209D
:1006400010BD0000C42E0020742600208426002047
:1006500085260020782600202DE9F04104460E462C
:100660001746254600BF1048807810B90820BDE81D
:10067000F08100BF0CB90820F9E7052E01D2072050
:10068000F5E7686908B90820F1E7687C012801D11D
:10069000304600E0002080463B4642463146284630
:1006A00005F0EAFAE3E70000C42E002070B5044626
:1006B000254600BF0848807808B9082070BD00BFF3
:1006C0000CB1686908B90820F8E7002028740221F5
:1006D000284605F000FBF1E7C42E00202DE9F0418B
:1006E00004460F48077821460E48FFF737FF80463B
:1006F00097B100200A49087001220B490B4803F00A
:10070000A9FC054600BF2E4626B100BF3046FFF7C4
:1007100017FF00BF00BF00BF4046BDE8F0810000EA
:1007200096260020D02F0020952600208826002025
:100730002DE9F04188B004460D46174698462E48EC
:1007400007601DB9072008B0BDE8F081A88882B213
:100750002A482968FFF711FF064600BF0EB1304650
:10076000F1E700BFA88982B22548A968FFF705FF15
:10077000064600BF0EB13046E5E700BF2022214902
:100780006846FEF78FFD60690690207C08B1012065
:1007900000E000208DF814008DF81C80607C08B10A
:1007A0000E2000E000208DF81500E0680290A0689F
:1007B00003902068019060680090134A69461348CE
:1007C00003F006FC064600BF0EB13046BBE700BF93
:1007D00000200F4908702068401C58B19DF81D008A
:1007E00010B90A4803F0A0FC01220A49074803F0A7
:1007F00031FCA8E70020A6E790260020D02F00209B
:10080000E02F0020406C020069650200882600206D
:10081000962600209526002070B5044621460B48F8
:10082000FFF7BDFE054675B9094803F017FE50B93C
:1008300008490648FFF792FE28B9012205490448F5
:1008400003F056FD0546284670BD0000E02F00204D
:10085000882600209426002010B50446204604F087
:10086000E1FE10BD70B5044625460E488068B0B163
:10087000ADB9FFF707FA06460A4800680A4908605A
:10088000084840684FF0E021C1F804010020054904
:1008900088601EB900BF62B600BF00BF00BF00BFC6
:1008A00070BD0000F02F002000E100E0F8B5054623
:1008B0000C4617462088001DB84201D90C20F8BD0F
:1008C000684679DF064600BF0EB13046F7E700BF45
:1008D0000320218868542088401C2080192021880A
:1008E00068542088401C208020884119BDF80000F1
:1008F00005F0FFFF2188084420800020DFE700008A
:1009000070B505460C462068401C28B1206803F0ED
:100910005CFE206803F0F9FD6068401C18B10021FE
:10092000606803F0E5FD28792D4901EB4010007F58
:1009300050B32868A169C0F8241500BF617D227DED
:10094000286841EA0203C0F86C3500BFD4E9001200
:10095000286804F007F9207D01283FD1A068401CD9
:1009600018B10021A06803F0C3FDE068401C28B165
:10097000E06803F02AFEE06803F0C7FDD4E9022135
:10098000286804F0DBF829E02868A169C0F824157C
:1009900000BF617D227D286841EA0203C0F86C3502
:1009A00000BFD4E90012286804F0AFF8207D0128C8
:1009B00014D1A068401C18B10021A06803F098FD74
:1009C000E068401C28B1E06803F0FFFDE06803F038
:1009D0009CFDD4E90221286804F080F870BD000075
:1009E000842E00202DE9F04192B080460D461F2054
:1009F00011901090B8F1000F17D04046FFF77FFC20
:100A0000044600BF1CB1204612B0BDE8F08100BF13
:100A100011AA08A94046FFF783FB044600BF0CB1AA
:100A20002046F1E700BF08AE02E00026002011904A
:100A3000ADB1284605F054F8044600BF0CB120467D
:100A4000E2E700BF10AA69462846FFF769FB0446A3
:100A500000BF0CB12046D7E700BF6F4602E0002779
:100A600000201090BDF84000C3B2BDF84400C1B2F0
:100A70003A46304672DFC7E7014908707047000008
:100A80002C2600202DE9F04704460F4615461E4649
:100A9000DDF8208004B115B90E20BDE8F0870120F3
:100AA00049490870002049490870202229464848D1
:100AB000FEF7F8FB002047490870474806604748A2
:100AC000C0F800804FF6FF70454908804548002176
:100AD0000160818081713C214348FEF7FCFB207856
:100AE00041490870A0788870E078C87060784870D4
:100AF0000846D4E90412C0E90412D4E90212C0E99C
:100B00000212D4E90612C0E90612606AD8B1374869
:100B10003549486236498160606A00883249496ACD
:100B20000880606A80883049496A8880002005E032
:100B3000616A8968095C2E4A1154401C2A49496A35
:100B400089888142F4D8A06A20B32A492A48816062
:100B50002549886227492448806A8160A06A808884
:100B60002149896A8880A06A00881F49896A0880AB
:100B7000002005E0A16A8968095C1E4A1154401CE6
:100B80001949896A89888142F4D894F82C00164959
:100B900081F82C00206A58B1184813490862206A6D
:100BA0004088096A4880206A00880F49096A0880DD
:100BB000606810B10C496068486039460A48FFF720
:100BC00011FF8146484668E7282600202B26002092
:100BD000282D00202C2600203C2600204026002026
:100BE0003A2600202D260020482D0020842D0020AC
:100BF000902D0020BC2D0020B02D00203626002096
:100C000010B504462088102804D0112806D01B28CF
:100C10000CD107E0204604F005F908E0204604F076
:100C2000BFF904E0204604F055FA00E000BF00BF21
:100C300010BD000010B574DF01200F4908700020BE
:100C40000E49087006200E49C87000210C48FFF7B5
:100C5000C9FE04460CB1204610BD0A48007800F0D9
:100C600015F8044634B10848006818B12046064912
:100C7000096888470020EFE7442600204626002028
:100C8000482D00202B260020402600207FB5054659
:100C90004E48007810B9082004B070BD4C4805706B
:100CA00001F00FFB20B101204A4908700020F3E752
:100CB000494800210160818081714848407818B11D
:100CC0004348007801280DD04448807818B1404846
:100CD0000078012806D04148807888B13C480078E7
:100CE00002280DD13E48006838B101203D49087006
:100CF00008203B490968884702E00020394908700C
:100D00002846FFF7C3FA3249087035480068C0B179
:100D100008460078032803D008460078042810D13C
:100D20002E48007868B13048007850B900202F492B
:100D3000087001202E490870072029490968884752
:100D400002E000202A4908700020009001900290E3
:100D500003908DF800008DF808001D4800780528E4
:100D60001CD2DFE800F01703080D1200684604F0FB
:100D700015FD044613E0684604F020FD04460EE02D
:100D8000684604F031FD044609E0684604F05CFD65
:100D9000044604E000201749087000E000BF00BFCF
:100DA0000B48007838B114480178684673DF044670
:100DB0000CB1204670E70A48006820B10D48007861
:100DC000074909688847002066E7000028260020B8
:100DD0002B260020292600202D260020282D00204B
:100DE0003C260020342600204426002046260020F1
:100DF000452600202A2600202C26002070B5054616
:100E00001C2229461248FEF74DFA002011490870AD
:100E1000286850B1104829680A6802604968416032
:100E20007ADF04463CB1204670BD0B487BDF0446A8
:100E30000CB12046F8E74FF6FF7008490880002003
:100E400007490870074A00210748FFF7B9FBEBE79D
:100E5000DC2D00205C2600204826002052260020A1
:100E60005026002001690200C46B020010B5044640
:100E70002088102806D0112808D012280ED050281B
:100E800010D107E0204603F0ADFF0CE0204604F04F
:100E900063F808E0204604F039F904E0204603F046
:100EA00095FF00E000BF00BF10BD2DE9FC410546E5
:100EB0000C46174620880930B84202D90C20BDE8FC
:100EC000FC8168466DDF064600BF0EB13046F6E78E
:100ED00000BF0820218868542088401C20801B20E7
:100EE000218868542088401C208020882844DDF810
:100EF00001100160BDF8051081802088801D2080D0
:100F00009DF80000400818B900202188685402E0CC
:100F10000120218868542088401C20800020CEE7D2
:100F200010B504462046FFF7A1FF2146084802F00D
:100F3000A5FC2146074800F059F8204603F032FE90
:100F40002046FFF75DFE204600F0F2F910BD0000DC
:100F5000DC260020C026002070B586B004460E4670
:100F6000214B0FCB01AD0FC500BF14B90E2006B049
:100F700070BD00BF00BF0EB90E20F8E700BF4FF6EE
:100F8000FF70A0823068A0610020A075214601A8F2
:100F900062DF054600BF0DB12846E8E700BF2078B4
:100FA0008DF816000120ADF81400A21C05A9A0DFE1
:100FB000054600BF0DB12846D9E700BF314620469F
:100FC00004F053FA054600BF0DB12846CFE700BF35
:100FD0003146204605F0ADF9054600BF0DB1284663
:100FE000C5E700BF0020C2E7E06B020070B5054610
:100FF0000C4605B104B970BD2088102804D0112812
:1010000007D050280FD109E02146284603F006FFFB
:101010000AE02146284603F0BFFF05E021462846A6
:1010200004F09AF800E000BF00BF00BFE3E737B567
:1010300084B004460D4600BF14B90E2007B030BD81
:1010400000BFA08A4FF6FF71884201D0A07D08B989
:101050000820F3E7BDF818009B2801DD0720EDE725
:1010600000200090019002900390A088ADF800004D
:10107000039506A8029001208DF80200A08A694617
:10108000A6DFDBE770B50446204605F02CFC0546DC
:1010900005F0010070BD000070B586B046480068DC
:1010A000059000BF0023D822444905A804F0C2FCE3
:1010B000054600BF2E4626B100BF3046FFF740FA76
:1010C00000BF00BF00BF0020049004A804F012FC81
:1010D000044600BF254625B100BF2846FFF730FA79
:1010E00000BF00BF002001900290039001208DF806
:1010F000040000208DF805008DF8060001A94020AD
:10110000049A69DF044600BF254625B100BF284682
:10111000FFF716FA00BF00BF002001900290039075
:1011200001208DF804009E20ADF8060001A92320BF
:10113000049A69DF044600BF254625B100BF284652
:10114000FFF7FEF900BF00BF00200190029003905E
:1011500001208DF804004FF4A071ADF808108DF84F
:10116000060001A92020049A69DF044600BF254635
:1011700025B100BF2846FFF7E3F900BF00BF04A870
:1011800004F0CEFB044600BF254625B100BF28462B
:10119000FFF7D6F900BF00BF094804F0B5FB0446CD
:1011A00000BF254625B100BF2846FFF7C9F900BF9B
:1011B00000BF06B070BD0000106B0200F8260020D2
:1011C000210F020001460148405C7047446B020059
:1011D00010B50146094B585C00BF4FF0A0442346B0
:1011E00000BFD3F81045C44004F001040CB1012045
:1011F00000E00020024682F0010010BD446B0200B6
:1012000010B502460949885C00BF4FF0A044214652
:10121000D1F80435012484409C43C1F808450124D9
:1012200084401C40C1F80C4500BF10BD406B02005B
:1012300010B504460249085D012103F0D1F910BD43
:10124000406B020010B504460249085D002103F01E
:10125000C7F910BD406B020010B50146094B585C40
:1012600000BF4FF0A044234600BFD3F80445C4405C
:1012700004F001040CB1012000E00020024682F0DD
:10128000010010BD406B02007CB500240CE0094851
:10129000055D00200090034601221146019028467A
:1012A00003F0EAF800BF641C042CF0D300F004F84B
:1012B0007CBD0000406B020010B5002403E0204616
:1012C000FFF7B6FF641C042CF9D310BD10B5002441
:1012D00003E02046FFF7B6FF641C042CF9D310BDD1
:1012E00002464FF0FF30002106E0054B5B5C934265
:1012F00001D1084602E0491C0429F6D300BF70471B
:10130000446B020070B505460C4600260648056091
:1013100014B1204604F0EBFB0448006810B9FEF756
:10132000F7FF0646304670BD202600202426002008
:1013300070B505462888102802D011282CD115E058
:101340001748006860B900F03FFD044600BF34B1A3
:101350001448006818B1204612490968884700BF40
:101360000F480068401C0E49086016E00C480068F1
:10137000401E0B4908600846006860B9FEF7C8FFC8
:10138000044600BF34B10748006818B1204605493B
:101390000968884700BF00E000BF00BF70BD0000C3
:1013A000242600202026002010B5002000F014FB89
:1013B000044600BF1CB1062C01D0204610BD00BF62
:1013C000012000F009FB044600BF1CB1062C01D02F
:1013D0002046F3E700BF0020F0E700002DE9F041D0
:1013E00006460F464FF0000800243046FFF778FF0E
:1013F0000446042C3ED20FB3012F02D0022F38D165
:1014000030E004EB4400214911F8008004EB440073
:101410000844407850B11E4A4FF400411D4800680E
:10142000FFF71AF905460DB91948067004EB440098
:10143000164908448078184908551AE0154800688C
:10144000FFF734F91448005D04EB44010F4A1144DE
:101450008978884205D104EB44001146084490F88D
:10146000028006E004EB44000849084490F801803B
:1014700000BF00BFB8F1000F06D00848006818B1DF
:101480004046064909688847BDE8F081AC2C002039
:1014900018260020506B0200192600201426002078
:1014A00010B504462046FFF793FE10BD70B5054603
:1014B0000A2D0AD004DC042D0AD0072D34D118E0FF
:1014C0000E2D2BD00F2D2FD12BE004F0EDF92CE0B9
:1014D00013211748008876DF0446082C08D000BF87
:1014E000264626B100BF3046FFF72AF800BF00BFEE
:1014F0001BE00F4800884FF6FF7188420DD1FFF7BF
:1015000099FB0446082C08D000BF264626B100BF30
:101510003046FFF715F800BF00BF06E001F0DEFA25
:1015200003E001F0DBFA00E000BF00BF70BD000087
:10153000F825002030B503460020042B23D2012AD1
:1015400007D1012903D103F10E04E4B200E0002425
:10155000224679B1012902D0022911D104E003EB1E
:1015600043040A4D2A550DE003EB4304074D2C4478
:10157000627007E003EB4304044D2C44A27001E0C9
:10158000072000BF00E0072030BD0000AC2C002089
:1015900070B5044600250548007800F0010018B138
:1015A000204600F05BF80546284670BD0C2600205A
:1015B0002DE9F04105460F4600241F4805601F48ED
:1015C000076005F0020000B3002606E00122114684
:1015D0003046FFF7AFFF0446761C042E01D2002CE4
:1015E000F4D034B940F2666204211548FEF714FFC6
:1015F000044614B9FEF7FAFE04462CB9114A00213C
:101600001148FEF7DDFF044600BF05F0010008B1F8
:10161000FFF73AFE2CB90D4A00210D48FEF7D0FF26
:1016200004462CB90B4A01210B48FEF7C9FF0446BA
:101630002046BDE8F08100000C2600201426002082
:10164000546B0200031A0200506B02001D270200B7
:10165000486B0200E10302004C6B02002DE9F047E9
:10166000044600260025D748007820B10020D5493F
:10167000087001F03FF8182C79D2DFE804F00C1163
:10168000124579ADF1FFEEEDECEBEAE9E8E7E6E5CE
:10169000E4E3E2E1E0DF01F02DF8CB4804708DE1F6
:1016A00000BF0020FFF7D8FD58B10020FFF7C0FDB4
:1016B000022C02D14FF4E16001E04FF47A6005465C
:1016C00009E00020FFF7BEFD022C01D1C82001E097
:1016D0004FF4C8700546BC4804704FF40040A5FBA9
:1016E00000204FF4FA73D71840F100015A0000238C
:1016F0003846FDF7A1FD814600224946B3480068FF
:10170000FEF7AAFF064659E10020FFF7A5FD58B1F4
:101710000020FFF78DFD032C02D14FF4487001E04B
:101720004FF47A60054609E00020FFF78BFD032C9B
:1017300001D1C82001E04FF4C8700546A2480470EA
:101740004FF40040A5FB00204FF4FA73D71840F186
:1017500000015A0000233846FDF76EFD8146002245
:1017600049469A480068FEF777FF064626E124E1DD
:101770000020FFF771FD58B10020FFF759FD042C40
:1017800002D14FF47A6001E04FF47A6005460AE036
:101790000020FFF757FD042C02D14FF4C87001E080
:1017A0004FF4C8700546884804704FF40040A5FB0C
:1017B00000104FF4FA73CF1840F100015A000023D3
:1017C0003846FDF739FD8146002249467F480068CA
:1017D000FEF742FF0646F1E00020FFF73DFD50B165
:1017E0000020FFF725FD052C01D1C82001E04FF4B2
:1017F0007A60054609E00020FFF724FD052C01D1A1
:10180000C82001E04FF4C87005466F4804704FF4DB
:101810000040A5FB00204FF4FA73D71840F10001F7
:101820005A0000233846FDF707FD8146002249464D
:1018300066480068FEF710FF0646BFE0B8E0B6E075
:10184000AAE0A1E098E092E05FE05DE05BE059E0B3
:1018500057E051E042E033E024E015E00EE0FFE71E
:101860000020FFF7CDFC58480470002240F6CD411F
:1018700056480068FEF7F0FE06469FE00020FFF79E
:10188000E1FC5148047099E001204E490870FFF7CF
:10189000B7FC002240F6CD414C480068FEF7DCFE64
:1018A00006468BE0012047490870FFF7A9FC00229B
:1018B0004FF4804145480068FEF7CEFE06467DE0C5
:1018C000012040490870FFF79BFC002240F6CD4103
:1018D0003E480068FEF7C0FE06466FE00120394929
:1018E0000870FFF78DFC00224FF4804137480068F4
:1018F000FEF7B2FE064661E0FFF7E8FC32480470EE
:101900005CE000BF00BF00BF00BF31480068FEF7C9
:10191000CDFE0646C4F1110515B30EBB012D18D935
:10192000A8B2C82148434FF4004180FB01304FF476
:10193000FA729F1840F10001520000233846FDF76B
:101940007BFC81460022494621480068FEF784FE60
:1019500006460220FFF776FC01201E49087005E0CC
:101960000220FFF765FC00201A49087026E000F00D
:10197000C1FE1548047021E000F0BCFE0020FFF716
:1019800061FC1148047019E000F0B4FE0120FFF77B
:1019900059FC0D48047011E000F0ACFE0020FFF788
:1019A00051FC0120FFF74EFC0748047006E000BF21
:1019B000FFF78CFC0448047000E000BF00BF304615
:1019C000BDE8F0870926002008260020486B0200A9
:1019D0004C6B02001026002070B504462046FFF72D
:1019E000F1FB0546032102F09CFD002070BD02467C
:1019F000002901DA002003E013680B441360012082
:101A0000704710B5044620780221FFF7E7FC10BDAF
:101A1000F8B5054612490320FFF7CAFD044600BF8A
:101A2000264626B100BF3046FEF78AFD00BF00BF44
:101A300069460020FFF766FC044600BF264626B133
:101A400000BF3046FEF77CFD00BF00BF9DF80000E0
:101A5000022801D1012000E000202870F8BD00001C
:101A6000AD14020030B502460B4602210EE08C0098
:101A700042FA04F404F00F00092802DD00F13704F3
:101A800001E000F13004C1F101055C550C1EA1F12B
:101A90000101ECD130BD00004FF0FF31054A42F8A2
:101AA0002010082804DBFF23A0F108015032535412
:101AB000704700002C2E00200146024850F82100FB
:101AC000704700002C2E00202DE9F04F03460C46F5
:101AD0004FF0FF390AB1002000E0082084460AB127
:101AE000082000E00C208046614624E0154850F8AC
:101AF0002100401CF0B91D460846274616464FFAFD
:101B000080FBDFF840A00AF1300A0AF805B0DFF8E0
:101B100034A04AF820704EB94FFA85FBA0F1080AAC
:101B2000DFF820E00EF1500E0EF80AB000BF4FFAB9
:101B300081F902E0491C4145D8D300BF4846BDE8C1
:101B4000F08F00002C2E00200146014840567047BF
:101B50005C2E002070B505460DB9094C01E0084C1B
:101B6000083409E0204600F0BFFD064606B904E04F
:101B700028467168884700BFF4E700BF70BD0000C9
:101B8000202E00202DE9F04782461F4800680028DB
:101B900036D01D480068056803F0ECFB07461B487B
:101BA00004682146384603F0B5FFC61C1848007883
:101BB00008B903F0F1FBAE4201D2284600E03046FE
:101BC000044424F07F44204603F0CEFB03F0D2FB14
:101BD00080463946404603F09DFF00F1030939462F
:101BE000204603F097FF814509D903F0C3FB8146E6
:101BF00003F0BAFB2F2001F04DFF04F0D9F801E00B
:101C000003F0E8FBBDE8F08774260020782600206A
:101C10008626002001460888062808DB0888B0F5DB
:101C2000486F06DD08884FF6FF72904201D007200A
:101C300070474888062808DB4888B0F5486F06DDFD
:101C400048884FF6FF72904201D00720F0E70888DD
:101C50004FF6FF72904208D04888904205D008881D
:101C60004A88904201DD0720E2E70020E0E72DE905
:101C7000F04106460D46144698462088801D404592
:101C800002D90C20BDE8F0813046FFF7C3FF0746BC
:101C900000BF0FB13846F5E700BF05202188685422
:101CA0002088401C20801220218868542088401CF5
:101CB000208022885119308804F01BFE21880844B6
:101CC000208022885119708804F013FE218808446E
:101CD00020800020D6E710B5044600BF2046FEF75E
:101CE0002FFC00BF10BD000030B587B01C21684636
:101CF000FDF7F1FA002000904FF4203001904FF4EE
:101D00007020029003208DF80C000020ADF80E002A
:101D10008DF8100009480590094806906846FFF7BD
:101D20006DF8044600BF254625B100BF2846FEF7E2
:101D300007FC00BF00BF07B030BD0000A14D02008E
:101D4000D71C020038B51B4800F0BCFC20BB1A4869
:101D5000007848B119484069E8B100200090174860
:101D600041696846884716E01548007810B913485D
:101D7000456801E01148856800222946114800683D
:101D8000FEF76AFC044634B10C48806918B10B4870
:101D900081692046884709E00848406930B1012040
:101DA0000090064841696846884700BF0020024904
:101DB000087038BD542600205C260020DC2D002051
:101DC00050260020C46B020010B5012200210846F5
:101DD000FFF7B0FB044600BF1CB1072C01D0204622
:101DE00010BD00BF072202210120FFF7A3FB04461C
:101DF00000BF1CB1072C01D02046F1E700BF042230
:101E000002210020FFF796FB044600BF1CB1072CFF
:101E100001D02046E4E700BF0020E1E77CB504469E
:101E20000D46002000900190A81D00EBC4008079B1
:101E3000ADF80000A81D00EBC4008079ADF80200E9
:101E40000022694620468FDF06462EB133462246E1
:101E50000249012002F0E1FD7CBD0000FC6D0200A2
:101E60002DE9F0478146002532E01C48006800EB70
:101E7000C5042178012000FA01F6194800683040B5
:101E800020B317480068B04315490860207801F076
:101E9000A1FF0746217801208840124909680840BF
:101EA000217807FA01F188420FD16078012800D12A
:101EB00000E00020784080F00108606820B108F060
:101EC000FF0120786268904700BF00BF681CC5B260
:101ED000054800788542C8DBBDE8F0876026002011
:101EE000702600206C26002064260020014614483D
:101EF0000078144A127890421DD011480078401C96
:101F00000F4A107010460078022801D1002010708E
:101F10000D480B4A127850F8220008600B4A0868F6
:101F200012681044094A10601046006820F07F4093
:101F30001060012070470020086000BFFAE7000031
:101F400084260020852600207C260020782600207C
:101F500013480078062820D11148001D007800F0B1
:101F60000F00D0B90E480830007800F0F00030289B
:101F700001D1012070470A480830007800F0F000D5
:101F8000402801D10120F5E705480830007800F02D
:101F9000F000502801D10120ECE70020EAE7000022
:101FA000E00F00F013480078062820D11148001DEA
:101FB000007800F00F00D0B90E480830007800F02B
:101FC000F000302801D1012070470A48083000781D
:101FD00000F0F000402801D10120F5E70548083065
:101FE000007800F0F000502801D10120ECE700203B
:101FF000EAE70000E00F00F013480078062820D13F
:102000001148001D007800F00F00D0B90E480830CC
:10201000007800F0F000302801D1012070470A4814
:102020000830007800F0F000402801D10120F5E7E9
:1020300005480830007800F0F000502801D1012058
:10204000ECE70020EAE70000E00F00F00A48007823
:1020500006280ED10848001D007800F00F0040B996
:1020600005480830007800F0F000302801D1012048
:1020700070470020FCE70000E00F00F013480078F4
:10208000062820D11148001D007800F00F00D0B9BB
:102090000E480830007800F0F000302801D101200F
:1020A00070470A480830007800F0F000402801D15D
:1020B0000120F5E705480830007800F0F0005028CE
:1020C00001D10120ECE70020EAE70000E00F00F07A
:1020D0000A48007806280ED10848001D007800F054
:1020E0000F0040B905480830007800F0F0003028B3
:1020F00001D1012070470020FCE70000E00F00F054
:1021000013480078062820D11148001D007800F0FF
:102110000F00D0B90E480830007800F0F0003028E9
:1021200001D1012070470A480830007800F0F00023
:10213000402801D10120F5E705480830007800F07B
:10214000F000502801D10120ECE70020EAE7000070
:10215000E00F00F00A48007806280ED10848001D5C
:10216000007800F00F0040B905480830007800F012
:10217000F000302801D1012070470020FCE700006A
:10218000E00F00F00A48007806280ED10848001D2C
:10219000007800F00F0040B905480830007800F0E2
:1021A000F000302801D1012070470020FCE700003A
:1021B000E00F00F00A48007806280ED10848001DFC
:1021C000007800F00F0040B905480830007800F0B2
:1021D000F000502801D1012070470020FCE70000EA
:1021E000E00F00F0F0B5034600241FE0124E306807
:1021F00006689E4203D90668F61A06601AE0066869
:102200009B1B06683444002606600B4E35680A4F57
:10221000C6693E60C66846B10E1926F07F46466024
:10222000C66886601668C661156000BF024800680F
:102230000028DBD100BFF0BD7426002070B5044635
:102240000D462A460021204600F00EF8A068401CEA
:10225000A06070BD01468A68C868801A7047014650
:102260008A68C868801A704710B583680B448488F0
:1022700023400468E35C137010BDC26883881A4071
:1022800003689954C268521CC260704730B5044656
:102290001088C01C984201D90C2030BD022015883E
:1022A00048551088401C108001201588485510881A
:1022B000401C108015884C551088401C1080002050
:1022C000EBE708B5684600F00FF8009808B1012068
:1022D00008BD0020FCE770B504460D46E0B2FEF7ED
:1022E0009BFA204670BD0000014609B903207047E3
:1022F0000248406E08600020F9E70000FC2F002033
:102300003EB500BF9DF8000020F00F00401C00907B
:102310009DF8000020F0F0001030009000BF052272
:1023200014A168467CDF044600BF254625B100BFE6
:102330002846FEF705F900BF00BF0020019002907B
:102340001020ADF804003C20ADF806000020ADF8E8
:1023500008004FF4C870ADF80A0001A87ADF0446FF
:1023600000BF254625B100BF2846FEF7E9F800BFAB
:1023700000BF3EBD313233343500000070B5054634
:102380000C4660880A49098888420FD1208840F6A7
:10239000772188420AD1A088C01E064908800846D5
:1023A0000388028804A1032002F037FB70BD0000FF
:1023B000F8250020FE2500206D667263363330203C
:1023C000202020203A494E464F3A44617461206CE7
:1023D000656E2069732073657420746F20307825D2
:1023E00058282564290D0A0070B50E490E4801F0E1
:1023F0002AFA044600BF254625B100BF2846FEF74D
:102400009FF800BF00BF4021074801F00DFA0446C5
:1024100000BF254625B100BF2846FEF791F800BF52
:1024200000BF70BD7D230200DC2600202DE9F041B5
:1024300005460F46012000FA05F418480068FEF72B
:1024400035F906460EB1BDE8F08115480068204018
:10245000E0B9284601F0BEFC28B1124800682043CC
:102460001049086004E00F480068A0430D49086067
:102470000B48006820430A49086000220A480168A6
:1024800006480068FEF7E8F8064604E004480068DD
:10249000A0430349086000BFD5E70000386C020084
:1024A000702600206C26002068260020F8B52748FA
:1024B000007800B9F8BD00252548006808B901205A
:1024C00000E00020064600BFDDB92248007800B1D8
:1024D000F0E7684648DF0446052C01D101250FE0EE
:1024E00024B100BF2046FEF72BF809E0009801F068
:1024F0006BFB1948006818B11749009809688847AC
:1025000000BFDEB91348007800B1D3E71348008854
:10251000009069461248006861DF0446052C01D12D
:1025200001260AE024B100BF2046FEF709F804E0C6
:102530000B48006806490968884700BF0DB106B11D
:1025400000E0C1E700BF00BFB4E70000AC260020F8
:10255000B8260020AD260020A8260020B4260020A2
:10256000B026002070B504460D4620791D4901EBC8
:102570004010007FF8B14FF48871206802F0D7FA5C
:102580004FF49071206802F0D2FA4FF492712068F3
:1025900002F0CDFA4FF4A271206802F0C8FA124995
:1025A000206802F0D4FA206801F04BFB0646294669
:1025B00001F012FB14E04FF48E71206802F087FAEC
:1025C0004FF4A271206802F082FA0849206802F0F4
:1025D0008DFA206801F035FB0646294601F0FCFA29
:1025E00070BD0000842E0020100302008000020055
:1025F0007FB505460C4694F8210094F82010CDE9EB
:10260000001004F12602D11E2846E36903F013FDF1
:1026100000B17FBD94F8230048BB207B022802D084
:10262000207B032823D1E169206981421FD16069A1
:10263000E061E07B84F82000207EC0F3401084F845
:102640002100207B03280AD194F82100009094F8FF
:10265000203029462046E26903F080FD30E094F8FE
:10266000203029462046E26903F04CFC28E0D4E9FA
:102670000412E06801AB07C394F8230088B1284630
:1026800002F0F8F9064606F0020018B101208DF8B4
:10269000000005E006F0040010B102208DF80000F3
:1026A00002E000208DF80000002084F82400207E45
:1026B00000F0040018B96846D4E90021904700BF33
:1026C00000BFA6E701464888064A1288904206DB0A
:1026D0004888044A5288904201DC0120704700205B
:1026E000FCE70000482600200146086808B102689F
:1026F0000A60704710B50848007850B1002405E022
:10270000022C02D02046FEF793FD641C042CF7D364
:1027100001E0FEF7D1FD10BD1026002010B50446E3
:102720000448007800F0010018B103480078FEF773
:1027300095FF10BD0C260020082600209E21018058
:1027400017214180002101714171A22181711B215A
:10275000C17170472DE9F041064600274748D0F87F
:10276000008078E016B13446E66947E044480078D6
:1027700000EB40014248001D00EBC105001F00783E
:10278000401C3F490870084600788978884202D189
:1027900000203B4908706C68287801281AD002286C
:1027A00002D0032817D107E0686803F021FA00B1CE
:1027B0000127002020744EE007E03049086800211E
:1027C00001742E4AC169116000BF2C4800680028BE
:1027D000F3D140E000E03EE000BF207C00B13AE0F1
:1027E000A8686060E868A0602869E0606869A06126
:1027F0002448007808B10020606000BF224960686A
:102800000968401A20F07F402049884208D21E49BA
:102810006068096803F07EF9A168084420600FE051
:1028200019486168006803F075F90546A068A84278
:1028300003D9A068401B206001E00020206000BF99
:1028400000206060A060012020740020E06120462C
:1028500003F09AF900BF002E84D109480078084996
:1028600049788842F8D11FB904480068404502D031
:102870000120BDE8F0810020FBE700007426002065
:10288000C42E00208726002078260020FFFF7F002E
:1028900070B5002002F0D8F8044600BF254625B1E7
:1028A00000BF2846FDF74CFE00BF00BF70BD000012
:1028B00086B0FDF7A3FE044600BF264626B100BF42
:1028C0003046FDF73DFE00BF00BF03F0B7FEFFF747
:1028D000DFFF05A8FFF79CF8FEF7DEFBFFF710FD12
:1028E000FFF782FD02F042FFFDF73CFDFFF7FCF928
:1028F00000F0CEFE002000F072F80320FEF7C6F9CB
:10290000044600BF264626B100BF3046FDF718FE3C
:1029100000BF00BF14220E496846FCF7C3FC122218
:1029200069460C48FEF783FB002500BF00F0D6F88F
:1029300032264FF47A7116FB01F001F013F800BF54
:1029400029466A1CD5B204A0FDF74CF9EEE7000059
:102950002C6B0200C0260020636F756E74203D2032
:1029600025640D0A0D0000002DE9F04105460E46D4
:1029700014469846A888871C2088801C3844404507
:1029800002D90C20BDE8F081FE2F01D90C20F9E717
:10299000781C218870542088401C2080FF202188CA
:1029A00070542088401C208022889119288803F0C8
:1029B000A0FF218808442080A88800280DDDA86891
:1029C00008B90720DEE7AA8823889819A968FCF7C8
:1029D00069FC2088A988084420800020D2E710B52F
:1029E00004460021204600F001F810BD30B585B046
:1029F00005460C4635B1012D14D0022D22D0032DF1
:102A000040D12FE0142221A16846FCF74BFCC4F111
:102A10001203DAB20DEB040104F12803D8B200F07E
:102A200085FE2FE014221EA16846FCF73BFCC4F192
:102A30001203DAB20DEB040104F12803D8B200F05E
:102A400075FE1FE014221BA16846FCF72BFCC4F1A5
:102A50001203DAB20DEB040104F12803D8B200F03E
:102A600065FE0FE0142218A16846FCF71BFCC4F1B8
:102A70001203DAB20DEB040104F12803D8B200F01E
:102A800055FE00BF00BF05B030BD00008A08211A06
:102A900018180F2700C012CF00049032120A00004D
:102AA0008E12110618180F1000C012CF0005903FAB
:102AB000120200008E12110618180F0800C012CF63
:102AC0000006903F120A00008FDB110618180F0253
:102AD00000C012CF0007903F120200007FB500F047
:102AE000D9F80646002E36D00020009001900290C2
:102AF00003A9684600F084F90446214618A0FDF7B2
:102B000071F8002C20D09DF80C20214618A0FDF76C
:102B100069F82146684600F015FD1EA0FDF762F831
:102B2000002506E01DF805101BA0FDF75BF8681CEA
:102B3000C5B2A542F6DB17A0FDF754F8042269469A
:102B40001648FEF774FA05E015A0FDF74BF822A031
:102B5000FDF748F802E02EA0FDF744F87FBD000025
:102B60007569645F6C656E203D2025640D0A0D005B
:102B7000554944206F662025686864206279746531
:102B800073202853414B3A307825686858293A20F9
:102B9000000000000D0A000025642000C02600206F
:102BA000436F756C64206E6F742064657465726D1C
:102BB000696E65205549442C207065726861707398
:102BC00020736F6D6520636172647320646F6E277C
:102BD0007420706C617900002077656C6C207769D7
:102BE000746820746865206F746865722063617210
:102BF00064733F204F7220746F6F206D616E792077
:102C0000636F6C6C6973696F6E733F0D0A0000002F
:102C10004E6F20616E7377657220746F205245513C
:102C2000412C206E6F2063617264733F0D0A0000B7
:102C300010B57F21062000F053FD10BD10B57F2197
:102C4000072000F04DFD10BD10B50021084600F032
:102C500047FD10BD70B504460D46FFF7F5FF00F0C7
:102C600009F82946204600F02DFD0721002000F03C
:102C700037FD70BD10B51021022000F031FD10BDF0
:102C800010B5062000F0A4FC10BD10B5072000F020
:102C90009FFC10BD10B5262000F002F810BD00000A
:102CA0002DE9FC410646FFF7CFFFFFF7E3FF0F21B9
:102CB0002E2000F015FD18212C2000F011FD182108
:102CC0002D2000F00DFD00210C2000F009FD0196E3
:102CD000FFF7AEFFFFF7B2FF0621082000F000FD6E
:102CE0000121092000F0FCFC00271121384600F0EA
:102CF0009FFC4FF47A71384600F0A5FC4FF47A71CE
:102D0000384600F0B2FC012101A8FFF7A3FF1FA085
:102D1000FCF768FF002506E0FFF7B7FF054605F062
:102D2000400000B104E00120B84028400028F3D062
:102D300000BF1AA0FCF756FFFFF786FFFFF7A0FFC2
:102D4000044604F0040010B104F0020038B1224639
:102D5000294619A0FCF746FF0020BDE8FC81224669
:102D600029461DA0FCF73EFF0221684600F0FCFB4F
:102D70001FA0FCF737FF0221684600F0E3FB15A017
:102D8000FCF730FFBDF80000E7E7000053656E6414
:102D9000696E6720524551410D0A0D004166746508
:102DA000722077616974696E6720666F7220616E48
:102DB000737765720D0D0A004E6F2052582C2069F2
:102DC0007271313A202568687820697271303A2032
:102DD000256868780D0A0000697271313A2025680B
:102DE000687820697271303A20256868780D0A0089
:102DF0004154514120616E737765723A20000000A2
:102E00002DE9F34F93B08146FFF71EFFFFF732FF26
:102E1000FDA0FCF7E7FE0621082000F061FC01217F
:102E2000092000F05DFC002012901121129800F0A2
:102E3000FFFB4FF47A71129800F005FC4FF47A71A1
:102E4000129800F012FC012700BF60E300201190EF
:102E500000240F9010900DF13E06012F04D0022F98
:102E600005D0032F09D105E09320119005E09520AE
:102E7000119002E09720119000BF00BF18212C2074
:102E800000F02EFC18212D2000F02AFC4FF0000B42
:102E90005CE123465A463946E0A0FCF7A3FEE51D57
:102EA000E81705EB5070C0F3CF01304600F04AFB45
:102EB000E5A0FCF797FEFFF7BBFEFFF7BFFE1198FA
:102EC0008DF83C0004F12000C0B28DF83D0025468D
:102ED000E01704EB5070C010A4EBC000C0B240F08B
:102EE00008012E2000F0FCFB2046E11704EB517195
:102EF000C910A4EBC101C9B20591D4A00599FCF792
:102F000071FE0022059842EA0010C1B20C2000F0C8
:102F1000E7FBE11704EB5171C910A4EBC10141B902
:102F20002046E11704EB5171C910891CC9B20E91FA
:102F300007E02046E11704EB5171C910C91CC9B262
:102F40000E91C9A00E99FCF74DFE0FA80E9900F046
:102F5000F9FABDA0FCF746FE0FA80E99FFF77AFE1E
:102F60000020049007E0FFF790FE0490049800F022
:102F7000400000B107E00121129801FA00F0049925
:102F800008400028EFD000BFFFF75EFEFFF778FE95
:102F900003900A2000F01CFB02900D2000F018FBAB
:102FA0000190B6A00399FCF71DFEB8A00299FCF7AA
:102FB00019FE4FF0000A039800F0020000285DD0CF
:102FC000029800F0040000284ED0019800F0800024
:102FD000002841D0019820F0800A5146AFA0FCF7AC
:102FE00001FE04EB0A00C5B27A1E02EB420251193F
:102FF000CA1701EB5272D21019F802202846EB17BB
:1030000005EB5373DB10A5EBC3031A4102F0010279
:103010000092EA1705EB5272D210B25C2946EB1708
:1030200005EB5373DB10A5EBC30C009B03FA0CF309
:103030001A43EB1705EB5373DB10F254601CC4B258
:1030400021469BA0FCF7CEFD0A21304600F07AFA1B
:103050007DA0FCF7C7FD22E09EA0FCF7C3FDC4F1F4
:10306000200000F0FF0A1AE0C4F1200000F0FF0A7F
:103070005246A1A00299FCF7B5FD10E0039800F0BC
:10308000040040B1C4F1200000F0FF0A5146AAA09C
:10309000FCF7A8FD03E0002015B0BDE8F08F514615
:1030A000B0A0FCF79FFD05210CA800F05DFA0521FA
:1030B000B2A0FCF797FD05210CA800F043FA62A02E
:1030C000FCF790FD2146B2A0FCF78CFDE51DE8174A
:1030D00005EB5070C0F3CF01304600F033FA5AA030
:1030E000FCF780FD4FF0000814E0E11704EB51718C
:1030F00008EBE101715C0CAA12F80820114320468C
:10310000E21704EB527208EBE202B15408F101003D
:1031100000F0FF08B8F1050FE7DB04EB0A00C4B2CA
:103120002146A3A0FCF75EFD202C0BDB2146A5A0C9
:10313000FCF758FD0A21304600F004FA42A0FCF7E3
:1031400051FD07E00BF1010000F0FF0BBBF1200F78
:10315000FFF69FAE00BF30790B9030787178484011
:10316000B1784840F17848400A90DDE90A10884279
:103170000BD0A1A0FCF736FD0C98C9F800009DF813
:10318000340089F80400002086E7FFF751FDFFF7BF
:1031900055FD11988DF83C0070208DF83D000A987F
:1031A0008DF8420007200E9019212C2000F098FA8B
:1031B00019212D2000F094FA2546E01704EB5070F9
:1031C000C010A4EBC000C0B240F008012E2000F0F7
:1031D00087FA002009900022099842EA00110C2089
:1031E00000F07EFA0FA80E99FFF734FD8DA00E991E
:1031F000FCF7F8FC0FA80E9900F0A4F912A0FCF758
:10320000F1FC0020089021E10D0A53746172746989
:103210006E672073656C6563740D0A000D0A434C7C
:103220003A20256868642C20636F6C6C206C6F6F8B
:10323000703A20256868642C206B622025686864D9
:10324000206C6F6E673A20000D0A0000536574749D
:10325000696E6720727820616C69676E20746F3ABE
:1032600020256868640D0A0053656E643A25686815
:1032700064206C6F6E673A20000000006972713044
:103280003A20256868580D0A000000006572726FC8
:10329000723A20256868580D0A000000436F6C6C74
:1032A0006973696F6E20617420256868580D0A0083
:1032B0007569645F746869735F6C6576656C206EB0
:1032C0006F77206B622025686864206C6F6E673AA8
:1032D00020000000436F6C6C6973696F6E2062752B
:1032E00074206E6F2076616C696420636F6C6C7003
:1032F0006F732E0D0A0000004E6F20636F6C6C69B7
:1033000073696F6E2C206572726F72207761733AE9
:1033100020256868782C2073657474696E67206353
:103320006F6C6C6973696F6E5F706F7320746F3A46
:1033300020256868780D0A00476F74206461746105
:103340002C206E6F20636F6C6C6973696F6E2C201C
:1033500073657474696E672020746F3A20256868FD
:10336000780D0A00636F6C6C6973696F6E5F706FC4
:10337000733A20256868580D0A0000004669666F98
:103380002025686864206C6F6E673A20000000009A
:103390007569645F746869735F6C6576656C206BD2
:1033A000622025686864206C6F6E673A2000000018
:1033B0006B6E6F776E5F626974733A202568685828
:1033C0000D0A00006578697420636F6C6C6973691D
:1033D0006F6E206C6F6F703A207569645F746869F6
:1033E000735F6C6576656C206B622025686864206D
:1033F0006C6F6E673A200000536F6D657468696E7C
:10340000672077656E742077726F6E672C20424359
:103410004320646F6573206E6F74206D6174636800
:103420002E0D0A0073656E645F72657120256868F1
:1034300064206C6F6E673A2000000000FFF725FCE7
:103440000890089800F0400000B107E001211298B0
:1034500001FA00F0089908400028EFD000BFFFF7FC
:10346000F3FBFFF70DFC0790079800F0020048B14E
:103470000A2000F0ADF8054605F0040008B1002070
:103480000AE600BF012006900699149800F06CF837
:1034900021A0FCF7A7FB0121149800F053F8AFF22C
:1034A0005820FCF79FFB1498007800F0040070B1DE
:1034B000002009E0411C725C791E01EB41010144CE
:1034C00009F80120411CC8B20328F3DB11E00021F8
:1034D00008E0725C781E00EB4000084409F8002008
:1034E000481CC1B20429F4DB07EB4700401CC0B202
:1034F000D2E539460CA0FCF775FB0A21484600F0DE
:1035000021F8AFF2BC20FCF76DFB781CC7B2032F8B
:103510007FF79CAC0020BFE553414B20616E737771
:1035200065723A2000000000457869742063617379
:10353000636164652025686864206C6F6E673A205B
:103540000000000070B505460E46002405E0295D28
:1035500003A0FCF747FB601C84B2B442F7DB70BDEC
:1035600025303258200000007CB505460E46124832
:1035700000F07EFC11A0006801900120034601AA22
:10358000292100900C4800F0E7FC04461CB12146BC
:103590000BA0FCF727FBF3B22A462921064800F0CE
:1035A000C5FC04461CB1214605A0FCF71BFB0248E4
:1035B00000F05EFC7CBD0000AC6B0200050000006A
:1035C0006572725F636F6465203D2025640D0A009B
:1035D0003EB50546114800F04BFC0195012003461D
:1035E00001AA292100900D4800F0B6FC04461CB148
:1035F00021460BA0FCF7F6FA022302AA292107486C
:1036000000F094FC04461CB1214605A0FCF7EAFA40
:10361000024800F02DFC9DF808003EBDAC6B020096
:103620006572725F636F6465203D2025640D0A003A
:1036300070B504460D4604EB84010F31C8B229462B
:1036400000F04EF870BD70B504460D46291204EB2B
:1036500084021032D0B200F043F804EB840111313F
:10366000C8B2FF2100F03CF870BD70B504460D46AD
:10367000291204EB84021232D0B200F031F804EBCC
:1036800084011331C8B2FF2100F02AF870BD000098
:103690001FB50A4B0FCB8DE80F0000231A46694671
:1036A000074800F0F7FB044614B1204604B010BDF3
:1036B000034800F0DDFB0020F8E70000B46B0200D7
:1036C000AC6B020070B505460E46002405E0295D8E
:1036D000052000F005F8601CC4B2B442F7DB70BDF1
:1036E0007CB504460D468DF804408DF805500A4817
:1036F00000F0BEFB0020022301AA29210090064809
:1037000000F02AFC06461EB1314604A0FCF76AFA16
:10371000014800F0ADFB7CBDAC6B02006572725FCE
:10372000636F6465203D2025640D0A002DE9F0419A
:1037300005460E461746002406E0315D2A19D0B230
:10374000FFF7CEFF601CC4B2BC42F6DBBDE8F081DF
:103750002DE9F84F05460F4614469846287801286B
:1037600004D1687810B90720BDE8F88F2088801C44
:10377000404508D82878012807D12088801C69781E
:103780000844404501D90C20EEE72088A8EB000052
:10379000801E86B200962188891CC81969467DDF83
:1037A000814600BFB9F1000F01D04846DCE700BFF9
:1037B0002878022806D1BDF80000B04202DC4FF0A4
:1037C000090A0BE04FF0080A2878012805D168782B
:1037D000B04202DC6878009000E00096BDF800007E
:1037E000FE2801D90C20BFE7BDF80000401C21884D
:1037F00078542088401C2080208807F800A020886A
:10380000401C20802088BDF8001008442080002043
:10381000AAE730B502460B46D40802F007020120A1
:1038200090401D5D284030BD024600BF0AB90E2001
:10383000704700BF172901DB9E2901DD0720F7E74C
:1038400011800020F4E770B504460E4600BF0CB9A5
:103850000E2070BD00BFA6619E2020806080A22047
:103860002071002505E0A11D01EBC500FEF766FFF4
:103870006D1C022DF7D30020EBE700002DE9F0418D
:1038800005460E46B488022C01DBBDE8F081308885
:10389000222820D006DC102809D011280CD021289D
:1038A00023D11DE03A280CD055281ED10EE0314618
:1038B000284601F0C1FA19E03146284601F08EFB96
:1038C00014E03146284601F0D3FB0FE0314628468C
:1038D00001F08EFB0AE03146284601F0E9FA05E0E6
:1038E0003146284601F00EFB00E000BF00BFA81DD6
:1038F00000EBC4000079C8B1A81D30F83410204690
:103900009EDF074657B90021A81D00EBC4000171D6
:103910000121A81D00EBC400417106E0112F04D065
:103920003A460349012001F06CF800BF00BFACE744
:10393000E86C020001464FF08040405808B1012079
:1039400070470020FCE708B500224FF080410A5084
:103950000958009100BF08BD014908607047000088
:103960000803004000B9704700BF00BF00BF00BFA0
:1039700000BF00BF00BF00BF00BF1E4909681E4A4C
:10398000914200D130E000BF00BF00BF00BF00BFC8
:1039900000BF00BF00BF00BF00BF00BF00BF00BF2F
:1039A00000BF00BF00BF00BF00BF00BF00BF00BF1F
:1039B00000BF00BF00BF00BF00BF00BF00BF00BF0F
:1039C00000BF00BF00BF00BF00BF00BF00BF00BFFF
:1039D00000BF00BF00BF00BF00BF00BF00BF00BFEF
:1039E00000BF00BF00BF00BF401E00D0BDE700BF4A
:1039F000B9E70000BC2600200024F40000B970479D
:103A000000BF00BF00BF00BF00BF00BF00BF00BFBE
:103A100000BF1E4909681E4A914200D130E000BF34
:103A200000BF00BF00BF00BF00BF00BF00BF00BF9E
:103A300000BF00BF00BF00BF00BF00BF00BF00BF8E
:103A400000BF00BF00BF00BF00BF00BF00BF00BF7E
:103A500000BF00BF00BF00BF00BF00BF00BF00BF6E
:103A600000BF00BF00BF00BF00BF00BF00BF00BF5E
:103A700000BF00BF00BF00BF00BF00BF00BF00BF4E
:103A8000401E00D0BDE700BFB9E70000BC26002003
:103A90000024F40000B9704700BF00BF00BF00BFA2
:103AA00000BF00BF00BF00BF00BF1E4909681E4A1B
:103AB000914200D130E000BF00BF00BF00BF00BF97
:103AC00000BF00BF00BF00BF00BF00BF00BF00BFFE
:103AD00000BF00BF00BF00BF00BF00BF00BF00BFEE
:103AE00000BF00BF00BF00BF00BF00BF00BF00BFDE
:103AF00000BF00BF00BF00BF00BF00BF00BF00BFCE
:103B000000BF00BF00BF00BF00BF00BF00BF00BFBD
:103B100000BF00BF00BF00BF401E00D0BDE700BF18
:103B2000B9E70000BC2600200024F40010B50024F2
:103B30001648007808B1852425E0002013498860E4
:103B400048600861C86000BF00BF4109890001F1F9
:103B5000E021D1F8001101228240114009B1012178
:103B600000E0002119B90721002000F035F800BF5E
:103B700001F0B0FF20B901200549086000BF00BF77
:103B8000012002490870204610BD0000182E0020B8
:103B90001805004008B5002000906846FCF75CFE60
:103BA0000848007808B9FFF7C1FF0648C068401C04
:103BB0000449C860012088709DF80000FCF752FE9F
:103BC00008BD0000182E002010B5044614B90020CE
:103BD000FDF7C0FF10BD000070B50B4601461A4648
:103BE000002907DA5407260E104C01F00F052D1F8F
:103BF000665503E05407250E0D4C655400BF00BF09
:103C000000F01F02012191400A4A440942F82410A1
:103C100000BF00BF00F01F02012191404209920045
:103C200002F1E022C2F8001100BF70BD18ED00E003
:103C300000E400E080E200E00146C1F3073250B248
:103C400070470146C1F3073250B270472DE9F04783
:103C500006460D46304601F0B1FAE0B13046FDF7B8
:103C600073FF083822490F5CBC11032C08D1304681
:103C700000F094FC08B1032000E00220804605E03B
:103C8000012C01D1022000E003208046414630464D
:103C900000F060FC2AE0304601F09CFA30B3304678
:103CA000FDF752FF0446A00000F5807087B2204661
:103CB000104951F8201041F001020E4941F820202E
:103CC00000BF384600F0C4FC7DB13046FDF73CFF34
:103CD0008146FDF7F1FE8046B8F1000F04D00121C6
:103CE00001FA04F000F0CEFC00BF00BFBDE8F08791
:103CF0007C2E0020106500402DE9FC4704460E464E
:103D000017464FF00008204601F04AFA10B14FF074
:103D1000080855E0F27839462046FDF7D5FE0546FD
:103D2000681C002849D0B07880B100BF00BF4FF0B8
:103D3000A042104600F5E06252F8242022F0020171
:103D400000F5E06242F8241000BF0CE096F8019004
:103D5000002000904B46024601460190204600F0AC
:103D60009FFB00BF00BFF078D0B13078164951F802
:103D70002510164A1140144A42F82510114651F8F0
:103D800025104FF4F85202EA04224FF4403303EABC
:103D900000431A4311430C4A42F8251000BF0EE0BD
:103DA000A5F108000A49085C317840EA811042B266
:103DB000A5F1080006490A5401E04FF0040800BFCD
:103DC0004046BDE8FC87000010650040FFE0FCFFB6
:103DD0007C2E002010B50446204600F0DFFB08B121
:103DE000012010BD0020FCE770B5164890F8540083
:103DF00010B10825284670BD002404E0204601F0DB
:103E0000F9F9601CC4B2202CF8DB002404E0204641
:103E1000FDF742FE601CC4B20C2CF8DB0721062023
:103E2000FFF7DAFE4FF4BE7000F012FC4FF00040D6
:103E300000F028FC0120034981F8540000252846A1
:103E4000D9E700002C2E0020034890F8540008B158
:103E5000012070470020FCE72C2E0020014601F0D5
:103E60006040B0F1005F01D1012070470020FCE705
:103E7000027902EB8202064B03EBC201026800BF2B
:103E80000523C2F8003500BF022281F822207047C6
:103E9000D82C00202DE9F04706460C46904699465E
:103EA000307900EB80001F4901EBC00595F8220036
:103EB00018B108273846BDE8F087083545F8088C62
:103EC00045F8049C0020286068772877A07BE87775
:103ED000083D607B10B1204601F090FF40F20C617C
:103EE0001148226840F82210626840F822103068B9
:103EF000D4E90012C0F80815C0F80C2500BFA1686D
:103F0000C0F8241500BF286830B13068FFF794FE70
:103F10008246217BFFF760FE012085F82200002702
:103F20003846C8E7D82C002000070050FEB50746E9
:103F30000C4615461E46074A07CA8DE807008DF84D
:103F400001408DF80260019500226946384600F074
:103F500021F8FEBDA06B02002DE9FE4307460C468A
:103F600015461E46DDF82880002000900190029042
:103F70008DF801408DF802600195B8F1000F01D075
:103F8000202000E0002002466946384600F002F892
:103F9000BDE8FE832DE9F04104460E461546002794
:103FA000207900EB8000094901EBC00805F003000F
:103FB00018B106273846BDE8F0812B463246404608
:103FC000216802F043F907463846F4E7D82C002070
:103FD0002DE9F04105460E46174628791C4901EBAC
:103FE00040144FF00008E07E20B14FF00808404632
:103FF000BDE8F081707F207731462846FCF780FCD1
:10400000676030692060606818B1317F2846FEF72C
:10401000A9FA00BF28790E4901EB4010007F28B1B2
:1040200028680821C0F8001500BF05E028680421B1
:10403000C0F8001500BF00BF00BF0020E07520766B
:10404000A0750120E0760020A0764046D0E7000071
:10405000842E00202DE9F04704460E4617462079AD
:10406000304901EB4015207901EB4010007F40B151
:104070003046FFF7F3FE20B94FF010084046BDE888
:10408000F0874FF00009686880B12079254901EB7D
:104090004010007F28B14FF40471206800F054FDF7
:1040A00004E04FF40171206800F01DFDE87DD0B1FF
:1040B000287EB0B1686880B120791A4901EB4010C0
:1040C000007F28B14FF40471206800F040FD04E047
:1040D0004FF40171206800F009FD4FF011084046CF
:1040E000CDE74FF00109B9F1000F05D1EF75EE6092
:1040F00000206876287601E02E612F762079094924
:1041000001EB4010007F30B14B463A463146204625
:1041100000F08AF8B3E74B463A463146204600F0B5
:104120001DF8ACE7842E002010B5044620790A491A
:1041300001EB4010007F68B9207901EB4010807ED0
:1041400040B9204601F017FA01202179024A02EB1A
:104150004111887610BD0000842E00202DE9F05F0B
:1041600004468B46994620792E4901EB4015A87EDE
:1041700028B9B9F1000F02D1204601F0FCF96868B6
:10418000002846D14FF4A271206800F0A0FC00BFC7
:1041900000BF4FF49271206800F092FC80464FF40B
:1041A0008471206800F08CFC82464FF4A271206874
:1041B00000F086FC0646BAF1000F03D116B9B8F13B
:1041C000000FE6D0B8F1000F00D106B107E0294694
:1041D000206801F02BF9E87D697E8842D8DC00BFB9
:1041E0000020E875B8F1000F03D003273846BDE87A
:1041F000F09F16B10F273846F9E7A87E20B10021BD
:10420000206800F07FFC03E00421206800F07AFCC5
:1042100004E04FF40171206800F068FC0027384684
:10422000E5E70000842E00202DE9F05F04460D46EE
:10423000164699464FF0000A4FF48871206800F046
:1042400076FC4FF4A271206800F071FC2068C0F881
:1042500034554FF4A7610E5000BFB9F1000F04D1DF
:104260000021206800F07BFC08E020212068D0F8C5
:1042700000220A43C0F8002200BF00BF20791B497A
:1042800001EB4010406848BB00BF4FF488712068C4
:1042900000F046FC83464FF4A271206800F040FC19
:1042A00080464FF49271206800F03AFC0746BBF15B
:1042B000000F04D1B8F1000F01D1002FE5D000208C
:1042C00021790A4A02EB4111C8750FB14FF0030A78
:1042D000B8F1000F01D04FF00F0A04E04FF4047161
:1042E000206800F034FC5046BDE8F09F842E00208A
:1042F0002DE9F04104460D4690462079144901EB22
:104300004016207901EB4010007F38B12846FFF7B6
:10431000A5FD18B910273846BDE8F081204600F009
:104320009DF810B111273846F6E786F81680B5607B
:104330000020B0822079064901EB4010007F18B1BF
:10434000204600F04DF8E7E7204600F003F8E3E7E9
:10435000842E002070B504462079204901EB4015D9
:1043600000264FF48E71206800F0B1FB0821206810
:1043700000F0C8FB2946206801F0C8FF686858BBF8
:1043800012E000BF4FF48E71206800F099FB18B95D
:10439000A88AB0F5807FF5D1A88AB0F5807F03D0D8
:1043A0002946206801F0B2FFA88AA97D8842E8DB8F
:1043B000A88AB0F5807F01D10F260BE000BF4FF433
:1043C0008E71206800F07CFB0028F8D00C2120685A
:1043D00000F098FB0020A875304670BD842E0020A8
:1043E0002DE9F041044620791B4901EB40154FF0BF
:1043F00000084FF49071206800F099FB4FF4AC7105
:10440000206800F094FB2068AA7DA968C0F84415D4
:104410004FF4A9631A5000BF0821206800F09FFBE9
:104420006868A8B900BF4FF49071206800F078FB6D
:1044300007464FF4AC71206800F072FB06460FB9D6
:10444000002EF0D00EB14FF00F080020A87500BF6D
:104450004046BDE8F0810000842E00200146087926
:10446000044A02EB4010807D08B101207047002013
:10447000FCE70000842E0020F0B5DDE9054500BF13
:104480004FF0A0473E4641EA420747EA830747EA22
:10449000042747EA054C06F5E06747F820C0F0BD61
:1044A000F0B5DDE9054500BF4FF0A0473E4641EAC3
:1044B000420747EA830747EA042747EA054C06F51F
:1044C000E06747F820C0F0BDF0B5DDE9054500BF65
:1044D0004FF0A0473E4641EA420747EA830747EAD2
:1044E000042747EA054C06F5E06747F820C0F0BD11
:1044F0007CB505460C460020009023460246014646
:1045000001902846FFF7E0FF7CBD1CB50446002063
:10451000009003460122114601902046FFF7D4FF88
:104520001CBD10B50A4600BF4FF0A043194601F567
:10453000E06353F8203023F4403401F5E06343F89E
:10454000204053F8203043EA024401F5E06343F889
:10455000204010BD10B50A4600BF4FF0A0431946D9
:1045600001F5E06353F8203023F4403401F5E063B3
:1045700043F8204053F8203043EA024401F5E06359
:1045800043F8204010BD00BF4FF0A0410A46012370
:1045900003FA00F1C2F80C1500BF7047014600BFD6
:1045A0004FF0A040024600BFD2F81005C84000F00E
:1045B0000100704700BF4FF0A0410A46012303FAF3
:1045C00000F1C2F8081500BF704700BF4FF0A041CE
:1045D0000A46012303FA00F1C2F8081500BF70472C
:1045E00010B561B900BF00BF4FF0A04213460124CF
:1045F00004FA00F2C3F80C2500BF00BF0CE000BFB6
:1046000000BF4FF0A0421346012404FA00F2C3F8A1
:10461000082500BF00BF00BF10BD000038B50B4625
:10462000074C24680094014606E05DF82140D4F868
:1046300010551560121D491CC4188C42F5D838BDA0
:10464000F06B0200014601480844704700600040DA
:1046500038B504462046FFF7F5FF002101602046EB
:10466000FFF7F0FF0068009000BF38BD10B50446AA
:104670002046FFF7E7FF0068012800D110BD0020A9
:10468000FCE7000001490860704700000463004037
:1046900000487047C946020010B504460848007833
:1046A00028B108480078844201D1002010BDFBF7F2
:1046B00019F8012002490870024804700020F5E74B
:1046C000A0260020A12600202DE9F04FC9B0894680
:1046D00092469846DDF84CB1002006904646559823
:1046E00058440590B9F1000F01D00A2000E00020E5
:1046F000049000F0CBFF18B1404649B0BDE8F08F00
:10470000B8F1000F1DD109A8069A811806AA4846DB
:1047100001F054FB08B94046EFE75046FAF7E6FDD2
:104720000746C22F01D9C22000E03846074609A932
:10473000069A88183A465146FAF7B4FD0698384466
:10474000069000BF06980290029831300499084400
:10475000019009A902980C1801980D1800200390E7
:1047600005E020202070641C0398401C0390DDE9C4
:1047700003018842F5D30020079030E00598864277
:1047800009D3202004F8010B04F8010B04F8010BF5
:1047900005F8010B20E05E4503D25298805D089039
:1047A00004E0A6EB0B015498405C08902146089861
:1047B000FDF758F9A41C202004F8010BFAF76EFD50
:1047C00001680898085C00F03E0008B1089800E015
:1047D0002E2005F8010B761C0798401C07900798BF
:1047E0001028CBD30D2005F8010B0A2005F8010B8A
:1047F000202004F8010B04984330069908440690E1
:1048000009A8069900F044FF08B9304675E700F0A2
:104810003DFF08B1304670E70020069005988642BB
:1048200090D3304669E72DE9F04FC7B083460F4675
:1048300015461C46DDF840810026002006904FF00A
:10484000010A00F023FF18B1002047B0BDE8F08F47
:1048500007A8069A811806AA384601F0AFFA08B9E7
:104860000020F2E7B8F1070F6FD2DFE808F0041478
:10487000223244586F002846FAF738FD064606985B
:104880003044FF2806D807A9069A881832462946D8
:10489000FAF708FD73E02368069AC2F5807107AA4B
:1048A000DDF818C002EB0C002A46FBF7ABF9064610
:1048B00065E0606800902368069AC2F5807107AAD7
:1048C000DDF818C002EB0C002A46FBF79BF9064600
:1048D00055E0D4E90101CDE900012368069AC2F54B
:1048E000807107AADDF818C002EB0C002A46FBF71E
:1048F00089F9064643E0D4E902216068CDE9012147
:1049000000902368069AC2F5807107AADDF818C0E6
:1049100002EB0C002A46FBF775F906462FE0D4E9B6
:104920000123D4E90310CDE90023CDE90210236867
:10493000069AC2F5807107AADDF818C002EB0C00D8
:104940002A46FBF75FF9064619E017E0D4E902238F
:10495000D4E90410CDE90123CDE90310606800908B
:104960002368069AC2F5807107AADDF818C002EB29
:104970000C002A46FBF746F9064600E000BF00BFE0
:10498000314606A8FDF733F88246DDF81890BAF1F3
:10499000000F07D0B9F5807F04D807A8069900F06A
:1049A00077FE52E7002050E7004870472748020092
:1049B0002DE9F84307460C4615461E464FF0000900
:1049C000C846054800962B4622464146D0F814C0FA
:1049D0003846E047BDE8F8836430002030B5034630
:1049E0000C4615462146184600F028F830BD70B533
:1049F00004460D4600231A4629462046FFF7D8FFF5
:104A000070BDF8B505460E461446009401236A466B
:104A100031462846FFF7CCFFF8BD2DE9FC4106469C
:104A20000F4614461D460094019502236A463946F6
:104A30003046FFF7BDFFBDE8FC810000014A506130
:104A400091617047643000202DE9F041054600BFB8
:104A50000120FFF721FE04464CB9FFF719FE064678
:104A6000FFF7A2FF07462A463146FFF7B7FF204669
:104A7000BDE8F0810146D1F8C404C1F8C404704710
:104A80000246505808B1012070470020FCE708B5E5
:104A9000002242504258009200BF08BDC0F80813DF
:104AA0007047C0F804137047C0F800127047012225
:104AB000425070470146D1F88004C1F88004704725
:104AC0000246505808B1012070470020FCE708B5A5
