:020000040001F9
:10F000008054002015F201001DF201001FF20100E2
:10F0100021F2010023F2010025F2010000000000AE
:10F0200000000000000000000000000027F20100C6
:10F0300029F20100000000002BF201002DF2010076
:10F0400091F601002FF20100A5FA0100B1F70100CD
:10F05000C5F701002FF20100A5F301002FF2010016
:10F060002FF201002FF201002FF201002FF2010018
:10F070002FF201002FF201002FF201002FF2010008
:10F080002FF20100E1F601002FF201002FF2010042
:10F09000D9F701002FF20100E1F701002FF2010082
:10F0A0002FF201002FF201002FF201002FF20100D8
:10F0B0002FF201002FF2010000000000000000000C
:10F0C0002FF201002FF201002FF201002FF20100B8
:10F0D0002FF201002FF201002FF2010000000000CA
:10F0E0000000000000000000000000000000000020
:10F0F0000000000000000000000000000000000010
:10F1000000000000000000000000000000000000FF
:10F1100000000000000000000000000000000000EF
:10F1200000000000000000000000000000000000DF
:10F1300000000000000000000000000000000000CF
:10F1400000000000000000000000000000000000BF
:10F1500000000000000000000000000000000000AF
:10F16000000000000000000000000000000000009F
:10F17000000000000000000000000000000000008F
:10F18000000000000000000000000000000000007F
:10F19000000000000000000000000000000000006F
:10F1A000000000000000000000000000000000005F
:10F1B000000000000000000000000000000000004F
:10F1C000000000000000000000000000000000003F
:10F1D000000000000000000000000000000000002F
:10F1E000000000000000000000000000000000001F
:10F1F000000000000000000000000000000000000F
:10F20000DFF80CD000F0BCF800480047A12D020048
:10F21000805400200648804706480047FEE7FEE786
:10F22000FEE7FEE7FEE7FEE7FEE7FEE7FEE7FEE7B6
:10F2300021F8010001F201002DE9F05F05460020F0
:10F2400092469B4688460646814640241BE0284657
:10F2500041464746224600F082F853465A46C01AB5
:10F26000914110D311461846224600F069F82D1A34
:10F2700067EB01084F4622460120002100F060F8AC
:10F2800017EB00094E41201EA4F10104DFDC4846C3
:10F2900031462A464346BDE8F09F000000487047CB
:10F2A000687E020040EA01039B0703D009E008C919
:10F2B000121F08C0042AFAD203E011F8013B00F83B
:10F2C000013B521EF9D27047D2B201E000F8012B87
:10F2D000491EFBD270470022F6E710B513460A46D6
:10F2E00004461946FFF7F0FF204610BD421E12F8F3
:10F2F000013F002BFBD111F8013B02F8013B002B31
:10F30000F9D17047421C10F8011B0029FBD1801A6B
:10F31000704710B5002200E0521C835C8C5CA34255
:10F3200001D1002BF8D1D8B2E1B2401A10BD03468A
:10F3300011F8012B00F8012B002AF9D1184670476B
:10F34000202A04DB203A00FA02F1002070479140A5
:10F35000C2F1200320FA03F3194390407047202A9A
:10F3600004DB203A21FA02F00021704721FA02F36F
:10F37000D040C2F120029140084319467047000076
:10F38000064C074D06E0E06840F0010394E80700F2
:10F3900098471034AC42F6D3FFF736FF8080020066
:10F3A000A08002002DE9F04F89B04FF00008002046
:10F3B00008904FF4807007900126002413E007980E
:10F3C00005F060FD48B100BF81480068304020B1C1
:10F3D000079805F049FD48EA060876000798001DE1
:10F3E00080B20790641C082CE9D34FF4BE7005F07E
:10F3F00049FD50B14FF4BE7005F036FD48F00048AD
:10F4000008AA0121002005F015FD08F0FF0000B357
:10F41000012600241BE006EA0800B0B100BF6D48D9
:10F4200050F82400C0F30420074600BF694850F894
:10F430002400C0F301408146204602F06DFD0546E0
:10F4400015B149463846A84700BF7600641C082C11
:10F45000E1D308F0004000287ED0002006900590FF
:10F46000002505E04FF0FF3004A941F825006D1C90
:10F47000002DF7D000BF0020069000246FE0564812
:10F48000005D0390039820F0C00753480057401CCC
:10F49000002863D004A9384604F087FD00285DD019
:10F4A00003984FEA901A384602F07EFD814602F03A
:10F4B00033FD0290029810B9BAF1030F4BD1BAF1A3
:10F4C000030F11D1394605A80246CB0801F0070108
:10F4D00012F803C04FF0010E0EFA01FE4CEA0E0CBA
:10F4E00002F803C000BF00BF00BF00BF4FF0A04143
:10F4F000084600F5E06151F82710C1F3014900BF4B
:10F5000008A9384604F051FD8346BBF1000F02D034
:10F51000B9F1020F05D0BBF1000F1BD1B9F1030FF8
:10F5200018D1BAF1030F0FD1B9F1020F01D10320A5
:10F5300000E0022001903846019905F017FC06987A
:10F54000401CC0B2069000BF029818B15146384620
:10F55000029A904700BF00E036E000BF641C042C14
:10F560008DD3069858B3012703AA0121002005F086
:10F5700061FC00250AE003A850F8250008A951F80D
:10F580002510884201D0002702E06D1C002DF2D02A
:10F5900000BF17B10020069010E000250CE003A882
:10F5A00050F8250008A941F8250005A850F82500C5
:10F5B00004A941F825006D1C002DF0D000BF06986D
:10F5C00000287FF458AF00BF09B0BDE8F08F0000FD
:10F5D0000463004010650040F42E002001460A2913
:10F5E00003DA01F13002D0B202E001F13702D0B209
:10F5F0007047000000F01F0201219140024A4309B8
:10F6000042F823107047000080E200E000F01F0283
:10F6100001219140024A430942F82310704700003B
:10F6200080E100E000F01F020121914042099200B8
:10F6300002F1E022C2F80011704700F01F02012120
:10F6400091404209920002F1E022C2F80011704795
:10F6500000F01F0201219140024A430942F82310A1
:10F660007047000000E200E010B5002807DA4A0702
:10F67000140E054A00F00F031B1FD45403E04A0781
:10F68000130E024A135410BD18ED00E000E400E030
:10F6900010B54FF4807004F0EFFC60B14FF480704F
:10F6A00004F0F3FC012004F0F9FC01200B49487040
:10F6B000002002F07FFC4FF4827004F0DDFC58B1B2
:10F6C0004FF4827004F0E1FC022004F0E7FC01201A
:10F6D0000249887002F06EFC10BD0000902E0020E0
:10F6E00010B500200949086000210948C0F84411FC
:10F6F000C0F84811C0F84C1100200549C1F80001BC
:10F7000002493C39086007F03DFB10BD4011014043
:10F710000010014010B500BF0348007808B900F0A0
:10F72000D3F900BF10BD0000083400202DE9F047D8
:10F73000074688461646C24607EB47011B4800EBC2
:10F74000C109D9F8140020B1012811D0022826D10E
:10F750001EE0484600F0F0F90546B54201D200240B
:10F7600005E0344632465146484600F02CFA18E08F
:10F77000484600F0E1F90546B54201D2284600E0CE
:10F780003046044622465146484600F01CFA08E03E
:10F7900032465146484600F0DDF9044601E00024B7
:10F7A00000BF00BF2046BDE8F087000020340020E5
:10F7B00010B50249024803F093F910BD442D002012
:10F7C0000030004010B503494FF0402003F088F9A5
:10F7D00010BD00006C2D002010B507F0DDF910BD44
:10F7E00070B50A48006868B1084800688047044658
:10F7F00000BF254625B100BF284600F0B9FE00BF76
:10F8000000BF01E003F0AEF870BD0000B02600209C
:10F8100001480249086070470090D003C8260020C4
:10F8200010B502F021FE28B18E480088C0F30420F4
:10F830008D49086002F06CFE10B18C488C49486715
:10F8400002F07EFE30B18748E0380068C0F34230F5
:10F850008849086002F09EFE28B18748006820F0C1
:10F8600080708549086002F0ADFE48B100208349F0
:10F8700008604FF08041C1F810017E49091F0860FF
:10F8800002F0CAFE18B103207A496431086002F020
:10F89000DBFE68B105207A4908600120784978319B
:10F8A000086000207649083108603F20091F086081
:10F8B00002F0E2FE002855D06A48E0300068714945
:10F8C00008606848E4300068091D08606548E83051
:10F8D0000068091D08606348EC300068091D086075
:10F8E0006048F0300068091D08605E48F430006828
:10F8F000091D08605B48F8300068624920310860E3
:10F900005848FC300068091D08605F480068091D00
:10F9100008605D48001D0068091D08605A480830ED
:10F920000068091D086058480C300068091D08600F
:10F93000554810300068534940310860524814302F
:10F940000068091D0860504818300068091D0860EB
:10F950004D481C300068091D08604B482030006885
:10F96000091D086002F056FD30B13E48CC380068F1
:10F9700000F04F004549086002F0A0FD40B1444846
:10F98000006800F0010018B16FF001004049086004
:10F9900039487438006840F4700037497439086099
:10F9A00000BF00BF00BFBFF34F8F00BF00BF00BF4D
:10F9B00000BF00BF00BFBFF36F8F00BF00BF00BF1D
:10F9C0003448006800F0004028B93248001D006843
:10F9D00000F00040F0B301202F49086000BF2F481D
:10F9E00000680028FBD015202A49086000BF2B487A
:10F9F00000680028FBD015212648001D016000BFCB
:10FA0000264800680028FBD000202349086000BF7A
:10FA1000224800680028FBD000BF00BF00BF00BF25
:10FA200000BFBFF34F8F00BF00BF00BF1248F038C8
:10FA3000006800F4E0601A490843001D0E49F039DF
:10FA4000086000BF00BF00BFBFF34F8F00BF00BF03
:10FA500000BF00E002E000BF00BFFDE7FFF7D8FEF7
:10FA600010BD000024030010403501400DF0ADBA78
:10FA700000C007403C050040FCED00E00C010040E8
:10FA80001056004020C5004024040010E40E004041
:10FA9000000400400012001004E5014000E40140B1
:10FAA0000000FA0510B50648007F20B1044905485A
:10FAB00007F019FF03E00249024807F073FE10BD8A
:10FAC000FC2E00200020004010B5124C02202061C6
:10FAD000606111A0A0611349E1614FF400712162DE
:10FAE0000021A1626162E1620BA0A0640E49E164A1
:10FAF000102121650021A1656165E1650BA1E01D73
:10FB0000FFF715FC0AA12046FFF711FC2020A07189
:10FB100010BD0000083400205465726D696E616C80
:10FB200000000000F8310020F83300205254540047
:10FB3000534547474552000010B501460A69CB6856
:10FB40009A4204D88C68641EE41AA01801E0D41A02
:10FB5000601E10BD2DE9F0470446894617464FF058
:10FB6000000AE56800BFD4F81080A84503D9A8EBC7
:10FB70000500461E04E0A5EB0800401CA1680E1A13
:10FB8000A068401BB04201D9304601E0A068401B8C
:10FB90000646BE4201D2304600E03846064661685D
:10FBA000481932464946FFF77DFBB244B144BF1BBA
:10FBB0003544A068A84200D10025E560002FD2D1CD
:10FBC0005046BDE8F0872DE9F047044689461546C2
:10FBD000E668A068871BAF4208D9616888192A4681
:10FBE0004946FFF75FFB7019E06010E0B8466168B6
:10FBF000881942464946FFF755FBA5EB070809EB74
:10FC0000070142466068FFF74DFBC4F80C80BDE871
:10FC1000F08700000FB4054B10B503A9044A029801
:10FC200000F04EF810BC5DF814FB00009B270200AA
:10FC30009C2600200FB41CB50A46521ECDE90002D6
:10FC400007A9054B6A46069800F03AF8009A002189
:10FC500011701CBC5DF814FB2301020002E008C80F
:10FC6000121F08C1002AFAD170477047002001E036
:10FC700001C1121F002AFBD1704700000146202954
:10FC800008DA012088400A4A104008B10120704774
:10FC90000020FCE7402909DAA1F12000012202FA44
:10FCA00000F008B10120F2E70020F0E70120EEE7C4
:10FCB000FC06FFBD00BFEFF31081084672B6704727
:10FCC0002DE9FF4F8DB00F460546002606E025289A
:10FCD0000BD0DDE90F1290476D1C761C28780028A8
:10FCE000F5D111B03046BDE8F08F0024A246A14600
:10FCF0000122EC4900E0044315F8013F203B02FAE1
:10FD000003F00842F7D128782A2810D06FF02F028C
:10FD10002878A0F13001092914D80AEB8A0102EBF6
:10FD2000410144F0020400EB010A6D1CF0E701CF31
:10FD30005FEA000A03D544F40054CAF1000A44F013
:10FD400002046D1C28782E2817D115F8010F44F0F5
:10FD500004042A280ED06FF02F022878A0F1300179
:10FD600009290AD809EB890102EB410100EB0109DD
:10FD70006D1CF2E757F8049B6D1C28786C280FD097
:10FD800006DC4C2817D068280DD06A2814D104E06E
:10FD9000742810D07A280FD10DE044F400140AE042
:10FDA00044F4801401E044F440146978814202D1A3
:10FDB00004F580146D1C6D1C2A786E2A1FD00CDC93
:10FDC000632A31D004DC002A8BD0582A11D1A3E059
:10FDD000642A68D0692A0CD165E0732A2ED004DC2D
:10FDE0006F2A73D0702A04D19BE0752A6FD0782ACD
:10FDF0006ED01046DDE90F129047761C50E1C4F337
:10FE00000250022806D0032809D0042801CF09D0C7
:10FE1000066045E101CFF117C0E9006140E101CF83
:10FE200006803DE106703BE117F8040B8DF80000F9
:10FE300000208DF80100EB46012003E057F804BBD9
:10FE40004FF0FF3061074FF0000102D40DE008F1E0
:10FE50000101884649450FDA8045F8DB1BF8081098
:10FE60000029F4D108E008F1010188468142FADB5B
:10FE70001BF808100029F6D1DDE90F23AAEB0800D2
:10FE80008146214600F036F9304400EB080604E0D4
:10FE9000DDE90F121BF8010B9047B8F10108F7D20A
:10FEA00021464846F7E00A21C4F302534FF0000B05
:10FEB0000891022B04D001CFC117032B09D00AE00F
:10FEC000FF1D27F00707F7E8020108E032E01FE016
:10FED00020E000B2C117042B01D140B2C117031EAC
:10FEE00071F1000307DA4FF0000CD0EB0C006CEB63
:10FEF00001012D2302E0230504D52B238DF82430A6
:10FF0000012303E0E30701D02023F7E7984658E0F8
:10FF10000A2110E010210EE010204FF0000B089095
:10FF20000CE010214FF0000B44F004044FF00809DE
:10FF3000089103E008214FF0000B0891C4F302532D
:10FF4000022B04D001CF0021032B06D006E0FF1DB9
:10FF500027F00707F7E8020103E080B2042B00D185
:10FF6000C0B24FF0000823072BD5702A07D0DDF868
:10FF700020C08CF0100C5CEA0B0C05D00EE0402386
:10FF80008DF82430012308E050EA010306D0302325
:10FF90008DF824308DF8252002239846DDF820C006
:10FFA0008CF0080C5CEA0B0C0BD150EA010301D178
:10FFB000630706D530238DF824304FF00108A9F1EE
:10FFC0000109582A04D038A20B9208AA0A920BE021
:10FFD0003AA2F9E75B46089AFFF72EF90B9B9B5C68
:10FFE0000A9A521E0A92137050EA0102F2D10A983C
:10FFF000ADEB000000F1200B600702D524F4803443
:020000040002F8
:1000000001E04FF00109D94502DDA9EB0B0000E04A
:10001000002000EB0B0141440890AAEB010AE00329
:1000200006D4DDE90F232146504600F063F806446C
:100030004FF0000908E009A911F80900DDE90F12E5
:10004000904709F10109761CC145F4DBE0030CD5AA
:10005000DDE90F232146504600F04CF8064404E049
:10006000DDE90F1230209047761C0899481E089051
:100070000029F5DC08E00A980A990078491C0A91E1
:10008000DDE90F129047761CBBF10001ABF1010BCB
:10009000F1DC21465046DDE90F2300F019F8064453
:1000A0006D1C1BE6092801003031323334353637F8
:1000B00038396162636465660000000030313233B4
:1000C0003435363738394142434445460000000054
:1000D0002DE9F041044600251E461746880404D445
:1000E00005E039462020B0476D1C641EF9D528462E
:1000F000BDE8F0812DE9F041044600251E469046FA
:10010000C80301D5302700E02027880404D505E086
:1001100041463846B0476D1C641EF9D52846BDE8F7
:10012000F0814A68002A06D00A68531C0B601070E0
:100130004868401E486070470246002104E0505C59
:1001400008B101207047491C0629F8D30020F9E7BF
:100150002DE9FC41044688461646002537880020D4
:10016000308094F82D0058B13A463146404600F0B0
:10017000B4FE054600BF15B12846BDE8FC8100BFAE
:10018000A07850B13A463146404600F0A7FB0546FC
:1001900000BF0DB12846F0E700BFE07860B1E1781C
:1001A00048B23B463246414602F0D2FA054600BF0D
:1001B0000DB12846E1E700BF606868B1616891F958
:1001C00000003B463246414607F0DCF9054600BFD9
:1001D0000DB12846D1E700BF208900280EDD434637
:1001E0000622022104F10800CDE9006707F07AFC3D
:1001F000054600BF0DB12846BFE700BF208A002892
:100200000EDD43460722032104F11000CDE900670B
:1002100007F068FC054600BF0DB12846ADE700BFFA
:10022000208B00280EDD43461522142104F118000E
:10023000CDE9006707F056FC054600BF0DB1284622
:100240009BE700BF206A58B13B4632464146206AD0
:1002500001F061FF054600BF0DB128468DE700BFE4
:10026000606A58B13B4632464146606A02F0DCFDA6
:10027000054600BF0DB128467FE700BF94F82C006B
:1002800000280BDD3B4632464146204606F038FA50
:10029000054600BF0DB128466FE700BF207858B172
:1002A0003B4632464146204603F01EFE054600BF4F
:1002B0000DB1284661E700BF28465EE770B50446E9
:1002C0001448FFF739FF0546012C06D0022C0BD04D
:1002D000032C10D0042C1AD113E00F48407810B131
:1002E0000DB1012070BD00BF0B48807810B10DB179
:1002F0000220F7E700BF0848C07808B10320F1E703
:1003000000BF0548007908B10420EBE700BF0020DA
:10031000E8E7000032260020A02D00200146481CFE
:10032000052290FBF2F302FB1300C0B270470146B6
:10033000C87800F0040008B9072070470020FCE7E7
:1003400010B501220221002001F080FA044600BF0E
:100350001CB1072C01D0204610BD00BF072202218E
:10036000012001F073FA044600BF1CB1072C01D034
:100370002046F1E700BF0A220021084601F066FA94
:10038000044600BF1CB1072C01D02046E4E700BFA3
:100390000020E1E730B5A7B03C2118A8FEF79BFF8D
:1003A00002208DF8600000208DF8620005208DF895
:1003B00063003C2109A8FEF78EFF0120ADF8340050
:1003C00011490E91202101A8FEF785FF01208DF82B
:1003D000070040200590B420069000200B4B01AA96
:1003E00009A9009018A800F065FB044600BF254647
:1003F00025B100BF284600F0BBF800BF00BF0120B8
:1004000000F052FB27B030BDFA250020C154020095
:1004100010B50446022001F06BF810BD10B50024A1
:1004200007E00749096811F83400012103F0C8FF0B
:10043000641C044800788442F3D3002010BD0000FF
:1004400064260020682600202DE9F84306460C4665
:100450001746052F02D20720BDE8F88304F0AEF856
:1004600038B904F07BF8054600BF0DB12846F3E724
:1004700000BF164806601648047016480760002042
:10048000154908601549086015E006EBC4081448D2
:100490000068009098F802008DF8010098F80000BC
:1004A000104A694603F0E2FF054600BF0DB1284639
:1004B000D2E700BF00BF201EA4F10101CCB2E4D1FD
:1004C000094A0021094800F093F8C5E76426002096
:1004D000682600206C26002070260020742600204C
:1004E000987D02004128020009230200947D020049
:1004F00012A1012004F0B1FE14A1032004F0ADFE0E
:1005000000BF00BF00BF00BF00BFBFF34F8F00BFE1
:1005100000BF00BF1448006800F4E06013490843BE
:10052000001D1149086000BF00BF00BFBFF34F8F1F
:1005300000BF00BF00BF00BF00BFFDE73A455252F9
:100540004F523A466174616C0D0A00003A494E46BA
:100550004F3A486974207765616B2068616E646CFE
:1005600065720D0A000000000CED00E00000FA05C5
:100570003EB50446002000900190029002946A4625
:10058000002144F20100FFF7B3FF3EBD70B5044601
:100590000D46204602F0C0F828B12946204602F058
:1005A000AFF8002070BD0520FCE7034609B90E2016
:1005B000704712B1501E104008B10920F8E71960C9
:1005C000501E988000209860D86000BFF0E770B59A
:1005D00004460D46204602F09FF8A188884205D8BF
:1005E0002946204602F0ABF8002070BD0420FCE74D
:1005F00010B503460C4600BF0B48807808B90820A8
:1006000010BD00BF0AB90720FAE70BB90720F7E7CA
:100610001868007C08B10820F2E719680020087407
:100620004C744A6100BFEBE73C2F002010B505F089
:10063000CBFE00200F49087048700B208870002006
:100640000D4908600D4908700D4908701420FEF727
:10065000D1FF07211420FFF707F81420FEF7E2FF6F
:10066000002005F087FE05F07FFE064908600020A7
:1006700010BD00003C2F0020782600208826002096
:10068000892600207C2600202DE9F04104460E46F4
:100690001746254600BF1048807810B90820BDE8ED
:1006A000F08100BF0CB90820F9E7052E01D2072020
:1006B000F5E7686908B90820F1E7687C012801D1ED
:1006C000304600E0002080463B4642463146284600
:1006D00006F008FBE3E700003C2F002070B504465D
:1006E000254600BF0848807808B9082070BD00BFC3
:1006F0000CB1686908B90820F8E7002028740221C5
:10070000284606F01EFBF1E73C2F00202DE9F041C2
:1007100004460F48077821460E48FFF737FF80460A
:1007200097B100200A49087001220B490B4804F0D8
:100730004BF8054600BF2E4626B100BF3046FFF7F6
:1007400017FF00BF00BF00BF4046BDE8F0810000BA
:100750009A26002048300020992600208C26002070
:100760002DE9F04188B004460D46174698462E48BC
:1007700007601DB9072008B0BDE8F081A88882B2E3
:100780002A482968FFF711FF064600BF0EB1304620
:10079000F1E700BFA88982B22548A968FFF705FFE5
:1007A000064600BF0EB13046E5E700BF20222149D2
:1007B0006846FEF777FD60690690207C08B101204D
:1007C00000E000208DF814008DF81C80607C08B1DA
:1007D0000E2000E000208DF81500E0680290A0686F
:1007E00003902068019060680090134A694613489E
:1007F00003F0A8FF064600BF0EB13046BBE700BFBE
:1008000000200F4908702068401C58B19DF81D0059
:1008100010B90A4804F042F801220A49074803F0D7
:10082000D3FFA8E70020A6E7942600204830002048
:10083000583000209C7D0200657602008C26002046
:100840009A2600209926002070B5044621460B48C0
:10085000FFF7BDFE054675B9094804F0B9F950B96E
:1008600008490648FFF792FE28B9012205490448C5
:1008700004F0F8F80546284670BD00005830002006
:100880008C2600209826002010B50446204605F04E
:10089000C3FE10BD70B5044625460E488068B0B151
:1008A000ADB9FFF707FA06460A4800680A4908602A
:1008B000084840684FF0E021C1F8040100200549D4
:1008C00088601EB900BF62B600BF00BF00BF00BF96
:1008D00070BD00006830002000E100E0F8B505467A
:1008E0000C4617462088001DB84201D90C20F8BDDF
:1008F000684679DF064600BF0EB13046F7E700BF15
:100900000320218868542088401C208019202188D9
:1009100068542088401C208020884119BDF80000C0
:1009200007F06DF82188084420800020DFE70000F0
:1009300070B505460C462068401C28B1206804F0BC
:1009400050FA206804F0EDF96068401C18B10021ED
:10095000606804F0D9F928792D4901EB4010007F37
:1009600050B32868A169C0F8241500BF617D227DBD
:10097000286841EA0203C0F86C3500BFD4E90012D0
:10098000286804F039FD207D01283FD1A068401C73
:1009900018B10021A06804F0B7F9E068401C28B144
:1009A000E06804F01EFAE06804F0BBF9D4E9022123
:1009B000286804F00DFD29E02868A169C0F8241515
:1009C00000BF617D227D286841EA0203C0F86C35D2
:1009D00000BFD4E90012286804F0E1FC207D012862
:1009E00014D1A068401C18B10021A06804F08CF953
:1009F000E068401C28B1E06804F0F3F9E06804F016
:100A000090F9D4E90221286804F0B2FC70BD00001E
:100A1000FC2E00202DE9F04192B080460D461F20AB
:100A200011901090B8F1000F17D04046FFF77FFCEF
:100A3000044600BF1CB1204612B0BDE8F08100BFE3
:100A400011AA08A94046FFF783FB044600BF0CB17A
:100A50002046F1E700BF08AE02E00026002011901A
:100A6000ADB1284606F072F8044600BF0CB120462E
:100A7000E2E700BF10AA69462846FFF769FB044673
:100A800000BF0CB12046D7E700BF6F4602E0002749
:100A900000201090BDF84000C3B2BDF84400C1B2C0
:100AA0003A46304672DFC7E70149087070470000D8
:100AB000302600202DE9F04704460F4615461E4615
:100AC000DDF8208004B115B90E20BDE8F0870120C3
:100AD00049490870002049490870202229464848A1
:100AE000FEF7E0FB0020474908704748066047488A
:100AF000C0F800804FF6FF70454908804548002146
:100B00000160818081713C214348FEF7E4FB20783D
:100B100041490870A0788870E078C87060784870A3
:100B20000846D4E90412C0E90412D4E90212C0E96B
:100B30000212D4E90612C0E90612606AD8B1374839
:100B40003549486236498160606A00883249496A9D
:100B50000880606A80883049496A8880002005E002
:100B6000616A8968095C2E4A1154401C2A49496A05
:100B700089888142F4D8A06A20B32A492A48816032
:100B80002549886227492448806A8160A06A808854
:100B90002149896A8880A06A00881F49896A08807B
:100BA000002005E0A16A8968095C1E4A1154401CB6
:100BB0001949896A89888142F4D894F82C00164929
:100BC00081F82C00206A58B1184813490862206A3D
:100BD0004088096A4880206A00880F49096A0880AD
:100BE000606810B10C496068486039460A48FFF7F0
:100BF00011FF8146484668E72C2600202F2600205A
:100C0000A02D002030260020402600204426002071
:100C10003E26002031260020C02D0020FC2D002083
:100C2000082E0020342E0020282E00203A260020F6
:100C300010B504462088102804D0112806D01B289F
:100C40000CD107E0204604F0A3FD08E0204604F0A4
:100C5000BDFE04E0204604F07FFF00E000BF00BFBF
:100C600010BD000010B574DF01200F49087000208E
:100C70000E49087006200E49C87000210C48FFF785
:100C8000C9FE04460CB1204610BD0A48007800F0A9
:100C900015F8044634B10848006818B120460649E2
:100CA000096888470020EFE7482600204A260020F0
:100CB000C02D00202F260020442600207FB50546A9
:100CC0004E48007810B9082004B070BD4C4805703B
:100CD00001F059FD20B101204A4908700020F3E7D6
:100CE000494800210160818081714848407818B1ED
:100CF0004348007801280DD04448807818B1404816
:100D00000078012806D04148807888B13C480078B6
:100D100002280DD13E48006838B101203D490870D5
:100D200008203B490968884702E0002039490870DB
:100D30002846FFF7C3FA3249087035480068C0B149
:100D400008460078032803D008460078042810D10C
:100D50002E48007868B13048007850B900202F49FB
:100D6000087001202E490870072029490968884722
:100D700002E000202A4908700020009001900290B3
:100D800003908DF800008DF808001D4800780528B4
:100D90001CD2DFE800F01703080D1200684605F0CA
:100DA00033FD044613E0684605F03EFD04460EE0C0
:100DB000684605F04FFD044609E0684605F07AFDF7
:100DC000044604E000201749087000E000BF00BF9F
:100DD0000B48007838B114480178684673DF044640
:100DE0000CB1204670E70A48006820B10D48007831
:100DF000074909688847002066E700002C26002084
:100E00002F2600202D26002031260020A02D002096
:100E10004026002038260020482600204A260020B0
:100E2000492600202E2600203026002070B50546D9
:100E30001C2229461248FEF735FA00201149087095
:100E4000286850B1104829680A6802604968416002
:100E50007ADF04463CB1204670BD0B487BDF044678
:100E60000CB12046F8E74FF6FF70084908800020D3
:100E700007490870074A00210748FFF7B9FBEBE76D
:100E8000542E0020602600204C26002056260020EC
:100E9000542600200D7A0200207D020010B5044681
:100EA0002088102806D0112808D012280ED05028EB
:100EB00010D107E0204604F04BFC0CE0204604F083
:100EC00061FD08E0204604F0ADFE04E0204604F099
:100ED0002FFC00E000BF00BF10BD2DE9FC4105461E
:100EE0000C46174620880930B84202D90C20BDE8CC
:100EF000FC8168466DDF064600BF0EB13046F6E75E
:100F000000BF0820218868542088401C20801B20B6
:100F1000218868542088401C208020882844DDF8DF
:100F200001100160BDF8051081802088801D20809F
:100F30009DF80000400818B900202188685402E09C
:100F40000120218868542088401C20800020CEE7A2
:100F500070B505460C46207868B1012806D00228F5
:100F60000ED10BA1032004F078F90EE014A10320A8
:100F700004F073F909E01EA1032004F06EF904E007
:100F80002AA1032004F069F900BF00BF70BD000072
:100F90004150503A494E464F3A496E646963617414
:100FA000696F6E20666F7220424C455F4446552043
:100FB00069732064697361626C65642E0D0A0000B8
:100FC0004150503A494E464F3A496E6469636174E4
:100FD000696F6E20666F7220424C455F4446552013
:100FE000697320656E61626C65642E0D0A000000F5
:100FF0004150503A494E464F3A4465766963652000
:1010000069732072657175657374656420746F20EF
:10101000656E74657220626F6F746C6F6164657267
:10102000206D6F6465210D0A000000004150503AA8
:10103000494E464F3A556E6B6E6F776E20657665FA
:101040006E742066726F6D20626C655F6466752ECB
:101050000D0A000070B586B004460E461F4B0FCB3C
:1010600001AD0FC500BF14B90E2006B070BD00BFA2
:1010700000BF0EB90E20F8E700BF4FF6FF70A0804A
:101080003068206100202075A07300BF01208DF81A
:1010900016004FF65960ADF8140000BFA21C05A958
:1010A0000120A0DF054600BF0DB12846DDE700BFE7
:1010B000214601A862DF054600BF0DB12846D4E7EE
:1010C00000BF3146204600F02FFE054600BF0DB19F
:1010D0002846CAE700BF0020C7E70000107D0200D5
:1010E00070B505460C4600BF05B970BD00BF00BF16
:1010F00004B9FAE700BF2088502819D004DC102872
:1011000007D011281ED109E051280CD0532819D13D
:1011100013E02146284604F017FB14E02146284638
:1011200004F026FC0FE02146284604F0F6FC0AE015
:101130002146284604F02CFD05E02146284604F00F
:10114000DFFC00E000BF00BF00BFCEE710B50446E3
:101150002046FFF7A3FE21460A4802F031FF214650
:10116000094800F05FF8204604F0C4F92046FFF774
:101170005FFD204600F054FA21460448FFF7B0FF17
:1011800010BD000000270020CC260020E82600200B
:1011900070B586B004460E46214B0FCB01AD0FC58E
:1011A00000BF14B90E2006B070BD00BF00BF0EB95D
:1011B0000E20F8E700BF4FF6FF70A0823068A061F4
:1011C0000020A075214601A862DF054600BF0DB1D1
:1011D0002846E8E700BF20788DF816000120ADF81A
:1011E0001400A21C05A9A0DF054600BF0DB12846CA
:1011F000D9E700BF3146204605F031F9054600BF6A
:101200000DB12846CFE700BF3146204606F00FF962
:10121000054600BF0DB12846C5E700BF0020C2E764
:101220003C7D020070B505460C4605B104B970BDA1
:101230002088102804D0112807D050280FD109E0A9
:101240002146284604F0A0FA0AE02146284604F088
:10125000B9FB05E02146284604F00AFD00E000BF86
:1012600000BF00BFE3E737B584B004460D4600BFBA
:1012700014B90E2007B030BD00BFA08A4FF6FF7131
:10128000884201D0A07D08B90820F3E7BDF8180016
:101290009B2801DD0720EDE70020009001900290DF
:1012A0000390A088ADF80000039506A802900120E5
:1012B0008DF80200A08A6946A6DFDBE770B5044618
:1012C000204606F096FB0546C5F3400070BD70B59C
:1012D0000446204606F08DFB054605F0010070BD72
:1012E00070B586B046480068059000BF0023D8223C
:1012F000444905A805F0D4FB054600BF2E4626B19B
:1013000000BF3046FFF734F900BF00BF00BF002028
:10131000049004A805F024FB044600BF254625B12F
:1013200000BF2846FFF724F900BF00BF002001904E
:101330000290039001208DF8040000208DF8050034
:101340008DF8060001A94020049A69DF044600BF19
:10135000254625B100BF2846FFF70AF900BF00BFA8
:10136000002001900290039001208DF804009E203F
:10137000ADF8060001A92320049A69DF044600BFE6
:10138000254625B100BF2846FFF7F2F800BF00BF91
:10139000002001900290039001208DF804004FF48A
:1013A000A071ADF808108DF8060001A92020049A5C
:1013B00069DF044600BF254625B100BF2846FFF778
:1013C000D7F800BF00BF04A805F0E0FA044600BF4C
:1013D000254625B100BF2846FFF7CAF800BF00BF69
:1013E000094805F0C7FA044600BF254625B100BFED
:1013F0002846FFF7BDF800BF00BF06B070BD000073
:10140000347C0200642700204D11020010B54FF01B
:10141000FF3100203BDF044600BF0CB1204610BD69
:1014200000BFB12100203ADF044600BF0CB12046C6
:10143000F5E700BF11DF044600BF0CB12046EEE720
:1014400000BF4FF01021486913DF044600BF0CB104
:101450002046E4E700BF162001218140124A4309DB
:1014600042F8231000BF01F0D9FA00BF00BF00BF4F
:1014700000BF00BFBFF34F8F00BF00BF00BF0B48CE
:10148000006800F4E0600A490843001D074908604D
:1014900000BF00BF00BFBFF34F8F00BF00BF00BF42
:1014A00000BF00BFFDE7000080E200E00CED00E0BF
:1014B0000000FA0501460148405C7047907C02003C
:1014C00010B50146094B585C00BF4FF0A0442346BD
:1014D00000BFD3F81045C44004F001040CB1012052
:1014E00000E00020024682F0010010BD907C020066
:1014F00010B502460949885C00BF4FF0A044214660
:10150000D1F80435012484409C43C1F808450124E6
:1015100084401C40C1F80C4500BF10BD8C7C02000B
:1015200010B504460249085D012103F065FC10BDB9
:101530008C7C020010B504460249085D002103F0CE
:101540005BFC10BD8C7C020010B50146094B585C59
:1015500000BF4FF0A044234600BFD3F80445C44069
:1015600004F001040CB1012000E00020024682F0EA
:10157000010010BD8C7C02007CB500240CE0094801
:10158000055D002000900346012211460190284687
:1015900003F072FB00BF641C042CF0D300F004F8CD
:1015A0007CBD00008C7C020010B5002403E02046C6
:1015B000FFF7B6FF641C042CF9D310BD10B500244E
:1015C00003E02046FFF7B6FF641C042CF9D310BDDE
:1015D00002464FF0FF30002106E0054B5B5C934272
:1015E00001D1084602E0491C0429F6D300BF704728
:1015F000907C020070B505460C4600260648056042
:1016000014B1204605F0A9FA0448006810B9FEF7A5
:1016100097FE0646304670BD202600202426002076
:1016200070B505462888102802D011282CD115E065
:101630001748006860B900F01BFE044600BF34B1D3
:101640001448006818B1204612490968884700BF4D
:101650000F480068401C0E49086016E00C480068FE
:10166000401E0B4908600846006860B9FEF768FE36
:10167000044600BF34B10748006818B12046054948
:101680000968884700BF00E000BF00BF70BD0000D0
:10169000242600202026002010B5002000F028FB82
:1016A000044600BF1CB1062C01D0204610BD00BF6F
:1016B000012000F01DFB044600BF1CB1062C01D028
:1016C0002046F3E700BF0020F0E700002DE9F041DD
:1016D00006460F464FF0000800243046FFF778FF1B
:1016E0000446042C3ED20FB3012F02D0022F38D172
:1016F00030E004EB4400214911F8008004EB440081
:101700000844407850B11E4A4FF400411D4800681B
:10171000FEF7BAFF05460DB91948067004EB440000
:10172000164908448078184908551AE01548006899
:10173000FEF7D4FF1448005D04EB44010F4A114446
:101740008978884205D104EB44001146084490F89A
:10175000028006E004EB44000849084490F8018048
:1017600000BF00BFB8F1000F06D00848006818B1EC
:101770004046064909688847BDE8F081182D0020D9
:10178000182600209C7C0200192600201426002028
:1017900010B504462046FFF793FE10BD2DE9F04139
:1017A00006460A2E0AD004DC042E0AD0072E46D1A3
:1017B00018E00E2E2BD00F2E41D134E005F0AAF800
:1017C0003EE013212048008876DF0446082C08D02C
:1017D00000BF274627B100BF3846FEF7C9FE00BF4D
:1017E00000BF2DE0184800884FF6FF7188420DD1E8
:1017F000FFF738FA0446082C08D000BF274627B167
:1018000000BF3846FEF7B4FE00BF00BF18E0002559
:1018100006E001F0E9FC322002F046FC681CC5B28B
:10182000142DF6DB0CE0002506E001F0DDFC322093
:1018300002F03AFC681CC5B2142DF6DB00E000BFD4
:1018400000BFBDE8F0810000F825002030B5034658
:101850000020042B23D2012A07D1012903D103F14F
:101860000E04E4B200E00024224679B1012902D03E
:10187000022911D104E003EB43040A4D2A550DE07F
:1018800003EB4304074D2C44627007E003EB430471
:10189000044D2C44A27001E0072000BF00E00720A7
:1018A00030BD0000182D002070B504460025054805
:1018B000007800F0010018B1204600F05BF8054602
:1018C000284670BD0C2600202DE9F04105460F4644
:1018D00000241F4805601F48076005F0020000B3A0
:1018E000002606E0012211463046FFF7AFFF04460E
:1018F000761C042E01D2002CF4D034B940F266627A
:1019000004211548FEF7A0FD044614B9FEF786FD34
:1019100004462CB9114A00211148FEF769FE04461D
:1019200000BF05F0010008B1FFF726FE2CB90D4AF3
:1019300000210D48FEF75CFE04462CB90B4A01213C
:101940000B48FEF755FE04462046BDE8F081000036
:101950000C26002014260020A07C02001B1D020083
:101960009C7C02000D2C0200947C020011040200F9
:10197000987C02002DE9F047044600260025D74850
:10198000007820B10020D549087001F02BF9182CFF
:1019900079D2DFE804F00C11124579ADF1FFEEEDDC
:1019A000ECEBEAE9E8E7E6E5E4E3E2E1E0DF01F0B9
:1019B00019F9CB4804708DE100BF0020FFF7C4FD8A
:1019C00058B10020FFF7ACFD022C02D14FF4E160CA
:1019D00001E04FF47A60054609E00020FFF7AAFD18
:1019E000022C01D1C82001E04FF4C8700546BC4864
:1019F00004704FF40040A5FB00204FF4FA73D71891
:101A000040F100015A0000233846FDF715FC8146DD
:101A100000224946B3480068FEF736FE064659E103
:101A20000020FFF791FD58B10020FFF779FD032C4E
:101A300002D14FF4487001E04FF47A60054609E0A6
:101A40000020FFF777FD032C01D1C82001E04FF4FF
:101A5000C8700546A24804704FF40040A5FB002062
:101A60004FF4FA73D71840F100015A0000233846AA
:101A7000FDF7E2FB8146002249469A480068FEF7DE
:101A800003FE064626E124E10020FFF75DFD58B184
:101A90000020FFF745FD042C02D14FF47A6001E0ED
:101AA0004FF47A6005460AE00020FFF743FD042C5E
:101AB00002D14FF4C87001E04FF4C8700546884861
:101AC00004704FF40040A5FB00104FF4FA73CF18D8
:101AD00040F100015A0000233846FDF7ADFB814676
:101AE000002249467F480068FEF7CEFD0646F1E039
:101AF0000020FFF729FD50B10020FFF711FD052C54
:101B000001D1C82001E04FF47A60054609E00020C9
:101B1000FFF710FD052C01D1C82001E04FF4C8707B
:101B200005466F4804704FF40040A5FB00204FF4B9
:101B3000FA73D71840F100015A0000233846FDF728
:101B40007BFB81460022494666480068FEF79CFD03
:101B50000646BFE0B8E0B6E0AAE0A1E098E092E077
:101B60005FE05DE05BE059E057E051E042E033E0E8
:101B700024E015E00EE0FFE70020FFF7B9FC58482D
:101B80000470002240F6CD4156480068FEF77CFD07
:101B900006469FE00020FFF7CDFC5148047099E015
:101BA00001204E490870FFF7A3FC002240F6CD410A
:101BB0004C480068FEF768FD06468BE00120474967
:101BC0000870FFF795FC00224FF4804145480068FB
:101BD000FEF75AFD06467DE0012040490870FFF7F8
:101BE00087FC002240F6CD413E480068FEF74CFDE0
:101BF00006466FE0012039490870FFF779FC0022A2
:101C00004FF4804137480068FEF73EFD064661E02C
:101C1000FFF7D4FC324804705CE000BF00BF00BF97
:101C200000BF31480068FEF759FD0646C4F11105B2
:101C300015B30EBB012D18D9A8B2C82148434FF4E3
:101C4000004180FB01304FF4FA729F1840F100010F
:101C5000520000233846FDF7EFFA8146002249463C
:101C600021480068FEF710FD06460220FFF762FCDF
:101C700001201E49087005E00220FFF751FC0020FA
:101C80001A49087026E000F0ADFF1548047021E005
:101C900000F0A8FF0020FFF74DFC1148047019E088
:101CA00000F0A0FF0120FFF745FC0D48047011E093
:101CB00000F098FF0020FFF73DFC0120FFF73AFC01
:101CC0000748047006E000BFFFF778FC0448047082
:101CD00000E000BF00BF3046BDE8F08709260020C5
:101CE00008260020947C0200987C02001026002028
:101CF00070B504462046FFF7DDFB0546032103F0DF
:101D00001CF8002070BD0246002901DA002003E023
:101D100013680B4413600120704710B50446207807
:101D20000221FFF7D3FC10BD30B58FB004460D463D
:101D30001C2108A8FDF7CFFA00200790142102A863
:101D4000FDF7C9FA0020019000BF9DF81C0020F0AB
:101D50000F00401C8DF81C009DF81C0020F0F000C6
:101D600010308DF81C0000BF00BF9DF81D0020F052
:101D70000F00401C8DF81D009DF81D0020F0F000A4
:101D800010308DF81D0000BF9DF81E0020F00600E9
:101D9000801C8DF81E009DF8200020F020002030CF
:101DA0008DF820009DF8200020F0080008308DF804
:101DB0002000002009900B900C9007A80D900020A7
:101DC0000E9020788DF802000320ADF8000000BFCF
:101DD0009DF8040020F00F00401C8DF804009DF8D1
:101DE000040020F0F00010308DF8040000BF00BFA8
:101DF0009DF8050020F00F00401C8DF805009DF8AF
:101E0000050020F0F00010308DF8050000BF9DF8AF
:101E1000060020F00600801C8DF806009DF80600E4
:101E200020F008008DF806009DF8060020F0100054
:101E300010308DF806009DF8060020F00100401CCF
:101E40008DF80600CDF808D001A803900020ADF869
:101E50001000ADF812001720ADF814000020069015
:101E60006088A31D02AA08A9A2DF0FB030BD000040
:101E7000F8B5054612490320FFF726FD044600BFCA
:101E8000264626B100BF3046FEF772FB00BF00BFFA
:101E900069460020FFF7AEFB044600BF264626B188
:101EA00000BF3046FEF764FB00BF00BF9DF8000096
:101EB000022801D1012000E000202870F8BD0000B8
:101EC0009D17020030B502460B4602210EE08C0041
:101ED00042FA04F404F00F00092802DD00F137048F
:101EE00001E000F13004C1F101055C550C1EA1F1C7
:101EF0000101ECD130BD00004FF0FF31054A42F83E
:101F00002010082804DBFF23A0F1080150325354AD
:101F100070470000A42E00200146024850F821001E
:101F200070470000A42E00202DE9F04F03460C4618
:101F30004FF0FF390AB1002000E0082084460AB1C2
:101F4000082000E00C208046614624E0154850F847
:101F50002100401CF0B91D460846274616464FFA98
:101F600080FBDFF840A00AF1300A0AF805B0DFF87C
:101F700034A04AF820704EB94FFA85FBA0F1080A48
:101F8000DFF820E00EF1500E0EF80AB000BF4FFA55
:101F900081F902E0491C4145D8D300BF4846BDE85D
:101FA000F08F0000A42E00200146014840567047E3
:101FB000D42E002070B505460DB9094C01E0084C3F
:101FC000083409E0204600F007FE064606B904E0A2
:101FD00028467168884700BFF4E700BF70BD000065
:101FE000982E002070B509A1032003F036F93B219B
:101FF0000D48008876DF044600BF254625B100BFA6
:102000002846FEF7B5FA00BF00BF70BD4150503AF8
:10201000494E464F3A74696D657220697320646F4A
:102020006E650D0A00000000F82500202DE9F0473C
:1020300082461F480068002836D01D4800680568A1
:1020400004F092F907461B4804682146384604F01C
:1020500097FDC61C1848007808B904F097F9AE42FD
:1020600001D2284600E03046044424F07F44204654
:1020700004F074F904F078F980463946404604F0DB
:102080007FFD00F103093946204604F079FD8145C2
:1020900009D904F069F9814604F060F92F2002F0B3
:1020A000A5F804F0BBFE01E004F08EF9BDE8F0876E
:1020B000782600207C2600208A26002001460888F9
:1020C000062808DB0888B0F5486F06DD08884FF65B
:1020D000FF72904201D0072070474888062808DB2D
:1020E0004888B0F5486F06DD48884FF6FF72904289
:1020F00001D00720F0E708884FF6FF72904208D021
:102100004888904205D008884A88904201DD07201F
:10211000E2E70020E0E72DE9F04106460D461446CF
:1021200098462088801D404502D90C20BDE8F081EA
:102130003046FFF7C3FF074600BF0FB13846F5E74B
:1021400000BF0520218868542088401C2080122070
:10215000218868542088401C2080228851193088AA
:1021600005F04DFC21880844208022885119708890
:1021700005F045FC2188084420800020D6E710B5F2
:10218000044600BF2046FEF7F3F900BF10BD000073
:1021900030B587B01C216846FDF79DF800200090FF
:1021A0004FF4203001904FF47020029003208DF8FE
:1021B0000C000020ADF80E008DF8100009480590C5
:1021C000094806906846FEF731FE044600BF2546E2
:1021D00025B100BF2846FEF7CBF900BF00BF07B00E
:1021E00030BD0000055702007F21020038B51B48B2
:1021F00000F0E0FC20BB1A48007848B1194840695B
:10220000E8B100200090174841696846884716E009
:102210001548007810B91348456801E011488568F1
:102220000022294611480068FEF72EFA044634B110
:102230000C48806918B10B4881692046884709E03D
:102240000848406930B1012000900648416968465D
:10225000884700BF00200249087038BD582600207A
:1022600060260020542E002054260020207D0200ED
:1022700010B5012200210846FFF7E8FA044600BF26
:102280001CB1072C01D0204610BD00BF072202213F
:102290000120FFF7DBFA044600BF1CB1072C01D078
:1022A0002046F1E700BF042202210020FFF7CEFA0A
:1022B000044600BF1CB1072C01D02046E4E700BF54
:1022C0000020E1E77CB504460D4600200090019017
:1022D000A81D00EBC4008079ADF80000A81D00EB3C
:1022E000C4008079ADF802000022694620468FDFE5
:1022F00006462EB1334622460249012002F0C3FFB2
:102300007CBD00000C8002002DE9F04781460025CD
:1023100032E01C48006800EBC5042178012000FA77
:1023200001F619480068304020B317480068B043F0
:1023300015490860207802F007F907462178012046
:102340008840124909680840217807FA01F188425B
:102350000FD16078012800D100E00020784080F0A3
:102360000108606820B108F0FF012078626890479A
:1023700000BF00BF681CC5B2054800788542C8DBB5
:10238000BDE8F08764260020742600207026002017
:1023900068260020014614480078144A12789042BA
:1023A0001DD011480078401C0F4A1070104600786C
:1023B000022801D1002010700D480B4A127850F805
:1023C000220008600B4A086812681044094A10602D
:1023D0001046006820F07F40106001207047002008
:1023E000086000BFFAE70000882600208926002048
:1023F000802600207C26002038B50446206930B1B4
:1024000000200090694620462269904700BF0120C5
:10241000207538BD13480078062820D11148001DCA
:10242000007800F00F00D0B90E480830007800F0B6
:10243000F000302801D1012070470A4808300078A8
:1024400000F0F000402801D10120F5E705480830F0
:10245000007800F0F000502801D10120ECE70020C6
:10246000EAE70000E00F00F013480078062820D1CA
:102470001148001D007800F00F00D0B90E48083058
:10248000007800F0F000302801D1012070470A48A0
:102490000830007800F0F000402801D10120F5E775
:1024A00005480830007800F0F000502801D10120E4
:1024B000ECE70020EAE70000E00F00F013480078A6
:1024C000062820D11148001D007800F00F00D0B977
:1024D0000E480830007800F0F000302801D10120CB
:1024E00070470A480830007800F0F000402801D119
:1024F0000120F5E705480830007800F0F00050288A
:1025000001D10120ECE70020EAE70000E00F00F035
:102510000A48007806280ED10848001D007800F00F
:102520000F0040B905480830007800F0F00030286E
:1025300001D1012070470020FCE70000E00F00F00F
:1025400013480078062820D11148001D007800F0BB
:102550000F00D0B90E480830007800F0F0003028A5
:1025600001D1012070470A480830007800F0F000DF
:10257000402801D10120F5E705480830007800F037
:10258000F000502801D10120ECE70020EAE700002C
:10259000E00F00F00A48007806280ED10848001D18
:1025A000007800F00F0040B905480830007800F0CE
:1025B000F000302801D1012070470020FCE7000026
:1025C000E00F00F013480078062820D11148001DC4
:1025D000007800F00F00D0B90E480830007800F005
:1025E000F000302801D1012070470A4808300078F7
:1025F00000F0F000402801D10120F5E7054808303F
:10260000007800F0F000502801D10120ECE7002014
:10261000EAE70000E00F00F00A48007806280ED133
:102620000848001D007800F00F0040B90548083048
:10263000007800F0F000302801D101207047002020
:10264000FCE70000E00F00F00A48007806280ED1F1
:102650000848001D007800F00F0040B90548083018
:10266000007800F0F000302801D1012070470020F0
:10267000FCE70000E00F00F00A48007806280ED1C1
:102680000848001D007800F00F0040B905480830E8
:10269000007800F0F000502801D1012070470020A0
:1026A000FCE70000E00F00F0F0B5034600241FE057
:1026B000124E306806689E4203D90668F61A066014
:1026C0001AE006689B1B06683444002606600B4E21
:1026D00035680A4FC6693E60C66846B10E1926F0D5
:1026E0007F464660C66886601668C661156000BF92
:1026F000024800680028DBD100BFF0BD782600202A
:1027000070B504460D462A460021204600F00EF81A
:10271000A068401CA06070BD01468A68C868801A25
:10272000704701468A68C868801A704710B5836888
:102730000B44848823400468E35C137010BDC268B6
:1027400083881A4003689954C268521CC26070475B
:1027500030B504461088C01C984201D90C2030BD09
:102760000220158848551088401C108001201588CB
:1027700048551088401C108015884C551088401C06
:1027800010800020EBE708B5684600F00FF80098CD
:1027900008B1012008BD0020FCE770B504460D46D5
:1027A000E0B2FEF751F8204670BD0000014609B9BD
:1027B000032070470248406E08600020F9E70000DF
:1027C000743000203EB500BF9DF8000020F00F00DF
:1027D000401C00909DF8000020F0F00010300090A8
:1027E00000BF072214A168467CDF044600BF2546CF
:1027F00025B100BF2846FDF7BBFE00BF00BF00208B
:10280000019002901020ADF804003C20ADF80600C5
:102810000020ADF808004FF4C870ADF80A0001A818
:102820007ADF044600BF254625B100BF2846FDF7E4
:102830009FFE00BF00BF3EBD4D46524336333000C1
:102840002DE9F04105460F46012000FA05F418482D
:102850000068FDF743FF06460EB1BDE8F08115485C
:1028600000682040E0B9284601F06EFE28B1124809
:10287000006820431049086004E00F480068A04346
:102880000D4908600B48006820430A49086000228F
:102890000A48016806480068FDF7F6FE064604E0AF
:1028A00004480068A0430349086000BFD5E7000062
:1028B000947D020074260020702600206C260020E3
:1028C0003EB505460C460020009001900290002382
:1028D00000BF0CE0E85C00110DF81300E85C00F0AC
:1028E0000F015800401C0DF80010581CC3B2A34241
:1028F000F0DB002307E01DF80300FCF76FFE04493E
:10290000C854581CC3B2B3EB440FF4DB00483EBDBF
:10291000942D002038B505460C4600200090002379
:1029200000BF0CE0E85C00110DF81300E85C00F05B
:102930000F015800401C0DF80010581CC3B2A342F0
:10294000F0DB002307E01DF80300FCF747FE044915
:10295000C854581CC3B2B3EB440FF4DB004838BD75
:1029600028260020F8B52748007800B9F8BD0025D2
:102970002548006808B9012000E00020064600BF95
:10298000DDB92248007800B1F0E7684648DF044628
:10299000052C01D101250FE024B100BF2046FDF731
:1029A000E7FD09E0009801F0BBFC1948006818B188
:1029B000174900980968884700BFDEB913480078B6
:1029C00000B1D3E7134800880090694612480068B8
:1029D00061DF0446052C01D101260AE024B100BFC5
:1029E0002046FDF7C5FD04E00B480068064909686C
:1029F000884700BF0DB106B100E0C1E700BF00BFCE
:102A0000B4E70000B8260020C4260020B926002024
:102A1000B4260020C0260020BC26002030B50C497A
:102A20000A68002010E001218140114059B141B2F3
:102A300001F01F040123A340054C80344D0944F8E4
:102A4000253000BF00BF401C2028ECD330BD000063
:102A500000E100E070B504460D4620791D4901EB08
:102A60004010007FF8B14FF48871206802F0A9FC93
:102A70004FF49071206802F0A4FC4FF4927120682A
:102A800002F09FFC4FF4A271206802F09AFC1249F8
:102A9000206802F0A6FC206801F08DFC064629465D
:102AA00001F054FC14E04FF48E71206802F059FCE0
:102AB0004FF4A271206802F054FC0849206802F02B
:102AC0005FFC206801F077FC0646294601F03EFCD9
:102AD00070BD0000FC2E00201003020080000200E8
:102AE0007FB505460C4694F8210094F82010CDE9F6
:102AF000001004F12602D11E2846E36904F019FBF8
:102B000000B17FBD94F8230048BB207B022802D08F
:102B1000207B032823D1E169206981421FD16069AC
:102B2000E061E07B84F82000207EC0F3401084F850
:102B30002100207B03280AD194F82100009094F80A
:102B4000203029462046E26904F086FB30E094F804
:102B5000203029462046E26904F052FA28E0D4E900
:102B60000412E06801AB07C394F8230088B128463B
:102B700002F0CAFB064606F0020018B101208DF8EB
:102B8000000005E006F0040010B102208DF80000FE
:102B900002E000208DF80000002084F82400207E50
:102BA00000F0040018B96846D4E90021904700BF3E
:102BB00000BFA6E701464888064A1288904206DB15
:102BC0004888044A5288904201DC01207047002066
:102BD000FCE700004C2600200146086808B10268A6
:102BE0000A60704710B50848007850B1002405E02D
:102BF000022C02D02046FEF793FC641C042CF7D371
:102C000001E0FEF7D1FC10BD1026002010B50446EF
:102C10000448007800F0010018B103480078FEF77E
:102C2000A9FE10BD0C260020082600209E21018050
:102C300017214180002101714171A22181711B2165
:102C4000C17170472DE9F041064600274748D0F88A
:102C5000008078E016B13446E66947E044480078E1
:102C600000EB40014248001D00EBC105001F007849
:102C7000401C3F490870084600788978884202D194
:102C800000203B4908706C68287801281AD0022877
:102C900002D0032817D107E0686803F0DFFF00B116
:102CA0000127002020744EE007E030490868002129
:102CB00001742E4AC169116000BF2C4800680028C9
:102CC000F3D140E000E03EE000BF207C00B13AE0FC
:102CD000A8686060E868A0602869E0606869A06131
:102CE0002448007808B10020606000BF2249606875
:102CF0000968401A20F07F402049884208D21E49C6
:102D00006068096803F03CFFA168084420600FE098
:102D100019486168006803F033FF0546A068A842BF
:102D200003D9A068401B206001E00020206000BFA4
:102D300000206060A060012020740020E061204637
:102D400003F058FF00BF002E84D1094800780849DD
:102D500049788842F8D11FB904480068404502D03C
:102D60000120BDE8F0810020FBE70000782600206C
:102D70003C2F00208B2600207C260020FFFF7F00B8
:102D800070B5002002F0AAFA044600BF254625B11E
:102D900000BF2846FDF7ECFB00BF00BF70BD000080
:102DA00008B504F041F804F0CFFCFFF7E9FF6846EE
:102DB000FFF75EF8FEF794FAFFF704FD03F0ECFC72
:102DC000FDF7E8FAFFF7E4F901F020F8002000F041
:102DD00066F80320FDF772FF044600BF254625B1C3
:102DE00000BF2846FDF7C4FB00BF00BF07A10320BA
:102DF00002F033FA00BF02F0F9FF4FF4FA7001F06D
:102E000053F907A0FCF706FFF5E700004150503AE0
:102E1000494E464F3A73746172740D0A0000000007
:102E20000D0A0D0A000000002DE9F04105460E468E
:102E300014469846A888871C2088801C3844404542
:102E400002D90C20BDE8F081FE2F01D90C20F9E752
:102E5000781C218870542088401C2080FF20218805
:102E600070542088401C208022889119288804F002
:102E7000C6FD218808442080A88800280DDDA868A8
:102E800008B90720DEE7AA8823889819A968FCF703
:102E900009FA2088A988084420800020D2E710B5CC
:102EA00004460021204600F001F810BD30B585B081
:102EB00005460C4635B1012D14D0022D22D0032D2C
:102EC00040D12FE0142221A16846FCF7EBF9C4F1B0
:102ED0001203DAB20DEB040104F12803D8B200F0BA
:102EE000F1FF2FE014221EA16846FCF7DBF9C4F1C4
:102EF0001203DAB20DEB040104F12803D8B200F09A
:102F0000E1FF1FE014221BA16846FCF7CBF9C4F1D6
:102F10001203DAB20DEB040104F12803D8B200F079
:102F2000D1FF0FE0142218A16846FCF7BBF9C4F1E9
:102F30001203DAB20DEB040104F12803D8B200F059
:102F4000C1FF00BF00BF05B030BD00008A08211AD4
:102F500018180F2700C012CF00049032120A000088
:102F60008E12110618180F1000C012CF0005903FE6
:102F7000120200008E12110618180F0800C012CF9E
:102F80000006903F120A00008FDB110618180F028E
:102F900000C012CF0007903F120200002DE9FF4150
:102FA000012700F0D5F98046B8F1000F76D0002057
:102FB00000900190029003A9684600F099FA064635
:102FC000002E5DD0324639A1032002F050F93D4871
:102FD000007800282DD03CA1032002F03EF9002506
:102FE00023E02A463CA1032002F041F93FA103203F
:102FF00002F033F9002414E040A1032002F02DF97F
:10300000424800EB8500005D1DF80410884206D19F
:10301000032C04D13EA1032002F01FF90027601CFD
:10302000C4B2042CE8DB681CC5B22648007885428F
:10303000D7DB012F31D123480078401C214908708B
:103040000846027839A1032002F011F9002410E0AB
:103050001C4802783CA1032002F009F91DF8041075
:1030600018480078401E294A02EB80000155601C78
:10307000C4B2042CECDB3AA1032002F0EEF80CE021
:103080003E49032002F0E9F83DA1032002F0E5F8F3
:10309000002004B0BDE8F08100E005E048A1032075
:1030A00002F0DBF80020F4E700BFF2E74150503AAD
:1030B000494E464F3A7569645F6C656E203D202528
:1030C000640D0A00052600204150503A494E464FF3
:1030D0003A310D0A000000004150503A494E464F27
:1030E0003A69203D2025640D0A0000004150503A05
:1030F000494E464F3A320D0A000000004150503A06
:10310000494E464F3A330D0A000000005027002078
:103110004150503A494E464F3A74686973206120D5
:103120006F6C6420636172640D0A00004150503A74
:10313000494E464F3A636172645F6E756D626572A7
:10314000203D2025640D0A004150503A494E464F1B
:103150003A7772697465207569640D0A0000000091
:103160004150503A494E464F3A72656164206120A1
:103170006E657720636172640D0A00006C7E020048
:103180004150503A494E464F3A2077656C6C207753
:1031900069746820746865206F7468657220636163
:1031A0007264733F204F7220746F6F206D616E796F
:1031B00020636F6C6C6973696F6E733F0D0A00005A
:1031C0004150503A494E464F3A4E6F20616E7377E8
:1031D000657220746F20524551412C206E6F206320
:1031E000617264733F0D0A0070B58CB000F0B0F8E6
:1031F0000546002D2ED00020089009900A900BA9BA
:1032000008A800F075F90446C4B105AE214608A827
:10321000FFF756FB0646142212496846FCF742F8AF
:1032200031466846FCF762F869460FA0FCF7F2FCED
:10323000142269461148FEF716F80AE010490320E7
:1032400002F00BF80FA1032002F007F800200CB0E9
:1032500070BD05E01BA1032001F0FFFF0020F6E791
:1032600000BFF4E7507C02007569645F7374725F9D
:1032700070203D2025730D0A00000000CC260020A0
:103280006C7E02004150503A494E464F3A207765D5
:103290006C6C207769746820746865206F74686549
:1032A000722063617264733F204F7220746F6F20CD
:1032B0006D616E7920636F6C6C6973696F6E733FBB
:1032C0000D0A00004150503A494E464F3A4E6F2089
:1032D000616E7377657220746F20524551412C20C6
:1032E0006E6F2063617264733F0D0A0010B57F2119
:1032F000062000F0B3FD10BD10B57F21072000F0BF
:10330000ADFD10BD10B50021084600F0A7FD10BDB1
:1033100070B504460D46FFF7F5FF00F009F82946A1
:10332000204600F08DFD0721002000F097FD70BDC4
:1033300010B51021022000F091FD10BD10B506203F
:1033400000F0F4FC10BD10B5072000F0EFFC10BD3C
:1033500010B5262000F002F810BD00002DE9FC4158
:103360000646FFF7CFFFFFF7E3FF0F212E2000F007
:1033700075FD18212C2000F071FD18212D2000F082
:103380006DFD00210C2000F069FD0196FFF7AEFFF6
:10339000FFF7B2FF0621082000F060FD012109209F
:1033A00000F05CFD00271121384600F0FFFC4FF4CF
:1033B0007A71384600F005FD4FF47A71384600F016
:1033C00012FD012101A8FFF7A3FF21A1032001F0B5
:1033D00044FF00240AE0FFF7B6FF044604F0400073
:1033E00020B121A1032001F038FF04E00120B84002
:1033F00020400028EFD000BF24A1032001F02DFFC2
:10340000FFF780FF0025FFF799FF054605F0040050
:1034100010B105F0020040B12B46224624A1032042
:1034200001F031FF0020BDE8FC810221684600F078
:1034300039FC29A1032001F010FF0221684600F0A9
:103440001FFC2AA0FCF7E6FBBDF80000EBE700003C
:103450003A494E464F3A53656E64696E672052454D
:1034600051410D0A000000003A494E464F3A656945
:1034700074686572204552525F495251206F722024
:1034800052585F4952510D0A000000003A494E4619
:103490004F3A41667465722077616974696E67207E
:1034A000666F7220616E737765720D0A000000000E
:1034B0003A494E464F3A4E6F2052582C206972714D
:1034C000313A202568687820697271303A20256881
:1034D00068780D0A000000003A494E464F3A4154C0
:1034E000514120616E737765723A20000D0A000029
:1034F0002DE9F34F93B08146FFF704FFFFF718FF64
:10350000FEA1032001F0A9FE0621082000F0A6FC80
:103510000121092000F0A2FC002012901121129834
:1035200000F044FC4FF47A71129800F04AFC4FF41A
:103530007A71129800F057FC012700BF71E3002058
:10354000119000240F9010900DF13E06012F04D031
:10355000022F05D0032F09D105E09320119005E03B
:103560009520119002E09720119000BF00BF182114
:103570002C2000F073FC18212D2000F06FFC4FF080
:10358000000B65E15B463A46E2A10320009401F09E
:103590008AFEFFF7ABFEFFF7AFFE11988DF83C00F7
:1035A00004F12000C0B28DF83D002546E01704EB81
:1035B0005070C010A4EBC000C0B240F008012E2033
:1035C00000F04CFC2046E11704EB5171C910A4EB4C
:1035D000C101C9B20591DCA10320059A01F047FEA3
:1035E0000022059842EA0010C1B20C2000F036FC1F
:1035F000E11704EB5171C910A4EBC10141B9204698
:10360000E11704EB5171C910891CC9B20E9107E092
:103610002046E11704EB5171C910C91CC9B20E91C3
:10362000D2A103200E9A01F022FE0FA80E9900F0FD
:1036300027FBD4A1032001F010FE0FA80E99FFF77D
:1036400067FE0020049007E0FFF77DFE04900498D9
:1036500000F0400000B107E00121129801FA00F0EB
:10366000049908400028EFD000BFFFF74BFEFFF79A
:1036700065FE03900A2000F059FB02900D2000F037
:1036800055FB0190C2A10320039A01F0F0FDC5A1F2
:103690000320029A01F0EBFD4FF0000A039800F0BE
:1036A0000200002861D0029800F00400002851D0E8
:1036B000019800F08000002843D0019820F0800A93
:1036C0005246BDA1032001F0D2FD04EB0A00C5B2B1
:1036D0007A1E02EB42025119CA1701EB5272D21044
:1036E00019F802202846EB1705EB5373DB10A5EB06
:1036F000C3031A4102F001020092EA1705EB52726D
:10370000D210B25C2946EB1705EB5373DB10A5EB27
:10371000C30C009B03FA0CF31A43EB1705EB53732E
:10372000DB10F254601CC4B22246AAA1032001F0AF
:103730009EFD0A21304600F0A3FA99A0FCF76AFA30
:1037400025E0AEA1032001F088FDC4F1200000F0C7
:10375000FF0A1CE05346B3490320029A01F093FD8F
:10376000C4F1200000F0FF0A11E0039800F004000B
:1037700048B1C4F1200000F0FF0A5246AAA103207C
:1037800001F075FD03E0002015B0BDE8F08F524652
:10379000B2A1032001F06BFD05210CA800F082FA14
:1037A0000522B5A1032001F062FD05210CA800F05F
:1037B00067FA74A1032001F050FD2246B4A1032052
:1037C00001F055FDE51DE81705EB5070C0F3CF0182
:1037D000304600F055FA72A0FCF71CFA4FF00008D2
:1037E00014E0E11704EB517108EBE101715C0CAAE4
:1037F00012F8082011432046E21704EB527208EB3E
:10380000E202B15408F1010000F0FF08B8F1050F21
:10381000E7DB04EB0A00C4B22246A6A1032001F0B4
:1038200026FD202C10DBAAA1032001F016FD224664
:1038300097A1032001F01BFD0A21304600F020FA79
:1038400057A0FCF7E7F907E00BF1010000F0FF0BD0
:10385000BBF1200FFFF696AE00BF9DF834000B9031
:10386000307871784840B1784840F17848400A9003
:10387000DDE90A1088420ED00C98C9F800009DF8C6
:10388000340089F8040099A10320DDE90A3201F02F
:10389000FAFC002078E7FFF729FDFFF72DFD1198CE
:1038A0008DF83C0070208DF83D000A988DF842009C
:1038B00007200E9019212C2000F0D0FA19212D207C
:1038C00000F0CCFA2546E01704EB5070C010A4EBD2
:1038D000C000C0B240F008012E2000F0BFFA002066
:1038E00009900022099842EA00110C2000F0B6FA73
:1038F0000FA80E99FFF70CFD18E100003A494E465B
:103900004F3A5374617274696E672073656C6563B6
:10391000740D0A003A494E464F3A434C3A20256806
:1039200068642C20636F6C6C206C6F6F703A20257C
:103930006868642C206B622025686864206C6F6E58
:10394000673A200D0A0000003A494E464F3A536547
:103950007474696E6720727820616C69676E207478
:103960006F3A20256868640D0A0000003A494E4607
:103970004F3A53656E643A25686864206C6F6E67D1
:103980003A2000003A494E464F3A0D0A0000000026
:103990003A494E464F3A697271303A202568685864
:1039A0000D0A00003A494E464F3A6572726F723AFC
:1039B00020256868580D0A003A494E464F3A436F31
:1039C0006C6C6973696F6E20617420256868580D8E
:1039D0000A0000003A494E464F3A7569645F7468C0
:1039E00069735F6C6576656C206E6F77206B622003
:1039F00025686864206C6F6E673A20003A494E462D
:103A00004F3A436F6C6C6973696F6E2062757420F6
:103A10006E6F2076616C696420636F6C6C706F737D
:103A20002E0D0A00B07E02003A494E464F3A476FCB
:103A30007420646174612C206E6F20636F6C6C69FC
:103A400073696F6E2C2073657474696E6720746F70
:103A50003A20256868780D0A000000003A494E4671
:103A60004F3A636F6C6C6973696F6E5F706F733A16
:103A700020256868580D0A003A494E464F3A466973
:103A8000666F2025686864206C6F6E673A200000BE
:103A90003A494E464F3A7569645F746869735F6C62
:103AA0006576656C206B622025686864206C6F6E9B
:103AB000673A20003A494E464F3A6B6E6F776E5F19
:103AC000626974733A20256868580D0A0000000086
:103AD0003A494E464F3A6578697420636F6C6C6959
:103AE00073696F6E206C6F6F700D0A003A494E4615
:103AF0004F3A536F6D657468696E672077656E74B1
:103B00002077726F6E672C2042434320646F657389
:103B1000206E6F74206D617463685B253032783A73
:103B2000253032785D2E0D0A000000003FA10320F1
:103B30000E9A01F09CFB0FA80E9900F0A1F8AFF2CD
:103B4000A010FCF767F80020089007E0FFF7FBFBE8
:103B50000890089800F0400000B107E00121129899
:103B600001FA00F0089908400028EFD000BFFFF7E5
:103B7000C9FBFFF7E3FB0790079800F0020048B18C
:103B80000A2000F0D3F8054605F0040008B1002033
:103B9000FAE500BF012006900699149800F082F81B
:103BA00029A1032001F059FB0121149800F068F8C5
:103BB000AFF21420FCF72EF81498007800F00400FF
:103BC00070B1002009E0411C725C791E01EB4101DB
:103BD000014409F80120411CC8B20328F3DB11E0BD
:103BE000002108E0725C781E00EB4000084409F8F0
:103BF0000020481CC1B20429F4DB07EB4700401C3D
:103C0000C0B2C1E53A4615A1032001F030FB0A21FC
:103C1000484600F035F8AFF27820FBF7FBFF781C40
:103C2000C7B2032F7FF78BAC0020ADE53A494E4673
:103C30004F3A73656E645F72657120256868642011
:103C40006C6F6E673A2000003A494E464F3A534136
:103C50004B20616E737765723A2000003A494E46F8
:103C60004F3A457869742063617363616465202508
:103C7000686864206C6F6E673A200D0A00000000CF
:103C800070B505460E46002405E0295D03A0FBF74C
:103C9000C1FF601C84B2B442F7DB70BD25303258DE
:103CA000200000007CB505460E46144800F09AFC42
:103CB00013A0006801900120034601AA2921009069
:103CC0000E4800F003FD04462CB1234605220DA149
:103CD000012001F0D8FAF3B22A462921074800F062
:103CE000DFFC04462CB12346052206A1012001F089
:103CF000CAFA024800F076FC7CBD0000F87C0200A5
:103D0000050000003A4552524F523A4D4652433652
:103D100033303A20726561643A202530327820656C
:103D200072726F722025640A000000003EB50446DE
:103D3000134800F057FC01940120034601AA2921F1
:103D400000900F4800F0C2FC05462DB12B462246DC
:103D50000CA1012001F097FA022302AA29210848A8
:103D600000F09EFC05462DB12B46224605A1012000
:103D700001F089FA024800F035FC9DF808003EBDCC
:103D8000F87C02003A4552524F523A4D4652433661
:103D900033303A20726561643A20253032782065EC
:103DA00072726F722025640A0000000070B504462C
:103DB0000D4604EB84010F31C8B2294600F04EF8DD
:103DC00070BD70B504460D46291204EB8402103212
:103DD000D0B200F043F804EB84011131C8B2FF21E6
:103DE00000F03CF870BD70B504460D46291204EB96
:103DF00084021232D0B200F031F804EB84011331A6
:103E0000C8B2FF2100F02AF870BD00001FB50A4BB0
:103E10000FCB8DE80F0000231A466946074800F0D3
:103E2000F3FB044614B1204604B010BD034800F073
:103E3000D9FB0020F8E70000007D0200F87C0200BA
:103E400070B505460E46002405E0295D052000F00A
:103E500005F8601CC4B2B442F7DB70BD7CB5044603
:103E60000D468DF804408DF805500B4800F0BAFB64
:103E70000020022301AA29210090074800F026FC17
:103E800006462EB13346224604A1012001F0FBF97B
:103E9000014800F0A7FB7CBDF87C02003A45525275
:103EA0004F523A4D4652433633303A207772697456
:103EB000653A2025303278206572726F7220256451
:103EC0000A0000002DE9F04105460E461746002481
:103ED00006E0315D2A19D0B2FFF7C0FF601CC4B202
:103EE000BC42F6DBBDE8F0812DE9F84F05460F46F0
:103EF000144698462878012804D1687810B907201C
:103F0000BDE8F88F2088801C404508D82878012813
:103F100007D12088801C69780844404501D90C20CD
:103F2000EEE72088A8EB0000801E86B2009621886C
:103F3000891CC81969467DDF814600BFB9F1000FB1
:103F400001D04846DCE700BF2878022806D1BDF83A
:103F50000000B04202DC4FF0090A0BE04FF0080A03
:103F60002878012805D16878B04202DC6878009092
:103F700000E00096BDF80000FE2801D90C20BFE744
:103F8000BDF80000401C218878542088401C208007
:103F9000208807F800A02088401C20802088BDF8D9
:103FA0000010084420800020AAE730B502460B46E6
:103FB000D40802F00702012090401D5D284030BD6A
:103FC0002DE9F04105460E46B488022C01DBBDE820
:103FD000F0813088222820D006DC102809D0112852
:103FE0000CD0212823D11DE03A280CD055281ED111
:103FF0000EE03146284601F0D5FB19E0314628464F
:1040000001F002FD14E03146284601F047FD0FE0C3
:104010003146284601F002FD0AE03146284601F00B
:1040200053FC05E03146284601F078FC00E000BF73
:1040300000BFA81D00EBC4000079C8B1A81D30F86E
:10404000341020469EDF074657B90021A81D00EB1B
:10405000C40001710121A81D00EBC400417106E0FC
:10406000112F04D03A460349012001F000F900BFA6
:1040700000BFACE7F87E020001464FF08040405898
:1040800008B1012070470020FCE708B500224FF07E
:1040900080410A500958009100BF08BD01490860DD
:1040A000704700000803004010B504464FF47A71D1
:1040B00004FB01F000F002F810BD000000B97047E9
:1040C00000BF00BF00BF00BF00BF00BF00BF00BFF8
:1040D00000BF1E4909681E4A914200D130E000BF6E
:1040E00000BF00BF00BF00BF00BF00BF00BF00BFD8
:1040F00000BF00BF00BF00BF00BF00BF00BF00BFC8
:1041000000BF00BF00BF00BF00BF00BF00BF00BFB7
:1041100000BF00BF00BF00BF00BF00BF00BF00BFA7
:1041200000BF00BF00BF00BF00BF00BF00BF00BF97
:1041300000BF00BF00BF00BF00BF00BF00BF00BF87
:10414000401E00D0BDE700BFB9E70000C826002030
:104150000024F40000B9704700BF00BF00BF00BFDB
:1041600000BF00BF00BF00BF00BF1E4909681E4A54
:10417000914200D130E000BF00BF00BF00BF00BFD0
:1041800000BF00BF00BF00BF00BF00BF00BF00BF37
:1041900000BF00BF00BF00BF00BF00BF00BF00BF27
:1041A00000BF00BF00BF00BF00BF00BF00BF00BF17
:1041B00000BF00BF00BF00BF00BF00BF00BF00BF07
:1041C00000BF00BF00BF00BF00BF00BF00BF00BFF7
:1041D00000BF00BF00BF00BF401E00D0BDE700BF52
:1041E000B9E70000C82600200024F40000B9704799
:1041F00000BF00BF00BF00BF00BF00BF00BF00BFC7
:1042000000BF1E4909681E4A914200D130E000BF3C
:1042100000BF00BF00BF00BF00BF00BF00BF00BFA6
:1042200000BF00BF00BF00BF00BF00BF00BF00BF96
:1042300000BF00BF00BF00BF00BF00BF00BF00BF86
:1042400000BF00BF00BF00BF00BF00BF00BF00BF76
:1042500000BF00BF00BF00BF00BF00BF00BF00BF66
:1042600000BF00BF00BF00BF00BF00BF00BF00BF56
:10427000401E00D0BDE700BFB9E70000C8260020FF
:104280000024F40010B500241648007808B18524F5
:1042900025E000201349886048600861C86000BFBD
:1042A00000BF4109890001F1E021D1F8001101228C
:1042B0008240114009B1012100E0002119B9072114
:1042C000002000F043F800BF02F03AFC20B90120C2
:1042D0000549086000BF00BF012002490870204660
:1042E00010BD0000902E00201805004008B50020E9
:1042F00000906846FCF7C8FA0848007808B9FFF74C
:10430000C1FF0648C068401C0449C860012088708D
:104310009DF80000FCF7BEFA08BD0000902E0020BA
:1043200010B5044614B90020FDF744FE10BD00008E
:1043300000BF00F01F0201219140034A430942F8E7
:10434000231000BF7047000080E100E070B50B460D
:1043500001461A46002907DA5407260E104C01F0D0
:104360000F052D1F665503E05407250E0D4C6554AF
:1043700000BF00BF00F01F02012191400A4A44091A
:1043800042F8241000BF00BF00F01F02012191403D
:104390004209920002F1E022C2F8001100BF70BD94
:1043A00018ED00E000E400E080E200E00146C1F327
:1043B000073250B270470146C1F3073250B270471E
:1043C0002DE9F04706460D46304601F083FCE0B18A
:1043D0003046FDF7E9FD083822490F5CBC11032C7B
:1043E00008D1304600F0E6FC08B1032000E00220CE
:1043F000804605E0012C01D1022000E00320804628
:104400004146304600F0B2FC2AE0304601F06EFC36
:1044100030B33046FDF7C8FD0446A00000F58070BB
:1044200087B22046104951F8201041F001020E4990
:1044300041F8202000BF384600F016FD7DB130461F
:10444000FDF7B2FD8146FDF767FD8046B8F1000F2C
:1044500004D0012101FA04F000F020FD00BF00BFEC
:10446000BDE8F087F42E0020106500402DE9FC47E0
:1044700004460E4617464FF00008204601F01CFC8B
:1044800010B14FF0080855E0F27839462046FDF7A4
:104490004BFD0546681C002849D0B07880B100BFAC
:1044A00000BF4FF0A042104600F5E06252F8242011
:1044B00022F0020100F5E06242F8241000BF0CE097
:1044C00096F80190002000904B460246014601906C
:1044D000204600F0E5FB00BF00BFF078D0B1307897
:1044E000164951F82510164A1140144A42F8251071
:1044F000114651F825104FF4F85202EA04224FF405
:10450000403303EA00431A4311430C4A42F8251092
:1045100000BF0EE0A5F108000A49085C317840EAC6
:10452000811042B2A5F1080006490A5401E04FF09B
:10453000040800BF4046BDE8FC870000106500404D
:10454000FFE0FCFFF42E002010B50446204600F0EA
:1045500031FC08B1012010BD0020FCE770B5164801
:1045600090F8540010B10825284670BD002404E0DE
:10457000204601F0CBFB601CC4B2202CF8DB0024E9
:1045800004E02046FDF7B8FC601CC4B20C2CF8DB3C
:1045900007210620FFF7DAFE4FF4BE7000F064FC3E
:1045A0004FF0004000F07AFC0120034981F85400EC
:1045B00000252846D9E70000A42E0020034890F8E3
:1045C000540008B1012070470020FCE7A42E002011
:1045D000014601F06040B0F1005F01D10120704759
:1045E0000020FCE7027902EB8202064B03EBC201DA
:1045F000026800BF0523C2F8003500BF022281F81F
:1046000022207047442D00202DE9F04706460C4635
:1046100090469946307900EB80001F4901EBC005B8
:1046200095F8220018B108273846BDE8F08708350C
:1046300045F8088C45F8049C0020286068772877A6
:10464000A07BE877083D607B10B1204602F054FC67
:1046500040F20C611148226840F82210626840F86C
:1046600022103068D4E90012C0F80815C0F80C25F3
:1046700000BFA168C0F8241500BF286830B13068B9
:10468000FFF794FE8246217BFFF760FE012085F84C
:10469000220000273846C8E7442D002000070050BC
:1046A000FEB507460C4615461E46074A07CA8DE862
:1046B00007008DF801408DF80260019500226946DF
:1046C000384600F021F8FEBDEC7C02002DE9FE43E7
:1046D00007460C4615461E46DDF82880002000904F
:1046E000019002908DF801408DF802600195B8F1BB
:1046F000000F01D0202000E0002002466946384625
:1047000000F002F8BDE8FE832DE9F04104460E46B4
:1047100015460027207900EB8000094901EBC0080D
:1047200005F0030018B106273846BDE8F0812B4696
:1047300032464046216802F007FE07463846F4E755
:10474000442D00202DE9F04105460E4617462879F4
:104750001C4901EB40144FF00008E07E20B14FF0FF
:1047600008084046BDE8F081707F20773146284632
:10477000FCF7DEF8676030692060606818B1317F4F
:104780002846FEF767F900BF28790E4901EB401073
:10479000007F28B128680821C0F8001500BF05E097
:1047A00028680421C0F8001500BF00BF00BF00202A
:1047B000E0752076A0750120E0760020A0764046C6
:1047C000D0E70000FC2E00202DE9F04704460E46FD
:1047D00017462079304901EB4015207901EB401054
:1047E000007F40B13046FFF7F3FE20B94FF01008CC
:1047F0004046BDE8F0874FF00009686880B1207935
:10480000254901EB4010007F28B14FF40471206866
:1048100000F0E4FD04E04FF40171206800F0ADFD0C
:10482000E87DD0B1287EB0B1686880B120791A499E
:1048300001EB4010007F28B14FF40471206800F0B4
:10484000D0FD04E04FF40171206800F099FD4FF0B5
:1048500011084046CDE74FF00109B9F1000F05D12D
:10486000EF75EE6000206876287601E02E612F76E5
:104870002079094901EB4010007F30B14B463A46A0
:104880003146204600F08AF8B3E74B463A463146B7
:10489000204600F01DF8ACE7FC2E002010B50446C1
:1048A00020790A4901EB4010007F68B9207901EBBB
:1048B0004010807E40B9204601F057FE012021794A
:1048C000024A02EB4111887610BD0000FC2E002048
:1048D0002DE9F05F04468B46994620792E4901EB7D
:1048E0004015A87E28B9B9F1000F02D1204601F089
:1048F0003CFE6868002846D14FF4A271206800F0A1
:1049000030FD00BF00BF4FF49271206800F022FD1F
:1049100080464FF48471206800F01CFD82464FF4FD
:10492000A271206800F016FD0646BAF1000F03D10F
:1049300016B9B8F1000FE6D0B8F1000F00D106B1FA
:1049400007E02946206801F06BFDE87D697E88421A
:10495000D8DC00BF0020E875B8F1000F03D00327B2
:104960003846BDE8F09F16B10F273846F9E7A87E14
:1049700020B10021206800F00FFD03E00421206831
:1049800000F00AFD04E04FF40171206800F0F8FC2B
:1049900000273846E5E70000FC2E00202DE9F05FF7
:1049A00004460D46164699464FF0000A4FF48871AA
:1049B000206800F006FD4FF4A271206800F001FDB0
:1049C0002068C0F834554FF4A7610E5000BFB9F10C
:1049D000000F04D10021206800F00BFD08E0202129
:1049E0002068D0F800220A43C0F8002200BF00BFB0
:1049F00020791B4901EB4010406848BB00BF4FF4D1
:104A00008871206800F0D6FC83464FF4A2712068BC
:104A100000F0D0FC80464FF49271206800F0CAFC90
:104A20000746BBF1000F04D1B8F1000F01D1002FF0
:104A3000E5D0002021790A4A02EB4111C8750FB177
:104A40004FF0030AB8F1000F01D04FF00F0A04E055
:104A50004FF40471206800F0C4FC5046BDE8F09F9C
:104A6000FC2E00202DE9F04104460D4690462079A9
:104A7000144901EB4016207901EB4010007F38B15A
:104A80002846FFF7A5FD18B910273846BDE8F08184
:104A9000204600F09DF810B111273846F6E786F859
:104AA0001680B5600020B0822079064901EB4010E5
:104AB000007F18B1204600F04DF8E7E7204600F0EF
:104AC00003F8E3E7FC2E002070B504462079204966
