:020000040001F9
:10F000003852002015F201001DF201001FF201002C
:10F0100021F2010023F2010025F2010000000000AE
:10F0200000000000000000000000000027F20100C6
:10F0300029F20100000000002BF201002DF2010076
:10F0400091F601002FF20100A5FA0100B1F70100CD
:10F05000C5F701002FF20100A5F301002FF2010016
:10F060002FF201002FF201002FF201002FF2010018
:10F070002FF201002FF201002FF201002FF2010008
:10F080002FF20100E1F601002FF201002FF2010042
:10F09000D9F701002FF20100E1F701002FF2010082
:10F0A0002FF201002FF201002FF201002FF20100D8
:10F0B0002FF201002FF2010000000000000000000C
:10F0C0002FF201002FF201002FF201002FF20100B8
:10F0D0002FF201002FF201002FF2010000000000CA
:10F0E0000000000000000000000000000000000020
:10F0F0000000000000000000000000000000000010
:10F1000000000000000000000000000000000000FF
:10F1100000000000000000000000000000000000EF
:10F1200000000000000000000000000000000000DF
:10F1300000000000000000000000000000000000CF
:10F1400000000000000000000000000000000000BF
:10F1500000000000000000000000000000000000AF
:10F16000000000000000000000000000000000009F
:10F17000000000000000000000000000000000008F
:10F18000000000000000000000000000000000007F
:10F19000000000000000000000000000000000006F
:10F1A000000000000000000000000000000000005F
:10F1B000000000000000000000000000000000004F
:10F1C000000000000000000000000000000000003F
:10F1D000000000000000000000000000000000002F
:10F1E000000000000000000000000000000000001F
:10F1F000000000000000000000000000000000000F
:10F20000DFF80CD000F0BCF800480047052E0200E3
:10F21000385200200648804706480047FEE7FEE7D0
:10F22000FEE7FEE7FEE7FEE7FEE7FEE7FEE7FEE7B6
:10F2300021F8010001F201002DE9F05F05460020F0
:10F2400092469B4688460646814640241BE0284657
:10F2500041464746224600F082F853465A46C01AB5
:10F26000914110D311461846224600F069F82D1A34
:10F2700067EB01084F4622460120002100F060F8AC
:10F2800017EB00094E41201EA4F10104DFDC4846C3
:10F2900031462A464346BDE8F09F000000487047CB
:10F2A000D87A020040EA01039B0703D009E008C9AD
:10F2B000121F08C0042AFAD203E011F8013B00F83B
:10F2C000013B521EF9D27047D2B201E000F8012B87
:10F2D000491EFBD270470022F6E710B513460A46D6
:10F2E00004461946FFF7F0FF204610BD421E12F8F3
:10F2F000013F002BFBD111F8013B02F8013B002B31
:10F30000F9D17047421C10F8011B0029FBD1801A6B
:10F31000704710B5002200E0521C835C8C5CA34255
:10F3200001D1002BF8D1D8B2E1B2401A10BD03468A
:10F3300011F8012B00F8012B002AF9D1184670476B
:10F34000202A04DB203A00FA02F1002070479140A5
:10F35000C2F1200320FA03F3194390407047202A9A
:10F3600004DB203A21FA02F00021704721FA02F36F
:10F37000D040C2F120029140084319467047000076
:10F38000064C074D06E0E06840F0010394E80700F2
:10F3900098471034AC42F6D3FFF736FFDC7D02000D
:10F3A000FC7D02002DE9F04F89B04FF000080020ED
:10F3B00008904FF4807007900126002413E007980E
:10F3C00005F0DCFC48B100BF81480068304020B146
:10F3D000079805F0C5FC48EA060876000798001D66
:10F3E00080B20790641C082CE9D34FF4BE7005F07E
:10F3F000C5FC50B14FF4BE7005F0B2FC48F00048B7
:10F4000008AA0121002005F091FC08F0FF0000B3DC
:10F41000012600241BE006EA0800B0B100BF6D48D9
:10F4200050F82400C0F30420074600BF694850F894
:10F430002400C0F301408146204602F06BFD0546E2
:10F4400015B149463846A84700BF7600641C082C11
:10F45000E1D308F0004000287ED0002006900590FF
:10F46000002505E04FF0FF3004A941F825006D1C90
:10F47000002DF7D000BF0020069000246FE0564812
:10F48000005D0390039820F0C00753480057401CCC
:10F49000002863D004A9384604F0D9FC00285DD0C8
:10F4A00003984FEA901A384602F07CFD814602F03C
:10F4B00031FD0290029810B9BAF1030F4BD1BAF1A5
:10F4C000030F11D1394605A80246CB0801F0070108
:10F4D00012F803C04FF0010E0EFA01FE4CEA0E0CBA
:10F4E00002F803C000BF00BF00BF00BF4FF0A04143
:10F4F000084600F5E06151F82710C1F3014900BF4B
:10F5000008A9384604F0A3FC8346BBF1000F02D0E3
:10F51000B9F1020F05D0BBF1000F1BD1B9F1030FF8
:10F5200018D1BAF1030F0FD1B9F1020F01D10320A5
:10F5300000E0022001903846019905F093FB0698FF
:10F54000401CC0B2069000BF029818B15146384620
:10F55000029A904700BF00E036E000BF641C042C14
:10F560008DD3069858B3012703AA0121002005F086
:10F57000DDFB00250AE003A850F8250008A951F892
:10F580002510884201D0002702E06D1C002DF2D02A
:10F5900000BF17B10020069010E000250CE003A882
:10F5A00050F8250008A941F8250005A850F82500C5
:10F5B00004A941F825006D1C002DF0D000BF06986D
:10F5C00000287FF458AF00BF09B0BDE8F08F0000FD
:10F5D0000463004010650040AC2C002001460A295D
:10F5E00003DA01F13002D0B202E001F13702D0B209
:10F5F0007047000000F01F0201219140024A4309B8
:10F6000042F823107047000080E200E000F01F0283
:10F6100001219140024A430942F82310704700003B
:10F6200080E100E000F01F020121914042099200B8
:10F6300002F1E022C2F80011704700F01F02012120
:10F6400091404209920002F1E022C2F80011704795
:10F6500000F01F0201219140024A430942F82310A1
:10F660007047000000E200E010B5002807DA4A0702
:10F67000140E054A00F00F031B1FD45403E04A0781
:10F68000130E024A135410BD18ED00E000E400E030
:10F6900010B54FF4807004F06BFC60B14FF48070D3
:10F6A00004F06FFC012004F075FC01200B49487048
:10F6B000002002F07DFC4FF4827004F059FC58B138
:10F6C0004FF4827004F05DFC022004F063FC012022
:10F6D0000249887002F06CFC10BD0000482C00202C
:10F6E00010B500200949086000210948C0F84411FC
:10F6F000C0F84811C0F84C1100200549C1F80001BC
:10F7000002493C39086007F0C9F910BD40110140B9
:10F710000010014010B500BF0348007808B900F0A0
:10F72000D3F900BF10BD0000C03100202DE9F04723
:10F73000074688461646C24607EB47011B4800EBC2
:10F74000C109D9F8140020B1012811D0022826D10E
:10F750001EE0484600F0F0F90546B54201D200240B
:10F7600005E0344632465146484600F02CFA18E08F
:10F77000484600F0E1F90546B54201D2284600E0CE
:10F780003046044622465146484600F01CFA08E03E
:10F7900032465146484600F0DDF9044601E00024B7
:10F7A00000BF00BF2046BDE8F0870000D831002030
:10F7B00010B50249024803F0C5F910BDFC2A00202B
:10F7C0000030004010B503494FF0402003F0BAF973
:10F7D00010BD0000242B002010B507F069F810BD03
:10F7E00070B50A48006868B1084800688047044658
:10F7F00000BF254625B100BF284600F0B9FE00BF76
:10F8000000BF01E003F0E0F870BD0000B02600206A
:10F8100001480249086070470090D003C8260020C4
:10F8200010B502F0FBFD28B18E480088C0F304201B
:10F830008D49086002F046FE10B18C488C4948673B
:10F8400002F058FE30B18748E0380068C0F342301B
:10F850008849086002F078FE28B18748006820F0E7
:10F8600080708549086002F087FE48B10020834916
:10F8700008604FF08041C1F810017E49091F0860FF
:10F8800002F0A4FE18B103207A496431086002F046
:10F89000B5FE68B105207A490860012078497831C1
:10F8A000086000207649083108603F20091F086081
:10F8B00002F0BCFE002855D06A48E030006871496B
:10F8C00008606848E4300068091D08606548E83051
:10F8D0000068091D08606348EC300068091D086075
:10F8E0006048F0300068091D08605E48F430006828
:10F8F000091D08605B48F8300068624920310860E3
:10F900005848FC300068091D08605F480068091D00
:10F9100008605D48001D0068091D08605A480830ED
:10F920000068091D086058480C300068091D08600F
:10F93000554810300068534940310860524814302F
:10F940000068091D0860504818300068091D0860EB
:10F950004D481C300068091D08604B482030006885
:10F96000091D086002F030FD30B13E48CC38006817
:10F9700000F04F004549086002F07AFD40B144486C
:10F98000006800F0010018B16FF001004049086004
:10F9900039487438006840F4700037497439086099
:10F9A00000BF00BF00BFBFF34F8F00BF00BF00BF4D
:10F9B00000BF00BF00BFBFF36F8F00BF00BF00BF1D
:10F9C0003448006800F0004028B93248001D006843
:10F9D00000F00040F0B301202F49086000BF2F481D
:10F9E00000680028FBD015202A49086000BF2B487A
:10F9F00000680028FBD015212648001D016000BFCB
:10FA0000264800680028FBD000202349086000BF7A
:10FA1000224800680028FBD000BF00BF00BF00BF25
:10FA200000BFBFF34F8F00BF00BF00BF1248F038C8
:10FA3000006800F4E0601A490843001D0E49F039DF
:10FA4000086000BF00BF00BFBFF34F8F00BF00BF03
:10FA500000BF00E002E000BF00BFFDE7FFF7D8FEF7
:10FA600010BD000024030010403501400DF0ADBA78
:10FA700000C007403C050040FCED00E00C010040E8
:10FA80001056004020C5004024040010E40E004041
:10FA9000000400400012001004E5014000E40140B1
:10FAA0000000FA0510B50648007F20B1044905485A
:10FAB00007F05DFD03E00249024807F0B7FC10BD06
:10FAC000B42C00200020004010B5124C0220206110
:10FAD000606111A0A0611349E1614FF400712162DE
:10FAE0000021A1626162E1620BA0A0640E49E164A1
:10FAF000102121650021A1656165E1650BA1E01D73
:10FB0000FFF715FC0AA12046FFF711FC2020A07189
:10FB100010BD0000C03100205465726D696E616CCB
:10FB200000000000B02F0020B031002052545400DB
:10FB3000534547474552000010B501460A69CB6856
:10FB40009A4204D88C68641EE41AA01801E0D41A02
:10FB5000601E10BD2DE9F0470446894617464FF058
:10FB6000000AE56800BFD4F81080A84503D9A8EBC7
:10FB70000500461E04E0A5EB0800401CA1680E1A13
:10FB8000A068401BB04201D9304601E0A068401B8C
:10FB90000646BE4201D2304600E03846064661685D
:10FBA000481932464946FFF77DFBB244B144BF1BBA
:10FBB0003544A068A84200D10025E560002FD2D1CD
:10FBC0005046BDE8F0872DE9F047044689461546C2
:10FBD000E668A068871BAF4208D9616888192A4681
:10FBE0004946FFF75FFB7019E06010E0B8466168B6
:10FBF000881942464946FFF755FBA5EB070809EB74
:10FC0000070142466068FFF74DFBC4F80C80BDE871
:10FC1000F08700000FB4054B10B503A9044A029801
:10FC200000F04EF810BC5DF814FB00004F270200F6
:10FC30009C2600200FB41CB50A46521ECDE90002D6
:10FC400007A9054B6A46069800F03AF8009A002189
:10FC500011701CBC5DF814FB2301020002E008C80F
:10FC6000121F08C1002AFAD170477047002001E036
:10FC700001C1121F002AFBD1704700000146202954
:10FC800008DA012088400A4A104008B10120704774
:10FC90000020FCE7402909DAA1F12000012202FA44
:10FCA00000F008B10120F2E70020F0E70120EEE7C4
:10FCB000FC06FFBD00BFEFF31081084672B6704727
:10FCC0002DE9FF4F8DB00F460546002606E025289A
:10FCD0000BD0DDE90F1290476D1C761C28780028A8
:10FCE000F5D111B03046BDE8F08F0024A246A14600
:10FCF0000122EC4900E0044315F8013F203B02FAE1
:10FD000003F00842F7D128782A2810D06FF02F028C
:10FD10002878A0F13001092914D80AEB8A0102EBF6
:10FD2000410144F0020400EB010A6D1CF0E701CF31
:10FD30005FEA000A03D544F40054CAF1000A44F013
:10FD400002046D1C28782E2817D115F8010F44F0F5
:10FD500004042A280ED06FF02F022878A0F1300179
:10FD600009290AD809EB890102EB410100EB0109DD
:10FD70006D1CF2E757F8049B6D1C28786C280FD097
:10FD800006DC4C2817D068280DD06A2814D104E06E
:10FD9000742810D07A280FD10DE044F400140AE042
:10FDA00044F4801401E044F440146978814202D1A3
:10FDB00004F580146D1C6D1C2A786E2A1FD00CDC93
:10FDC000632A31D004DC002A8BD0582A11D1A3E059
:10FDD000642A68D0692A0CD165E0732A2ED004DC2D
:10FDE0006F2A73D0702A04D19BE0752A6FD0782ACD
:10FDF0006ED01046DDE90F129047761C50E1C4F337
:10FE00000250022806D0032809D0042801CF09D0C7
:10FE1000066045E101CFF117C0E9006140E101CF83
:10FE200006803DE106703BE117F8040B8DF80000F9
:10FE300000208DF80100EB46012003E057F804BBD9
:10FE40004FF0FF3061074FF0000102D40DE008F1E0
:10FE50000101884649450FDA8045F8DB1BF8081098
:10FE60000029F4D108E008F1010188468142FADB5B
:10FE70001BF808100029F6D1DDE90F23AAEB0800D2
:10FE80008146214600F036F9304400EB080604E0D4
:10FE9000DDE90F121BF8010B9047B8F10108F7D20A
:10FEA00021464846F7E00A21C4F302534FF0000B05
:10FEB0000891022B04D001CFC117032B09D00AE00F
:10FEC000FF1D27F00707F7E8020108E032E01FE016
:10FED00020E000B2C117042B01D140B2C117031EAC
:10FEE00071F1000307DA4FF0000CD0EB0C006CEB63
:10FEF00001012D2302E0230504D52B238DF82430A6
:10FF0000012303E0E30701D02023F7E7984658E0F8
:10FF10000A2110E010210EE010204FF0000B089095
:10FF20000CE010214FF0000B44F004044FF00809DE
:10FF3000089103E008214FF0000B0891C4F302532D
:10FF4000022B04D001CF0021032B06D006E0FF1DB9
:10FF500027F00707F7E8020103E080B2042B00D185
:10FF6000C0B24FF0000823072BD5702A07D0DDF868
:10FF700020C08CF0100C5CEA0B0C05D00EE0402386
:10FF80008DF82430012308E050EA010306D0302325
:10FF90008DF824308DF8252002239846DDF820C006
:10FFA0008CF0080C5CEA0B0C0BD150EA010301D178
:10FFB000630706D530238DF824304FF00108A9F1EE
:10FFC0000109582A04D038A20B9208AA0A920BE021
:10FFD0003AA2F9E75B46089AFFF72EF90B9B9B5C68
:10FFE0000A9A521E0A92137050EA0102F2D10A983C
:10FFF000ADEB000000F1200B600702D524F4803443
:020000040002F8
:1000000001E04FF00109D94502DDA9EB0B0000E04A
:10001000002000EB0B0141440890AAEB010AE00329
:1000200006D4DDE90F232146504600F063F806446C
:100030004FF0000908E009A911F80900DDE90F12E5
:10004000904709F10109761CC145F4DBE0030CD5AA
:10005000DDE90F232146504600F04CF8064404E049
:10006000DDE90F1230209047761C0899481E089051
:100070000029F5DC08E00A980A990078491C0A91E1
:10008000DDE90F129047761CBBF10001ABF1010BCB
:10009000F1DC21465046DDE90F2300F019F8064453
:1000A0006D1C1BE6092801003031323334353637F8
:1000B00038396162636465660000000030313233B4
:1000C0003435363738394142434445460000000054
:1000D0002DE9F041044600251E461746880404D445
:1000E00005E039462020B0476D1C641EF9D528462E
:1000F000BDE8F0812DE9F041044600251E469046FA
:10010000C80301D5302700E02027880404D505E086
:1001100041463846B0476D1C641EF9D52846BDE8F7
:10012000F0814A68002A06D00A68531C0B601070E0
:100130004868401E486070470246002104E0505C59
:1001400008B101207047491C0629F8D30020F9E7BF
:100150002DE9FC41044688461646002537880020D4
:10016000308094F82D0058B13A463146404600F0B0
:10017000B4FE054600BF15B12846BDE8FC8100BFAE
:10018000A07850B13A463146404600F0A7FB0546FC
:1001900000BF0DB12846F0E700BFE07860B1E1781C
:1001A00048B23B463246414602F0ACFA054600BF33
:1001B0000DB12846E1E700BF606868B1616891F958
:1001C00000003B463246414607F020F8054600BF96
:1001D0000DB12846D1E700BF208900280EDD434637
:1001E0000622022104F10800CDE9006707F0BEFAFB
:1001F000054600BF0DB12846BFE700BF208A002892
:100200000EDD43460722032104F11000CDE900670B
:1002100007F0ACFA054600BF0DB12846ADE700BFB8
:10022000208B00280EDD43461522142104F118000E
:10023000CDE9006707F09AFA054600BF0DB12846E0
:100240009BE700BF206A58B13B4632464146206AD0
:1002500001F03BFF054600BF0DB128468DE700BF0A
:10026000606A58B13B4632464146606A02F01EFE63
:10027000054600BF0DB128467FE700BF94F82C006B
:1002800000280BDD3B4632464146204606F0C4F8C6
:10029000054600BF0DB128466FE700BF207858B172
:1002A0003B4632464146204603F070FD054600BFFE
:1002B0000DB1284661E700BF28465EE770B50446E9
:1002C0001448FFF739FF0546012C06D0022C0BD04D
:1002D000032C10D0042C1AD113E00F48407810B131
:1002E0000DB1012070BD00BF0B48807810B10DB179
:1002F0000220F7E700BF0848C07808B10320F1E703
:1003000000BF0548007908B10420EBE700BF0020DA
:10031000E8E7000032260020582B00200146481C48
:10032000052290FBF2F302FB1300C0B270470146B6
:10033000C87800F0040008B9072070470020FCE7E7
:1003400010B501220221002001F07EFA044600BF10
:100350001CB1072C01D0204610BD00BF072202218E
:10036000012001F071FA044600BF1CB1072C01D036
:100370002046F1E700BF0A220021084601F064FA96
:10038000044600BF1CB1072C01D02046E4E700BFA3
:100390000020E1E730B5A7B03C2118A8FEF79BFF8D
:1003A00002208DF8600000208DF8620005208DF895
:1003B00063003C2109A8FEF78EFF0120ADF8340050
:1003C00011490E91202101A8FEF785FF01208DF82B
:1003D000070040200590B420069000200B4B01AA96
:1003E00009A9009018A800F065FB044600BF254647
:1003F00025B100BF284600F0BBF800BF00BF0120B8
:1004000000F052FB27B030BDFA250020C153020096
:1004100010B50446022001F05BF810BD10B50024B1
:1004200007E00749096811F83400012103F044FF8F
:10043000641C044800788442F3D3002010BD0000FF
:1004400064260020682600202DE9F84306460C4665
:100450001746052F02D20720BDE8F88304F02AF8DA
:1004600038B903F0F7FF054600BF0DB12846F3E7A2
:1004700000BF164806601648047016480760002042
:10048000154908601549086015E006EBC4081448D2
:100490000068009098F802008DF8010098F80000BC
:1004A000104A694603F05EFF054600BF0DB12846BD
:1004B000D2E700BF00BF201EA4F10101CCB2E4D1FD
:1004C000094A0021094800F093F8C5E76426002096
:1004D000682600206C26002070260020742600204C
:1004E000087A0200A5280200BD220200047A020058
:1004F00012A1012004F02DFE14A1032004F029FE16
:1005000000BF00BF00BF00BF00BFBFF34F8F00BFE1
:1005100000BF00BF1448006800F4E06013490843BE
:10052000001D1149086000BF00BF00BFBFF34F8F1F
:1005300000BF00BF00BF00BF00BFFDE73A455252F9
:100540004F523A466174616C0D0A00003A494E46BA
:100550004F3A486974207765616B2068616E646CFE
:1005600065720D0A000000000CED00E00000FA05C5
:100570003EB50446002000900190029002946A4625
:10058000002144F20100FFF7B3FF3EBD70B5044601
:100590000D46204602F09AF828B12946204602F07E
:1005A00089F8002070BD0520FCE7034609B90E203C
:1005B000704712B1501E104008B10920F8E71960C9
:1005C000501E988000209860D86000BFF0E770B59A
:1005D00004460D46204602F079F8A188884205D8E5
:1005E0002946204602F085F8002070BD0420FCE773
:1005F00010B503460C4600BF0B48807808B90820A8
:1006000010BD00BF0AB90720FAE70BB90720F7E7CA
:100610001868007C08B10820F2E719680020087407
:100620004C744A6100BFEBE7F42C002010B505F0D4
:1006300057FD00200F49087048700B20887000207B
:100640000D4908600D4908700D4908701420FEF727
:10065000D1FF07211420FFF707F81420FEF7E2FF6F
:10066000002005F013FD05F00BFD06490860002091
:1006700010BD0000F42C00207826002088260020E1
:10068000892600207C2600202DE9F04104460E46F4
:100690001746254600BF1048807810B90820BDE8ED
:1006A000F08100BF0CB90820F9E7052E01D2072020
:1006B000F5E7686908B90820F1E7687C012801D1ED
:1006C000304600E0002080463B4642463146284600
:1006D00006F094F9E3E70000F42C002070B504461E
:1006E000254600BF0848807808B9082070BD00BFC3
:1006F0000CB1686908B90820F8E7002028740221C5
:10070000284606F0AAF9F1E7F42C00202DE9F04183
:1007100004460F48077821460E48FFF737FF80460A
:1007200097B100200A49087001220B490B4803F0D9
:10073000C7FF054600BF2E4626B100BF3046FFF773
:1007400017FF00BF00BF00BF4046BDE8F0810000BA
:100750009A260020002E0020992600208C260020BA
:100760002DE9F04188B004460D46174698462E48BC
:1007700007601DB9072008B0BDE8F081A88882B2E3
:100780002A482968FFF711FF064600BF0EB1304620
:10079000F1E700BFA88982B22548A968FFF705FFE5
:1007A000064600BF0EB13046E5E700BF20222149D2
:1007B0006846FEF777FD60690690207C08B101204D
:1007C00000E000208DF814008DF81C80607C08B1DA
:1007D0000E2000E000208DF81500E0680290A0686F
:1007E00003902068019060680090134A694613489E
:1007F00003F024FF064600BF0EB13046BBE700BF42
:1008000000200F4908702068401C58B19DF81D0059
:1008100010B90A4803F0BEFF01220A49074803F055
:100820004FFFA8E70020A6E794260020002E002016
:10083000102E00200C7A0200ED7202008C2600209F
:100840009A2600209926002070B5044621460B48C0
:10085000FFF7BDFE054675B9094804F035F950B9F2
:1008600008490648FFF792FE28B9012205490448C5
:1008700004F074F80546284670BD0000102E0020D4
:100880008C2600209826002010B50446204605F04E
:100890004FFD10BD70B5044625460E488068B0B1C6
:1008A000ADB9FFF707FA06460A4800680A4908602A
:1008B000084840684FF0E021C1F8040100200549D4
:1008C00088601EB900BF62B600BF00BF00BF00BF96
:1008D00070BD0000202E002000E100E0F8B50546C4
:1008E0000C4617462088001DB84201D90C20F8BDDF
:1008F000684679DF064600BF0EB13046F7E700BF15
:100900000320218868542088401C208019202188D9
:1009100068542088401C208020884119BDF80000C0
:1009200006F0B1FE2188084420800020DFE70000A7
:1009300070B505460C462068401C28B1206804F0BC
:10094000CCF9206804F069F96068401C18B10021F6
:10095000606804F055F928792D4901EB4010007FBB
:1009600050B32868A169C0F8241500BF617D227DBD
:10097000286841EA0203C0F86C3500BFD4E90012D0
:10098000286804F0B5FC207D01283FD1A068401CF8
:1009900018B10021A06804F033F9E068401C28B1C8
:1009A000E06804F09AF9E06804F037F9D4E902212C
:1009B000286804F089FC29E02868A169C0F824159A
:1009C00000BF617D227D286841EA0203C0F86C35D2
:1009D00000BFD4E90012286804F05DFC207D0128E6
:1009E00014D1A068401C18B10021A06804F008F9D7
:1009F000E068401C28B1E06804F06FF9E06804F09A
:100A00000CF9D4E90221286804F02EFC70BD000026
:100A1000B42C00202DE9F04192B080460D461F20F5
:100A200011901090B8F1000F17D04046FFF77FFCEF
:100A3000044600BF1CB1204612B0BDE8F08100BFE3
:100A400011AA08A94046FFF783FB044600BF0CB17A
:100A50002046F1E700BF08AE02E00026002011901A
:100A6000ADB1284605F0FEFE044600BF0CB120469D
:100A7000E2E700BF10AA69462846FFF769FB044673
:100A800000BF0CB12046D7E700BF6F4602E0002749
:100A900000201090BDF84000C3B2BDF84400C1B2C0
:100AA0003A46304672DFC7E70149087070470000D8
:100AB000302600202DE9F04704460F4615461E4615
:100AC000DDF8208004B115B90E20BDE8F0870120C3
:100AD00049490870002049490870202229464848A1
:100AE000FEF7E0FB0020474908704748066047488A
:100AF000C0F800804FF6FF70454908804548002146
:100B00000160818081713C214348FEF7E4FB20783D
:100B100041490870A0788870E078C87060784870A3
:100B20000846D4E90412C0E90412D4E90212C0E96B
:100B30000212D4E90612C0E90612606AD8B1374839
:100B40003549486236498160606A00883249496A9D
:100B50000880606A80883049496A8880002005E002
:100B6000616A8968095C2E4A1154401C2A49496A05
:100B700089888142F4D8A06A20B32A492A48816032
:100B80002549886227492448806A8160A06A808854
:100B90002149896A8880A06A00881F49896A08807B
:100BA000002005E0A16A8968095C1E4A1154401CB6
:100BB0001949896A89888142F4D894F82C00164929
:100BC00081F82C00206A58B1184813490862206A3D
:100BD0004088096A4880206A00880F49096A0880AD
:100BE000606810B10C496068486039460A48FFF7F0
:100BF00011FF8146484668E72C2600202F2600205A
:100C0000582B0020302600204026002044260020BB
:100C10003E26002031260020782B0020B42B002017
:100C2000C02B0020EC2B0020E02B00203A260020D7
:100C300010B504462088102804D0112806D01B289F
:100C40000CD107E0204604F019FD08E0204604F02E
:100C500033FE04E0204604F0F5FE00E000BF00BFD4
:100C600010BD000010B574DF01200F49087000208E
:100C70000E49087006200E49C87000210C48FFF785
:100C8000C9FE04460CB1204610BD0A48007800F0A9
:100C900015F8044634B10848006818B120460649E2
:100CA000096888470020EFE7482600204A260020F0
:100CB000782B00202F260020442600207FB50546F3
:100CC0004E48007810B9082004B070BD4C4805703B
:100CD00001F033FD20B101204A4908700020F3E7FC
:100CE000494800210160818081714848407818B1ED
:100CF0004348007801280DD04448807818B1404816
:100D00000078012806D04148807888B13C480078B6
:100D100002280DD13E48006838B101203D490870D5
:100D200008203B490968884702E0002039490870DB
:100D30002846FFF7C3FA3249087035480068C0B149
:100D400008460078032803D008460078042810D10C
:100D50002E48007868B13048007850B900202F49FB
:100D6000087001202E490870072029490968884722
:100D700002E000202A4908700020009001900290B3
:100D800003908DF800008DF808001D4800780528B4
:100D90001CD2DFE800F01703080D1200684605F0CA
:100DA000BFFB044613E0684605F0CAFB04460EE0AC
:100DB000684605F0DBFB044609E0684605F006FCE2
:100DC000044604E000201749087000E000BF00BF9F
:100DD0000B48007838B114480178684673DF044640
:100DE0000CB1204670E70A48006820B10D48007831
:100DF000074909688847002066E700002C26002084
:100E00002F2600202D26002031260020582B0020E0
:100E10004026002038260020482600204A260020B0
:100E2000492600202E2600203026002070B50546D9
:100E30001C2229461248FEF735FA00201149087095
:100E4000286850B1104829680A6802604968416002
:100E50007ADF04463CB1204670BD0B487BDF044678
:100E60000CB12046F8E74FF6FF70084908800020D3
:100E700007490870074A00210748FFF7B9FBEBE76D
:100E80000C2C0020602600204C2600205626002036
:100E900054260020957602009079020010B5044691
:100EA0002088102806D0112808D012280ED05028EB
:100EB00010D107E0204604F0C1FB0CE0204604F00E
:100EC000D7FC08E0204604F023FE04E0204604F0AE
:100ED000A5FB00E000BF00BF10BD2DE9FC410546A9
:100EE0000C46174620880930B84202D90C20BDE8CC
:100EF000FC8168466DDF064600BF0EB13046F6E75E
:100F000000BF0820218868542088401C20801B20B6
:100F1000218868542088401C208020882844DDF8DF
:100F200001100160BDF8051081802088801D20809F
:100F30009DF80000400818B900202188685402E09C
:100F40000120218868542088401C20800020CEE7A2
:100F500070B505460C46207800280DD0012806D033
:100F600002280ED10AA1032004F0F3F80EE016A126
:100F7000032004F0EEF809E02149032004F0E9F829
:100F800004E020A1032004F0E4F800BF00BF70BD1E
:100F90006D66726336333020202020203A494E4659
:100FA0004F3A496E6469636174696F6E20666F724F
:100FB00020424C455F444655206973206469736143
:100FC000626C65642E0D0A006D66726336333020E4
:100FD000202020203A494E464F3A496E64696361A9
:100FE00074696F6E20666F7220424C455F444655AF
:100FF00020697320656E61626C65642E0D0A0000C5
:10100000DC7A02006D6672633633302020202020A7
:101010003A494E464F3A556E6B6E6F776E20657645
:10102000656E742066726F6D20626C655F646675B4
:101030002E0D0A0070B586B004460E461F4B0FCB2E
:1010400001AD0FC500BF14B90E2006B070BD00BFC2
:1010500000BF0EB90E20F8E700BF4FF6FF70A0806A
:101060003068206100202075A07300BF01208DF83A
:1010700016004FF65960ADF8140000BFA21C05A978
:101080000120A0DF054600BF0DB12846DDE700BF07
:10109000214601A862DF054600BF0DB12846D4E70E
:1010A00000BF3146204600F03DFE054600BF0DB1B1
:1010B0002846CAE700BF0020C7E700008079020089
:1010C00070B505460C4600BF05B970BD00BF00BF36
:1010D00004B9FAE700BF2088502819D004DC102892
:1010E00007D011281ED109E051280CD0532819D15E
:1010F00013E02146284604F09DFA14E021462846D4
:1011000004F0ACFB0FE02146284604F07CFC0AE02A
:101110002146284604F0B2FC05E02146284604F0AA
:1011200065FC00E000BF00BF00BFCEE710B504467D
:101130002046FFF7B3FE21460A4802F0BDFE2146D5
:10114000094800F05FF8204604F054F92046FFF704
:101150006FFD204600F054FA21460448FFF7B0FF27
:1011600010BD000000270020CC260020E82600202B
:1011700070B586B004460E46214B0FCB01AD0FC5AE
:1011800000BF14B90E2006B070BD00BF00BF0EB97D
:101190000E20F8E700BF4FF6FF70A0823068A06114
:1011A0000020A075214601A862DF054600BF0DB1F1
:1011B0002846E8E700BF20788DF816000120ADF83A
:1011C0001400A21C05A9A0DF054600BF0DB12846EA
:1011D000D9E700BF3146204604F0CDFF054600BFE9
:1011E0000DB12846CFE700BF3146204605F063FF2A
:1011F000054600BF0DB12846C5E700BF0020C2E785
:10120000AC79020070B505460C4605B104B970BD55
:101210002088102804D0112807D050280FD109E0C9
:101220002146284604F026FA0AE02146284604F022
:101230003FFB05E02146284604F090FC00E000BF9B
:1012400000BF00BFE3E737B584B004460D4600BFDA
:1012500014B90E2007B030BD00BFA08A4FF6FF7151
:10126000884201D0A07D08B90820F3E7BDF8180036
:101270009B2801DD0720EDE70020009001900290FF
:101280000390A088ADF80000039506A80290012005
:101290008DF80200A08A6946A6DFDBE770B5044638
:1012A000204606F0EAF90546C5F3400070BD70B56A
:1012B0000446204606F0E1F9054605F0010070BD40
:1012C00070B586B046480068059000BF0023D8225C
:1012D000444905A805F070FA054600BF2E4626B120
:1012E00000BF3046FFF744F900BF00BF00BF002039
:1012F000049004A805F0C0F9044600BF254625B1B6
:1013000000BF2846FFF734F900BF00BF002001905E
:101310000290039001208DF8040000208DF8050054
:101320008DF8060001A94020049A69DF044600BF39
:10133000254625B100BF2846FFF71AF900BF00BFB8
:10134000002001900290039001208DF804009E205F
:10135000ADF8060001A92320049A69DF044600BF06
:10136000254625B100BF2846FFF702F900BF00BFA0
:10137000002001900290039001208DF804004FF4AA
:10138000A071ADF808108DF8060001A92020049A7C
:1013900069DF044600BF254625B100BF2846FFF798
:1013A000E7F800BF00BF04A805F07CF9044600BFC1
:1013B000254625B100BF2846FFF7DAF800BF00BF79
:1013C000094805F063F9044600BF254625B100BF72
:1013D0002846FFF7CDF800BF00BF06B070BD000083
:1013E000B87802001C2700202D11020010B54FF024
:1013F000FF3100203BDF044600BF0CB1204610BD8A
:1014000000BFB12100203ADF044600BF0CB12046E6
:10141000F5E700BF11DF044600BF0CB12046EEE740
:1014200000BF4FF01021486913DF044600BF0CB124
:101430002046E4E700BF162001218140124A4309FB
:1014400042F8231000BF01F01BFB00BF00BF00BF2C
:1014500000BF00BFBFF34F8F00BF00BF00BF0B48EE
:10146000006800F4E0600A490843001D074908606D
:1014700000BF00BF00BFBFF34F8F00BF00BF00BF62
:1014800000BF00BFFDE7000080E200E00CED00E0DF
:101490000000FA0501460148405C704700790200EF
:1014A00010B50146094B585C00BF4FF0A0442346DD
:1014B00000BFD3F81045C44004F001040CB1012072
:1014C00000E00020024682F0010010BD0079020019
:1014D00010B502460949885C00BF4FF0A044214680
:1014E000D1F80435012484409C43C1F80845012407
:1014F00084401C40C1F80C4500BF10BDFC780200C0
:1015000010B504460249085D012103F0F1FB10BD4E
:10151000FC78020010B504460249085D002103F082
:10152000E7FB10BDFC78020010B50146094B585C82
:1015300000BF4FF0A044234600BFD3F80445C44089
:1015400004F001040CB1012000E00020024682F00A
:10155000010010BDFC7802007CB500240CE00948B5
:10156000055D0020009003460122114601902846A7
:1015700003F0FEFA00BF641C042CF0D300F004F862
:101580007CBD0000FC78020010B5002403E020467A
:10159000FFF7B6FF641C042CF9D310BD10B500246E
:1015A00003E02046FFF7B6FF641C042CF9D310BDFE
:1015B00002464FF0FF30002106E0054B5B5C934292
:1015C00001D1084602E0491C0429F6D300BF704748
:1015D0000079020070B505460C46002606480560F5
:1015E00014B1204605F045F90448006810B9FEF72B
:1015F000A7FE0646304670BD202600202426002087
:1016000070B505462888102802D011282CD115E085
:101610001748006860B900F005FE044600BF34B109
:101620001448006818B1204612490968884700BF6D
:101630000F480068401C0E49086016E00C4800681E
:10164000401E0B4908600846006860B9FEF778FE46
:10165000044600BF34B10748006818B12046054968
:101660000968884700BF00E000BF00BF70BD0000F0
:10167000242600202026002010B5002000F036FB94
:10168000044600BF1CB1062C01D0204610BD00BF8F
:10169000012000F02BFB044600BF1CB1062C01D03A
:1016A0002046F3E700BF0020F0E700002DE9F041FD
:1016B00006460F464FF0000800243046FFF778FF3B
:1016C0000446042C3ED20FB3012F02D0022F38D192
:1016D00030E004EB4400214911F8008004EB4400A1
:1016E0000844407850B11E4A4FF400411D4800683C
:1016F000FEF7CAFF05460DB91948067004EB440011
:10170000164908448078184908551AE015480068B9
:10171000FEF7E4FF1448005D04EB44010F4A114456
:101720008978884205D104EB44001146084490F8BA
:10173000028006E004EB44000849084490F8018068
:1017400000BF00BFB8F1000F06D00848006818B10C
:101750004046064909688847BDE8F081D02A002044
:10176000182600200C7902001926002014260020DB
:1017700010B504462046FFF793FE10BD2DE9F04159
:1017800007460A2F0AD004DC042F0AD0072F54D1B1
:101790001AE00E2F2FD00F2F4FD13DE004F046FF5F
:1017A0004CE013212748008876DF0446082C0AD035
:1017B00000BFA046B8F1000F04D000BF4046FEF7BE
:1017C000D7FE00BF00BF39E01E4800884FF6FF710A
:1017D00088420FD1FFF746FA0446082C0AD000BF12
:1017E000A046B8F1000F04D000BF4046FEF7C0FE8F
:1017F00000BF00BF22E000250AE001F011FC064610
:10180000012E00D106E0322002F0CAFB681CC5B2EE
:10181000142DF2DB00BF00BF00250AE001F000FC40
:101820000646012E00D106E0322002F0B9FB681C0A
:10183000C5B2142DF2DB00BF00E000BF00BFBDE861
:10184000F0810000F825002030B503460020042B6D
:1018500023D2012A07D1012903D103F10E04E4B2F6
:1018600000E00024224679B1012902D0022911D1D9
:1018700004E003EB43040A4D2A550DE003EB430457
:10188000074D2C44627007E003EB4304044D2C44E5
:10189000A27001E0072000BF00E0072030BD00007B
:1018A000D02A002070B5044600250548007800F0D5
:1018B000010018B1204600F05BF80546284670BDCF
:1018C0000C2600202DE9F04105460F4600241F4854
:1018D00005601F48076005F0020000B3002606E01F
:1018E000012211463046FFF7AFFF0446761C042E56
:1018F00001D2002CF4D034B940F2666204211548BC
:10190000FEF7A2FD044614B9FEF788FD04462CB983
:10191000114A00211148FEF76BFE044600BF05F096
:10192000010008B1FFF718FE2CB90D4A00210D483F
:10193000FEF75EFE04462CB90B4A01210B48FEF768
:1019400057FE04462046BDE8F08100000C2600202A
:101950001426002010790200171D02000C790200E5
:10196000712C0200047902001104020008790200BF
:101970002DE9F047044600260025D748007820B11D
:101980000020D549087001F05FF9182C79D2DFE802
:1019900004F00C11124579ADF1FFEEEDECEBEAE944
:1019A000E8E7E6E5E4E3E2E1E0DF01F04DF9CB480A
:1019B00004708DE100BF0020FFF7B6FD58B1002094
:1019C000FFF79EFD022C02D14FF4E16001E04FF4DD
:1019D0007A60054609E00020FFF79CFD022C01D14A
:1019E000C82001E04FF4C8700546BC4804704FF4AD
:1019F0000040A5FB00204FF4FA73D71840F1000116
:101A00005A0000233846FDF717FC8146002249465C
:101A1000B3480068FEF738FE064659E10020FFF79C
:101A200083FD58B10020FFF76BFD032C02D14FF46A
:101A3000487001E04FF47A60054609E00020FFF7A6
:101A400069FD032C01D1C82001E04FF4C8700546A0
:101A5000A24804704FF40040A5FB00204FF4FA7335
:101A6000D71840F100015A0000233846FDF7E4FB87
:101A70008146002249469A480068FEF705FE064660
:101A800026E124E10020FFF74FFD58B10020FFF7C9
:101A900037FD042C02D14FF47A6001E04FF47A60F4
:101AA00005460AE00020FFF735FD042C02D14FF473
:101AB000C87001E04FF4C8700546884804704FF4C0
:101AC0000040A5FB00104FF4FA73CF1840F100015D
:101AD0005A0000233846FDF7AFFB814600224946F5
:101AE0007F480068FEF7D0FD0646F1E00020FFF7D2
:101AF0001BFD50B10020FFF703FD052C01D1C820CC
:101B000001E04FF47A60054609E00020FFF702FD8E
:101B1000052C01D1C82001E04FF4C87005466F487C
:101B200004704FF40040A5FB00204FF4FA73D7185F
:101B300040F100015A0000233846FDF77DFB814645
:101B40000022494666480068FEF79EFD0646BFE053
:101B5000B8E0B6E0AAE0A1E098E092E05FE05DE0E6
:101B60005BE059E057E051E042E033E024E015E06B
:101B70000EE0FFE70020FFF7ABFC5848047000229E
:101B800040F6CD4156480068FEF77EFD06469FE0D0
:101B90000020FFF7BFFC5148047099E001204E4936
:101BA0000870FFF795FC002240F6CD414C480068D4
:101BB000FEF76AFD06468BE0012047490870FFF7F3
:101BC00087FC00224FF4804145480068FEF75CFD29
:101BD00006467DE0012040490870FFF779FC0022AD
:101BE00040F6CD413E480068FEF74EFD06466FE0E8
:101BF000012039490870FFF76BFC00224FF4804147
:101C000037480068FEF740FD064661E0FFF7C6FC76
:101C1000324804705CE000BF00BF00BF00BF314825
:101C20000068FEF75BFD0646C4F1110515B30EBB57
:101C3000012D18D9A8B2C82148434FF4004180FBB8
:101C400001304FF4FA729F1840F100015200002356
:101C50003846FDF7F1FA81460022494621480068DE
:101C6000FEF712FD06460220FFF754FC01201E4934
:101C7000087005E00220FFF743FC00201A490870B5
:101C800026E000F0E1FF1548047021E000F0DCFFE1
:101C90000020FFF73FFC1148047019E000F0D4FF6A
:101CA0000120FFF737FC0D48047011E000F0CCFF75
:101CB0000020FFF72FFC0120FFF72CFC07480470E1
:101CC00006E000BFFFF76AFC0448047000E000BFB4
:101CD00000BF3046BDE8F087092600200826002016
:101CE00004790200087902001026002070B504462D
:101CF0002046FFF7CFFB0546032102F09AFF0020A4
:101D000070BD0246002901DA002003E013680B448D
:101D100013600120704710B5044620780221FFF7B8
:101D2000C5FC10BD30B58FB004460D461C2108A877
:101D3000FDF7D1FA00200790142102A8FDF7CBFA95
:101D40000020019000BF9DF81C0020F00F00401CF7
:101D50008DF81C009DF81C0020F0F00010308DF86C
:101D60001C0000BF00BF9DF81D0020F00F00401CAC
:101D70008DF81D009DF81D0020F0F00010308DF84A
:101D80001D0000BF9DF81E0020F00600801C8DF88D
:101D90001E009DF8200020F0200020308DF820004B
:101DA0009DF8200020F0080008308DF82000002069
:101DB00009900B900C9007A80D9000200E902078B1
:101DC0008DF802000320ADF8000000BF9DF804006C
:101DD00020F00F00401C8DF804009DF8040020F056
:101DE000F00010308DF8040000BF00BF9DF8050022
:101DF00020F00F00401C8DF805009DF8050020F034
:101E0000F00010308DF8050000BF9DF8060020F0AE
:101E10000600801C8DF806009DF8060020F00800E2
:101E20008DF806009DF8060020F0100010308DF8A7
:101E300006009DF8060020F00100401C8DF8060009
:101E4000CDF808D001A803900020ADF81000ADF83F
:101E500012001720ADF81400002006906088A31D22
:101E600002AA08A9A2DF0FB030BD0000F8B50546F0
:101E700012490320FFF726FD044600BF264626B17F
:101E800000BF3046FEF774FB00BF00BF694600206C
:101E9000FFF7A0FB044600BF264626B100BF304630
:101EA000FEF766FB00BF00BF9DF80000022801D1CD
:101EB000012000E000202870F8BD00007D1702001E
:101EC00030B502460B4602210EE08C0042FA04F4C3
:101ED00004F00F00092802DD00F1370401E000F1F1
:101EE0003004C1F101055C550C1EA1F10101ECD1DA
:101EF00030BD00004FF0FF31054A42F8201008289D
:101F000004DBFF23A0F10801503253547047000056
:101F10005C2C00200146024850F821007047000068
:101F20005C2C00202DE9F04F03460C464FF0FF39A2
:101F30000AB1002000E0082084460AB1082000E031
:101F40000C208046614624E0154850F82100401CD2
:101F5000F0B91D460846274616464FFA80FBDFF8C3
:101F600040A00AF1300A0AF805B0DFF834A04AF8B8
:101F700020704EB94FFA85FBA0F1080ADFF820E087
:101F80000EF1500E0EF80AB000BF4FFA81F902E0D0
:101F9000491C4145D8D300BF4846BDE8F08F00003A
:101FA0005C2C002001460148405670478C2C0020D4
:101FB00070B505460DB9094C01E0084C083409E03C
:101FC000204600F03BFE064606B904E0284671684C
:101FD000884700BFF4E700BF70BD0000502C002010
:101FE0002DE9F04782461F480068002836D01D487A
:101FF0000068056804F044F807461B480468214659
:10200000384604F049FCC61C1848007808B904F0AA
:1020100049F8AE4201D2284600E03046044424F09C
:102020007F44204604F026F804F02AF8804639461A
:10203000404604F031FC00F103093946204604F023
:102040002BFC814509D904F01BF8814604F012F8F5
:102050002F2002F047F804F06DFD01E004F040F895
:10206000BDE8F087782600207C2600208A26002004
:1020700001460888062808DB0888B0F5486F06DDA9
:1020800008884FF6FF72904201D0072070474888B9
:10209000062808DB4888B0F5486F06DD48884FF60B
:1020A000FF72904201D00720F0E708884FF6FF72D8
:1020B000904208D04888904205D008884A889042CB
:1020C00001DD0720E2E70020E0E72DE9F0410646C8
:1020D0000D46144698462088801D404502D90C20A4
:1020E000BDE8F0813046FFF7C3FF074600BF0FB1E0
:1020F0003846F5E700BF0520218868542088401C39
:1021000020801220218868542088401C208022884A
:102110005119308805F0B7FA2188084420802288B8
:102120005119708805F0AFFA2188084420800020FA
:10213000D6E710B5044600BF2046FEF719FA00BFE7
:1021400010BD000030B587B01C216846FDF7C3F80C
:10215000002000904FF4203001904FF47020029046
:1021600003208DF80C000020ADF80E008DF8100053
:1021700009480590094806906846FEF757FE044650
:1021800000BF254625B100BF2846FEF7F1F900BF84
:1021900000BF07B030BD0000F1550200332102003E
:1021A00038B51B4800F038FD20BB1A48007848B10C
:1021B00019484069E8B10020009017484169684615
:1021C000884716E01548007810B91348456801E0C3
:1021D000114885680022294611480068FEF754FA24
:1021E000044634B10C48806918B10B488169204617
:1021F000884709E00848406930B10120009006484E
:1022000041696846884700BF00200249087038BD10
:1022100058260020602600200C2C00205426002088
:102220009079020010B5012200210846FFF70CFB4F
:10223000044600BF1CB1072C01D0204610BD00BFD2
:10224000072202210120FFF7FFFA044600BF1CB15C
:10225000072C01D02046F1E700BF04220221002014
:10226000FFF7F2FA044600BF1CB1072C01D020464C
:10227000E4E700BF0020E1E77CB504460D460020FE
:1022800000900190A81D00EBC4008079ADF800001B
:10229000A81D00EBC4008079ADF802000022694659
:1022A00020468FDF06462EB13346224602490120E2
:1022B00002F065FF7CBD0000687D02002DE9F0475B
:1022C0008146002532E01C48006800EBC5042178F7
:1022D000012000FA01F619480068304020B3174881
:1022E0000068B04315490860207802F0A9F8074655
:1022F000217801208840124909680840217807FAAE
:1023000001F188420FD16078012800D100E000205F
:10231000784080F00108606820B108F0FF01207863
:102320006268904700BF00BF681CC5B205480078CE
:102330008542C8DBBDE8F0876426002074260020B3
:102340007026002068260020014614480078144AB0
:10235000127890421DD011480078401C0F4A10702E
:1023600010460078022801D1002010700D480B4A59
:10237000127850F8220008600B4A0868126810446E
:10238000094A10601046006820F07F40106001206C
:1023900070470020086000BFFAE700008826002090
:1023A00089260020802600207C26002038B504469F
:1023B000206930B10020009069462046226990478C
:1023C00000BF0120207538BD13480078062820D1B1
:1023D0001148001D007800F00F00D0B90E480830F9
:1023E000007800F0F000302801D1012070470A4841
:1023F0000830007800F0F000402801D10120F5E716
:1024000005480830007800F0F000502801D1012084
:10241000ECE70020EAE70000E00F00F01348007846
:10242000062820D11148001D007800F00F00D0B917
:102430000E480830007800F0F000302801D101206B
:1024400070470A480830007800F0F000402801D1B9
:102450000120F5E705480830007800F0F00050282A
:1024600001D10120ECE70020EAE70000E00F00F0D6
:1024700013480078062820D11148001D007800F08C
:102480000F00D0B90E480830007800F0F000302876
:1024900001D1012070470A480830007800F0F000B0
:1024A000402801D10120F5E705480830007800F008
:1024B000F000502801D10120ECE70020EAE70000FD
:1024C000E00F00F00A48007806280ED10848001DE9
:1024D000007800F00F0040B905480830007800F09F
:1024E000F000302801D1012070470020FCE70000F7
:1024F000E00F00F013480078062820D11148001D95
:10250000007800F00F00D0B90E480830007800F0D5
:10251000F000302801D1012070470A4808300078C7
:1025200000F0F000402801D10120F5E7054808300F
:10253000007800F0F000502801D10120ECE70020E5
:10254000EAE70000E00F00F00A48007806280ED104
:102550000848001D007800F00F0040B90548083019
:10256000007800F0F000302801D1012070470020F1
:10257000FCE70000E00F00F013480078062820D1A7
:102580001148001D007800F00F00D0B90E48083047
:10259000007800F0F000302801D1012070470A488F
:1025A0000830007800F0F000402801D10120F5E764
:1025B00005480830007800F0F000502801D10120D3
:1025C000ECE70020EAE70000E00F00F00A4800789E
:1025D00006280ED10848001D007800F00F0040B911
:1025E00005480830007800F0F000302801D10120C3
:1025F00070470020FCE70000E00F00F00A48007878
:1026000006280ED10848001D007800F00F0040B9E0
:1026100005480830007800F0F000302801D1012092
:1026200070470020FCE70000E00F00F00A48007847
:1026300006280ED10848001D007800F00F0040B9B0
:1026400005480830007800F0F000502801D1012042
:1026500070470020FCE70000E00F00F0F0B50346F3
:1026600000241FE0124E306806689E4203D90668B7
:10267000F61A06601AE006689B1B066834440026BA
:1026800006600B4E35680A4FC6693E60C66846B1A3
:102690000E1926F07F464660C66886601668C661D9
:1026A000156000BF024800680028DBD100BFF0BD04
:1026B0007826002070B504460D462A4600212046A3
:1026C00000F00EF8A068401CA06070BD01468A684A
:1026D000C868801A704701468A68C868801A7047BF
:1026E00010B583680B44848823400468E35C13704E
:1026F00010BDC26883881A4003689954C268521C8E
:10270000C260704730B504461088C01C984201D999
:102710000C2030BD0220158848551088401C1080C0
:102720000120158848551088401C108015884C558C
:102730001088401C10800020EBE708B5684600F0C8
:102740000FF8009808B1012008BD0020FCE770B523
:1027500004460D46E0B2FEF777F8204670BD000053
:10276000014609B9032070470248406E0860002006
:10277000F9E700002C2E00203EB500BF9DF80000B8
:1027800020F00F00401C00909DF8000020F0F000A9
:102790001030009000BF052214A168467CDF04467B
:1027A00000BF254625B100BF2846FDF7E1FE00BF6A
:1027B00000BF0020019002901020ADF804003C20E2
:1027C000ADF806000020ADF808004FF4C870ADF871
:1027D0000A0001A87ADF044600BF254625B100BFE4
:1027E0002846FDF7C5FE00BF00BF3EBD3132333481
:1027F0003500000070B505460C4660880A49098816
:1028000088420FD1208840F6772188420AD1A088DB
:10281000C01E0649088008460388028804A10320D8
:1028200002F0ADFC70BD0000F8250020FE25002060
:102830006D66726336333020202020203A494E46A0
:102840004F3A44617461206C656E20697320736532
:102850007420746F2030782558282564290D0A00CB
:1028600070B50E490E4801F00CFB044600BF25462A
:1028700025B100BF2846FDF77BFE00BF00BF402109
:10288000074801F0EFFA044600BF254625B100BF16
:102890002846FDF76DFE00BF00BF70BDF5270200A2
:1028A000002700202DE9F04105460F46012000FADF
:1028B00005F418480068FDF711FF06460EB1BDE8A3
:1028C000F081154800682040E0B9284601F0B8FDC5
:1028D00028B11248006820431049086004E00F48FE
:1028E0000068A0430D4908600B48006820430A496E
:1028F000086000220A48016806480068FDF7C4FE27
:10290000064604E004480068A0430349086000BF8D
:10291000D5E70000047A020074260020702600200B
:102920006C2600203EB505460C4600200090019024
:102930000290002300BF0CE0E85C00110DF81300CA
:10294000E85C00F00F015800401C0DF80010581C06
:10295000C3B2A342F0DB002307E01DF80300FCF73D
:102960003DFE0449C854581CC3B2B3EB440FF4DB1A
:1029700000483EBD4C2B002038B505460C460020D3
:102980000090002300BF0CE0E85C00110DF813007C
:10299000E85C00F00F015800401C0DF80010581CB6
:1029A000C3B2A342F0DB002307E01DF80300FCF7ED
:1029B00015FE0449C854581CC3B2B3EB440FF4DBF2
:1029C000004838BD28260020F8B52748007800B90F
:1029D000F8BD00252548006808B9012000E0002066
:1029E000064600BFDDB92248007800B1F0E768462E
:1029F00048DF0446052C01D101250FE024B100BFBA
:102A00002046FDF7B5FD09E0009801F005FC1948E6
:102A1000006818B1174900980968884700BFDEB9F7
:102A20001348007800B1D3E7134800880090694646
:102A30001248006861DF0446052C01D101260AE036
:102A400024B100BF2046FDF793FD04E00B48006869
:102A500006490968884700BF0DB106B100E0C1E72B
:102A600000BF00BFB4E70000B8260020C426002045
:102A7000B9260020B4260020C0260020BC26002055
:102A800030B50C490A68002010E001218140114056
:102A900059B141B201F01F040123A340054C803419
:102AA0004D0944F8253000BF00BF401C2028ECD35E
:102AB00030BD000000E100E070B504460D4620790D
:102AC0001D4901EB4010007FF8B14FF48871206878
:102AD00002F0F3FB4FF49071206802F0EEFB4FF42C
:102AE0009271206802F0E9FB4FF4A271206802F0B5
:102AF000E4FB1249206802F0F0FB206801F0D7FBEC
:102B00000646294601F09EFB14E04FF48E712068C2
:102B100002F0A3FB4FF4A271206802F09EFB08496B
:102B2000206802F0A9FB206801F0C1FB0646294697
:102B300001F088FB70BD0000B42C002010030200DF
:102B4000800002007FB505460C4694F8210094F8F9
:102B50002010CDE9001004F12602D11E2846E369B9
:102B600004F02BF900B17FBD94F8230048BB207B13
:102B7000022802D0207B032823D1E1692069814209
:102B80001FD16069E061E07B84F82000207EC0F303
:102B9000401084F82100207B03280AD194F82100FA
:102BA000009094F8203029462046E26904F098F914
:102BB00030E094F8203029462046E26904F064F8B9
:102BC00028E0D4E90412E06801AB07C394F82300BD
:102BD00088B1284602F014FB064606F0020018B140
:102BE00001208DF8000005E006F0040010B102207D
:102BF0008DF8000002E000208DF80000002084F82D
:102C00002400207E00F0040018B96846D4E90021B1
:102C1000904700BF00BFA6E701464888064A1288D1
:102C2000904206DB4888044A5288904201DC012029
:102C300070470020FCE700004C2600200146086891
:102C400008B102680A60704710B50848007850B1B2
:102C5000002405E0022C02D02046FEF751FC641C43
:102C6000042CF7D301E0FEF78FFC10BD10260020E6
:102C700010B504460448007800F0010018B103487C
:102C80000078FEF775FE10BD0C26002008260020F7
:102C90009E21018017214180002101714171A221F3
:102CA00081711B21C17170472DE9F0410646002753
:102CB0004748D0F8008078E016B13446E66947E02E
:102CC0004448007800EB40014248001D00EBC1057C
:102CD000001F0078401C3F4908700846007889783A
:102CE000884202D100203B4908706C68287801288E
:102CF0001AD0022802D0032817D107E0686803F031
:102D000039FE00B10127002020744EE007E0304971
:102D10000868002101742E4AC169116000BF2C4867
:102D200000680028F3D140E000E03EE000BF207CD6
:102D300000B13AE0A8686060E868A0602869E060D7
:102D40006869A0612448007808B10020606000BF75
:102D5000224960680968401A20F07F402049884273
:102D600008D21E496068096803F096FDA16808440E
:102D700020600FE019486168006803F08DFD05468A
:102D8000A068A84203D9A068401B206001E0002091
:102D9000206000BF00206060A0600120207400203F
:102DA000E061204603F0B2FD00BF002E84D1094847
:102DB0000078084949788842F8D11FB9044800686A
:102DC000404502D00120BDE8F0810020FBE7000073
:102DD00078260020F42C00208B2600207C26002062
:102DE000FFFF7F0070B5002002F0F4F9044600BF39
:102DF000254625B100BF2846FDF7BAFB00BF00BF3E
:102E000070BD000086B0FDF711FC044600BF2546EA
:102E100025B100BF2846FDF7ABFB00BF00BF04F0A3
:102E2000D7FAFFF7DFFF05A8FFF720F8FEF748FA0B
:102E3000FFF7A2FCFFF714FD03F03AFBFDF7AAFA37
:102E4000FFF780F900F02EFF002000F06AF8032061
:102E5000FDF734FF044600BF254625B100BF2846D4
:102E6000FDF786FB00BF00BF14220C496846FCF743
:102E700019FA6846FCF746FA85B22A4669460848B8
:102E8000FEF7E1F900BF00F0CBF84FF4FA7001F063
:102E900087F804A0FCF7BEFEF5E70000E878020022
:102EA000CC2600200D0A0D0A000000002DE9F0419B
:102EB00005460E4614469846A888871C2088801C24
:102EC0003844404502D90C20BDE8F081FE2F01D9DD
:102ED0000C20F9E7781C218870542088401C208041
:102EE000FF20218870542088401C2080228891195E
:102EF000288804F0C8FB218808442080A88800287E
:102F00000DDDA86808B90720DEE7AA88238898198C
:102F1000A968FCF7C7F92088A98808442080002008
:102F2000D2E710B504460021204600F001F810BD9C
:102F300030B585B005460C4635B1012D14D0022DB3
:102F400022D0032D40D12FE0142221A16846FCF7A6
:102F5000A9F9C4F11203DAB20DEB040104F128035C
:102F6000D8B200F001FF2FE014221EA16846FCF742
:102F700099F9C4F11203DAB20DEB040104F128034C
:102F8000D8B200F0F1FE1FE014221BA16846FCF746
:102F900089F9C4F11203DAB20DEB040104F128033C
:102FA000D8B200F0E1FE0FE0142218A16846FCF749
:102FB00079F9C4F11203DAB20DEB040104F128032C
:102FC000D8B200F0D1FE00BF00BF05B030BD000098
:102FD0008A08211A18180F2700C012CF0004903257
:102FE000120A00008E12110618180F1000C012CF1E
:102FF0000005903F120200008E12110618180F08EB
:1030000000C012CF0006903F120A00008FDB1106AD
:1030100018180F0200C012CF0007903F12020000E4
:1030200070B58CB000F096F80546002D2ED000202B
:10303000089009900A900BA908A800F079F90446B5
:10304000D4B105AE214608A8FFF76CFC0646142251
:1030500011496846FCF726F931466846FCF746F9FF
:1030600069460EA0FCF7D6FD142269461048FEF70B
:10307000EAF801200CB070BD0E49032002F069F897
:103080000D49032002F065F80020F3E70BA10320AF
:1030900002F05FF80020EDE7D47802007569645F04
:1030A0007374725F70203D2025730D0A00000000CC
:1030B000CC260020687B0200207B02006D667263D4
:1030C00036333020202020203A494E464F3A4E6F6A
:1030D00020616E7377657220746F20524551412CC8
:1030E000206E6F2063617264733F0D0A0000000060
:1030F00010B57F21062000F0FDFD10BD10B57F2129
:10310000072000F0F7FD10BD10B50021084600F0C3
:10311000F1FD10BD70B504460D46FFF7F5FF00F058
:1031200009F82946204600F0D7FD0721002000F0CD
:10313000E1FD70BD10B51021022000F0DBFD10BDD7
:1031400010B5062000F038FD10BD10B5072000F0C6
:1031500033FD10BD10B5262000F002F810BD0000B0
:103160002DE9FC410646FFF7CFFFFFF7E3FF0F21F4
:103170002E2000F0BFFD18212C2000F0BBFD1821EF
:103180002D2000F0B7FD00210C2000F0B3FD0196CA
:10319000FFF7AEFFFFF7B2FF0621082000F0AAFDFF
:1031A0000121092000F0A6FD00271121384600F07A
:1031B00049FD4FF47A71384600F04FFD4FF47A71B3
:1031C000384600F05CFD012101A8FFF7A3FF21A113
:1031D000032001F0BEFF00240AE0FFF7B6FF04461B
:1031E00004F0400020B124A1032001F0B2FF04E06C
:1031F0000120B84020400028EFD000BF2AA10320C2
:1032000001F0A7FFFFF780FF0025FFF799FF0546B4
:1032100005F0040010B105F0020040B12B46224633
:103220002DA1032001F0ABFF0020BDE8FC810221AD
:10323000684600F077FC35A1032001F08AFF0221E7
:10324000684600F05DFC39A0FCF7E4FCBDF8000026
:10325000EBE700006D6672633633302020202020BB
:103260003A494E464F3A53656E64696E672052453F
:1032700051410D0A000000006D6672633633302044
:10328000202020203A494E464F3A6569746865729D
:10329000204552525F495251206F722052585F4967
:1032A00052510D0A000000006D6672633633302003
:1032B000202020203A494E464F3A416674657220DC
:1032C00077616974696E6720666F7220616E7377CB
:1032D00065720D0A000000006D667263363330209F
:1032E000202020203A494E464F3A4E6F2052582C0B
:1032F00020697271313A20256868782069727130CE
:103300003A20256868780D0A000000006D66726337
:1033100036333020202020203A494E464F3A41543F
:10332000514120616E737765723A20000D0A0000EA
:103330002DE9F34F93B08146FFF7E6FEFFF7FAFE63
:10334000FAA1032001F005FF0621082000F0D2FCBD
:103350000121092000F0CEFC0020129011211298CA
:1033600000F070FC4FF47A71129800F076FC4FF484
:103370007A71129800F083FC012700BF93E30020CC
:10338000119000240F9010900DF13E06012F04D0F3
:10339000022F05D0032F09D105E09320119005E0FD
:1033A0009520119002E09720119000BF00BF1821D6
:1033B0002C2000F09FFC18212D2000F09BFC4FF0EA
:1033C000000B50E15B463A46E1A10320009401F076
:1033D000E6FEFFF78DFEFFF791FE11988DF83C0099
:1033E00004F12000C0B28DF83D002546E01704EB43
:1033F0005070C010A4EBC000C0B240F008012E20F5
:1034000000F078FC2046E11704EB5171C910A4EBE1
:10341000C101C9B20591DEA10320059A01F0A3FE06
:103420000022059842EA0010C1B20C2000F062FCB4
:10343000E11704EB5171C910A4EBC10141B9204659
:10344000E11704EB5171C910891CC9B20E9107E054
:103450002046E11704EB5171C910C91CC9B20E9185
:10346000D7A103200E9A01F07EFE0FA80E99FFF758
:1034700051FE0020049007E0FFF767FE04900498D7
:1034800000F0400000B107E00121129801FA00F0BD
:10349000049908400028EFD000BFFFF735FEFFF782
:1034A0004FFE03900A2000F087FB02900D2000F0F1
:1034B00083FB0190CCA10320039A01F054FED2A11A
:1034C0000320029A01F04FFE4FF0000A039800F02B
:1034D0000200002861D0029800F00400002851D0BA
:1034E000019800F08000002843D0019820F0800A65
:1034F0005246CDA1032001F036FE04EB0A00C5B20E
:103500007A1E02EB42025119CA1701EB5272D21015
:1035100019F802202846EB1705EB5373DB10A5EBD7
:10352000C3031A4102F001020092EA1705EB52723E
:10353000D210B25C2946EB1705EB5373DB10A5EBF9
:10354000C30C009B03FA0CF31A43EB1705EB537300
:10355000DB10F254601CC4B22246BDA1032001F06E
:1035600002FE0A21304600F0CBFAA6A0FCF752FB7F
:1035700025E0C4A1032001F0ECFDC4F1200000F01F
:10358000FF0A1CE05346CC490320029A01F0F7FDE4
:10359000C4F1200000F0FF0A11E0039800F00400DD
:1035A00048B1C4F1200000F0FF0A5246C3A1032035
:1035B00001F0D9FD03E0002015B0BDE8F08F5246C0
:1035C000CEA1032001F0CFFD05210CA800F0AAFA3E
:1035D0002246D4A1032001F0C6FDE51DE81705EB46
:1035E0005070C0F3CF01304600F08AFA85A0FCF796
:1035F00011FB4FF0000814E0E11704EB517108EBE8
:10360000E101715C0CAA12F8082011432046E21770
:1036100004EB527208EBE202B15408F1010000F031
:10362000FF08B8F1050FE7DB04EB0A00C4B222463D
:10363000C8A1032001F097FD202C10DBCFA10320AF
:1036400001F087FD2246B7A1032001F08CFD0A217D
:10365000304600F055FA6BA0FCF7DCFA07E00BF1FE
:10366000010000F0FF0BBBF1200FFFF6ABAE00BF77
:1036700030790B90307871784840B1784840F178D3
:1036800048400A90DDE90A1088420ED00C98C9F82B
:1036900000009DF8340089F80400C2490320DDE9E8
:1036A0000A3201F06CFD002086E7FFF721FDFFF7ED
:1036B00025FD11988DF83C0070208DF83D000A988A
:1036C0008DF8420007200E9019212C2000F012FBEB
:1036D00019212D2000F00EFB2546E01704EB507059
:1036E000C010A4EBC000C0B240F008012E2000F0D2
:1036F00001FB002009900022099842EA00110C20E9
:1037000000F0F8FA0FA80E99FFF704FDA6A1032018
:103710000E9A01F028FD0FA80E9900F0F1F939A0DA
:10372000FCF778FA002008905AE100006D66726399
:1037300036333020202020203A494E464F3A5374E9
:10374000617274696E672073656C6563740D0A003D
:103750006D66726336333020202020203A494E4671
:103760004F3A434C3A20256868642C20636F6C6C98
:10377000206C6F6F703A20256868642C206B622083
:1037800025686864206C6F6E673A200D0A0000009F
:103790006D66726336333020202020203A494E4631
:1037A0004F3A53657474696E6720727820616C6952
:1037B000676E20746F3A20256868640D0A00000067
:1037C0006D66726336333020202020203A494E4601
:1037D0004F3A53656E643A25686864206C6F6E6773
:1037E0003A200D0A000000006D6672633633302007
:1037F000202020203A494E464F3A697271303A20D3
:10380000256868580D0A00006D66726336333020F3
:10381000202020203A494E464F3A6572726F723A24
:1038200020256868580D0A006D66726336333020B3
:10383000202020203A494E464F3A436F6C6C697302
:10384000696F6E20617420256868580D0A000000B9
:103850006D66726336333020202020203A494E4670
:103860004F3A7569645F746869735F6C6576656CFF
:10387000206E6F77206B622025686864206C6F6E05
:10388000673A20006D667263363330202020202096
:103890003A494E464F3A436F6C6C6973696F6E20BC
:1038A000627574206E6F2076616C696420636F6C42
:1038B0006C706F732E0D0A00007C02006D667263DF
:1038C00036333020202020203A494E464F3A476F69
:1038D0007420646174612C206E6F20636F6C6C695E
:1038E00073696F6E2C2073657474696E6720746FD2
:1038F0003A20256868780D0A000000006D66726342
:1039000036333020202020203A494E464F3A636F0C
:103910006C6C6973696F6E5F706F733A20256868AD
:10392000580D0A006D667263363330202020202047
:103930003A494E464F3A7569645F746869735F6CC3
:103940006576656C206B622025686864206C6F6EFC
:10395000673A20006D6672633633302020202020C5
:103960003A494E464F3A6B6E6F776E5F6269747379
:103970003A20256868580D0A000000006D667263E1
:1039800036333020202020203A494E464F3A657881
:10399000697420636F6C6C6973696F6E206C6F6FF4
:1039A000700D0A00B47B02006D66726336333020FE
:1039B000202020203A494E464F3A73656E645F726C
:1039C00065712025686864206C6F6E673A2000007E
:1039D000FFF7BBFB0890089800F0400000B107E03B
:1039E0000121129801FA00F0089908400028EFD050
:1039F00000BFFFF789FBFFF7A3FB0790079800F0D4
:103A0000020048B10A2000F0D7F8054605F004008E
:103A100008B10020D0E500BF012006900699149857
:103A200000F080F822A1032001F093FB01211498FB
:103A300000F066F8AFF23420FCF7ECF81498007848
:103A400000F0040070B1002009E0411C725C791E96
:103A500001EB4101014409F80120411CC8B20328CF
:103A6000F3DB11E0002108E0725C781E00EB4000FF
:103A7000084409F80020481CC1B20429F4DB07EB14
:103A80004700401CC0B297E53A4611A1032001F05F
:103A90006AFB0A21484600F033F8AFF29820FCF7A1
:103AA000B9F8781CC7B2032F7FF769AC002083E513
:103AB0006D66726336333020202020203A494E460E
:103AC0004F3A53414B20616E737765723A20000084
:103AD0006D66726336333020202020203A494E46EE
:103AE0004F3A45786974206361736361646520258A
:103AF000686864206C6F6E673A200D0A0000000051
:103B000070B505460E46002405E0295D03A0FCF7CC
:103B100081F8601C84B2B442F7DB70BD25303258A6
:103B2000200000007CB505460E46144800F0D6FC87
:103B300013A0006801900120034601AA29210090EA
:103B40000E4800F03FFD04462CB1234605220DA18E
:103B5000012001F014FBF3B22A462921074800F0A6
:103B60001BFD04462CB12346052206A1012001F0CD
:103B700006FB024800F0B2FC7CBD00006879020040
:103B8000050000006D66726336333020202020204F
:103B90003A4552524F523A4D4652433633303A200C
:103BA000726561643A2025303278206572726F72D6
:103BB0002025640A000000003EB50446134800F0CA
:103BC0008DFC01940120034601AA292100900F4891
:103BD00000F0F8FC05462DB12B4622460CA1012031
:103BE00001F0CDFA022302AA2921084800F0D4FCF2
:103BF00005462DB12B46224605A1012001F0BFFA52
:103C0000024800F06BFC9DF808003EBD6879020098
:103C10006D66726336333020202020203A455252A0
:103C20004F523A4D4652433633303A207265616402
:103C30003A2025303278206572726F722025640A2E
:103C40000000000070B504460D4604EB84010F31FE
:103C5000C8B2294600F04EF870BD70B504460D4656
:103C6000291204EB84021032D0B200F043F804EBC6
:103C700084011131C8B2FF2100F03CF870BD70B56D
:103C800004460D46291204EB84021232D0B200F031
:103C900031F804EB84011331C8B2FF2100F02AF897
:103CA00070BD00001FB50A4B0FCB8DE80F0000233D
:103CB0001A466946074800F023FC044614B1204622
:103CC00004B010BD034800F009FC0020F8E7000034
:103CD000707902006879020070B505460E4600242E
:103CE00005E0295D052000F005F8601CC4B2B4426F
:103CF000F7DB70BD7CB504460D468DF804408DF8A9
:103D000005500B4800F0EAFB0020022301AA2921FC
:103D10000090074800F056FC06462EB13346224676
:103D200004A1012001F02BFA014800F0D7FB7CBD73
:103D3000687902006D6672633633302020202020BF
:103D40003A4552524F523A4D4652433633303A205A
:103D500077726974653A2025303278206572726F07
:103D6000722025640A0000002DE9F04105460E4648
:103D70001746002406E0315D2A19D0B2FFF7BAFFDA
:103D8000601CC4B2BC42F6DBBDE8F0812DE9F84FFF
:103D900005460F46144698462878012804D16878CD
:103DA00010B90720BDE8F88F2088801C404508D84E
:103DB0002878012807D12088801C6978084440456C
:103DC00001D90C20EEE72088A8EB0000801E86B207
:103DD00000962188891CC81969467DDF814600BF8D
:103DE000B9F1000F01D04846DCE700BF287802286F
:103DF00006D1BDF80000B04202DC4FF0090A0BE02A
:103E00004FF0080A2878012805D16878B04202DC12
:103E10006878009000E00096BDF80000FE2801D907
:103E20000C20BFE7BDF80000401C21887854208892
:103E3000401C2080208807F800A02088401C20809B
:103E40002088BDF80010084420800020AAE730B583
:103E500002460B46D40802F00702012090401D5D87
:103E6000284030BD024600BF0AB90E20704700BF8F
:103E7000172901DB9E2901DD0720F7E711800020CB
:103E8000F4E770B504460E4600BF0CB90E2070BDB5
:103E900000BFA6619E2020806080A22020710025A6
:103EA00005E0A11D01EBC500FEF7F2FE6D1C022D21
:103EB000F7D30020EBE700002DE9F04105460E4660
:103EC000B488022C01DBBDE8F0813088222820D0A4
:103ED00006DC102809D011280CD0212823D11DE0A0
:103EE0003A280CD055281ED10EE03146284601F064
:103EF000CFFB19E03146284601F0FCFC14E03146C6
:103F0000284601F041FD0FE03146284601F0FCFC57
:103F10000AE03146284601F04DFC05E031462846CE
:103F200001F072FC00E000BF00BFA81D00EBC40060
:103F30000079C8B1A81D30F8341020469EDF07462E
:103F400057B90021A81D00EBC40001710121A81D73
:103F500000EBC400417106E0112F04D03A4603493A
:103F6000012001F000F900BF00BFACE7547C020063
:103F700001464FF08040405808B1012070470020B2
:103F8000FCE708B500224FF080410A500958009123
:103F900000BF08BD014908607047000008030040E9
:103FA00010B504464FF47A7104FB01F000F002F8FA
:103FB00010BD000000B9704700BF00BF00BF00BFC8
:103FC00000BF00BF00BF00BF00BF1E4909681E4AF6
:103FD000914200D130E000BF00BF00BF00BF00BF72
:103FE00000BF00BF00BF00BF00BF00BF00BF00BFD9
:103FF00000BF00BF00BF00BF00BF00BF00BF00BFC9
:1040000000BF00BF00BF00BF00BF00BF00BF00BFB8
:1040100000BF00BF00BF00BF00BF00BF00BF00BFA8
:1040200000BF00BF00BF00BF00BF00BF00BF00BF98
:1040300000BF00BF00BF00BF401E00D0BDE700BFF3
:10404000B9E70000C82600200024F40000B970473A
:1040500000BF00BF00BF00BF00BF00BF00BF00BF68
:1040600000BF1E4909681E4A914200D130E000BFDE
:1040700000BF00BF00BF00BF00BF00BF00BF00BF48
:1040800000BF00BF00BF00BF00BF00BF00BF00BF38
:1040900000BF00BF00BF00BF00BF00BF00BF00BF28
:1040A00000BF00BF00BF00BF00BF00BF00BF00BF18
:1040B00000BF00BF00BF00BF00BF00BF00BF00BF08
:1040C00000BF00BF00BF00BF00BF00BF00BF00BFF8
:1040D000401E00D0BDE700BFB9E70000C8260020A1
:1040E0000024F40000B9704700BF00BF00BF00BF4C
:1040F00000BF00BF00BF00BF00BF1E4909681E4AC5
:10410000914200D130E000BF00BF00BF00BF00BF40
:1041100000BF00BF00BF00BF00BF00BF00BF00BFA7
:1041200000BF00BF00BF00BF00BF00BF00BF00BF97
:1041300000BF00BF00BF00BF00BF00BF00BF00BF87
:1041400000BF00BF00BF00BF00BF00BF00BF00BF77
:1041500000BF00BF00BF00BF00BF00BF00BF00BF67
:1041600000BF00BF00BF00BF401E00D0BDE700BFC2
:10417000B9E70000C82600200024F40010B5002490
:104180001648007808B1852425E00020134988608E
:1041900048600861C86000BF00BF4109890001F1A3
:1041A000E021D1F8001101228240114009B1012122
:1041B00000E0002119B90721002000F043F800BFFA
:1041C00002F04AFB20B901200549086000BF00BF8A
:1041D000012002490870204610BD0000482C002034
:1041E0001805004008B5002000906846FCF74CFB1D
:1041F0000848007808B9FFF7C1FF0648C068401CAE
:104200000449C860012088709DF80000FCF742FB5B
:1042100008BD0000482C002010B5044614B9002049
:10422000FDF7C6FE10BD000000BF00F01F02012117
:104230009140034A430942F8231000BF7047000031
:1042400080E100E070B50B4601461A46002907DA06
:104250005407260E104C01F00F052D1F665503E084
:104260005407250E0D4C655400BF00BF00F01F021F
:10427000012191400A4A440942F8241000BF00BFBE
:1042800000F01F02012191404209920002F1E02258
:10429000C2F8001100BF70BD18ED00E000E400E0BE
:1042A00080E200E00146C1F3073250B27047014698
:1042B000C1F3073250B270472DE9F04706460D466C
:1042C000304601F07DFCE0B13046FDF76BFE08386A
:1042D00022490F5CBC11032C08D1304600F0E6FCEB
:1042E00008B1032000E00220804605E0012C01D146
:1042F000022000E0032080464146304600F0B2FC38
:104300002AE0304601F068FC30B33046FDF74AFE43
:104310000446A00000F5807087B22046104951F88D
:10432000201041F001020E4941F8202000BF38461C
:1043300000F016FD7DB13046FDF734FE8146FDF7F5
:10434000E9FD8046B8F1000F04D0012101FA04F024
:1043500000F020FD00BF00BFBDE8F087AC2C0020BE
:10436000106500402DE9FC4704460E4617464FF005
:104370000008204601F016FC10B14FF0080855E087
:10438000F27839462046FDF7CDFD0546681C002829
:1043900049D0B07880B100BF00BF4FF0A0421046B6
:1043A00000F5E06252F8242022F0020100F5E062FC
:1043B00042F8241000BF0CE096F801900020009015
:1043C0004B46024601460190204600F0E5FB00BF47
:1043D00000BFF078D0B13078164951F82510164A50
:1043E0001140144A42F82510114651F825104FF497
:1043F000F85202EA04224FF4403303EA00431A431E
:1044000011430C4A42F8251000BF0EE0A5F1080048
:104410000A49085C317840EA811042B2A5F10800EF
:1044200006490A5401E04FF0040800BF4046BDE8C9
:10443000FC87000010650040FFE0FCFFAC2C002072
:1044400010B50446204600F031FC08B1012010BD33
:104450000020FCE770B5164890F8540010B108250C
:10446000284670BD002404E0204601F0C5FB601C16
:10447000C4B2202CF8DB002404E02046FDF73AFD0E
:10448000601CC4B20C2CF8DB07210620FFF7DAFE13
:104490004FF4BE7000F064FC4FF0004000F07AFC76
:1044A0000120034981F8540000252846D9E700007F
:1044B0005C2C0020034890F8540008B1012070479C
:1044C0000020FCE75C2C0020014601F06040B0F1C8
:1044D000005F01D1012070470020FCE7027902EB68
:1044E0008202064B03EBC201026800BF0523C2F83B
:1044F000003500BF022281F822207047FC2A0020EC
:104500002DE9F04706460C4690469946307900EB77
:1045100080001F4901EBC00595F8220018B108275B
:104520003846BDE8F087083545F8088C45F8049C06
:104530000020286068772877A07BE877083D607BBB
:1045400010B1204602F01CFB40F20C6111482268B9
:1045500040F82210626840F822103068D4E9001256
:10456000C0F80815C0F80C2500BFA168C0F82415D4
:1045700000BF286830B13068FFF794FE8246217B87
:10458000FFF760FE012085F8220000273846C8E7C3
:10459000FC2A002000070050FEB507460C461546D1
:1045A0001E46074A07CA8DE807008DF801408DF8BE
:1045B0000260019500226946384600F021F8FEBDF0
:1045C0005C7902002DE9FE4307460C4615461E465F
:1045D000DDF8288000200090019002908DF80140C5
:1045E0008DF802600195B8F1000F01D0202000E0A5
:1045F000002002466946384600F002F8BDE8FE8316
:104600002DE9F04104460E4615460027207900EBBF
:104610008000094901EBC00805F0030018B1062726
:104620003846BDE8F0812B4632464046216802F00C
:10463000CFFC07463846F4E7FC2A00202DE9F0417C
:1046400005460E46174628791C4901EB40144FF0E9
:104650000008E07E20B14FF008084046BDE8F08138
:10466000707F207731462846FCF762F96760306931
:104670002060606818B1317F2846FEF71DFA00BF40
:1046800028790E4901EB4010007F28B128680821E5
:10469000C0F8001500BF05E028680421C0F8001527
:1046A00000BF00BF00BF0020E0752076A07501208C
:1046B000E0760020A0764046D0E70000B42C002031
:1046C0002DE9F04704460E4617462079304901EBA4
:1046D0004015207901EB4010007F40B13046FFF7D4
:1046E000F3FE20B94FF010084046BDE8F0874FF0C8
:1046F0000009686880B12079254901EB4010007FEE
:1047000028B14FF40471206800F0E4FD04E04FF498
:104710000171206800F0ADFDE87DD0B1287EB0B118
:10472000686880B120791A4901EB4010007F28B1F8
:104730004FF40471206800F0D0FD04E04FF40171E3
:10474000206800F099FD4FF011084046CDE74FF08A
:104750000109B9F1000F05D1EF75EE600020687610
:10476000287601E02E612F762079094901EB40106F
:10477000007F30B14B463A463146204600F08AF879
:10478000B3E74B463A463146204600F01DF8ACE709
:10479000B42C002010B5044620790A4901EB4010E2
:1047A000007F68B9207901EB4010807E40B9204637
:1047B00001F067FD01202179024A02EB4111887660
:1047C00010BD0000B42C00202DE9F05F04468B469C
:1047D000994620792E4901EB4015A87E28B9B9F1F8
:1047E000000F02D1204601F04CFD6868002846D138
:1047F0004FF4A271206800F030FD00BF00BF4FF4FD
:104800009271206800F022FD80464FF48471206888
:1048100000F01CFD82464FF4A271206800F016FDE6
:104820000646BAF1000F03D116B9B8F1000FE6D071
:10483000B8F1000F00D106B107E02946206801F069
:104840007BFCE87D697E8842D8DC00BF0020E875EB
:10485000B8F1000F03D003273846BDE8F09F16B12A
:104860000F273846F9E7A87E20B10021206800F024
:104870000FFD03E00421206800F00AFD04E04FF47E
:104880000171206800F0F8FC00273846E5E70000D9
:10489000B42C00202DE9F05F04460D4616469946DB
:1048A0004FF0000A4FF48871206800F006FD4FF4C5
:1048B000A271206800F001FD2068C0F834554FF463
:1048C000A7610E5000BFB9F1000F04D1002120688C
:1048D00000F00BFD08E020212068D0F800220A43F8
:1048E000C0F8002200BF00BF20791B4901EB401037
:1048F000406848BB00BF4FF48871206800F0D6FCC8
:1049000083464FF4A271206800F0D0FC80464FF43B
:104910009271206800F0CAFC0746BBF1000F04D179
:10492000B8F1000F01D1002FE5D0002021790A4A0B
:1049300002EB4111C8750FB14FF0030AB8F1000F37
:1049400001D04FF00F0A04E04FF40471206800F02A
:10495000C4FC5046BDE8F09FB42C00202DE9F04186
:1049600004460D4690462079144901EB4016207903
:1049700001EB4010007F38B12846FFF7A5FD18B9BC
:1049800010273846BDE8F081204600F09DF810B1B0
:1049900011273846F6E786F81680B5600020B08209
:1049A0002079064901EB4010007F18B1204600F045
:1049B0004DF8E7E7204600F003F8E3E7B42C0020C9
:1049C00070B504462079204901EB401500264FF4CC
:1049D0008E71206800F041FC0821206800F058FC2E
:1049E0002946206802F054FB686858BB12E000BFFB
:1049F0004FF48E71206800F029FC18B9A88AB0F530
:104A0000807FF5D1A88AB0F5807F03D02946206841
:104A100002F03EFBA88AA97D8842E8DBA88AB0F5AF
:104A2000807F01D10F260BE000BF4FF48E7120680C
:104A300000F00CFC0028F8D00C21206800F028FCC5
:104A40000020A875304670BDB42C00202DE9F0413F
:104A5000044620791B4901EB40154FF000084FF444
:104A60009071206800F029FC4FF4AC71206800F0D0
:104A700024FC2068AA7DA968C0F844154FF4A963F6
:104A80001A5000BF0821206800F02FFC6868A8B900
:104A900000BF4FF49071206800F008FC07464FF407
:104AA000AC71206800F002FC06460FB9002EF0D071
:104AB0000EB14FF00F080020A87500BF4046BDE8BA
:104AC000F0810000B42C002001460879044A02EB72
